{
  "_format": "hh-sol-artifact-1",
  "contractName": "NurseRaid",
  "sourceName": "contracts/NurseRaid.sol",
  "abi": [
    {
      "inputs": [
        {
          "internalType": "address",
          "name": "maidAddr",
          "type": "address"
        },
        {
          "internalType": "address",
          "name": "maidCoinAddr",
          "type": "address"
        },
        {
          "internalType": "address",
          "name": "nursePartAddr",
          "type": "address"
        },
        {
          "internalType": "address",
          "name": "rngAddr",
          "type": "address"
        }
      ],
      "stateMutability": "nonpayable",
      "type": "constructor"
    },
    {
      "anonymous": false,
      "inputs": [
        {
          "indexed": false,
          "internalType": "uint256",
          "name": "value",
          "type": "uint256"
        }
      ],
      "name": "ChangeMaidPowerToRaidReducedBlock",
      "type": "event"
    },
    {
      "anonymous": false,
      "inputs": [
        {
          "indexed": true,
          "internalType": "uint256",
          "name": "id",
          "type": "uint256"
        },
        {
          "indexed": false,
          "internalType": "uint256",
          "name": "entranceFee",
          "type": "uint256"
        },
        {
          "indexed": true,
          "internalType": "uint256",
          "name": "nursePart",
          "type": "uint256"
        },
        {
          "indexed": false,
          "internalType": "uint256",
          "name": "maxRewardCount",
          "type": "uint256"
        },
        {
          "indexed": false,
          "internalType": "uint256",
          "name": "duration",
          "type": "uint256"
        },
        {
          "indexed": false,
          "internalType": "uint256",
          "name": "endBlock",
          "type": "uint256"
        }
      ],
      "name": "Create",
      "type": "event"
    },
    {
      "anonymous": false,
      "inputs": [
        {
          "indexed": true,
          "internalType": "address",
          "name": "challenger",
          "type": "address"
        },
        {
          "indexed": true,
          "internalType": "uint256",
          "name": "id",
          "type": "uint256"
        },
        {
          "indexed": true,
          "internalType": "uint256",
          "name": "maid",
          "type": "uint256"
        }
      ],
      "name": "Enter",
      "type": "event"
    },
    {
      "anonymous": false,
      "inputs": [
        {
          "indexed": true,
          "internalType": "address",
          "name": "challenger",
          "type": "address"
        },
        {
          "indexed": true,
          "internalType": "uint256",
          "name": "id",
          "type": "uint256"
        }
      ],
      "name": "Exit",
      "type": "event"
    },
    {
      "anonymous": false,
      "inputs": [
        {
          "indexed": true,
          "internalType": "address",
          "name": "previousOwner",
          "type": "address"
        },
        {
          "indexed": true,
          "internalType": "address",
          "name": "newOwner",
          "type": "address"
        }
      ],
      "name": "OwnershipTransferred",
      "type": "event"
    },
    {
      "inputs": [
        {
          "internalType": "uint256",
          "name": "",
          "type": "uint256"
        },
        {
          "internalType": "address",
          "name": "",
          "type": "address"
        }
      ],
      "name": "challengers",
      "outputs": [
        {
          "internalType": "uint256",
          "name": "enterBlock",
          "type": "uint256"
        },
        {
          "internalType": "uint256",
          "name": "maid",
          "type": "uint256"
        }
      ],
      "stateMutability": "view",
      "type": "function"
    },
    {
      "inputs": [
        {
          "internalType": "uint256",
          "name": "value",
          "type": "uint256"
        }
      ],
      "name": "changeMaidPowerToRaidReducedBlock",
      "outputs": [],
      "stateMutability": "nonpayable",
      "type": "function"
    },
    {
      "inputs": [
        {
          "internalType": "address",
          "name": "addr",
          "type": "address"
        }
      ],
      "name": "changeRNG",
      "outputs": [],
      "stateMutability": "nonpayable",
      "type": "function"
    },
    {
      "inputs": [
        {
          "internalType": "uint256",
          "name": "id",
          "type": "uint256"
        }
      ],
      "name": "checkDone",
      "outputs": [
        {
          "internalType": "bool",
          "name": "",
          "type": "bool"
        }
      ],
      "stateMutability": "view",
      "type": "function"
    },
    {
      "inputs": [
        {
          "internalType": "uint256",
          "name": "entranceFee",
          "type": "uint256"
        },
        {
          "internalType": "uint256",
          "name": "_nursePart",
          "type": "uint256"
        },
        {
          "internalType": "uint256",
          "name": "maxRewardCount",
          "type": "uint256"
        },
        {
          "internalType": "uint256",
          "name": "duration",
          "type": "uint256"
        },
        {
          "internalType": "uint256",
          "name": "endBlock",
          "type": "uint256"
        }
      ],
      "name": "create",
      "outputs": [
        {
          "internalType": "uint256",
          "name": "id",
          "type": "uint256"
        }
      ],
      "stateMutability": "nonpayable",
      "type": "function"
    },
    {
      "inputs": [
        {
          "internalType": "uint256",
          "name": "id",
          "type": "uint256"
        },
        {
          "internalType": "uint256",
          "name": "_maid",
          "type": "uint256"
        }
      ],
      "name": "enter",
      "outputs": [],
      "stateMutability": "nonpayable",
      "type": "function"
    },
    {
      "inputs": [
        {
          "internalType": "uint256",
          "name": "id",
          "type": "uint256"
        },
        {
          "internalType": "uint256",
          "name": "_maid",
          "type": "uint256"
        },
        {
          "internalType": "uint256",
          "name": "deadline",
          "type": "uint256"
        },
        {
          "internalType": "uint8",
          "name": "v1",
          "type": "uint8"
        },
        {
          "internalType": "bytes32",
          "name": "r1",
          "type": "bytes32"
        },
        {
          "internalType": "bytes32",
          "name": "s1",
          "type": "bytes32"
        },
        {
          "internalType": "uint8",
          "name": "v2",
          "type": "uint8"
        },
        {
          "internalType": "bytes32",
          "name": "r2",
          "type": "bytes32"
        },
        {
          "internalType": "bytes32",
          "name": "s2",
          "type": "bytes32"
        }
      ],
      "name": "enterWithPermitAll",
      "outputs": [],
      "stateMutability": "nonpayable",
      "type": "function"
    },
    {
      "inputs": [
        {
          "internalType": "uint256",
          "name": "id",
          "type": "uint256"
        }
      ],
      "name": "exit",
      "outputs": [],
      "stateMutability": "nonpayable",
      "type": "function"
    },
    {
      "inputs": [],
      "name": "maid",
      "outputs": [
        {
          "internalType": "contract IMaid",
          "name": "",
          "type": "address"
        }
      ],
      "stateMutability": "view",
      "type": "function"
    },
    {
      "inputs": [],
      "name": "maidCoin",
      "outputs": [
        {
          "internalType": "contract IMaidCoin",
          "name": "",
          "type": "address"
        }
      ],
      "stateMutability": "view",
      "type": "function"
    },
    {
      "inputs": [],
      "name": "maidPowerToRaidReducedBlock",
      "outputs": [
        {
          "internalType": "uint256",
          "name": "",
          "type": "uint256"
        }
      ],
      "stateMutability": "view",
      "type": "function"
    },
    {
      "inputs": [],
      "name": "nursePart",
      "outputs": [
        {
          "internalType": "contract INursePart",
          "name": "",
          "type": "address"
        }
      ],
      "stateMutability": "view",
      "type": "function"
    },
    {
      "inputs": [],
      "name": "owner",
      "outputs": [
        {
          "internalType": "address",
          "name": "",
          "type": "address"
        }
      ],
      "stateMutability": "view",
      "type": "function"
    },
    {
      "inputs": [
        {
          "internalType": "uint256",
          "name": "",
          "type": "uint256"
        }
      ],
      "name": "raids",
      "outputs": [
        {
          "internalType": "uint256",
          "name": "entranceFee",
          "type": "uint256"
        },
        {
          "internalType": "uint256",
          "name": "nursePart",
          "type": "uint256"
        },
        {
          "internalType": "uint256",
          "name": "maxRewardCount",
          "type": "uint256"
        },
        {
          "internalType": "uint256",
          "name": "duration",
          "type": "uint256"
        },
        {
          "internalType": "uint256",
          "name": "endBlock",
          "type": "uint256"
        }
      ],
      "stateMutability": "view",
      "type": "function"
    },
    {
      "inputs": [],
      "name": "renounceOwnership",
      "outputs": [],
      "stateMutability": "nonpayable",
      "type": "function"
    },
    {
      "inputs": [],
      "name": "rng",
      "outputs": [
        {
          "internalType": "contract IRNG",
          "name": "",
          "type": "address"
        }
      ],
      "stateMutability": "view",
      "type": "function"
    },
    {
      "inputs": [
        {
          "internalType": "address",
          "name": "newOwner",
          "type": "address"
        }
      ],
      "name": "transferOwnership",
      "outputs": [],
      "stateMutability": "nonpayable",
      "type": "function"
    }
  ],
  "bytecode": "0x60e060405260646001553480156200001657600080fd5b506040516200156a3803806200156a8339810160408190526200003991620000de565b600080546001600160a01b031916339081178255604051909182917f8be0079c531659141344cd1fd0a4f28419497f9722a3daafe3b4186f6b6457e0908290a350606093841b6001600160601b031990811660805292841b831660a052921b1660c052600280546001600160a01b0319166001600160a01b039092169190911790556200013b565b80516001600160a01b0381168114620000d957600080fd5b919050565b60008060008060808587031215620000f557600080fd5b6200010085620000c1565b93506200011060208601620000c1565b92506200012060408601620000c1565b91506200013060608601620000c1565b905092959194509250565b60805160601c60a05160601c60c05160601c6113be620001ac600039600081816102a301526108f50152600081816101b7015281816104910152818161052f0152610676015260008181610265015281816104070152818161071c015281816109900152610e2201526113be6000f3fe608060405234801561001057600080fd5b506004361061010b5760003560e01c80638da5cb5b116100a2578063b24606b811610071578063b24606b81461029e578063bb4fa5dd146102c5578063c562a684146102d8578063d605787b146102eb578063f2fde38b146102fe57600080fd5b80638da5cb5b146102145780639f20ae8314610225578063a2ecd25814610260578063ac7fb7241461028757600080fd5b8063715018a6116100de578063715018a6146101975780637f8661a11461019f578063849e5aff146101b25780638656b2b3146101f157600080fd5b806323972aef146101105780632a41b802146101255780634b85d0af146101385780634b9b586e1461014b575b600080fd5b61012361011e3660046110dc565b610311565b005b61012361013336600461107e565b6105c7565b610123610146366004611139565b610635565b61017d6101593660046110b0565b60046020908152600092835260408084209091529082529020805460019091015482565b604080519283526020830191909152015b60405180910390f35b610123610796565b6101236101ad36600461107e565b61080a565b6101d97f000000000000000000000000000000000000000000000000000000000000000081565b6040516001600160a01b03909116815260200161018e565b6102046101ff36600461107e565b610a43565b604051901515815260200161018e565b6000546001600160a01b03166101d9565b61023861023336600461107e565b610adb565b604080519586526020860194909452928401919091526060830152608082015260a00161018e565b6101d97f000000000000000000000000000000000000000000000000000000000000000081565b61029060015481565b60405190815260200161018e565b6101d97f000000000000000000000000000000000000000000000000000000000000000081565b6102906102d33660046110fe565b610b1c565b6101236102e636600461103a565b610c9a565b6002546101d9906001600160a01b031681565b61012361030c36600461103a565b610ce6565b60006003838154811061032657610326611372565b90600052602060002090600502016040518060a00160405290816000820154815260200160018201548152602001600282015481526020016003820154815260200160048201548152505090508060800151431061038357600080fd5b6000838152600460209081526040808320338452909152902054156103a757600080fd5b6040805180820182524381526020808201858152600087815260048352848120338252909252929020905181559051600190910155600019821461046c576040516323b872dd60e01b8152336004820152306024820152604481018390527f00000000000000000000000000000000000000000000000000000000000000006001600160a01b0316906323b872dd90606401600060405180830381600087803b15801561045357600080fd5b505af1158015610467573d6000803e3d6000fd5b505050505b80516040516323b872dd60e01b815233600482015230602482015260448101919091527f00000000000000000000000000000000000000000000000000000000000000006001600160a01b0316906323b872dd90606401602060405180830381600087803b1580156104dd57600080fd5b505af11580156104f1573d6000803e3d6000fd5b505050506040513d601f19601f82011682018060405250810190610515919061105c565b508051604051630852cd8d60e31b815260048101919091527f00000000000000000000000000000000000000000000000000000000000000006001600160a01b0316906342966c6890602401600060405180830381600087803b15801561057b57600080fd5b505af115801561058f573d6000803e3d6000fd5b505060405184925085915033907f5087fbec8bdd9b358f62d89babb5f4dd44f8576230a9520c90e3407d6f4dd1fb90600090a4505050565b6000546001600160a01b031633146105fa5760405162461bcd60e51b81526004016105f1906111b0565b60405180910390fd5b60018190556040518181527f53b29daa1537959887ee76f94fc95da3b3418eec8c82cff43cb037fbae25cdbd9060200160405180910390a150565b60405163d505accf60e01b815233600482015230602482015260001960448201526064810188905260ff8716608482015260a4810186905260c481018590527f00000000000000000000000000000000000000000000000000000000000000006001600160a01b03169063d505accf9060e401600060405180830381600087803b1580156106c257600080fd5b505af11580156106d6573d6000803e3d6000fd5b5050505060001988146107815760405163aba0784760e01b81523360048201523060248201526044810188905260ff841660648201526084810183905260a481018290527f00000000000000000000000000000000000000000000000000000000000000006001600160a01b03169063aba078479060c401600060405180830381600087803b15801561076857600080fd5b505af115801561077c573d6000803e3d6000fd5b505050505b61078b8989610311565b505050505050505050565b6000546001600160a01b031633146107c05760405162461bcd60e51b81526004016105f1906111b0565b600080546040516001600160a01b03909116907f8be0079c531659141344cd1fd0a4f28419497f9722a3daafe3b4186f6b6457e0908390a3600080546001600160a01b0319169055565b6000818152600460209081526040808320338452825291829020825180840190935280548084526001909101549183019190915261084757600080fd5b60006003838154811061085c5761085c611372565b90600052602060002090600502016040518060a00160405290816000820154815260200160018201548152602001600282015481526020016003820154815260200160048201548152505090506108b38183610dd0565b1561095b5760006108c984836040015133610ed9565b6020830151604051630ab714fb60e11b81523360048201526024810191909152604481018290529091507f00000000000000000000000000000000000000000000000000000000000000006001600160a01b03169063156e29f690606401600060405180830381600087803b15801561094157600080fd5b505af1158015610955573d6000803e3d6000fd5b50505050505b6000198260200151146109f55760208201516040516323b872dd60e01b815230600482015233602482015260448101919091527f00000000000000000000000000000000000000000000000000000000000000006001600160a01b0316906323b872dd90606401600060405180830381600087803b1580156109dc57600080fd5b505af11580156109f0573d6000803e3d6000fd5b505050505b60008381526004602090815260408083203380855292528083208381556001018390555185927f22d324652c93739755cf4581508b60875ebdd78c20c0cff5cf8e23452b29963191a3505050565b60008060038381548110610a5957610a59611372565b600091825260208083206040805160a0810182526005909402909101805484526001808201548585015260028201548584015260038201546060860152600491820154608086015288865290835281852033865283529381902081518083019092528054825290930154908301529150610ad38282610dd0565b949350505050565b60038181548110610aeb57600080fd5b6000918252602090912060059091020180546001820154600283015460038401546004909401549294509092909185565b600080546001600160a01b03163314610b475760405162461bcd60e51b81526004016105f1906111b0565b50600380546040805160a081018252888152602080820189815282840189815260608085018a815260808087018b815260018a018b5560009a909a529551600589027fc2575a0e9e593c00f959f8c92f12db2869c3395a3b0502d05e2516446f71f85b81019190915593517fc2575a0e9e593c00f959f8c92f12db2869c3395a3b0502d05e2516446f71f85c85015591517fc2575a0e9e593c00f959f8c92f12db2869c3395a3b0502d05e2516446f71f85d84015590517fc2575a0e9e593c00f959f8c92f12db2869c3395a3b0502d05e2516446f71f85e83015595517fc2575a0e9e593c00f959f8c92f12db2869c3395a3b0502d05e2516446f71f85f9091015582518a81529081018890529182018690529281018490529091869183917fe67bc7994d282c0fbf31557abeca3bf42c2dc7e627c6aff056739bfd6609b5d6910160405180910390a395945050505050565b6000546001600160a01b03163314610cc45760405162461bcd60e51b81526004016105f1906111b0565b600280546001600160a01b0319166001600160a01b0392909216919091179055565b6000546001600160a01b03163314610d105760405162461bcd60e51b81526004016105f1906111b0565b6001600160a01b038116610d755760405162461bcd60e51b815260206004820152602660248201527f4f776e61626c653a206e6577206f776e657220697320746865207a65726f206160448201526564647265737360d01b60648201526084016105f1565b600080546040516001600160a01b03808516939216917f8be0079c531659141344cd1fd0a4f28419497f9722a3daafe3b4186f6b6457e091a3600080546001600160a01b0319166001600160a01b0392909216919091179055565b600060001982602001511415610dfa5760608301518251610df1904361131b565b10159050610ed3565b606083015160015460208401516040516304eaa11360e01b8152606492916001600160a01b037f000000000000000000000000000000000000000000000000000000000000000016916304eaa11391610e599160040190815260200190565b60206040518083038186803b158015610e7157600080fd5b505afa158015610e85573d6000803e3d6000fd5b505050506040513d601f19601f82011682018060405250810190610ea99190611097565b610eb391906112fc565b610ebd91906111fd565b8351610ec9904361131b565b610df191906111e5565b92915050565b6000806001610ee9856002611254565b610ef3919061131b565b610efe9060026112fc565b6002546040516344a0a49160e01b8152600481018890526001600160a01b038681166024830152929350600092849216906344a0a49190604401602060405180830381600087803b158015610f5257600080fd5b505af1158015610f66573d6000803e3d6000fd5b505050506040513d601f19601f82011682018060405250810190610f8a9190611097565b610f949190611332565b610f9f9060016111e5565b90506000805b8183111561100257610fb86001826111e5565b905080610fc68860016111e5565b610fd0919061131b565b610fdb906002611254565b610fe68860016111e5565b610ff1906002611254565b610ffb919061131b565b9150610fa5565b979650505050505050565b80356001600160a01b038116811461102457600080fd5b919050565b803560ff8116811461102457600080fd5b60006020828403121561104c57600080fd5b6110558261100d565b9392505050565b60006020828403121561106e57600080fd5b8151801515811461105557600080fd5b60006020828403121561109057600080fd5b5035919050565b6000602082840312156110a957600080fd5b5051919050565b600080604083850312156110c357600080fd5b823591506110d36020840161100d565b90509250929050565b600080604083850312156110ef57600080fd5b50508035926020909101359150565b600080600080600060a0868803121561111657600080fd5b505083359560208501359550604085013594606081013594506080013592509050565b60008060008060008060008060006101208a8c03121561115857600080fd5b8935985060208a0135975060408a0135965061117660608b01611029565b955060808a0135945060a08a0135935061119260c08b01611029565b925060e08a013591506101008a013590509295985092959850929598565b6020808252818101527f4f776e61626c653a2063616c6c6572206973206e6f7420746865206f776e6572604082015260600190565b600082198211156111f8576111f8611346565b500190565b60008261120c5761120c61135c565b500490565b600181815b8085111561124c57816000190482111561123257611232611346565b8085161561123f57918102915b93841c9390800290611216565b509250929050565b6000611055838360008261126a57506001610ed3565b8161127757506000610ed3565b816001811461128d5760028114611297576112b3565b6001915050610ed3565b60ff8411156112a8576112a8611346565b50506001821b610ed3565b5060208310610133831016604e8410600b84101617156112d6575081810a610ed3565b6112e08383611211565b80600019048211156112f4576112f4611346565b029392505050565b600081600019048311821515161561131657611316611346565b500290565b60008282101561132d5761132d611346565b500390565b6000826113415761134161135c565b500690565b634e487b7160e01b600052601160045260246000fd5b634e487b7160e01b600052601260045260246000fd5b634e487b7160e01b600052603260045260246000fdfea2646970667358221220563d403e422150b85b228a1597f1d9fcc0cf3c8a71887320a0abe4f529c08e9264736f6c63430008050033",
  "linkReferences": {},
  "deployedLinkReferences": {}
}