{
  "_format": "hh-sol-artifact-1",
  "contractName": "Maid",
  "sourceName": "contracts/Maid.sol",
  "abi": [
    {
      "inputs": [
        {
          "internalType": "address",
          "name": "lpTokenAddr",
          "type": "address"
        }
      ],
      "stateMutability": "nonpayable",
      "type": "constructor"
    },
    {
      "anonymous": false,
      "inputs": [
        {
          "indexed": true,
          "internalType": "address",
          "name": "owner",
          "type": "address"
        },
        {
          "indexed": true,
          "internalType": "address",
          "name": "approved",
          "type": "address"
        },
        {
          "indexed": true,
          "internalType": "uint256",
          "name": "tokenId",
          "type": "uint256"
        }
      ],
      "name": "Approval",
      "type": "event"
    },
    {
      "anonymous": false,
      "inputs": [
        {
          "indexed": true,
          "internalType": "address",
          "name": "owner",
          "type": "address"
        },
        {
          "indexed": true,
          "internalType": "address",
          "name": "operator",
          "type": "address"
        },
        {
          "indexed": false,
          "internalType": "bool",
          "name": "approved",
          "type": "bool"
        }
      ],
      "name": "ApprovalForAll",
      "type": "event"
    },
    {
      "anonymous": false,
      "inputs": [
        {
          "indexed": false,
          "internalType": "uint256",
          "name": "value",
          "type": "uint256"
        }
      ],
      "name": "ChangeLPTokenToMaidPower",
      "type": "event"
    },
    {
      "anonymous": false,
      "inputs": [
        {
          "indexed": true,
          "internalType": "uint256",
          "name": "id",
          "type": "uint256"
        },
        {
          "indexed": false,
          "internalType": "uint256",
          "name": "lpTokenAmount",
          "type": "uint256"
        }
      ],
      "name": "Desupport",
      "type": "event"
    },
    {
      "anonymous": false,
      "inputs": [
        {
          "indexed": true,
          "internalType": "address",
          "name": "previousOwner",
          "type": "address"
        },
        {
          "indexed": true,
          "internalType": "address",
          "name": "newOwner",
          "type": "address"
        }
      ],
      "name": "OwnershipTransferred",
      "type": "event"
    },
    {
      "anonymous": false,
      "inputs": [
        {
          "indexed": true,
          "internalType": "uint256",
          "name": "id",
          "type": "uint256"
        },
        {
          "indexed": false,
          "internalType": "uint256",
          "name": "lpTokenAmount",
          "type": "uint256"
        }
      ],
      "name": "Support",
      "type": "event"
    },
    {
      "anonymous": false,
      "inputs": [
        {
          "indexed": true,
          "internalType": "address",
          "name": "from",
          "type": "address"
        },
        {
          "indexed": true,
          "internalType": "address",
          "name": "to",
          "type": "address"
        },
        {
          "indexed": true,
          "internalType": "uint256",
          "name": "tokenId",
          "type": "uint256"
        }
      ],
      "name": "Transfer",
      "type": "event"
    },
    {
      "inputs": [],
      "name": "DOMAIN_SEPARATOR",
      "outputs": [
        {
          "internalType": "bytes32",
          "name": "",
          "type": "bytes32"
        }
      ],
      "stateMutability": "view",
      "type": "function"
    },
    {
      "inputs": [],
      "name": "PERMIT_ALL_TYPEHASH",
      "outputs": [
        {
          "internalType": "bytes32",
          "name": "",
          "type": "bytes32"
        }
      ],
      "stateMutability": "view",
      "type": "function"
    },
    {
      "inputs": [],
      "name": "PERMIT_TYPEHASH",
      "outputs": [
        {
          "internalType": "bytes32",
          "name": "",
          "type": "bytes32"
        }
      ],
      "stateMutability": "view",
      "type": "function"
    },
    {
      "inputs": [
        {
          "internalType": "address",
          "name": "to",
          "type": "address"
        },
        {
          "internalType": "uint256",
          "name": "tokenId",
          "type": "uint256"
        }
      ],
      "name": "approve",
      "outputs": [],
      "stateMutability": "nonpayable",
      "type": "function"
    },
    {
      "inputs": [
        {
          "internalType": "address",
          "name": "owner",
          "type": "address"
        }
      ],
      "name": "balanceOf",
      "outputs": [
        {
          "internalType": "uint256",
          "name": "",
          "type": "uint256"
        }
      ],
      "stateMutability": "view",
      "type": "function"
    },
    {
      "inputs": [
        {
          "internalType": "uint256",
          "name": "value",
          "type": "uint256"
        }
      ],
      "name": "changeLPTokenToMaidPower",
      "outputs": [],
      "stateMutability": "nonpayable",
      "type": "function"
    },
    {
      "inputs": [
        {
          "internalType": "uint256",
          "name": "id",
          "type": "uint256"
        },
        {
          "internalType": "uint256",
          "name": "lpTokenAmount",
          "type": "uint256"
        }
      ],
      "name": "desupport",
      "outputs": [],
      "stateMutability": "nonpayable",
      "type": "function"
    },
    {
      "inputs": [
        {
          "internalType": "uint256",
          "name": "tokenId",
          "type": "uint256"
        }
      ],
      "name": "getApproved",
      "outputs": [
        {
          "internalType": "address",
          "name": "",
          "type": "address"
        }
      ],
      "stateMutability": "view",
      "type": "function"
    },
    {
      "inputs": [
        {
          "internalType": "address",
          "name": "owner",
          "type": "address"
        },
        {
          "internalType": "address",
          "name": "operator",
          "type": "address"
        }
      ],
      "name": "isApprovedForAll",
      "outputs": [
        {
          "internalType": "bool",
          "name": "",
          "type": "bool"
        }
      ],
      "stateMutability": "view",
      "type": "function"
    },
    {
      "inputs": [],
      "name": "lpToken",
      "outputs": [
        {
          "internalType": "contract IUniswapV2Pair",
          "name": "",
          "type": "address"
        }
      ],
      "stateMutability": "view",
      "type": "function"
    },
    {
      "inputs": [],
      "name": "lpTokenToMaidPower",
      "outputs": [
        {
          "internalType": "uint256",
          "name": "",
          "type": "uint256"
        }
      ],
      "stateMutability": "view",
      "type": "function"
    },
    {
      "inputs": [
        {
          "internalType": "uint256",
          "name": "",
          "type": "uint256"
        }
      ],
      "name": "maids",
      "outputs": [
        {
          "internalType": "uint256",
          "name": "originPower",
          "type": "uint256"
        },
        {
          "internalType": "uint256",
          "name": "supportedLPTokenAmount",
          "type": "uint256"
        }
      ],
      "stateMutability": "view",
      "type": "function"
    },
    {
      "inputs": [
        {
          "internalType": "uint256",
          "name": "power",
          "type": "uint256"
        }
      ],
      "name": "mint",
      "outputs": [
        {
          "internalType": "uint256",
          "name": "id",
          "type": "uint256"
        }
      ],
      "stateMutability": "nonpayable",
      "type": "function"
    },
    {
      "inputs": [],
      "name": "name",
      "outputs": [
        {
          "internalType": "string",
          "name": "",
          "type": "string"
        }
      ],
      "stateMutability": "view",
      "type": "function"
    },
    {
      "inputs": [
        {
          "internalType": "uint256",
          "name": "",
          "type": "uint256"
        }
      ],
      "name": "nonces",
      "outputs": [
        {
          "internalType": "uint256",
          "name": "",
          "type": "uint256"
        }
      ],
      "stateMutability": "view",
      "type": "function"
    },
    {
      "inputs": [
        {
          "internalType": "address",
          "name": "",
          "type": "address"
        }
      ],
      "name": "noncesForAll",
      "outputs": [
        {
          "internalType": "uint256",
          "name": "",
          "type": "uint256"
        }
      ],
      "stateMutability": "view",
      "type": "function"
    },
    {
      "inputs": [],
      "name": "owner",
      "outputs": [
        {
          "internalType": "address",
          "name": "",
          "type": "address"
        }
      ],
      "stateMutability": "view",
      "type": "function"
    },
    {
      "inputs": [
        {
          "internalType": "uint256",
          "name": "tokenId",
          "type": "uint256"
        }
      ],
      "name": "ownerOf",
      "outputs": [
        {
          "internalType": "address",
          "name": "",
          "type": "address"
        }
      ],
      "stateMutability": "view",
      "type": "function"
    },
    {
      "inputs": [
        {
          "internalType": "address",
          "name": "spender",
          "type": "address"
        },
        {
          "internalType": "uint256",
          "name": "id",
          "type": "uint256"
        },
        {
          "internalType": "uint256",
          "name": "deadline",
          "type": "uint256"
        },
        {
          "internalType": "uint8",
          "name": "v",
          "type": "uint8"
        },
        {
          "internalType": "bytes32",
          "name": "r",
          "type": "bytes32"
        },
        {
          "internalType": "bytes32",
          "name": "s",
          "type": "bytes32"
        }
      ],
      "name": "permit",
      "outputs": [],
      "stateMutability": "nonpayable",
      "type": "function"
    },
    {
      "inputs": [
        {
          "internalType": "address",
          "name": "owner",
          "type": "address"
        },
        {
          "internalType": "address",
          "name": "spender",
          "type": "address"
        },
        {
          "internalType": "uint256",
          "name": "deadline",
          "type": "uint256"
        },
        {
          "internalType": "uint8",
          "name": "v",
          "type": "uint8"
        },
        {
          "internalType": "bytes32",
          "name": "r",
          "type": "bytes32"
        },
        {
          "internalType": "bytes32",
          "name": "s",
          "type": "bytes32"
        }
      ],
      "name": "permitAll",
      "outputs": [],
      "stateMutability": "nonpayable",
      "type": "function"
    },
    {
      "inputs": [
        {
          "internalType": "uint256",
          "name": "id",
          "type": "uint256"
        }
      ],
      "name": "powerOf",
      "outputs": [
        {
          "internalType": "uint256",
          "name": "",
          "type": "uint256"
        }
      ],
      "stateMutability": "view",
      "type": "function"
    },
    {
      "inputs": [],
      "name": "renounceOwnership",
      "outputs": [],
      "stateMutability": "nonpayable",
      "type": "function"
    },
    {
      "inputs": [
        {
          "internalType": "address",
          "name": "from",
          "type": "address"
        },
        {
          "internalType": "address",
          "name": "to",
          "type": "address"
        },
        {
          "internalType": "uint256",
          "name": "tokenId",
          "type": "uint256"
        }
      ],
      "name": "safeTransferFrom",
      "outputs": [],
      "stateMutability": "nonpayable",
      "type": "function"
    },
    {
      "inputs": [
        {
          "internalType": "address",
          "name": "from",
          "type": "address"
        },
        {
          "internalType": "address",
          "name": "to",
          "type": "address"
        },
        {
          "internalType": "uint256",
          "name": "tokenId",
          "type": "uint256"
        },
        {
          "internalType": "bytes",
          "name": "_data",
          "type": "bytes"
        }
      ],
      "name": "safeTransferFrom",
      "outputs": [],
      "stateMutability": "nonpayable",
      "type": "function"
    },
    {
      "inputs": [
        {
          "internalType": "address",
          "name": "operator",
          "type": "address"
        },
        {
          "internalType": "bool",
          "name": "approved",
          "type": "bool"
        }
      ],
      "name": "setApprovalForAll",
      "outputs": [],
      "stateMutability": "nonpayable",
      "type": "function"
    },
    {
      "inputs": [
        {
          "internalType": "uint256",
          "name": "id",
          "type": "uint256"
        },
        {
          "internalType": "uint256",
          "name": "lpTokenAmount",
          "type": "uint256"
        }
      ],
      "name": "support",
      "outputs": [],
      "stateMutability": "nonpayable",
      "type": "function"
    },
    {
      "inputs": [
        {
          "internalType": "uint256",
          "name": "id",
          "type": "uint256"
        },
        {
          "internalType": "uint256",
          "name": "lpTokenAmount",
          "type": "uint256"
        },
        {
          "internalType": "uint256",
          "name": "deadline",
          "type": "uint256"
        },
        {
          "internalType": "uint8",
          "name": "v",
          "type": "uint8"
        },
        {
          "internalType": "bytes32",
          "name": "r",
          "type": "bytes32"
        },
        {
          "internalType": "bytes32",
          "name": "s",
          "type": "bytes32"
        }
      ],
      "name": "supportWithPermit",
      "outputs": [],
      "stateMutability": "nonpayable",
      "type": "function"
    },
    {
      "inputs": [
        {
          "internalType": "bytes4",
          "name": "interfaceId",
          "type": "bytes4"
        }
      ],
      "name": "supportsInterface",
      "outputs": [
        {
          "internalType": "bool",
          "name": "",
          "type": "bool"
        }
      ],
      "stateMutability": "view",
      "type": "function"
    },
    {
      "inputs": [],
      "name": "symbol",
      "outputs": [
        {
          "internalType": "string",
          "name": "",
          "type": "string"
        }
      ],
      "stateMutability": "view",
      "type": "function"
    },
    {
      "inputs": [
        {
          "internalType": "uint256",
          "name": "tokenId",
          "type": "uint256"
        }
      ],
      "name": "tokenURI",
      "outputs": [
        {
          "internalType": "string",
          "name": "",
          "type": "string"
        }
      ],
      "stateMutability": "view",
      "type": "function"
    },
    {
      "inputs": [
        {
          "internalType": "address",
          "name": "from",
          "type": "address"
        },
        {
          "internalType": "address",
          "name": "to",
          "type": "address"
        },
        {
          "internalType": "uint256",
          "name": "tokenId",
          "type": "uint256"
        }
      ],
      "name": "transferFrom",
      "outputs": [],
      "stateMutability": "nonpayable",
      "type": "function"
    },
    {
      "inputs": [
        {
          "internalType": "address",
          "name": "newOwner",
          "type": "address"
        }
      ],
      "name": "transferOwnership",
      "outputs": [],
      "stateMutability": "nonpayable",
      "type": "function"
    }
  ],
  "bytecode": "0x60c060405260016009553480156200001657600080fd5b50604051620046ab380380620046ab83398181016040528101906200003c91906200036f565b6040518060400160405280600481526020017f4d616964000000000000000000000000000000000000000000000000000000008152506040518060400160405280600481526020017f4d414944000000000000000000000000000000000000000000000000000000008152506000620000ba620002a060201b60201c565b9050806000806101000a81548173ffffffffffffffffffffffffffffffffffffffff021916908373ffffffffffffffffffffffffffffffffffffffff1602179055508073ffffffffffffffffffffffffffffffffffffffff16600073ffffffffffffffffffffffffffffffffffffffff167f8be0079c531659141344cd1fd0a4f28419497f9722a3daafe3b4186f6b6457e060405160405180910390a350816001908051906020019062000170929190620002a8565b50806002908051906020019062000189929190620002a8565b5050508073ffffffffffffffffffffffffffffffffffffffff1660a08173ffffffffffffffffffffffffffffffffffffffff1660601b8152505060004690507f8b73c3c69bb8fe3d512ecc4cf759cc79239f7b179b0ffacaa9a75d522b39400f6040518060400160405280600481526020017f4d61696400000000000000000000000000000000000000000000000000000000815250805190602001206040518060400160405280600181526020017f31000000000000000000000000000000000000000000000000000000000000008152508051906020012083306040516020016200027b959493929190620003d4565b60405160208183030381529060405280519060200120608081815250505050620004fd565b600033905090565b828054620002b69062000479565b90600052602060002090601f016020900481019282620002da576000855562000326565b82601f10620002f557805160ff191683800117855562000326565b8280016001018555821562000326579182015b828111156200032557825182559160200191906001019062000308565b5b50905062000335919062000339565b5090565b5b80821115620003545760008160009055506001016200033a565b5090565b6000815190506200036981620004e3565b92915050565b600060208284031215620003885762000387620004de565b5b6000620003988482850162000358565b91505092915050565b620003ac8162000431565b82525050565b620003bd8162000445565b82525050565b620003ce816200046f565b82525050565b600060a082019050620003eb6000830188620003b2565b620003fa6020830187620003b2565b620004096040830186620003b2565b620004186060830185620003c3565b620004276080830184620003a1565b9695505050505050565b60006200043e826200044f565b9050919050565b6000819050919050565b600073ffffffffffffffffffffffffffffffffffffffff82169050919050565b6000819050919050565b600060028204905060018216806200049257607f821691505b60208210811415620004a957620004a8620004af565b5b50919050565b7f4e487b7100000000000000000000000000000000000000000000000000000000600052602260045260246000fd5b600080fd5b620004ee8162000431565b8114620004fa57600080fd5b50565b60805160a05160601c6141626200054960003960008181610afc01528181610dca015281816112be0152611528015260008181610ab801528181610e82015261162101526141626000f3fe608060405234801561001057600080fd5b50600436106101f05760003560e01c80637492ee281161010f578063a234d608116100a2578063c87b56dd11610071578063c87b56dd146105b8578063dda368c6146105e8578063e985e9c514610604578063f2fde38b14610634576101f0565b8063a234d60814610546578063aba0784714610562578063b4e13c8d1461057e578063b88d4fde1461059c576101f0565b806395d89b41116100de57806395d89b41146104c05780639be56c67146104de578063a0712d68146104fa578063a22cb4651461052a576101f0565b80637492ee281461043a5780637ac2ff7b146104565780638da5cb5b14610472578063904dfb8e14610490576101f0565b806330adf81f116101875780636352211e116101565780636352211e146103b25780636fb49f09146103e257806370a0823114610400578063715018a614610430576101f0565b806330adf81f1461033c5780633644e5151461035a57806342842e0e146103785780635fcbd28514610394576101f0565b8063081812fc116101c3578063081812fc146102a4578063095ea7b3146102d4578063141a468c146102f057806323b872dd14610320576101f0565b806301ffc9a7146101f557806303c0bdcd1461022557806304eaa1131461025657806306fdde0314610286575b600080fd5b61020f600480360381019061020a9190612cfa565b610650565b60405161021c919061339a565b60405180910390f35b61023f600480360381019061023a9190612d54565b610732565b60405161024d929190613743565b60405180910390f35b610270600480360381019061026b9190612d54565b610766565b60405161027d9190613728565b60405180910390f35b61028e6107e8565b60405161029b9190613506565b60405180910390f35b6102be60048036038101906102b99190612d54565b61087a565b6040516102cb9190613264565b60405180910390f35b6102ee60048036038101906102e99190612c00565b6108ff565b005b61030a60048036038101906103059190612d54565b610a17565b6040516103179190613728565b60405180910390f35b61033a60048036038101906103359190612a5d565b610a2f565b005b610344610a8f565b60405161035191906133b5565b60405180910390f35b610362610ab6565b60405161036f91906133b5565b60405180910390f35b610392600480360381019061038d9190612a5d565b610ada565b005b61039c610afa565b6040516103a991906134eb565b60405180910390f35b6103cc60048036038101906103c79190612d54565b610b1e565b6040516103d99190613264565b60405180910390f35b6103ea610bd0565b6040516103f79190613728565b60405180910390f35b61041a600480360381019061041591906129f0565b610bd6565b6040516104279190613728565b60405180910390f35b610438610c8e565b005b610454600480360381019061044f9190612dc1565b610dc8565b005b610470600480360381019061046b9190612c40565b610e71565b005b61047a61116d565b6040516104879190613264565b60405180910390f35b6104aa60048036038101906104a591906129f0565b611196565b6040516104b79190613728565b60405180910390f35b6104c86111ae565b6040516104d59190613506565b60405180910390f35b6104f860048036038101906104f39190612d81565b611240565b005b610514600480360381019061050f9190612d54565b6113a8565b6040516105219190613728565b60405180910390f35b610544600480360381019061053f9190612bc0565b611494565b005b610560600480360381019061055b9190612d81565b6114aa565b005b61057c60048036038101906105779190612b33565b611610565b005b61058661191f565b60405161059391906133b5565b60405180910390f35b6105b660048036038101906105b19190612ab0565b611946565b005b6105d260048036038101906105cd9190612d54565b6119a8565b6040516105df9190613506565b60405180910390f35b61060260048036038101906105fd9190612d54565b611a4f565b005b61061e60048036038101906106199190612a1d565b611b0c565b60405161062b919061339a565b60405180910390f35b61064e600480360381019061064991906129f0565b611ba0565b005b60007f80ac58cd000000000000000000000000000000000000000000000000000000007bffffffffffffffffffffffffffffffffffffffffffffffffffffffff1916827bffffffffffffffffffffffffffffffffffffffffffffffffffffffff1916148061071b57507f5b5e139f000000000000000000000000000000000000000000000000000000007bffffffffffffffffffffffffffffffffffffffffffffffffffffffff1916827bffffffffffffffffffffffffffffffffffffffffffffffffffffffff1916145b8061072b575061072a82611d49565b5b9050919050565b600a818154811061074257600080fd5b90600052602060002090600202016000915090508060000154908060010154905082565b600080600a838154811061077d5761077c613b91565b5b9060005260206000209060020201604051806040016040529081600082015481526020016001820154815250509050670de0b6b3a764000060095482602001516107c7919061388c565b6107d1919061385b565b81600001516107e09190613805565b915050919050565b6060600180546107f790613a0b565b80601f016020809104026020016040519081016040528092919081815260200182805461082390613a0b565b80156108705780601f1061084557610100808354040283529160200191610870565b820191906000526020600020905b81548152906001019060200180831161085357829003601f168201915b5050505050905090565b600061088582611db3565b6108c4576040517f08c379a00000000000000000000000000000000000000000000000000000000081526004016108bb90613668565b60405180910390fd5b6005600083815260200190815260200160002060009054906101000a900473ffffffffffffffffffffffffffffffffffffffff169050919050565b600061090a82610b1e565b90508073ffffffffffffffffffffffffffffffffffffffff168373ffffffffffffffffffffffffffffffffffffffff16141561097b576040517f08c379a0000000000000000000000000000000000000000000000000000000008152600401610972906136e8565b60405180910390fd5b8073ffffffffffffffffffffffffffffffffffffffff1661099a611e1f565b73ffffffffffffffffffffffffffffffffffffffff1614806109c957506109c8816109c3611e1f565b611b0c565b5b610a08576040517f08c379a00000000000000000000000000000000000000000000000000000000081526004016109ff906135e8565b60405180910390fd5b610a128383611e27565b505050565b60076020528060005260406000206000915090505481565b610a40610a3a611e1f565b82611ee0565b610a7f576040517f08c379a0000000000000000000000000000000000000000000000000000000008152600401610a7690613708565b60405180910390fd5b610a8a838383611fbe565b505050565b7f49ecf333e5b8c95c40fdafc95c1ad136e8914a8fb55e9dc8bb01eaa83a2df9ad60001b81565b7f000000000000000000000000000000000000000000000000000000000000000081565b610af583838360405180602001604052806000815250611946565b505050565b7f000000000000000000000000000000000000000000000000000000000000000081565b6000806003600084815260200190815260200160002060009054906101000a900473ffffffffffffffffffffffffffffffffffffffff169050600073ffffffffffffffffffffffffffffffffffffffff168173ffffffffffffffffffffffffffffffffffffffff161415610bc7576040517f08c379a0000000000000000000000000000000000000000000000000000000008152600401610bbe90613628565b60405180910390fd5b80915050919050565b60095481565b60008073ffffffffffffffffffffffffffffffffffffffff168273ffffffffffffffffffffffffffffffffffffffff161415610c47576040517f08c379a0000000000000000000000000000000000000000000000000000000008152600401610c3e90613608565b60405180910390fd5b600460008373ffffffffffffffffffffffffffffffffffffffff1673ffffffffffffffffffffffffffffffffffffffff168152602001908152602001600020549050919050565b610c96611e1f565b73ffffffffffffffffffffffffffffffffffffffff16610cb461116d565b73ffffffffffffffffffffffffffffffffffffffff1614610d0a576040517f08c379a0000000000000000000000000000000000000000000000000000000008152600401610d0190613688565b60405180910390fd5b600073ffffffffffffffffffffffffffffffffffffffff1660008054906101000a900473ffffffffffffffffffffffffffffffffffffffff1673ffffffffffffffffffffffffffffffffffffffff167f8be0079c531659141344cd1fd0a4f28419497f9722a3daafe3b4186f6b6457e060405160405180910390a360008060006101000a81548173ffffffffffffffffffffffffffffffffffffffff021916908373ffffffffffffffffffffffffffffffffffffffff160217905550565b7f000000000000000000000000000000000000000000000000000000000000000073ffffffffffffffffffffffffffffffffffffffff1663d505accf333088888888886040518863ffffffff1660e01b8152600401610e2d9796959493929190613302565b600060405180830381600087803b158015610e4757600080fd5b505af1158015610e5b573d6000803e3d6000fd5b50505050610e698686611240565b505050505050565b83421115610e7e57600080fd5b60007f00000000000000000000000000000000000000000000000000000000000000007f49ecf333e5b8c95c40fdafc95c1ad136e8914a8fb55e9dc8bb01eaa83a2df9ad60001b8888600760008b81526020019081526020016000205489604051602001610ef0959493929190613423565b60405160208183030381529060405280519060200120604051602001610f1792919061322d565b6040516020818303038152906040528051906020012090506001600760008881526020019081526020016000206000828254610f539190613805565b925050819055506000610f6587610b1e565b90508073ffffffffffffffffffffffffffffffffffffffff168873ffffffffffffffffffffffffffffffffffffffff161415610fa057600080fd5b610fa98161221a565b1561109257631626ba7e60e01b8173ffffffffffffffffffffffffffffffffffffffff16631626ba7e8487878a604051602001610fe8939291906131cc565b6040516020818303038152906040526040518363ffffffff1660e01b8152600401611014929190613476565b60206040518083038186803b15801561102c57600080fd5b505afa158015611040573d6000803e3d6000fd5b505050506040513d601f19601f820116820180604052508101906110649190612d27565b7bffffffffffffffffffffffffffffffffffffffffffffffffffffffff19161461108d57600080fd5b611159565b6000600183878787604051600081526020016040526040516110b794939291906134a6565b6020604051602081039080840390855afa1580156110d9573d6000803e3d6000fd5b505050602060405103519050600073ffffffffffffffffffffffffffffffffffffffff168173ffffffffffffffffffffffffffffffffffffffff16141561111f57600080fd5b8173ffffffffffffffffffffffffffffffffffffffff168173ffffffffffffffffffffffffffffffffffffffff161461115757600080fd5b505b6111638888611e27565b5050505050505050565b60008060009054906101000a900473ffffffffffffffffffffffffffffffffffffffff16905090565b60086020528060005260406000206000915090505481565b6060600280546111bd90613a0b565b80601f01602080910402602001604051908101604052809291908181526020018280546111e990613a0b565b80156112365780601f1061120b57610100808354040283529160200191611236565b820191906000526020600020905b81548152906001019060200180831161121957829003601f168201915b5050505050905090565b3373ffffffffffffffffffffffffffffffffffffffff1661126083610b1e565b73ffffffffffffffffffffffffffffffffffffffff161461128057600080fd5b80600a838154811061129557611294613b91565b5b906000526020600020906002020160010160008282546112b59190613805565b925050819055507f000000000000000000000000000000000000000000000000000000000000000073ffffffffffffffffffffffffffffffffffffffff166323b872dd3330846040518463ffffffff1660e01b81526004016113199392919061327f565b602060405180830381600087803b15801561133357600080fd5b505af1158015611347573d6000803e3d6000fd5b505050506040513d601f19601f8201168201806040525081019061136b9190612ccd565b50817f9c86c947c690753cc6de6016e1c45414d895662cc13af08319148419baf5df2f8260405161139c9190613728565b60405180910390a25050565b60006113b2611e1f565b73ffffffffffffffffffffffffffffffffffffffff166113d061116d565b73ffffffffffffffffffffffffffffffffffffffff1614611426576040517f08c379a000000000000000000000000000000000000000000000000000000000815260040161141d90613688565b60405180910390fd5b600a805490509050600a6040518060400160405280848152602001600081525090806001815401808255809150506001900390600052602060002090600202016000909190919091506000820151816000015560208201518160010155505061148f338261222d565b919050565b6114a661149f611e1f565b83836123fb565b5050565b3373ffffffffffffffffffffffffffffffffffffffff166114ca83610b1e565b73ffffffffffffffffffffffffffffffffffffffff16146114ea57600080fd5b80600a83815481106114ff576114fe613b91565b5b9060005260206000209060020201600101600082825461151f91906138e6565b925050819055507f000000000000000000000000000000000000000000000000000000000000000073ffffffffffffffffffffffffffffffffffffffff1663a9059cbb33836040518363ffffffff1660e01b8152600401611581929190613371565b602060405180830381600087803b15801561159b57600080fd5b505af11580156115af573d6000803e3d6000fd5b505050506040513d601f19601f820116820180604052508101906115d39190612ccd565b50817fb08330c00f69f3f2343fd81719784be16358c64832e868cd5ccec5b98ec62897826040516116049190613728565b60405180910390a25050565b8342111561161d57600080fd5b60007f00000000000000000000000000000000000000000000000000000000000000007fdaab21af31ece73a508939fedd476a5ee5129a5ed4bb091f3236ffb45394df6260001b8888600860008c73ffffffffffffffffffffffffffffffffffffffff1673ffffffffffffffffffffffffffffffffffffffff16815260200190815260200160002054896040516020016116bb9594939291906133d0565b604051602081830303815290604052805190602001206040516020016116e292919061322d565b6040516020818303038152906040528051906020012090506001600860008973ffffffffffffffffffffffffffffffffffffffff1673ffffffffffffffffffffffffffffffffffffffff168152602001908152602001600020600082825461174a9190613805565b9250508190555061175a8761221a565b1561184357631626ba7e60e01b8773ffffffffffffffffffffffffffffffffffffffff16631626ba7e83868689604051602001611799939291906131cc565b6040516020818303038152906040526040518363ffffffff1660e01b81526004016117c5929190613476565b60206040518083038186803b1580156117dd57600080fd5b505afa1580156117f1573d6000803e3d6000fd5b505050506040513d601f19601f820116820180604052508101906118159190612d27565b7bffffffffffffffffffffffffffffffffffffffffffffffffffffffff19161461183e57600080fd5b61190a565b60006001828686866040516000815260200160405260405161186894939291906134a6565b6020604051602081039080840390855afa15801561188a573d6000803e3d6000fd5b505050602060405103519050600073ffffffffffffffffffffffffffffffffffffffff168173ffffffffffffffffffffffffffffffffffffffff1614156118d057600080fd5b8773ffffffffffffffffffffffffffffffffffffffff168173ffffffffffffffffffffffffffffffffffffffff161461190857600080fd5b505b611916878760016123fb565b50505050505050565b7fdaab21af31ece73a508939fedd476a5ee5129a5ed4bb091f3236ffb45394df6260001b81565b611957611951611e1f565b83611ee0565b611996576040517f08c379a000000000000000000000000000000000000000000000000000000000815260040161198d90613708565b60405180910390fd5b6119a284848484612568565b50505050565b60606119b382611db3565b6119f2576040517f08c379a00000000000000000000000000000000000000000000000000000000081526004016119e9906136c8565b60405180910390fd5b60006119fc6125c4565b90506000815111611a1c5760405180602001604052806000815250611a47565b80611a26846125db565b604051602001611a37929190613209565b6040516020818303038152906040525b915050919050565b611a57611e1f565b73ffffffffffffffffffffffffffffffffffffffff16611a7561116d565b73ffffffffffffffffffffffffffffffffffffffff1614611acb576040517f08c379a0000000000000000000000000000000000000000000000000000000008152600401611ac290613688565b60405180910390fd5b806009819055507f4cc6f61797d7bcd39a96045b3f7c8cb2feed2fe23d042b62757ab6499b07cf5581604051611b019190613728565b60405180910390a150565b6000600660008473ffffffffffffffffffffffffffffffffffffffff1673ffffffffffffffffffffffffffffffffffffffff16815260200190815260200160002060008373ffffffffffffffffffffffffffffffffffffffff1673ffffffffffffffffffffffffffffffffffffffff16815260200190815260200160002060009054906101000a900460ff16905092915050565b611ba8611e1f565b73ffffffffffffffffffffffffffffffffffffffff16611bc661116d565b73ffffffffffffffffffffffffffffffffffffffff1614611c1c576040517f08c379a0000000000000000000000000000000000000000000000000000000008152600401611c1390613688565b60405180910390fd5b600073ffffffffffffffffffffffffffffffffffffffff168173ffffffffffffffffffffffffffffffffffffffff161415611c8c576040517f08c379a0000000000000000000000000000000000000000000000000000000008152600401611c8390613548565b60405180910390fd5b8073ffffffffffffffffffffffffffffffffffffffff1660008054906101000a900473ffffffffffffffffffffffffffffffffffffffff1673ffffffffffffffffffffffffffffffffffffffff167f8be0079c531659141344cd1fd0a4f28419497f9722a3daafe3b4186f6b6457e060405160405180910390a3806000806101000a81548173ffffffffffffffffffffffffffffffffffffffff021916908373ffffffffffffffffffffffffffffffffffffffff16021790555050565b60007f01ffc9a7000000000000000000000000000000000000000000000000000000007bffffffffffffffffffffffffffffffffffffffffffffffffffffffff1916827bffffffffffffffffffffffffffffffffffffffffffffffffffffffff1916149050919050565b60008073ffffffffffffffffffffffffffffffffffffffff166003600084815260200190815260200160002060009054906101000a900473ffffffffffffffffffffffffffffffffffffffff1673ffffffffffffffffffffffffffffffffffffffff1614159050919050565b600033905090565b816005600083815260200190815260200160002060006101000a81548173ffffffffffffffffffffffffffffffffffffffff021916908373ffffffffffffffffffffffffffffffffffffffff160217905550808273ffffffffffffffffffffffffffffffffffffffff16611e9a83610b1e565b73ffffffffffffffffffffffffffffffffffffffff167f8c5be1e5ebec7d5bd14f71427d1e84f3dd0314c0f7b2291e5b200ac8c7c3b92560405160405180910390a45050565b6000611eeb82611db3565b611f2a576040517f08c379a0000000000000000000000000000000000000000000000000000000008152600401611f21906135c8565b60405180910390fd5b6000611f3583610b1e565b90508073ffffffffffffffffffffffffffffffffffffffff168473ffffffffffffffffffffffffffffffffffffffff161480611fa457508373ffffffffffffffffffffffffffffffffffffffff16611f8c8461087a565b73ffffffffffffffffffffffffffffffffffffffff16145b80611fb55750611fb48185611b0c565b5b91505092915050565b8273ffffffffffffffffffffffffffffffffffffffff16611fde82610b1e565b73ffffffffffffffffffffffffffffffffffffffff1614612034576040517f08c379a000000000000000000000000000000000000000000000000000000000815260040161202b906136a8565b60405180910390fd5b600073ffffffffffffffffffffffffffffffffffffffff168273ffffffffffffffffffffffffffffffffffffffff1614156120a4576040517f08c379a000000000000000000000000000000000000000000000000000000000815260040161209b90613588565b60405180910390fd5b6120af83838361273c565b6120ba600082611e27565b6001600460008573ffffffffffffffffffffffffffffffffffffffff1673ffffffffffffffffffffffffffffffffffffffff168152602001908152602001600020600082825461210a91906138e6565b925050819055506001600460008473ffffffffffffffffffffffffffffffffffffffff1673ffffffffffffffffffffffffffffffffffffffff16815260200190815260200160002060008282546121619190613805565b92505081905550816003600083815260200190815260200160002060006101000a81548173ffffffffffffffffffffffffffffffffffffffff021916908373ffffffffffffffffffffffffffffffffffffffff160217905550808273ffffffffffffffffffffffffffffffffffffffff168473ffffffffffffffffffffffffffffffffffffffff167fddf252ad1be2c89b69c2b068fc378daa952ba7f163c4a11628f55a4df523b3ef60405160405180910390a4505050565b600080823b905060008111915050919050565b600073ffffffffffffffffffffffffffffffffffffffff168273ffffffffffffffffffffffffffffffffffffffff16141561229d576040517f08c379a000000000000000000000000000000000000000000000000000000000815260040161229490613648565b60405180910390fd5b6122a681611db3565b156122e6576040517f08c379a00000000000000000000000000000000000000000000000000000000081526004016122dd90613568565b60405180910390fd5b6122f26000838361273c565b6001600460008473ffffffffffffffffffffffffffffffffffffffff1673ffffffffffffffffffffffffffffffffffffffff16815260200190815260200160002060008282546123429190613805565b92505081905550816003600083815260200190815260200160002060006101000a81548173ffffffffffffffffffffffffffffffffffffffff021916908373ffffffffffffffffffffffffffffffffffffffff160217905550808273ffffffffffffffffffffffffffffffffffffffff16600073ffffffffffffffffffffffffffffffffffffffff167fddf252ad1be2c89b69c2b068fc378daa952ba7f163c4a11628f55a4df523b3ef60405160405180910390a45050565b8173ffffffffffffffffffffffffffffffffffffffff168373ffffffffffffffffffffffffffffffffffffffff16141561246a576040517f08c379a0000000000000000000000000000000000000000000000000000000008152600401612461906135a8565b60405180910390fd5b80600660008573ffffffffffffffffffffffffffffffffffffffff1673ffffffffffffffffffffffffffffffffffffffff16815260200190815260200160002060008473ffffffffffffffffffffffffffffffffffffffff1673ffffffffffffffffffffffffffffffffffffffff16815260200190815260200160002060006101000a81548160ff0219169083151502179055508173ffffffffffffffffffffffffffffffffffffffff168373ffffffffffffffffffffffffffffffffffffffff167f17307eab39ab6107e8899845ad3d59bd9653f200f220920489ca2b5937696c318360405161255b919061339a565b60405180910390a3505050565b612573848484611fbe565b61257f84848484612741565b6125be576040517f08c379a00000000000000000000000000000000000000000000000000000000081526004016125b590613528565b60405180910390fd5b50505050565b606060405180602001604052806000815250905090565b60606000821415612623576040518060400160405280600181526020017f30000000000000000000000000000000000000000000000000000000000000008152509050612737565b600082905060005b6000821461265557808061263e90613a6e565b915050600a8261264e919061385b565b915061262b565b60008167ffffffffffffffff81111561267157612670613bc0565b5b6040519080825280601f01601f1916602001820160405280156126a35781602001600182028036833780820191505090505b5090505b60008514612730576001826126bc91906138e6565b9150600a856126cb9190613ad3565b60306126d79190613805565b60f81b8183815181106126ed576126ec613b91565b5b60200101907effffffffffffffffffffffffffffffffffffffffffffffffffffffffffffff1916908160001a905350600a85612729919061385b565b94506126a7565b8093505050505b919050565b505050565b60006127628473ffffffffffffffffffffffffffffffffffffffff1661221a565b156128cb578373ffffffffffffffffffffffffffffffffffffffff1663150b7a0261278b611e1f565b8786866040518563ffffffff1660e01b81526004016127ad94939291906132b6565b602060405180830381600087803b1580156127c757600080fd5b505af19250505080156127f857506040513d601f19601f820116820180604052508101906127f59190612d27565b60015b61287b573d8060008114612828576040519150601f19603f3d011682016040523d82523d6000602084013e61282d565b606091505b50600081511415612873576040517f08c379a000000000000000000000000000000000000000000000000000000000815260040161286a90613528565b60405180910390fd5b805181602001fd5b63150b7a0260e01b7bffffffffffffffffffffffffffffffffffffffffffffffffffffffff1916817bffffffffffffffffffffffffffffffffffffffffffffffffffffffff1916149150506128d0565b600190505b949350505050565b60006128eb6128e684613791565b61376c565b90508281526020810184848401111561290757612906613bf4565b5b6129128482856139c9565b509392505050565b600081359050612929816140a2565b92915050565b60008135905061293e816140b9565b92915050565b600081519050612953816140b9565b92915050565b600081359050612968816140d0565b92915050565b60008135905061297d816140e7565b92915050565b600081519050612992816140e7565b92915050565b600082601f8301126129ad576129ac613bef565b5b81356129bd8482602086016128d8565b91505092915050565b6000813590506129d5816140fe565b92915050565b6000813590506129ea81614115565b92915050565b600060208284031215612a0657612a05613bfe565b5b6000612a148482850161291a565b91505092915050565b60008060408385031215612a3457612a33613bfe565b5b6000612a428582860161291a565b9250506020612a538582860161291a565b9150509250929050565b600080600060608486031215612a7657612a75613bfe565b5b6000612a848682870161291a565b9350506020612a958682870161291a565b9250506040612aa6868287016129c6565b9150509250925092565b60008060008060808587031215612aca57612ac9613bfe565b5b6000612ad88782880161291a565b9450506020612ae98782880161291a565b9350506040612afa878288016129c6565b925050606085013567ffffffffffffffff811115612b1b57612b1a613bf9565b5b612b2787828801612998565b91505092959194509250565b60008060008060008060c08789031215612b5057612b4f613bfe565b5b6000612b5e89828a0161291a565b9650506020612b6f89828a0161291a565b9550506040612b8089828a016129c6565b9450506060612b9189828a016129db565b9350506080612ba289828a01612959565b92505060a0612bb389828a01612959565b9150509295509295509295565b60008060408385031215612bd757612bd6613bfe565b5b6000612be58582860161291a565b9250506020612bf68582860161292f565b9150509250929050565b60008060408385031215612c1757612c16613bfe565b5b6000612c258582860161291a565b9250506020612c36858286016129c6565b9150509250929050565b60008060008060008060c08789031215612c5d57612c5c613bfe565b5b6000612c6b89828a0161291a565b9650506020612c7c89828a016129c6565b9550506040612c8d89828a016129c6565b9450506060612c9e89828a016129db565b9350506080612caf89828a01612959565b92505060a0612cc089828a01612959565b9150509295509295509295565b600060208284031215612ce357612ce2613bfe565b5b6000612cf184828501612944565b91505092915050565b600060208284031215612d1057612d0f613bfe565b5b6000612d1e8482850161296e565b91505092915050565b600060208284031215612d3d57612d3c613bfe565b5b6000612d4b84828501612983565b91505092915050565b600060208284031215612d6a57612d69613bfe565b5b6000612d78848285016129c6565b91505092915050565b60008060408385031215612d9857612d97613bfe565b5b6000612da6858286016129c6565b9250506020612db7858286016129c6565b9150509250929050565b60008060008060008060c08789031215612dde57612ddd613bfe565b5b6000612dec89828a016129c6565b9650506020612dfd89828a016129c6565b9550506040612e0e89828a016129c6565b9450506060612e1f89828a016129db565b9350506080612e3089828a01612959565b92505060a0612e4189828a01612959565b9150509295509295509295565b612e578161391a565b82525050565b612e668161392c565b82525050565b612e7581613938565b82525050565b612e8c612e8782613938565b613ab7565b82525050565b6000612e9d826137c2565b612ea781856137d8565b9350612eb78185602086016139d8565b612ec081613c03565b840191505092915050565b612ed4816139a5565b82525050565b6000612ee5826137cd565b612eef81856137e9565b9350612eff8185602086016139d8565b612f0881613c03565b840191505092915050565b6000612f1e826137cd565b612f2881856137fa565b9350612f388185602086016139d8565b80840191505092915050565b6000612f516032836137e9565b9150612f5c82613c21565b604082019050919050565b6000612f746026836137e9565b9150612f7f82613c70565b604082019050919050565b6000612f97601c836137e9565b9150612fa282613cbf565b602082019050919050565b6000612fba6002836137fa565b9150612fc582613ce8565b600282019050919050565b6000612fdd6024836137e9565b9150612fe882613d11565b604082019050919050565b60006130006019836137e9565b915061300b82613d60565b602082019050919050565b6000613023602c836137e9565b915061302e82613d89565b604082019050919050565b60006130466038836137e9565b915061305182613dd8565b604082019050919050565b6000613069602a836137e9565b915061307482613e27565b604082019050919050565b600061308c6029836137e9565b915061309782613e76565b604082019050919050565b60006130af6020836137e9565b91506130ba82613ec5565b602082019050919050565b60006130d2602c836137e9565b91506130dd82613eee565b604082019050919050565b60006130f56020836137e9565b915061310082613f3d565b602082019050919050565b60006131186029836137e9565b915061312382613f66565b604082019050919050565b600061313b602f836137e9565b915061314682613fb5565b604082019050919050565b600061315e6021836137e9565b915061316982614004565b604082019050919050565b60006131816031836137e9565b915061318c82614053565b604082019050919050565b6131a08161398e565b82525050565b6131af81613998565b82525050565b6131c66131c182613998565b613ac1565b82525050565b60006131d88286612e7b565b6020820191506131e88285612e7b565b6020820191506131f882846131b5565b600182019150819050949350505050565b60006132158285612f13565b91506132218284612f13565b91508190509392505050565b600061323882612fad565b91506132448285612e7b565b6020820191506132548284612e7b565b6020820191508190509392505050565b60006020820190506132796000830184612e4e565b92915050565b60006060820190506132946000830186612e4e565b6132a16020830185612e4e565b6132ae6040830184613197565b949350505050565b60006080820190506132cb6000830187612e4e565b6132d86020830186612e4e565b6132e56040830185613197565b81810360608301526132f78184612e92565b905095945050505050565b600060e082019050613317600083018a612e4e565b6133246020830189612e4e565b6133316040830188613197565b61333e6060830187613197565b61334b60808301866131a6565b61335860a0830185612e6c565b61336560c0830184612e6c565b98975050505050505050565b60006040820190506133866000830185612e4e565b6133936020830184613197565b9392505050565b60006020820190506133af6000830184612e5d565b92915050565b60006020820190506133ca6000830184612e6c565b92915050565b600060a0820190506133e56000830188612e6c565b6133f26020830187612e4e565b6133ff6040830186612e4e565b61340c6060830185613197565b6134196080830184613197565b9695505050505050565b600060a0820190506134386000830188612e6c565b6134456020830187612e4e565b6134526040830186613197565b61345f6060830185613197565b61346c6080830184613197565b9695505050505050565b600060408201905061348b6000830185612e6c565b818103602083015261349d8184612e92565b90509392505050565b60006080820190506134bb6000830187612e6c565b6134c860208301866131a6565b6134d56040830185612e6c565b6134e26060830184612e6c565b95945050505050565b60006020820190506135006000830184612ecb565b92915050565b600060208201905081810360008301526135208184612eda565b905092915050565b6000602082019050818103600083015261354181612f44565b9050919050565b6000602082019050818103600083015261356181612f67565b9050919050565b6000602082019050818103600083015261358181612f8a565b9050919050565b600060208201905081810360008301526135a181612fd0565b9050919050565b600060208201905081810360008301526135c181612ff3565b9050919050565b600060208201905081810360008301526135e181613016565b9050919050565b6000602082019050818103600083015261360181613039565b9050919050565b600060208201905081810360008301526136218161305c565b9050919050565b600060208201905081810360008301526136418161307f565b9050919050565b60006020820190508181036000830152613661816130a2565b9050919050565b60006020820190508181036000830152613681816130c5565b9050919050565b600060208201905081810360008301526136a1816130e8565b9050919050565b600060208201905081810360008301526136c18161310b565b9050919050565b600060208201905081810360008301526136e18161312e565b9050919050565b6000602082019050818103600083015261370181613151565b9050919050565b6000602082019050818103600083015261372181613174565b9050919050565b600060208201905061373d6000830184613197565b92915050565b60006040820190506137586000830185613197565b6137656020830184613197565b9392505050565b6000613776613787565b90506137828282613a3d565b919050565b6000604051905090565b600067ffffffffffffffff8211156137ac576137ab613bc0565b5b6137b582613c03565b9050602081019050919050565b600081519050919050565b600081519050919050565b600082825260208201905092915050565b600082825260208201905092915050565b600081905092915050565b60006138108261398e565b915061381b8361398e565b9250827fffffffffffffffffffffffffffffffffffffffffffffffffffffffffffffffff038211156138505761384f613b04565b5b828201905092915050565b60006138668261398e565b91506138718361398e565b92508261388157613880613b33565b5b828204905092915050565b60006138978261398e565b91506138a28361398e565b9250817fffffffffffffffffffffffffffffffffffffffffffffffffffffffffffffffff04831182151516156138db576138da613b04565b5b828202905092915050565b60006138f18261398e565b91506138fc8361398e565b92508282101561390f5761390e613b04565b5b828203905092915050565b60006139258261396e565b9050919050565b60008115159050919050565b6000819050919050565b60007fffffffff0000000000000000000000000000000000000000000000000000000082169050919050565b600073ffffffffffffffffffffffffffffffffffffffff82169050919050565b6000819050919050565b600060ff82169050919050565b60006139b0826139b7565b9050919050565b60006139c28261396e565b9050919050565b82818337600083830152505050565b60005b838110156139f65780820151818401526020810190506139db565b83811115613a05576000848401525b50505050565b60006002820490506001821680613a2357607f821691505b60208210811415613a3757613a36613b62565b5b50919050565b613a4682613c03565b810181811067ffffffffffffffff82111715613a6557613a64613bc0565b5b80604052505050565b6000613a798261398e565b91507fffffffffffffffffffffffffffffffffffffffffffffffffffffffffffffffff821415613aac57613aab613b04565b5b600182019050919050565b6000819050919050565b6000613acc82613c14565b9050919050565b6000613ade8261398e565b9150613ae98361398e565b925082613af957613af8613b33565b5b828206905092915050565b7f4e487b7100000000000000000000000000000000000000000000000000000000600052601160045260246000fd5b7f4e487b7100000000000000000000000000000000000000000000000000000000600052601260045260246000fd5b7f4e487b7100000000000000000000000000000000000000000000000000000000600052602260045260246000fd5b7f4e487b7100000000000000000000000000000000000000000000000000000000600052603260045260246000fd5b7f4e487b7100000000000000000000000000000000000000000000000000000000600052604160045260246000fd5b600080fd5b600080fd5b600080fd5b600080fd5b6000601f19601f8301169050919050565b60008160f81b9050919050565b7f4552433732313a207472616e7366657220746f206e6f6e20455243373231526560008201527f63656976657220696d706c656d656e7465720000000000000000000000000000602082015250565b7f4f776e61626c653a206e6577206f776e657220697320746865207a65726f206160008201527f6464726573730000000000000000000000000000000000000000000000000000602082015250565b7f4552433732313a20746f6b656e20616c7265616479206d696e74656400000000600082015250565b7f1901000000000000000000000000000000000000000000000000000000000000600082015250565b7f4552433732313a207472616e7366657220746f20746865207a65726f2061646460008201527f7265737300000000000000000000000000000000000000000000000000000000602082015250565b7f4552433732313a20617070726f766520746f2063616c6c657200000000000000600082015250565b7f4552433732313a206f70657261746f7220717565727920666f72206e6f6e657860008201527f697374656e7420746f6b656e0000000000000000000000000000000000000000602082015250565b7f4552433732313a20617070726f76652063616c6c6572206973206e6f74206f7760008201527f6e6572206e6f7220617070726f76656420666f7220616c6c0000000000000000602082015250565b7f4552433732313a2062616c616e636520717565727920666f7220746865207a6560008201527f726f206164647265737300000000000000000000000000000000000000000000602082015250565b7f4552433732313a206f776e657220717565727920666f72206e6f6e657869737460008201527f656e7420746f6b656e0000000000000000000000000000000000000000000000602082015250565b7f4552433732313a206d696e7420746f20746865207a65726f2061646472657373600082015250565b7f4552433732313a20617070726f76656420717565727920666f72206e6f6e657860008201527f697374656e7420746f6b656e0000000000000000000000000000000000000000602082015250565b7f4f776e61626c653a2063616c6c6572206973206e6f7420746865206f776e6572600082015250565b7f4552433732313a207472616e73666572206f6620746f6b656e2074686174206960008201527f73206e6f74206f776e0000000000000000000000000000000000000000000000602082015250565b7f4552433732314d657461646174613a2055524920717565727920666f72206e6f60008201527f6e6578697374656e7420746f6b656e0000000000000000000000000000000000602082015250565b7f4552433732313a20617070726f76616c20746f2063757272656e74206f776e6560008201527f7200000000000000000000000000000000000000000000000000000000000000602082015250565b7f4552433732313a207472616e736665722063616c6c6572206973206e6f74206f60008201527f776e6572206e6f7220617070726f766564000000000000000000000000000000602082015250565b6140ab8161391a565b81146140b657600080fd5b50565b6140c28161392c565b81146140cd57600080fd5b50565b6140d981613938565b81146140e457600080fd5b50565b6140f081613942565b81146140fb57600080fd5b50565b6141078161398e565b811461411257600080fd5b50565b61411e81613998565b811461412957600080fd5b5056fea2646970667358221220ab573617f197fb6c9e7c78c6da84af4fa7aa670bf30e738af13db62737d8e89464736f6c63430008050033",
  "linkReferences": {},
  "deployedLinkReferences": {}
}