{
  "_format": "hh-sol-artifact-1",
  "contractName": "Maid",
  "sourceName": "contracts/Maid.sol",
  "abi": [
    {
      "inputs": [
        {
          "internalType": "address",
          "name": "lpTokenAddr",
          "type": "address"
        }
      ],
      "stateMutability": "nonpayable",
      "type": "constructor"
    },
    {
      "anonymous": false,
      "inputs": [
        {
          "indexed": true,
          "internalType": "address",
          "name": "owner",
          "type": "address"
        },
        {
          "indexed": true,
          "internalType": "address",
          "name": "approved",
          "type": "address"
        },
        {
          "indexed": true,
          "internalType": "uint256",
          "name": "tokenId",
          "type": "uint256"
        }
      ],
      "name": "Approval",
      "type": "event"
    },
    {
      "anonymous": false,
      "inputs": [
        {
          "indexed": true,
          "internalType": "address",
          "name": "owner",
          "type": "address"
        },
        {
          "indexed": true,
          "internalType": "address",
          "name": "operator",
          "type": "address"
        },
        {
          "indexed": false,
          "internalType": "bool",
          "name": "approved",
          "type": "bool"
        }
      ],
      "name": "ApprovalForAll",
      "type": "event"
    },
    {
      "anonymous": false,
      "inputs": [
        {
          "indexed": false,
          "internalType": "uint256",
          "name": "value",
          "type": "uint256"
        }
      ],
      "name": "ChangeLPTokenToMaidPower",
      "type": "event"
    },
    {
      "anonymous": false,
      "inputs": [
        {
          "indexed": true,
          "internalType": "uint256",
          "name": "id",
          "type": "uint256"
        },
        {
          "indexed": false,
          "internalType": "uint256",
          "name": "lpTokenAmount",
          "type": "uint256"
        }
      ],
      "name": "Desupport",
      "type": "event"
    },
    {
      "anonymous": false,
      "inputs": [
        {
          "indexed": true,
          "internalType": "address",
          "name": "previousOwner",
          "type": "address"
        },
        {
          "indexed": true,
          "internalType": "address",
          "name": "newOwner",
          "type": "address"
        }
      ],
      "name": "OwnershipTransferred",
      "type": "event"
    },
    {
      "anonymous": false,
      "inputs": [
        {
          "indexed": true,
          "internalType": "uint256",
          "name": "id",
          "type": "uint256"
        },
        {
          "indexed": false,
          "internalType": "uint256",
          "name": "lpTokenAmount",
          "type": "uint256"
        }
      ],
      "name": "Support",
      "type": "event"
    },
    {
      "anonymous": false,
      "inputs": [
        {
          "indexed": true,
          "internalType": "address",
          "name": "from",
          "type": "address"
        },
        {
          "indexed": true,
          "internalType": "address",
          "name": "to",
          "type": "address"
        },
        {
          "indexed": true,
          "internalType": "uint256",
          "name": "tokenId",
          "type": "uint256"
        }
      ],
      "name": "Transfer",
      "type": "event"
    },
    {
      "inputs": [],
      "name": "DOMAIN_SEPARATOR",
      "outputs": [
        {
          "internalType": "bytes32",
          "name": "",
          "type": "bytes32"
        }
      ],
      "stateMutability": "view",
      "type": "function"
    },
    {
      "inputs": [],
      "name": "PERMIT_ALL_TYPEHASH",
      "outputs": [
        {
          "internalType": "bytes32",
          "name": "",
          "type": "bytes32"
        }
      ],
      "stateMutability": "view",
      "type": "function"
    },
    {
      "inputs": [],
      "name": "PERMIT_TYPEHASH",
      "outputs": [
        {
          "internalType": "bytes32",
          "name": "",
          "type": "bytes32"
        }
      ],
      "stateMutability": "view",
      "type": "function"
    },
    {
      "inputs": [
        {
          "internalType": "address",
          "name": "to",
          "type": "address"
        },
        {
          "internalType": "uint256",
          "name": "tokenId",
          "type": "uint256"
        }
      ],
      "name": "approve",
      "outputs": [],
      "stateMutability": "nonpayable",
      "type": "function"
    },
    {
      "inputs": [
        {
          "internalType": "address",
          "name": "owner",
          "type": "address"
        }
      ],
      "name": "balanceOf",
      "outputs": [
        {
          "internalType": "uint256",
          "name": "",
          "type": "uint256"
        }
      ],
      "stateMutability": "view",
      "type": "function"
    },
    {
      "inputs": [
        {
          "internalType": "uint256",
          "name": "value",
          "type": "uint256"
        }
      ],
      "name": "changeLPTokenToMaidPower",
      "outputs": [],
      "stateMutability": "nonpayable",
      "type": "function"
    },
    {
      "inputs": [
        {
          "internalType": "uint256",
          "name": "id",
          "type": "uint256"
        },
        {
          "internalType": "uint256",
          "name": "lpTokenAmount",
          "type": "uint256"
        }
      ],
      "name": "desupport",
      "outputs": [],
      "stateMutability": "nonpayable",
      "type": "function"
    },
    {
      "inputs": [
        {
          "internalType": "uint256",
          "name": "tokenId",
          "type": "uint256"
        }
      ],
      "name": "getApproved",
      "outputs": [
        {
          "internalType": "address",
          "name": "",
          "type": "address"
        }
      ],
      "stateMutability": "view",
      "type": "function"
    },
    {
      "inputs": [
        {
          "internalType": "address",
          "name": "owner",
          "type": "address"
        },
        {
          "internalType": "address",
          "name": "operator",
          "type": "address"
        }
      ],
      "name": "isApprovedForAll",
      "outputs": [
        {
          "internalType": "bool",
          "name": "",
          "type": "bool"
        }
      ],
      "stateMutability": "view",
      "type": "function"
    },
    {
      "inputs": [],
      "name": "lpToken",
      "outputs": [
        {
          "internalType": "contract IUniswapV2Pair",
          "name": "",
          "type": "address"
        }
      ],
      "stateMutability": "view",
      "type": "function"
    },
    {
      "inputs": [],
      "name": "lpTokenToMaidPower",
      "outputs": [
        {
          "internalType": "uint256",
          "name": "",
          "type": "uint256"
        }
      ],
      "stateMutability": "view",
      "type": "function"
    },
    {
      "inputs": [
        {
          "internalType": "uint256",
          "name": "",
          "type": "uint256"
        }
      ],
      "name": "maids",
      "outputs": [
        {
          "internalType": "uint256",
          "name": "originPower",
          "type": "uint256"
        },
        {
          "internalType": "uint256",
          "name": "supportedLPTokenAmount",
          "type": "uint256"
        }
      ],
      "stateMutability": "view",
      "type": "function"
    },
    {
      "inputs": [
        {
          "internalType": "uint256",
          "name": "power",
          "type": "uint256"
        }
      ],
      "name": "mint",
      "outputs": [
        {
          "internalType": "uint256",
          "name": "id",
          "type": "uint256"
        }
      ],
      "stateMutability": "nonpayable",
      "type": "function"
    },
    {
      "inputs": [],
      "name": "name",
      "outputs": [
        {
          "internalType": "string",
          "name": "",
          "type": "string"
        }
      ],
      "stateMutability": "view",
      "type": "function"
    },
    {
      "inputs": [
        {
          "internalType": "uint256",
          "name": "",
          "type": "uint256"
        }
      ],
      "name": "nonces",
      "outputs": [
        {
          "internalType": "uint256",
          "name": "",
          "type": "uint256"
        }
      ],
      "stateMutability": "view",
      "type": "function"
    },
    {
      "inputs": [
        {
          "internalType": "address",
          "name": "",
          "type": "address"
        }
      ],
      "name": "noncesForAll",
      "outputs": [
        {
          "internalType": "uint256",
          "name": "",
          "type": "uint256"
        }
      ],
      "stateMutability": "view",
      "type": "function"
    },
    {
      "inputs": [],
      "name": "owner",
      "outputs": [
        {
          "internalType": "address",
          "name": "",
          "type": "address"
        }
      ],
      "stateMutability": "view",
      "type": "function"
    },
    {
      "inputs": [
        {
          "internalType": "uint256",
          "name": "tokenId",
          "type": "uint256"
        }
      ],
      "name": "ownerOf",
      "outputs": [
        {
          "internalType": "address",
          "name": "",
          "type": "address"
        }
      ],
      "stateMutability": "view",
      "type": "function"
    },
    {
      "inputs": [
        {
          "internalType": "address",
          "name": "spender",
          "type": "address"
        },
        {
          "internalType": "uint256",
          "name": "id",
          "type": "uint256"
        },
        {
          "internalType": "uint256",
          "name": "deadline",
          "type": "uint256"
        },
        {
          "internalType": "uint8",
          "name": "v",
          "type": "uint8"
        },
        {
          "internalType": "bytes32",
          "name": "r",
          "type": "bytes32"
        },
        {
          "internalType": "bytes32",
          "name": "s",
          "type": "bytes32"
        }
      ],
      "name": "permit",
      "outputs": [],
      "stateMutability": "nonpayable",
      "type": "function"
    },
    {
      "inputs": [
        {
          "internalType": "address",
          "name": "owner",
          "type": "address"
        },
        {
          "internalType": "address",
          "name": "spender",
          "type": "address"
        },
        {
          "internalType": "uint256",
          "name": "deadline",
          "type": "uint256"
        },
        {
          "internalType": "uint8",
          "name": "v",
          "type": "uint8"
        },
        {
          "internalType": "bytes32",
          "name": "r",
          "type": "bytes32"
        },
        {
          "internalType": "bytes32",
          "name": "s",
          "type": "bytes32"
        }
      ],
      "name": "permitAll",
      "outputs": [],
      "stateMutability": "nonpayable",
      "type": "function"
    },
    {
      "inputs": [
        {
          "internalType": "uint256",
          "name": "id",
          "type": "uint256"
        }
      ],
      "name": "powerOf",
      "outputs": [
        {
          "internalType": "uint256",
          "name": "",
          "type": "uint256"
        }
      ],
      "stateMutability": "view",
      "type": "function"
    },
    {
      "inputs": [],
      "name": "renounceOwnership",
      "outputs": [],
      "stateMutability": "nonpayable",
      "type": "function"
    },
    {
      "inputs": [
        {
          "internalType": "address",
          "name": "from",
          "type": "address"
        },
        {
          "internalType": "address",
          "name": "to",
          "type": "address"
        },
        {
          "internalType": "uint256",
          "name": "tokenId",
          "type": "uint256"
        }
      ],
      "name": "safeTransferFrom",
      "outputs": [],
      "stateMutability": "nonpayable",
      "type": "function"
    },
    {
      "inputs": [
        {
          "internalType": "address",
          "name": "from",
          "type": "address"
        },
        {
          "internalType": "address",
          "name": "to",
          "type": "address"
        },
        {
          "internalType": "uint256",
          "name": "tokenId",
          "type": "uint256"
        },
        {
          "internalType": "bytes",
          "name": "_data",
          "type": "bytes"
        }
      ],
      "name": "safeTransferFrom",
      "outputs": [],
      "stateMutability": "nonpayable",
      "type": "function"
    },
    {
      "inputs": [
        {
          "internalType": "address",
          "name": "operator",
          "type": "address"
        },
        {
          "internalType": "bool",
          "name": "approved",
          "type": "bool"
        }
      ],
      "name": "setApprovalForAll",
      "outputs": [],
      "stateMutability": "nonpayable",
      "type": "function"
    },
    {
      "inputs": [
        {
          "internalType": "uint256",
          "name": "id",
          "type": "uint256"
        },
        {
          "internalType": "uint256",
          "name": "lpTokenAmount",
          "type": "uint256"
        }
      ],
      "name": "support",
      "outputs": [],
      "stateMutability": "nonpayable",
      "type": "function"
    },
    {
      "inputs": [
        {
          "internalType": "uint256",
          "name": "id",
          "type": "uint256"
        },
        {
          "internalType": "uint256",
          "name": "lpTokenAmount",
          "type": "uint256"
        },
        {
          "internalType": "uint256",
          "name": "deadline",
          "type": "uint256"
        },
        {
          "internalType": "uint8",
          "name": "v",
          "type": "uint8"
        },
        {
          "internalType": "bytes32",
          "name": "r",
          "type": "bytes32"
        },
        {
          "internalType": "bytes32",
          "name": "s",
          "type": "bytes32"
        }
      ],
      "name": "supportWithPermit",
      "outputs": [],
      "stateMutability": "nonpayable",
      "type": "function"
    },
    {
      "inputs": [
        {
          "internalType": "bytes4",
          "name": "interfaceId",
          "type": "bytes4"
        }
      ],
      "name": "supportsInterface",
      "outputs": [
        {
          "internalType": "bool",
          "name": "",
          "type": "bool"
        }
      ],
      "stateMutability": "view",
      "type": "function"
    },
    {
      "inputs": [],
      "name": "symbol",
      "outputs": [
        {
          "internalType": "string",
          "name": "",
          "type": "string"
        }
      ],
      "stateMutability": "view",
      "type": "function"
    },
    {
      "inputs": [
        {
          "internalType": "uint256",
          "name": "tokenId",
          "type": "uint256"
        }
      ],
      "name": "tokenURI",
      "outputs": [
        {
          "internalType": "string",
          "name": "",
          "type": "string"
        }
      ],
      "stateMutability": "view",
      "type": "function"
    },
    {
      "inputs": [
        {
          "internalType": "address",
          "name": "from",
          "type": "address"
        },
        {
          "internalType": "address",
          "name": "to",
          "type": "address"
        },
        {
          "internalType": "uint256",
          "name": "tokenId",
          "type": "uint256"
        }
      ],
      "name": "transferFrom",
      "outputs": [],
      "stateMutability": "nonpayable",
      "type": "function"
    },
    {
      "inputs": [
        {
          "internalType": "address",
          "name": "newOwner",
          "type": "address"
        }
      ],
      "name": "transferOwnership",
      "outputs": [],
      "stateMutability": "nonpayable",
      "type": "function"
    }
  ],
  "bytecode": "0x60c060405260016009553480156200001657600080fd5b50604051620026e1380380620026e18339810160408190526200003991620002ac565b6040518060400160405280600481526020016313585a5960e21b815250604051806040016040528060048152602001631350525160e21b8152506000620000856200020260201b60201c565b600080546001600160a01b0319166001600160a01b0383169081178255604051929350917f8be0079c531659141344cd1fd0a4f28419497f9722a3daafe3b4186f6b6457e0908290a3508151620000e490600190602085019062000206565b508051620000fa90600290602084019062000206565b5050506001600160601b0319606082901b1660a052604080518082018252600481526313585a5960e21b6020918201528151808301835260018152603160f81b9082015290514691620001de917f8b73c3c69bb8fe3d512ecc4cf759cc79239f7b179b0ffacaa9a75d522b39400f917f82cd791e5b03d3795dfac6fbeab5f6a70e329ffda1bc500a1aa1ccc7aba7ee27917fc89efdaa54c0f20c7adf612882df0950f5a951637e0307cdcb4c672f298b8bc69186913091019485526020850193909352604084019190915260608301526001600160a01b0316608082015260a00190565b60408051601f198184030181529190528051602090910120608052506200031b9050565b3390565b8280546200021490620002de565b90600052602060002090601f01602090048101928262000238576000855562000283565b82601f106200025357805160ff191683800117855562000283565b8280016001018555821562000283579182015b828111156200028357825182559160200191906001019062000266565b506200029192915062000295565b5090565b5b8082111562000291576000815560010162000296565b600060208284031215620002bf57600080fd5b81516001600160a01b0381168114620002d757600080fd5b9392505050565b600181811c90821680620002f357607f821691505b602082108114156200031557634e487b7160e01b600052602260045260246000fd5b50919050565b60805160a05160601c61237a620003676000396000818161035401528181610a5001528181610def0152610fe701526000818161031a01528181610b540152611130015261237a6000f3fe608060405234801561001057600080fd5b50600436106101f05760003560e01c80637492ee281161010f578063a234d608116100a2578063c87b56dd11610071578063c87b56dd146104a5578063dda368c6146104b8578063e985e9c5146104cb578063f2fde38b1461050757600080fd5b8063a234d60814610445578063aba0784714610458578063b4e13c8d1461046b578063b88d4fde1461049257600080fd5b806395d89b41116100de57806395d89b41146104045780639be56c671461040c578063a0712d681461041f578063a22cb4651461043257600080fd5b80637492ee28146103ad5780637ac2ff7b146103c05780638da5cb5b146103d3578063904dfb8e146103e457600080fd5b806330adf81f116101875780636352211e116101565780636352211e146103765780636fb49f091461038957806370a0823114610392578063715018a6146103a557600080fd5b806330adf81f146102ee5780633644e5151461031557806342842e0e1461033c5780635fcbd2851461034f57600080fd5b8063081812fc116101c3578063081812fc1461027b578063095ea7b3146102a6578063141a468c146102bb57806323b872dd146102db57600080fd5b806301ffc9a7146101f557806303c0bdcd1461021d57806304eaa1131461024557806306fdde0314610266575b600080fd5b610208610203366004611f85565b61051a565b60405190151581526020015b60405180910390f35b61023061022b366004611fbf565b61056c565b60408051928352602083019190915201610214565b610258610253366004611fbf565b61059a565b604051908152602001610214565b61026e610610565b60405161021491906120e2565b61028e610289366004611fbf565b6106a2565b6040516001600160a01b039091168152602001610214565b6102b96102b4366004611f00565b61073c565b005b6102586102c9366004611fbf565b60076020526000908152604090205481565b6102b96102e9366004611d52565b610852565b6102587f49ecf333e5b8c95c40fdafc95c1ad136e8914a8fb55e9dc8bb01eaa83a2df9ad81565b6102587f000000000000000000000000000000000000000000000000000000000000000081565b6102b961034a366004611d52565b610883565b61028e7f000000000000000000000000000000000000000000000000000000000000000081565b61028e610384366004611fbf565b61089e565b61025860095481565b6102586103a0366004611d04565b610915565b6102b961099c565b6102b96103bb366004611ffa565b610a10565b6102b96103ce366004611f2a565b610ac6565b6000546001600160a01b031661028e565b6102586103f2366004611d04565b60086020526000908152604090205481565b61026e610d68565b6102b961041a366004611fd8565b610d77565b61025861042d366004611fbf565b610eb2565b6102b9610440366004611ec9565b610f66565b6102b9610453366004611fd8565b610f75565b6102b9610466366004611e6a565b61109e565b6102587fdaab21af31ece73a508939fedd476a5ee5129a5ed4bb091f3236ffb45394df6281565b6102b96104a0366004611d8e565b61131a565b61026e6104b3366004611fbf565b611352565b6102b96104c6366004611fbf565b611439565b6102086104d9366004611d1f565b6001600160a01b03918216600090815260066020908152604080832093909416825291909152205460ff1690565b6102b9610515366004611d04565b61149e565b60006001600160e01b031982166380ac58cd60e01b148061054b57506001600160e01b03198216635b5e139f60e01b145b8061056657506301ffc9a760e01b6001600160e01b03198316145b92915050565b600a818154811061057c57600080fd5b60009182526020909120600290910201805460019091015490915082565b600080600a83815481106105b0576105b06122f1565b6000918252602091829020604080518082019091526002909202018054825260010154918101829052600954909250670de0b6b3a7640000916105f391906121f9565b6105fd91906121e5565b815161060991906121cd565b9392505050565b60606001805461061f9061225b565b80601f016020809104026020016040519081016040528092919081815260200182805461064b9061225b565b80156106985780601f1061066d57610100808354040283529160200191610698565b820191906000526020600020905b81548152906001019060200180831161067b57829003601f168201915b5050505050905090565b6000818152600360205260408120546001600160a01b03166107205760405162461bcd60e51b815260206004820152602c60248201527f4552433732313a20617070726f76656420717565727920666f72206e6f6e657860448201526b34b9ba32b73a103a37b5b2b760a11b60648201526084015b60405180910390fd5b506000908152600560205260409020546001600160a01b031690565b60006107478261089e565b9050806001600160a01b0316836001600160a01b031614156107b55760405162461bcd60e51b815260206004820152602160248201527f4552433732313a20617070726f76616c20746f2063757272656e74206f776e656044820152603960f91b6064820152608401610717565b336001600160a01b03821614806107d157506107d181336104d9565b6108435760405162461bcd60e51b815260206004820152603860248201527f4552433732313a20617070726f76652063616c6c6572206973206e6f74206f7760448201527f6e6572206e6f7220617070726f76656420666f7220616c6c00000000000000006064820152608401610717565b61084d8383611588565b505050565b61085c33826115f6565b6108785760405162461bcd60e51b81526004016107179061217c565b61084d8383836116ed565b61084d8383836040518060200160405280600081525061131a565b6000818152600360205260408120546001600160a01b0316806105665760405162461bcd60e51b815260206004820152602960248201527f4552433732313a206f776e657220717565727920666f72206e6f6e657869737460448201526832b73a103a37b5b2b760b91b6064820152608401610717565b60006001600160a01b0382166109805760405162461bcd60e51b815260206004820152602a60248201527f4552433732313a2062616c616e636520717565727920666f7220746865207a65604482015269726f206164647265737360b01b6064820152608401610717565b506001600160a01b031660009081526004602052604090205490565b6000546001600160a01b031633146109c65760405162461bcd60e51b815260040161071790612147565b600080546040516001600160a01b03909116907f8be0079c531659141344cd1fd0a4f28419497f9722a3daafe3b4186f6b6457e0908390a3600080546001600160a01b0319169055565b60405163d505accf60e01b8152336004820152306024820152604481018690526064810185905260ff8416608482015260a4810183905260c481018290527f00000000000000000000000000000000000000000000000000000000000000006001600160a01b03169063d505accf9060e401600060405180830381600087803b158015610a9c57600080fd5b505af1158015610ab0573d6000803e3d6000fd5b50505050610abe8686610d77565b505050505050565b83421115610ad357600080fd5b6000858152600760208181526040808420805482517f49ecf333e5b8c95c40fdafc95c1ad136e8914a8fb55e9dc8bb01eaa83a2df9ad818601526001600160a01b038d1681850152606081018c90526080810182905260a08082018c90528451808303909101815260c08201855280519086012061190160f01b60e08301527f000000000000000000000000000000000000000000000000000000000000000060e283015261010280830191909152845180830390910181526101229091019093528251928401929092208a8652939092529192600192610bb59084906121cd565b9091555060009050610bc68761089e565b9050806001600160a01b0316886001600160a01b03161415610be757600080fd5b803b15610cc057604080516020810186905280820185905260f887901b6001600160f81b0319166060820152815160418183030181526061820192839052630b135d3f60e11b9092526001600160a01b03831691631626ba7e91610c4f9186916065016120c9565b60206040518083038186803b158015610c6757600080fd5b505afa158015610c7b573d6000803e3d6000fd5b505050506040513d601f19601f82011682018060405250810190610c9f9190611fa2565b6001600160e01b031916631626ba7e60e01b14610cbb57600080fd5b610d54565b6040805160008082526020820180845285905260ff881692820192909252606081018690526080810185905260019060a0016020604051602081039080840390855afa158015610d14573d6000803e3d6000fd5b5050604051601f1901519150506001600160a01b038116610d3457600080fd5b816001600160a01b0316816001600160a01b031614610d5257600080fd5b505b610d5e8888611588565b5050505050505050565b60606002805461061f9061225b565b33610d818361089e565b6001600160a01b031614610d9457600080fd5b80600a8381548110610da857610da86122f1565b90600052602060002090600202016001016000828254610dc891906121cd565b90915550506040516323b872dd60e01b8152336004820152306024820152604481018290527f00000000000000000000000000000000000000000000000000000000000000006001600160a01b0316906323b872dd90606401602060405180830381600087803b158015610e3b57600080fd5b505af1158015610e4f573d6000803e3d6000fd5b505050506040513d601f19601f82011682018060405250810190610e739190611f68565b50817f9c86c947c690753cc6de6016e1c45414d895662cc13af08319148419baf5df2f82604051610ea691815260200190565b60405180910390a25050565b600080546001600160a01b03163314610edd5760405162461bcd60e51b815260040161071790612147565b50600a80546040805180820190915283815260006020820181815260018401855593905251600282027fc65a7bb8d6351c1cf70c95a316cc6a92839c986682d98bc35f958f4883f9d2a881019190915591517fc65a7bb8d6351c1cf70c95a316cc6a92839c986682d98bc35f958f4883f9d2a990920191909155610f61338261188d565b919050565b610f713383836119cf565b5050565b33610f7f8361089e565b6001600160a01b031614610f9257600080fd5b80600a8381548110610fa657610fa66122f1565b90600052602060002090600202016001016000828254610fc69190612218565b909155505060405163a9059cbb60e01b8152336004820152602481018290527f00000000000000000000000000000000000000000000000000000000000000006001600160a01b03169063a9059cbb90604401602060405180830381600087803b15801561103357600080fd5b505af1158015611047573d6000803e3d6000fd5b505050506040513d601f19601f8201168201806040525081019061106b9190611f68565b50817fb08330c00f69f3f2343fd81719784be16358c64832e868cd5ccec5b98ec6289782604051610ea691815260200190565b834211156110ab57600080fd5b6001600160a01b038681166000818152600860208181526040808420805482517fdaab21af31ece73a508939fedd476a5ee5129a5ed4bb091f3236ffb45394df6281860152808401889052978d1660608901526080880181905260a08089018d90528351808a03909101815260c08901845280519085012061190160f01b60e08a01527f000000000000000000000000000000000000000000000000000000000000000060e28a0152610102808a01919091528351808a03909101815261012290980190925286519683019690962094845291905291926001929091906111939084906121cd565b9091555050863b1561127157604080516020810185905280820184905260f886901b6001600160f81b0319166060820152815160418183030181526061820192839052630b135d3f60e11b9092526001600160a01b03891691631626ba7e916112009185916065016120c9565b60206040518083038186803b15801561121857600080fd5b505afa15801561122c573d6000803e3d6000fd5b505050506040513d601f19601f820116820180604052508101906112509190611fa2565b6001600160e01b031916631626ba7e60e01b1461126c57600080fd5b611305565b6040805160008082526020820180845284905260ff871692820192909252606081018590526080810184905260019060a0016020604051602081039080840390855afa1580156112c5573d6000803e3d6000fd5b5050604051601f1901519150506001600160a01b0381166112e557600080fd5b876001600160a01b0316816001600160a01b03161461130357600080fd5b505b611311878760016119cf565b50505050505050565b61132433836115f6565b6113405760405162461bcd60e51b81526004016107179061217c565b61134c84848484611a9e565b50505050565b6000818152600360205260409020546060906001600160a01b03166113d15760405162461bcd60e51b815260206004820152602f60248201527f4552433732314d657461646174613a2055524920717565727920666f72206e6f60448201526e3732bc34b9ba32b73a103a37b5b2b760891b6064820152608401610717565b60006113e860408051602081019091526000815290565b905060008151116114085760405180602001604052806000815250610609565b8061141284611ad1565b60405160200161142392919061205d565b6040516020818303038152906040529392505050565b6000546001600160a01b031633146114635760405162461bcd60e51b815260040161071790612147565b60098190556040518181527f4cc6f61797d7bcd39a96045b3f7c8cb2feed2fe23d042b62757ab6499b07cf559060200160405180910390a150565b6000546001600160a01b031633146114c85760405162461bcd60e51b815260040161071790612147565b6001600160a01b03811661152d5760405162461bcd60e51b815260206004820152602660248201527f4f776e61626c653a206e6577206f776e657220697320746865207a65726f206160448201526564647265737360d01b6064820152608401610717565b600080546040516001600160a01b03808516939216917f8be0079c531659141344cd1fd0a4f28419497f9722a3daafe3b4186f6b6457e091a3600080546001600160a01b0319166001600160a01b0392909216919091179055565b600081815260056020526040902080546001600160a01b0319166001600160a01b03841690811790915581906115bd8261089e565b6001600160a01b03167f8c5be1e5ebec7d5bd14f71427d1e84f3dd0314c0f7b2291e5b200ac8c7c3b92560405160405180910390a45050565b6000818152600360205260408120546001600160a01b031661166f5760405162461bcd60e51b815260206004820152602c60248201527f4552433732313a206f70657261746f7220717565727920666f72206e6f6e657860448201526b34b9ba32b73a103a37b5b2b760a11b6064820152608401610717565b600061167a8361089e565b9050806001600160a01b0316846001600160a01b031614806116b55750836001600160a01b03166116aa846106a2565b6001600160a01b0316145b806116e557506001600160a01b0380821660009081526006602090815260408083209388168352929052205460ff165b949350505050565b826001600160a01b03166117008261089e565b6001600160a01b0316146117685760405162461bcd60e51b815260206004820152602960248201527f4552433732313a207472616e73666572206f6620746f6b656e2074686174206960448201526839903737ba1037bbb760b91b6064820152608401610717565b6001600160a01b0382166117ca5760405162461bcd60e51b8152602060048201526024808201527f4552433732313a207472616e7366657220746f20746865207a65726f206164646044820152637265737360e01b6064820152608401610717565b6117d5600082611588565b6001600160a01b03831660009081526004602052604081208054600192906117fe908490612218565b90915550506001600160a01b038216600090815260046020526040812080546001929061182c9084906121cd565b909155505060008181526003602052604080822080546001600160a01b0319166001600160a01b0386811691821790925591518493918716917fddf252ad1be2c89b69c2b068fc378daa952ba7f163c4a11628f55a4df523b3ef91a4505050565b6001600160a01b0382166118e35760405162461bcd60e51b815260206004820181905260248201527f4552433732313a206d696e7420746f20746865207a65726f20616464726573736044820152606401610717565b6000818152600360205260409020546001600160a01b0316156119485760405162461bcd60e51b815260206004820152601c60248201527f4552433732313a20746f6b656e20616c7265616479206d696e746564000000006044820152606401610717565b6001600160a01b03821660009081526004602052604081208054600192906119719084906121cd565b909155505060008181526003602052604080822080546001600160a01b0319166001600160a01b03861690811790915590518392907fddf252ad1be2c89b69c2b068fc378daa952ba7f163c4a11628f55a4df523b3ef908290a45050565b816001600160a01b0316836001600160a01b03161415611a315760405162461bcd60e51b815260206004820152601960248201527f4552433732313a20617070726f766520746f2063616c6c6572000000000000006044820152606401610717565b6001600160a01b03838116600081815260066020908152604080832094871680845294825291829020805460ff191686151590811790915591519182527f17307eab39ab6107e8899845ad3d59bd9653f200f220920489ca2b5937696c31910160405180910390a3505050565b611aa98484846116ed565b611ab584848484611bcf565b61134c5760405162461bcd60e51b8152600401610717906120f5565b606081611af55750506040805180820190915260018152600360fc1b602082015290565b8160005b8115611b1f5780611b0981612296565b9150611b189050600a836121e5565b9150611af9565b60008167ffffffffffffffff811115611b3a57611b3a612307565b6040519080825280601f01601f191660200182016040528015611b64576020820181803683370190505b5090505b84156116e557611b79600183612218565b9150611b86600a866122b1565b611b919060306121cd565b60f81b818381518110611ba657611ba66122f1565b60200101906001600160f81b031916908160001a905350611bc8600a866121e5565b9450611b68565b60006001600160a01b0384163b15611cd157604051630a85bd0160e11b81526001600160a01b0385169063150b7a0290611c1390339089908890889060040161208c565b602060405180830381600087803b158015611c2d57600080fd5b505af1925050508015611c5d575060408051601f3d908101601f19168201909252611c5a91810190611fa2565b60015b611cb7573d808015611c8b576040519150601f19603f3d011682016040523d82523d6000602084013e611c90565b606091505b508051611caf5760405162461bcd60e51b8152600401610717906120f5565b805181602001fd5b6001600160e01b031916630a85bd0160e11b1490506116e5565b506001949350505050565b80356001600160a01b0381168114610f6157600080fd5b803560ff81168114610f6157600080fd5b600060208284031215611d1657600080fd5b61060982611cdc565b60008060408385031215611d3257600080fd5b611d3b83611cdc565b9150611d4960208401611cdc565b90509250929050565b600080600060608486031215611d6757600080fd5b611d7084611cdc565b9250611d7e60208501611cdc565b9150604084013590509250925092565b60008060008060808587031215611da457600080fd5b611dad85611cdc565b9350611dbb60208601611cdc565b925060408501359150606085013567ffffffffffffffff80821115611ddf57600080fd5b818701915087601f830112611df357600080fd5b813581811115611e0557611e05612307565b604051601f8201601f19908116603f01168101908382118183101715611e2d57611e2d612307565b816040528281528a6020848701011115611e4657600080fd5b82602086016020830137600060208483010152809550505050505092959194509250565b60008060008060008060c08789031215611e8357600080fd5b611e8c87611cdc565b9550611e9a60208801611cdc565b945060408701359350611eaf60608801611cf3565b92506080870135915060a087013590509295509295509295565b60008060408385031215611edc57600080fd5b611ee583611cdc565b91506020830135611ef58161231d565b809150509250929050565b60008060408385031215611f1357600080fd5b611f1c83611cdc565b946020939093013593505050565b60008060008060008060c08789031215611f4357600080fd5b611f4c87611cdc565b95506020870135945060408701359350611eaf60608801611cf3565b600060208284031215611f7a57600080fd5b81516106098161231d565b600060208284031215611f9757600080fd5b81356106098161232e565b600060208284031215611fb457600080fd5b81516106098161232e565b600060208284031215611fd157600080fd5b5035919050565b60008060408385031215611feb57600080fd5b50508035926020909101359150565b60008060008060008060c0878903121561201357600080fd5b863595506020870135945060408701359350611eaf60608801611cf3565b6000815180845261204981602086016020860161222f565b601f01601f19169290920160200192915050565b6000835161206f81846020880161222f565b83519083019061208381836020880161222f565b01949350505050565b6001600160a01b03858116825284166020820152604081018390526080606082018190526000906120bf90830184612031565b9695505050505050565b8281526040602082015260006116e56040830184612031565b6020815260006106096020830184612031565b60208082526032908201527f4552433732313a207472616e7366657220746f206e6f6e20455243373231526560408201527131b2b4bb32b91034b6b83632b6b2b73a32b960711b606082015260800190565b6020808252818101527f4f776e61626c653a2063616c6c6572206973206e6f7420746865206f776e6572604082015260600190565b60208082526031908201527f4552433732313a207472616e736665722063616c6c6572206973206e6f74206f6040820152701ddb995c881b9bdc88185c1c1c9bdd9959607a1b606082015260800190565b600082198211156121e0576121e06122c5565b500190565b6000826121f4576121f46122db565b500490565b6000816000190483118215151615612213576122136122c5565b500290565b60008282101561222a5761222a6122c5565b500390565b60005b8381101561224a578181015183820152602001612232565b8381111561134c5750506000910152565b600181811c9082168061226f57607f821691505b6020821081141561229057634e487b7160e01b600052602260045260246000fd5b50919050565b60006000198214156122aa576122aa6122c5565b5060010190565b6000826122c0576122c06122db565b500690565b634e487b7160e01b600052601160045260246000fd5b634e487b7160e01b600052601260045260246000fd5b634e487b7160e01b600052603260045260246000fd5b634e487b7160e01b600052604160045260246000fd5b801515811461232b57600080fd5b50565b6001600160e01b03198116811461232b57600080fdfea2646970667358221220ec439adac42f0a256d242685a3509d4149440df298eda2a9f8cf547dee0c9e1b64736f6c63430008050033",
  "linkReferences": {},
  "deployedLinkReferences": {}
}