{
  "_format": "hh-sol-artifact-1",
  "contractName": "NursePart",
  "sourceName": "contracts/NursePart.sol",
  "abi": [
    {
      "inputs": [],
      "stateMutability": "nonpayable",
      "type": "constructor"
    },
    {
      "anonymous": false,
      "inputs": [
        {
          "indexed": true,
          "internalType": "address",
          "name": "account",
          "type": "address"
        },
        {
          "indexed": true,
          "internalType": "address",
          "name": "operator",
          "type": "address"
        },
        {
          "indexed": false,
          "internalType": "bool",
          "name": "approved",
          "type": "bool"
        }
      ],
      "name": "ApprovalForAll",
      "type": "event"
    },
    {
      "anonymous": false,
      "inputs": [
        {
          "indexed": true,
          "internalType": "address",
          "name": "previousOwner",
          "type": "address"
        },
        {
          "indexed": true,
          "internalType": "address",
          "name": "newOwner",
          "type": "address"
        }
      ],
      "name": "OwnershipTransferred",
      "type": "event"
    },
    {
      "anonymous": false,
      "inputs": [
        {
          "indexed": true,
          "internalType": "address",
          "name": "operator",
          "type": "address"
        },
        {
          "indexed": true,
          "internalType": "address",
          "name": "from",
          "type": "address"
        },
        {
          "indexed": true,
          "internalType": "address",
          "name": "to",
          "type": "address"
        },
        {
          "indexed": false,
          "internalType": "uint256[]",
          "name": "ids",
          "type": "uint256[]"
        },
        {
          "indexed": false,
          "internalType": "uint256[]",
          "name": "values",
          "type": "uint256[]"
        }
      ],
      "name": "TransferBatch",
      "type": "event"
    },
    {
      "anonymous": false,
      "inputs": [
        {
          "indexed": true,
          "internalType": "address",
          "name": "operator",
          "type": "address"
        },
        {
          "indexed": true,
          "internalType": "address",
          "name": "from",
          "type": "address"
        },
        {
          "indexed": true,
          "internalType": "address",
          "name": "to",
          "type": "address"
        },
        {
          "indexed": false,
          "internalType": "uint256",
          "name": "id",
          "type": "uint256"
        },
        {
          "indexed": false,
          "internalType": "uint256",
          "name": "value",
          "type": "uint256"
        }
      ],
      "name": "TransferSingle",
      "type": "event"
    },
    {
      "anonymous": false,
      "inputs": [
        {
          "indexed": false,
          "internalType": "string",
          "name": "value",
          "type": "string"
        },
        {
          "indexed": true,
          "internalType": "uint256",
          "name": "id",
          "type": "uint256"
        }
      ],
      "name": "URI",
      "type": "event"
    },
    {
      "inputs": [],
      "name": "DOMAIN_SEPARATOR",
      "outputs": [
        {
          "internalType": "bytes32",
          "name": "",
          "type": "bytes32"
        }
      ],
      "stateMutability": "view",
      "type": "function"
    },
    {
      "inputs": [],
      "name": "PERMIT_TYPEHASH",
      "outputs": [
        {
          "internalType": "bytes32",
          "name": "",
          "type": "bytes32"
        }
      ],
      "stateMutability": "view",
      "type": "function"
    },
    {
      "inputs": [
        {
          "internalType": "address",
          "name": "account",
          "type": "address"
        },
        {
          "internalType": "uint256",
          "name": "id",
          "type": "uint256"
        }
      ],
      "name": "balanceOf",
      "outputs": [
        {
          "internalType": "uint256",
          "name": "",
          "type": "uint256"
        }
      ],
      "stateMutability": "view",
      "type": "function"
    },
    {
      "inputs": [
        {
          "internalType": "address[]",
          "name": "accounts",
          "type": "address[]"
        },
        {
          "internalType": "uint256[]",
          "name": "ids",
          "type": "uint256[]"
        }
      ],
      "name": "balanceOfBatch",
      "outputs": [
        {
          "internalType": "uint256[]",
          "name": "",
          "type": "uint256[]"
        }
      ],
      "stateMutability": "view",
      "type": "function"
    },
    {
      "inputs": [
        {
          "internalType": "uint256",
          "name": "id",
          "type": "uint256"
        },
        {
          "internalType": "uint256",
          "name": "amount",
          "type": "uint256"
        }
      ],
      "name": "burn",
      "outputs": [],
      "stateMutability": "nonpayable",
      "type": "function"
    },
    {
      "inputs": [
        {
          "internalType": "address",
          "name": "account",
          "type": "address"
        },
        {
          "internalType": "address",
          "name": "operator",
          "type": "address"
        }
      ],
      "name": "isApprovedForAll",
      "outputs": [
        {
          "internalType": "bool",
          "name": "",
          "type": "bool"
        }
      ],
      "stateMutability": "view",
      "type": "function"
    },
    {
      "inputs": [
        {
          "internalType": "address",
          "name": "to",
          "type": "address"
        },
        {
          "internalType": "uint256",
          "name": "id",
          "type": "uint256"
        },
        {
          "internalType": "uint256",
          "name": "amount",
          "type": "uint256"
        }
      ],
      "name": "mint",
      "outputs": [],
      "stateMutability": "nonpayable",
      "type": "function"
    },
    {
      "inputs": [],
      "name": "name",
      "outputs": [
        {
          "internalType": "string",
          "name": "",
          "type": "string"
        }
      ],
      "stateMutability": "view",
      "type": "function"
    },
    {
      "inputs": [
        {
          "internalType": "address",
          "name": "",
          "type": "address"
        }
      ],
      "name": "nonces",
      "outputs": [
        {
          "internalType": "uint256",
          "name": "",
          "type": "uint256"
        }
      ],
      "stateMutability": "view",
      "type": "function"
    },
    {
      "inputs": [],
      "name": "owner",
      "outputs": [
        {
          "internalType": "address",
          "name": "",
          "type": "address"
        }
      ],
      "stateMutability": "view",
      "type": "function"
    },
    {
      "inputs": [
        {
          "internalType": "address",
          "name": "owner",
          "type": "address"
        },
        {
          "internalType": "address",
          "name": "spender",
          "type": "address"
        },
        {
          "internalType": "uint256",
          "name": "deadline",
          "type": "uint256"
        },
        {
          "internalType": "uint8",
          "name": "v",
          "type": "uint8"
        },
        {
          "internalType": "bytes32",
          "name": "r",
          "type": "bytes32"
        },
        {
          "internalType": "bytes32",
          "name": "s",
          "type": "bytes32"
        }
      ],
      "name": "permit",
      "outputs": [],
      "stateMutability": "nonpayable",
      "type": "function"
    },
    {
      "inputs": [],
      "name": "renounceOwnership",
      "outputs": [],
      "stateMutability": "nonpayable",
      "type": "function"
    },
    {
      "inputs": [
        {
          "internalType": "address",
          "name": "from",
          "type": "address"
        },
        {
          "internalType": "address",
          "name": "to",
          "type": "address"
        },
        {
          "internalType": "uint256[]",
          "name": "ids",
          "type": "uint256[]"
        },
        {
          "internalType": "uint256[]",
          "name": "amounts",
          "type": "uint256[]"
        },
        {
          "internalType": "bytes",
          "name": "data",
          "type": "bytes"
        }
      ],
      "name": "safeBatchTransferFrom",
      "outputs": [],
      "stateMutability": "nonpayable",
      "type": "function"
    },
    {
      "inputs": [
        {
          "internalType": "address",
          "name": "from",
          "type": "address"
        },
        {
          "internalType": "address",
          "name": "to",
          "type": "address"
        },
        {
          "internalType": "uint256",
          "name": "id",
          "type": "uint256"
        },
        {
          "internalType": "uint256",
          "name": "amount",
          "type": "uint256"
        },
        {
          "internalType": "bytes",
          "name": "data",
          "type": "bytes"
        }
      ],
      "name": "safeTransferFrom",
      "outputs": [],
      "stateMutability": "nonpayable",
      "type": "function"
    },
    {
      "inputs": [
        {
          "internalType": "address",
          "name": "operator",
          "type": "address"
        },
        {
          "internalType": "bool",
          "name": "approved",
          "type": "bool"
        }
      ],
      "name": "setApprovalForAll",
      "outputs": [],
      "stateMutability": "nonpayable",
      "type": "function"
    },
    {
      "inputs": [
        {
          "internalType": "bytes4",
          "name": "interfaceId",
          "type": "bytes4"
        }
      ],
      "name": "supportsInterface",
      "outputs": [
        {
          "internalType": "bool",
          "name": "",
          "type": "bool"
        }
      ],
      "stateMutability": "view",
      "type": "function"
    },
    {
      "inputs": [
        {
          "internalType": "address",
          "name": "newOwner",
          "type": "address"
        }
      ],
      "name": "transferOwnership",
      "outputs": [],
      "stateMutability": "nonpayable",
      "type": "function"
    },
    {
      "inputs": [
        {
          "internalType": "uint256",
          "name": "",
          "type": "uint256"
        }
      ],
      "name": "uri",
      "outputs": [
        {
          "internalType": "string",
          "name": "",
          "type": "string"
        }
      ],
      "stateMutability": "view",
      "type": "function"
    }
  ],
  "bytecode": "0x60a06040523480156200001157600080fd5b506040518060600160405280602c815260200162001fcb602c9139600080546001600160a01b031916339081178255604051909182917f8be0079c531659141344cd1fd0a4f28419497f9722a3daafe3b4186f6b6457e0908290a350620000788162000152565b506040805180820182526009815268139d5c9cd954185c9d60ba1b6020918201528151808301835260018152603160f81b9082015281517f8b73c3c69bb8fe3d512ecc4cf759cc79239f7b179b0ffacaa9a75d522b39400f818301527fa057b29384be5db0c51b85f837ed2550ed0618e98703321a162916b311b2fef5818401527fc89efdaa54c0f20c7adf612882df0950f5a951637e0307cdcb4c672f298b8bc66060820152466080808301919091523060a0808401919091528451808403909101815260c0909201909352805191012090526200024e565b8051620001679060039060208401906200016b565b5050565b828054620001799062000211565b90600052602060002090601f0160209004810192826200019d5760008555620001e8565b82601f10620001b857805160ff1916838001178555620001e8565b82800160010185558215620001e8579182015b82811115620001e8578251825591602001919060010190620001cb565b50620001f6929150620001fa565b5090565b5b80821115620001f65760008155600101620001fb565b600181811c908216806200022657607f821691505b602082108114156200024857634e487b7160e01b600052602260045260246000fd5b50919050565b608051611d5a62000271600039600081816101ff01526106110152611d5a6000f3fe608060405234801561001057600080fd5b50600436106101155760003560e01c80634e1273f4116100a2578063a22cb46511610071578063a22cb46514610297578063b390c0ab146102aa578063e985e9c5146102bd578063f242432a146102f9578063f2fde38b1461030c57600080fd5b80634e1273f414610234578063715018a6146102545780637ecebe001461025c5780638da5cb5b1461027c57600080fd5b8063156e29f6116100e9578063156e29f6146101ab5780632eb2c2d6146101c057806330adf81f146101d35780633644e515146101fa57806348613c281461022157600080fd5b8062fdd58e1461011a57806301ffc9a71461014057806306fdde03146101635780630e89341c14610198575b600080fd5b61012d610128366004611715565b61031f565b6040519081526020015b60405180910390f35b61015361014e366004611843565b6103b8565b6040519015158152602001610137565b61018b60405180604001604052806009815260200168139d5c9cd954185c9d60ba1b81525081565b6040516101379190611a45565b61018b6101a636600461187d565b61040a565b6101be6101b936600461173f565b61049e565b005b6101be6101ce366004611563565b6104e8565b61012d7fdaab21af31ece73a508939fedd476a5ee5129a5ed4bb091f3236ffb45394df6281565b61012d7f000000000000000000000000000000000000000000000000000000000000000081565b6101be61022f366004611672565b61057f565b610247610242366004611772565b6107fb565b60405161013791906119e3565b6101be610925565b61012d61026a36600461150e565b60046020526000908152604090205481565b6000546040516001600160a01b039091168152602001610137565b6101be6102a53660046116d9565b610999565b6101be6102b8366004611896565b6109a8565b6101536102cb366004611530565b6001600160a01b03918216600090815260026020908152604080832093909416825291909152205460ff1690565b6101be61030736600461160d565b6109b3565b6101be61031a36600461150e565b610a3a565b60006001600160a01b0383166103905760405162461bcd60e51b815260206004820152602b60248201527f455243313135353a2062616c616e636520717565727920666f7220746865207a60448201526a65726f206164647265737360a81b60648201526084015b60405180910390fd5b5060009081526001602090815260408083206001600160a01b03949094168352929052205490565b60006001600160e01b03198216636cdb3d1360e11b14806103e957506001600160e01b031982166303a24d0760e21b145b8061040457506301ffc9a760e01b6001600160e01b03198316145b92915050565b60606003805461041990611ba0565b80601f016020809104026020016040519081016040528092919081815260200182805461044590611ba0565b80156104925780601f1061046757610100808354040283529160200191610492565b820191906000526020600020905b81548152906001019060200180831161047557829003601f168201915b50505050509050919050565b6000546001600160a01b031633146104c85760405162461bcd60e51b815260040161038790611b2f565b6104e383838360405180602001604052806000815250610b24565b505050565b6001600160a01b038516331480610504575061050485336102cb565b61056b5760405162461bcd60e51b815260206004820152603260248201527f455243313135353a207472616e736665722063616c6c6572206973206e6f74206044820152711bdddb995c881b9bdc88185c1c1c9bdd995960721b6064820152608401610387565b6105788585858585610c30565b5050505050565b8342111561058c57600080fd5b6001600160a01b038681166000818152600460208181526040808420805482517fdaab21af31ece73a508939fedd476a5ee5129a5ed4bb091f3236ffb45394df6281860152808401889052978d1660608901526080880181905260a08089018d90528351808a03909101815260c08901845280519085012061190160f01b60e08a01527f000000000000000000000000000000000000000000000000000000000000000060e28a0152610102808a01919091528351808a0390910181526101229098019092528651968301969096209484529190529192600192909190610674908490611b88565b9091555050863b1561075257604080516020810185905280820184905260f886901b6001600160f81b0319166060820152815160418183030181526061820192839052630b135d3f60e11b9092526001600160a01b03891691631626ba7e916106e1918591606501611a24565b60206040518083038186803b1580156106f957600080fd5b505afa15801561070d573d6000803e3d6000fd5b505050506040513d601f19601f820116820180604052508101906107319190611860565b6001600160e01b031916631626ba7e60e01b1461074d57600080fd5b6107e6565b6040805160008082526020820180845284905260ff871692820192909252606081018590526080810184905260019060a0016020604051602081039080840390855afa1580156107a6573d6000803e3d6000fd5b5050604051601f1901519150506001600160a01b0381166107c657600080fd5b876001600160a01b0316816001600160a01b0316146107e457600080fd5b505b6107f287876001610e10565b50505050505050565b606081518351146108605760405162461bcd60e51b815260206004820152602960248201527f455243313135353a206163636f756e747320616e6420696473206c656e677468604482015268040dad2e6dac2e8c6d60bb1b6064820152608401610387565b6000835167ffffffffffffffff81111561087c5761087c611c4f565b6040519080825280602002602001820160405280156108a5578160200160208202803683370190505b50905060005b845181101561091d576108f08582815181106108c9576108c9611c39565b60200260200101518583815181106108e3576108e3611c39565b602002602001015161031f565b82828151811061090257610902611c39565b602090810291909101015261091681611c08565b90506108ab565b509392505050565b6000546001600160a01b0316331461094f5760405162461bcd60e51b815260040161038790611b2f565b600080546040516001600160a01b03909116907f8be0079c531659141344cd1fd0a4f28419497f9722a3daafe3b4186f6b6457e0908390a3600080546001600160a01b0319169055565b6109a4338383610e10565b5050565b6109a4338383610ef1565b6001600160a01b0385163314806109cf57506109cf85336102cb565b610a2d5760405162461bcd60e51b815260206004820152602960248201527f455243313135353a2063616c6c6572206973206e6f74206f776e6572206e6f7260448201526808185c1c1c9bdd995960ba1b6064820152608401610387565b610578858585858561106f565b6000546001600160a01b03163314610a645760405162461bcd60e51b815260040161038790611b2f565b6001600160a01b038116610ac95760405162461bcd60e51b815260206004820152602660248201527f4f776e61626c653a206e6577206f776e657220697320746865207a65726f206160448201526564647265737360d01b6064820152608401610387565b600080546040516001600160a01b03808516939216917f8be0079c531659141344cd1fd0a4f28419497f9722a3daafe3b4186f6b6457e091a3600080546001600160a01b0319166001600160a01b0392909216919091179055565b6001600160a01b038416610b845760405162461bcd60e51b815260206004820152602160248201527f455243313135353a206d696e7420746f20746865207a65726f206164647265736044820152607360f81b6064820152608401610387565b33610b9e81600087610b9588611187565b61057888611187565b60008481526001602090815260408083206001600160a01b038916845290915281208054859290610bd0908490611b88565b909155505060408051858152602081018590526001600160a01b0380881692600092918516917fc3d58168c5ae7397731d063d5bbf3d657854427343f4c083240f7aacaa2d0f62910160405180910390a4610578816000878787876111d2565b8151835114610c925760405162461bcd60e51b815260206004820152602860248201527f455243313135353a2069647320616e6420616d6f756e7473206c656e677468206044820152670dad2e6dac2e8c6d60c31b6064820152608401610387565b6001600160a01b038416610cb85760405162461bcd60e51b815260040161038790611aa0565b3360005b8451811015610da2576000858281518110610cd957610cd9611c39565b602002602001015190506000858381518110610cf757610cf7611c39565b60209081029190910181015160008481526001835260408082206001600160a01b038e168352909352919091205490915081811015610d485760405162461bcd60e51b815260040161038790611ae5565b60008381526001602090815260408083206001600160a01b038e8116855292528083208585039055908b16825281208054849290610d87908490611b88565b9250508190555050505080610d9b90611c08565b9050610cbc565b50846001600160a01b0316866001600160a01b0316826001600160a01b03167f4a39dc06d4c0dbc64b70af90fd698a233a518aa5d07e595d983b8c0526c8f7fb8787604051610df29291906119f6565b60405180910390a4610e0881878787878761133d565b505050505050565b816001600160a01b0316836001600160a01b03161415610e845760405162461bcd60e51b815260206004820152602960248201527f455243313135353a2073657474696e6720617070726f76616c20737461747573604482015268103337b91039b2b63360b91b6064820152608401610387565b6001600160a01b03838116600081815260026020908152604080832094871680845294825291829020805460ff191686151590811790915591519182527f17307eab39ab6107e8899845ad3d59bd9653f200f220920489ca2b5937696c31910160405180910390a3505050565b6001600160a01b038316610f535760405162461bcd60e51b815260206004820152602360248201527f455243313135353a206275726e2066726f6d20746865207a65726f206164647260448201526265737360e81b6064820152608401610387565b33610f8381856000610f6487611187565b610f6d87611187565b5050604080516020810190915260009052505050565b60008381526001602090815260408083206001600160a01b0388168452909152902054828110156110025760405162461bcd60e51b8152602060048201526024808201527f455243313135353a206275726e20616d6f756e7420657863656564732062616c604482015263616e636560e01b6064820152608401610387565b60008481526001602090815260408083206001600160a01b03898116808652918452828520888703905582518981529384018890529092908616917fc3d58168c5ae7397731d063d5bbf3d657854427343f4c083240f7aacaa2d0f62910160405180910390a45050505050565b6001600160a01b0384166110955760405162461bcd60e51b815260040161038790611aa0565b336110a5818787610b9588611187565b60008481526001602090815260408083206001600160a01b038a168452909152902054838110156110e85760405162461bcd60e51b815260040161038790611ae5565b60008581526001602090815260408083206001600160a01b038b8116855292528083208785039055908816825281208054869290611127908490611b88565b909155505060408051868152602081018690526001600160a01b03808916928a821692918616917fc3d58168c5ae7397731d063d5bbf3d657854427343f4c083240f7aacaa2d0f62910160405180910390a46107f28288888888886111d2565b604080516001808252818301909252606091600091906020808301908036833701905050905082816000815181106111c1576111c1611c39565b602090810291909101015292915050565b6001600160a01b0384163b15610e085760405163f23a6e6160e01b81526001600160a01b0385169063f23a6e6190611216908990899088908890889060040161199e565b602060405180830381600087803b15801561123057600080fd5b505af1925050508015611260575060408051601f3d908101601f1916820190925261125d91810190611860565b60015b61130d5761126c611c65565b806308c379a014156112a65750611281611c81565b8061128c57506112a8565b8060405162461bcd60e51b81526004016103879190611a45565b505b60405162461bcd60e51b815260206004820152603460248201527f455243313135353a207472616e7366657220746f206e6f6e20455243313135356044820152732932b1b2b4bb32b91034b6b83632b6b2b73a32b960611b6064820152608401610387565b6001600160e01b0319811663f23a6e6160e01b146107f25760405162461bcd60e51b815260040161038790611a58565b6001600160a01b0384163b15610e085760405163bc197c8160e01b81526001600160a01b0385169063bc197c81906113819089908990889088908890600401611940565b602060405180830381600087803b15801561139b57600080fd5b505af19250505080156113cb575060408051601f3d908101601f191682019092526113c891810190611860565b60015b6113d75761126c611c65565b6001600160e01b0319811663bc197c8160e01b146107f25760405162461bcd60e51b815260040161038790611a58565b80356001600160a01b038116811461141e57600080fd5b919050565b600082601f83011261143457600080fd5b8135602061144182611b64565b60405161144e8282611bdb565b8381528281019150858301600585901b8701840188101561146e57600080fd5b60005b8581101561148d57813584529284019290840190600101611471565b5090979650505050505050565b600082601f8301126114ab57600080fd5b813567ffffffffffffffff8111156114c5576114c5611c4f565b6040516114dc601f8301601f191660200182611bdb565b8181528460208386010111156114f157600080fd5b816020850160208301376000918101602001919091529392505050565b60006020828403121561152057600080fd5b61152982611407565b9392505050565b6000806040838503121561154357600080fd5b61154c83611407565b915061155a60208401611407565b90509250929050565b600080600080600060a0868803121561157b57600080fd5b61158486611407565b945061159260208701611407565b9350604086013567ffffffffffffffff808211156115af57600080fd5b6115bb89838a01611423565b945060608801359150808211156115d157600080fd5b6115dd89838a01611423565b935060808801359150808211156115f357600080fd5b506116008882890161149a565b9150509295509295909350565b600080600080600060a0868803121561162557600080fd5b61162e86611407565b945061163c60208701611407565b93506040860135925060608601359150608086013567ffffffffffffffff81111561166657600080fd5b6116008882890161149a565b60008060008060008060c0878903121561168b57600080fd5b61169487611407565b95506116a260208801611407565b945060408701359350606087013560ff811681146116bf57600080fd5b9598949750929560808101359460a0909101359350915050565b600080604083850312156116ec57600080fd5b6116f583611407565b91506020830135801515811461170a57600080fd5b809150509250929050565b6000806040838503121561172857600080fd5b61173183611407565b946020939093013593505050565b60008060006060848603121561175457600080fd5b61175d84611407565b95602085013595506040909401359392505050565b6000806040838503121561178557600080fd5b823567ffffffffffffffff8082111561179d57600080fd5b818501915085601f8301126117b157600080fd5b813560206117be82611b64565b6040516117cb8282611bdb565b8381528281019150858301600585901b870184018b10156117eb57600080fd5b600096505b848710156118155761180181611407565b8352600196909601959183019183016117f0565b509650508601359250508082111561182c57600080fd5b5061183985828601611423565b9150509250929050565b60006020828403121561185557600080fd5b813561152981611d0b565b60006020828403121561187257600080fd5b815161152981611d0b565b60006020828403121561188f57600080fd5b5035919050565b600080604083850312156118a957600080fd5b50508035926020909101359150565b600081518084526020808501945080840160005b838110156118e8578151875295820195908201906001016118cc565b509495945050505050565b6000815180845260005b81811015611919576020818501810151868301820152016118fd565b8181111561192b576000602083870101525b50601f01601f19169290920160200192915050565b6001600160a01b0386811682528516602082015260a06040820181905260009061196c908301866118b8565b828103606084015261197e81866118b8565b9050828103608084015261199281856118f3565b98975050505050505050565b6001600160a01b03868116825285166020820152604081018490526060810183905260a0608082018190526000906119d8908301846118f3565b979650505050505050565b60208152600061152960208301846118b8565b604081526000611a0960408301856118b8565b8281036020840152611a1b81856118b8565b95945050505050565b828152604060208201526000611a3d60408301846118f3565b949350505050565b60208152600061152960208301846118f3565b60208082526028908201527f455243313135353a204552433131353552656365697665722072656a656374656040820152676420746f6b656e7360c01b606082015260800190565b60208082526025908201527f455243313135353a207472616e7366657220746f20746865207a65726f206164604082015264647265737360d81b606082015260800190565b6020808252602a908201527f455243313135353a20696e73756666696369656e742062616c616e636520666f60408201526939103a3930b739b332b960b11b606082015260800190565b6020808252818101527f4f776e61626c653a2063616c6c6572206973206e6f7420746865206f776e6572604082015260600190565b600067ffffffffffffffff821115611b7e57611b7e611c4f565b5060051b60200190565b60008219821115611b9b57611b9b611c23565b500190565b600181811c90821680611bb457607f821691505b60208210811415611bd557634e487b7160e01b600052602260045260246000fd5b50919050565b601f8201601f1916810167ffffffffffffffff81118282101715611c0157611c01611c4f565b6040525050565b6000600019821415611c1c57611c1c611c23565b5060010190565b634e487b7160e01b600052601160045260246000fd5b634e487b7160e01b600052603260045260246000fd5b634e487b7160e01b600052604160045260246000fd5b600060033d1115611c7e5760046000803e5060005160e01c5b90565b600060443d1015611c8f5790565b6040516003193d81016004833e81513d67ffffffffffffffff8160248401118184111715611cbf57505050505090565b8285019150815181811115611cd75750505050505090565b843d8701016020828501011115611cf15750505050505090565b611d0060208286010187611bdb565b509095945050505050565b6001600160e01b031981168114611d2157600080fd5b5056fea2646970667358221220a54c36ac3263f12864e638a4870e3f4af23b3d94665dd8faf0240d4ac1cfb6b064736f6c6343000805003368747470733a2f2f6d616964636f696e2e6f72672f6170692f6e75727365706172742f7b69647d2e6a736f6e",
  "linkReferences": {},
  "deployedLinkReferences": {}
}