{
    "_format": "hh-sol-artifact-1",
    "contractName": "NurseRaid",
    "sourceName": "contracts/NurseRaid.sol",
    "abi": [
        {
            "inputs": [
                {
                    "internalType": "contract IMaid",
                    "name": "_maid",
                    "type": "address"
                },
                {
                    "internalType": "contract IMaidCoin",
                    "name": "_maidCoin",
                    "type": "address"
                },
                {
                    "internalType": "contract INursePart",
                    "name": "_nursePart",
                    "type": "address"
                },
                {
                    "internalType": "contract IRNG",
                    "name": "_rng",
                    "type": "address"
                }
            ],
            "stateMutability": "nonpayable",
            "type": "constructor"
        },
        {
            "anonymous": false,
            "inputs": [
                {
                    "indexed": false,
                    "internalType": "uint256",
                    "name": "value",
                    "type": "uint256"
                }
            ],
            "name": "ChangeMaidPowerToRaidReducedBlock",
            "type": "event"
        },
        {
            "anonymous": false,
            "inputs": [
                {
                    "indexed": true,
                    "internalType": "uint256",
                    "name": "id",
                    "type": "uint256"
                },
                {
                    "indexed": false,
                    "internalType": "uint256",
                    "name": "entranceFee",
                    "type": "uint256"
                },
                {
                    "indexed": true,
                    "internalType": "uint256",
                    "name": "nursePart",
                    "type": "uint256"
                },
                {
                    "indexed": false,
                    "internalType": "uint256",
                    "name": "maxRewardCount",
                    "type": "uint256"
                },
                {
                    "indexed": false,
                    "internalType": "uint256",
                    "name": "duration",
                    "type": "uint256"
                },
                {
                    "indexed": false,
                    "internalType": "uint256",
                    "name": "endBlock",
                    "type": "uint256"
                }
            ],
            "name": "Create",
            "type": "event"
        },
        {
            "anonymous": false,
            "inputs": [
                {
                    "indexed": true,
                    "internalType": "address",
                    "name": "challenger",
                    "type": "address"
                },
                {
                    "indexed": true,
                    "internalType": "uint256",
                    "name": "id",
                    "type": "uint256"
                },
                {
                    "indexed": true,
                    "internalType": "uint256",
                    "name": "maid",
                    "type": "uint256"
                }
            ],
            "name": "Enter",
            "type": "event"
        },
        {
            "anonymous": false,
            "inputs": [
                {
                    "indexed": true,
                    "internalType": "address",
                    "name": "challenger",
                    "type": "address"
                },
                {
                    "indexed": true,
                    "internalType": "uint256",
                    "name": "id",
                    "type": "uint256"
                }
            ],
            "name": "Exit",
            "type": "event"
        },
        {
            "anonymous": false,
            "inputs": [
                {
                    "indexed": true,
                    "internalType": "address",
                    "name": "previousOwner",
                    "type": "address"
                },
                {
                    "indexed": true,
                    "internalType": "address",
                    "name": "newOwner",
                    "type": "address"
                }
            ],
            "name": "OwnershipTransferred",
            "type": "event"
        },
        {
            "inputs": [
                {
                    "internalType": "uint256",
                    "name": "",
                    "type": "uint256"
                },
                {
                    "internalType": "address",
                    "name": "",
                    "type": "address"
                }
            ],
            "name": "challengers",
            "outputs": [
                {
                    "internalType": "uint256",
                    "name": "enterBlock",
                    "type": "uint256"
                },
                {
                    "internalType": "uint256",
                    "name": "maid",
                    "type": "uint256"
                }
            ],
            "stateMutability": "view",
            "type": "function"
        },
        {
            "inputs": [
                {
                    "internalType": "uint256",
                    "name": "value",
                    "type": "uint256"
                }
            ],
            "name": "changeMaidPowerToRaidReducedBlock",
            "outputs": [],
            "stateMutability": "nonpayable",
            "type": "function"
        },
        {
            "inputs": [
                {
                    "internalType": "address",
                    "name": "addr",
                    "type": "address"
                }
            ],
            "name": "changeRNG",
            "outputs": [],
            "stateMutability": "nonpayable",
            "type": "function"
        },
        {
            "inputs": [
                {
                    "internalType": "uint256",
                    "name": "id",
                    "type": "uint256"
                }
            ],
            "name": "checkDone",
            "outputs": [
                {
                    "internalType": "bool",
                    "name": "",
                    "type": "bool"
                }
            ],
            "stateMutability": "view",
            "type": "function"
        },
        {
            "inputs": [
                {
                    "internalType": "uint256",
                    "name": "entranceFee",
                    "type": "uint256"
                },
                {
                    "internalType": "uint256",
                    "name": "_nursePart",
                    "type": "uint256"
                },
                {
                    "internalType": "uint256",
                    "name": "maxRewardCount",
                    "type": "uint256"
                },
                {
                    "internalType": "uint256",
                    "name": "duration",
                    "type": "uint256"
                },
                {
                    "internalType": "uint256",
                    "name": "endBlock",
                    "type": "uint256"
                }
            ],
            "name": "create",
            "outputs": [
                {
                    "internalType": "uint256",
                    "name": "id",
                    "type": "uint256"
                }
            ],
            "stateMutability": "nonpayable",
            "type": "function"
        },
        {
            "inputs": [
                {
                    "internalType": "uint256",
                    "name": "id",
                    "type": "uint256"
                },
                {
                    "internalType": "uint256",
                    "name": "_maid",
                    "type": "uint256"
                }
            ],
            "name": "enter",
            "outputs": [],
            "stateMutability": "nonpayable",
            "type": "function"
        },
        {
            "inputs": [
                {
                    "internalType": "uint256",
                    "name": "id",
                    "type": "uint256"
                },
                {
                    "internalType": "uint256",
                    "name": "_maid",
                    "type": "uint256"
                },
                {
                    "internalType": "uint256",
                    "name": "deadline",
                    "type": "uint256"
                },
                {
                    "internalType": "uint8",
                    "name": "v1",
                    "type": "uint8"
                },
                {
                    "internalType": "bytes32",
                    "name": "r1",
                    "type": "bytes32"
                },
                {
                    "internalType": "bytes32",
                    "name": "s1",
                    "type": "bytes32"
                },
                {
                    "internalType": "uint8",
                    "name": "v2",
                    "type": "uint8"
                },
                {
                    "internalType": "bytes32",
                    "name": "r2",
                    "type": "bytes32"
                },
                {
                    "internalType": "bytes32",
                    "name": "s2",
                    "type": "bytes32"
                }
            ],
            "name": "enterWithPermitAll",
            "outputs": [],
            "stateMutability": "nonpayable",
            "type": "function"
        },
        {
            "inputs": [
                {
                    "internalType": "uint256",
                    "name": "id",
                    "type": "uint256"
                }
            ],
            "name": "exit",
            "outputs": [],
            "stateMutability": "nonpayable",
            "type": "function"
        },
        {
            "inputs": [],
            "name": "maid",
            "outputs": [
                {
                    "internalType": "contract IMaid",
                    "name": "",
                    "type": "address"
                }
            ],
            "stateMutability": "view",
            "type": "function"
        },
        {
            "inputs": [],
            "name": "maidCoin",
            "outputs": [
                {
                    "internalType": "contract IMaidCoin",
                    "name": "",
                    "type": "address"
                }
            ],
            "stateMutability": "view",
            "type": "function"
        },
        {
            "inputs": [],
            "name": "maidPowerToRaidReducedBlock",
            "outputs": [
                {
                    "internalType": "uint256",
                    "name": "",
                    "type": "uint256"
                }
            ],
            "stateMutability": "view",
            "type": "function"
        },
        {
            "inputs": [],
            "name": "nursePart",
            "outputs": [
                {
                    "internalType": "contract INursePart",
                    "name": "",
                    "type": "address"
                }
            ],
            "stateMutability": "view",
            "type": "function"
        },
        {
            "inputs": [],
            "name": "owner",
            "outputs": [
                {
                    "internalType": "address",
                    "name": "",
                    "type": "address"
                }
            ],
            "stateMutability": "view",
            "type": "function"
        },
        {
            "inputs": [
                {
                    "internalType": "uint256",
                    "name": "",
                    "type": "uint256"
                }
            ],
            "name": "raids",
            "outputs": [
                {
                    "internalType": "uint256",
                    "name": "entranceFee",
                    "type": "uint256"
                },
                {
                    "internalType": "uint256",
                    "name": "nursePart",
                    "type": "uint256"
                },
                {
                    "internalType": "uint256",
                    "name": "maxRewardCount",
                    "type": "uint256"
                },
                {
                    "internalType": "uint256",
                    "name": "duration",
                    "type": "uint256"
                },
                {
                    "internalType": "uint256",
                    "name": "endBlock",
                    "type": "uint256"
                }
            ],
            "stateMutability": "view",
            "type": "function"
        },
        {
            "inputs": [],
            "name": "renounceOwnership",
            "outputs": [],
            "stateMutability": "nonpayable",
            "type": "function"
        },
        {
            "inputs": [],
            "name": "rng",
            "outputs": [
                {
                    "internalType": "contract IRNG",
                    "name": "",
                    "type": "address"
                }
            ],
            "stateMutability": "view",
            "type": "function"
        },
        {
            "inputs": [
                {
                    "internalType": "address",
                    "name": "newOwner",
                    "type": "address"
                }
            ],
            "name": "transferOwnership",
            "outputs": [],
            "stateMutability": "nonpayable",
            "type": "function"
        }
    ],
    "bytecode": "0x60e060405260646001553480156200001657600080fd5b506040516200265e3803806200265e83398181016040528101906200003c919062000240565b60006200004e620001dc60201b60201c565b9050806000806101000a81548173ffffffffffffffffffffffffffffffffffffffff021916908373ffffffffffffffffffffffffffffffffffffffff1602179055508073ffffffffffffffffffffffffffffffffffffffff16600073ffffffffffffffffffffffffffffffffffffffff167f8be0079c531659141344cd1fd0a4f28419497f9722a3daafe3b4186f6b6457e060405160405180910390a3508373ffffffffffffffffffffffffffffffffffffffff1660808173ffffffffffffffffffffffffffffffffffffffff1660601b815250508273ffffffffffffffffffffffffffffffffffffffff1660a08173ffffffffffffffffffffffffffffffffffffffff1660601b815250508173ffffffffffffffffffffffffffffffffffffffff1660c08173ffffffffffffffffffffffffffffffffffffffff1660601b8152505080600260006101000a81548173ffffffffffffffffffffffffffffffffffffffff021916908373ffffffffffffffffffffffffffffffffffffffff16021790555050505050620003a3565b600033905090565b600081519050620001f5816200033b565b92915050565b6000815190506200020c8162000355565b92915050565b60008151905062000223816200036f565b92915050565b6000815190506200023a8162000389565b92915050565b600080600080608085870312156200025d576200025c62000336565b5b60006200026d87828801620001fb565b94505060206200028087828801620001e4565b9350506040620002938782880162000212565b9250506060620002a68782880162000229565b91505092959194509250565b6000620002bf8262000316565b9050919050565b6000620002d382620002b2565b9050919050565b6000620002e782620002b2565b9050919050565b6000620002fb82620002b2565b9050919050565b60006200030f82620002b2565b9050919050565b600073ffffffffffffffffffffffffffffffffffffffff82169050919050565b600080fd5b6200034681620002c6565b81146200035257600080fd5b50565b6200036081620002da565b81146200036c57600080fd5b50565b6200037a81620002ee565b81146200038657600080fd5b50565b620003948162000302565b8114620003a057600080fd5b50565b60805160601c60a05160601c60c05160601c61224a6200041460003960008181610b8b0152610f32015260008181610543015281816105f70152818161078d0152610d8b0152600081816104b30152818161086b01528181610c4b01528181610f080152611397015261224a6000f3fe608060405234801561001057600080fd5b506004361061010b5760003560e01c80638da5cb5b116100a2578063b24606b811610071578063b24606b814610297578063bb4fa5dd146102b5578063c562a684146102e5578063d605787b14610301578063f2fde38b1461031f5761010b565b80638da5cb5b146102095780639f20ae8314610227578063a2ecd2581461025b578063ac7fb724146102795761010b565b8063715018a6116100de578063715018a6146101955780637f8661a11461019f578063849e5aff146101bb5780638656b2b3146101d95761010b565b806323972aef146101105780632a41b8021461012c5780634b85d0af146101485780634b9b586e14610164575b600080fd5b61012a6004803603810190610125919061175c565b61033b565b005b610146600480360381019061014191906116c2565b6106ce565b005b610162600480360381019061015d9190611817565b61078b565b005b61017e6004803603810190610179919061171c565b610914565b60405161018c929190611c12565b60405180910390f35b61019d610945565b005b6101b960048036038101906101b491906116c2565b610a7f565b005b6101c3610d89565b6040516101d09190611b22565b60405180910390f35b6101f360048036038101906101ee91906116c2565b610dad565b6040516102009190611b07565b60405180910390f35b610211610e97565b60405161021e91906119ae565b60405180910390f35b610241600480360381019061023c91906116c2565b610ec0565b604051610252959493929190611c80565b60405180910390f35b610263610f06565b6040516102709190611b3d565b60405180910390f35b610281610f2a565b60405161028e9190611bce565b60405180910390f35b61029f610f30565b6040516102ac9190611b58565b60405180910390f35b6102cf60048036038101906102ca919061179c565b610f54565b6040516102dc9190611bce565b60405180910390f35b6102ff60048036038101906102fa9190611668565b6110a8565b005b610309611168565b6040516103169190611b73565b60405180910390f35b61033960048036038101906103349190611668565b61118e565b005b600060038381548110610351576103506120e8565b5b90600052602060002090600502016040518060a0016040529081600082015481526020016001820154815260200160028201548152602001600382015481526020016004820154815250509050806080015143106103ae57600080fd5b60006004600085815260200190815260200160002060003373ffffffffffffffffffffffffffffffffffffffff1673ffffffffffffffffffffffffffffffffffffffff168152602001908152602001600020600001541461040e57600080fd5b6040518060400160405280438152602001838152506004600085815260200190815260200160002060003373ffffffffffffffffffffffffffffffffffffffff1673ffffffffffffffffffffffffffffffffffffffff16815260200190815260200160002060008201518160000155602082015181600101559050507fffffffffffffffffffffffffffffffffffffffffffffffffffffffffffffffff8214610541577f000000000000000000000000000000000000000000000000000000000000000073ffffffffffffffffffffffffffffffffffffffff166323b872dd3330856040518463ffffffff1660e01b815260040161050e939291906119c9565b600060405180830381600087803b15801561052857600080fd5b505af115801561053c573d6000803e3d6000fd5b505050505b7f000000000000000000000000000000000000000000000000000000000000000073ffffffffffffffffffffffffffffffffffffffff166323b872dd333084600001516040518463ffffffff1660e01b81526004016105a2939291906119c9565b602060405180830381600087803b1580156105bc57600080fd5b505af11580156105d0573d6000803e3d6000fd5b505050506040513d601f19601f820116820180604052508101906105f49190611695565b507f000000000000000000000000000000000000000000000000000000000000000073ffffffffffffffffffffffffffffffffffffffff166342966c6882600001516040518263ffffffff1660e01b81526004016106529190611bce565b600060405180830381600087803b15801561066c57600080fd5b505af1158015610680573d6000803e3d6000fd5b5050505081833373ffffffffffffffffffffffffffffffffffffffff167f5087fbec8bdd9b358f62d89babb5f4dd44f8576230a9520c90e3407d6f4dd1fb60405160405180910390a4505050565b6106d6611337565b73ffffffffffffffffffffffffffffffffffffffff166106f4610e97565b73ffffffffffffffffffffffffffffffffffffffff161461074a576040517f08c379a000000000000000000000000000000000000000000000000000000000815260040161074190611bae565b60405180910390fd5b806001819055507f53b29daa1537959887ee76f94fc95da3b3418eec8c82cff43cb037fbae25cdbd816040516107809190611bce565b60405180910390a150565b7f000000000000000000000000000000000000000000000000000000000000000073ffffffffffffffffffffffffffffffffffffffff1663d505accf33307fffffffffffffffffffffffffffffffffffffffffffffffffffffffffffffffff8b8b8b8b6040518863ffffffff1660e01b81526004016108109796959493929190611a00565b600060405180830381600087803b15801561082a57600080fd5b505af115801561083e573d6000803e3d6000fd5b505050507fffffffffffffffffffffffffffffffffffffffffffffffffffffffffffffffff88146108ff577f000000000000000000000000000000000000000000000000000000000000000073ffffffffffffffffffffffffffffffffffffffff1663aba0784733308a8787876040518763ffffffff1660e01b81526004016108cc96959493929190611a6f565b600060405180830381600087803b1580156108e657600080fd5b505af11580156108fa573d6000803e3d6000fd5b505050505b610909898961033b565b505050505050505050565b6004602052816000526040600020602052806000526040600020600091509150508060000154908060010154905082565b61094d611337565b73ffffffffffffffffffffffffffffffffffffffff1661096b610e97565b73ffffffffffffffffffffffffffffffffffffffff16146109c1576040517f08c379a00000000000000000000000000000000000000000000000000000000081526004016109b890611bae565b60405180910390fd5b600073ffffffffffffffffffffffffffffffffffffffff1660008054906101000a900473ffffffffffffffffffffffffffffffffffffffff1673ffffffffffffffffffffffffffffffffffffffff167f8be0079c531659141344cd1fd0a4f28419497f9722a3daafe3b4186f6b6457e060405160405180910390a360008060006101000a81548173ffffffffffffffffffffffffffffffffffffffff021916908373ffffffffffffffffffffffffffffffffffffffff160217905550565b60006004600083815260200190815260200160002060003373ffffffffffffffffffffffffffffffffffffffff1673ffffffffffffffffffffffffffffffffffffffff168152602001908152602001600020604051806040016040529081600082015481526020016001820154815250509050600081600001511415610b0457600080fd5b600060038381548110610b1a57610b196120e8565b5b90600052602060002090600502016040518060a0016040529081600082015481526020016001820154815260200160028201548152602001600382015481526020016004820154815250509050610b71818361133f565b15610c1e576000610b878483604001513361147b565b90507f000000000000000000000000000000000000000000000000000000000000000073ffffffffffffffffffffffffffffffffffffffff1663156e29f6338460200151846040518463ffffffff1660e01b8152600401610bea93929190611ad0565b600060405180830381600087803b158015610c0457600080fd5b505af1158015610c18573d6000803e3d6000fd5b50505050505b7fffffffffffffffffffffffffffffffffffffffffffffffffffffffffffffffff826020015114610cdd577f000000000000000000000000000000000000000000000000000000000000000073ffffffffffffffffffffffffffffffffffffffff166323b872dd303385602001516040518463ffffffff1660e01b8152600401610caa939291906119c9565b600060405180830381600087803b158015610cc457600080fd5b505af1158015610cd8573d6000803e3d6000fd5b505050505b6004600084815260200190815260200160002060003373ffffffffffffffffffffffffffffffffffffffff1673ffffffffffffffffffffffffffffffffffffffff16815260200190815260200160002060008082016000905560018201600090555050823373ffffffffffffffffffffffffffffffffffffffff167f22d324652c93739755cf4581508b60875ebdd78c20c0cff5cf8e23452b29963160405160405180910390a3505050565b7f000000000000000000000000000000000000000000000000000000000000000081565b60008060038381548110610dc457610dc36120e8565b5b90600052602060002090600502016040518060a001604052908160008201548152602001600182015481526020016002820154815260200160038201548152602001600482015481525050905060006004600085815260200190815260200160002060003373ffffffffffffffffffffffffffffffffffffffff1673ffffffffffffffffffffffffffffffffffffffff168152602001908152602001600020604051806040016040529081600082015481526020016001820154815250509050610e8e828261133f565b92505050919050565b60008060009054906101000a900473ffffffffffffffffffffffffffffffffffffffff16905090565b60038181548110610ed057600080fd5b90600052602060002090600502016000915090508060000154908060010154908060020154908060030154908060040154905085565b7f000000000000000000000000000000000000000000000000000000000000000081565b60015481565b7f000000000000000000000000000000000000000000000000000000000000000081565b6000610f5e611337565b73ffffffffffffffffffffffffffffffffffffffff16610f7c610e97565b73ffffffffffffffffffffffffffffffffffffffff1614610fd2576040517f08c379a0000000000000000000000000000000000000000000000000000000008152600401610fc990611bae565b60405180910390fd5b600380549050905060036040518060a001604052808881526020018781526020018681526020018581526020018481525090806001815401808255809150506001900390600052602060002090600502016000909190919091506000820151816000015560208201518160010155604082015181600201556060820151816003015560808201518160040155505084817fe67bc7994d282c0fbf31557abeca3bf42c2dc7e627c6aff056739bfd6609b5d6888787876040516110979493929190611c3b565b60405180910390a395945050505050565b6110b0611337565b73ffffffffffffffffffffffffffffffffffffffff166110ce610e97565b73ffffffffffffffffffffffffffffffffffffffff1614611124576040517f08c379a000000000000000000000000000000000000000000000000000000000815260040161111b90611bae565b60405180910390fd5b80600260006101000a81548173ffffffffffffffffffffffffffffffffffffffff021916908373ffffffffffffffffffffffffffffffffffffffff16021790555050565b600260009054906101000a900473ffffffffffffffffffffffffffffffffffffffff1681565b611196611337565b73ffffffffffffffffffffffffffffffffffffffff166111b4610e97565b73ffffffffffffffffffffffffffffffffffffffff161461120a576040517f08c379a000000000000000000000000000000000000000000000000000000000815260040161120190611bae565b60405180910390fd5b600073ffffffffffffffffffffffffffffffffffffffff168173ffffffffffffffffffffffffffffffffffffffff16141561127a576040517f08c379a000000000000000000000000000000000000000000000000000000000815260040161127190611b8e565b60405180910390fd5b8073ffffffffffffffffffffffffffffffffffffffff1660008054906101000a900473ffffffffffffffffffffffffffffffffffffffff1673ffffffffffffffffffffffffffffffffffffffff167f8be0079c531659141344cd1fd0a4f28419497f9722a3daafe3b4186f6b6457e060405160405180910390a3806000806101000a81548173ffffffffffffffffffffffffffffffffffffffff021916908373ffffffffffffffffffffffffffffffffffffffff16021790555050565b600033905090565b60007fffffffffffffffffffffffffffffffffffffffffffffffffffffffffffffffff8260200151141561138b5782606001518260000151436113829190611f36565b10159050611475565b826060015160646001547f000000000000000000000000000000000000000000000000000000000000000073ffffffffffffffffffffffffffffffffffffffff166304eaa11386602001516040518263ffffffff1660e01b81526004016113f29190611bce565b60206040518083038186803b15801561140a57600080fd5b505afa15801561141e573d6000803e3d6000fd5b505050506040513d601f19601f8201168201806040525081019061144291906116ef565b61144c9190611edc565b6114569190611d3a565b8360000151436114669190611f36565b6114709190611ce4565b101590505b92915050565b600080600184600261148d9190611dbe565b6114979190611f36565b60026114a39190611edc565b90506000600182600260009054906101000a900473ffffffffffffffffffffffffffffffffffffffff1673ffffffffffffffffffffffffffffffffffffffff166344a0a49189886040518363ffffffff1660e01b8152600401611507929190611be9565b602060405180830381600087803b15801561152157600080fd5b505af1158015611535573d6000803e3d6000fd5b505050506040513d601f19601f8201168201806040525081019061155991906116ef565b6115639190612059565b61156d9190611ce4565b9050600080600090505b818311156115dc5760018161158c9190611ce4565b90508060018861159c9190611ce4565b6115a69190611f36565b60026115b29190611dbe565b6001886115bf9190611ce4565b60026115cb9190611dbe565b6115d59190611f36565b9150611577565b809450505050509392505050565b6000813590506115f9816121a1565b92915050565b60008151905061160e816121b8565b92915050565b600081359050611623816121cf565b92915050565b600081359050611638816121e6565b92915050565b60008151905061164d816121e6565b92915050565b600081359050611662816121fd565b92915050565b60006020828403121561167e5761167d612117565b5b600061168c848285016115ea565b91505092915050565b6000602082840312156116ab576116aa612117565b5b60006116b9848285016115ff565b91505092915050565b6000602082840312156116d8576116d7612117565b5b60006116e684828501611629565b91505092915050565b60006020828403121561170557611704612117565b5b60006117138482850161163e565b91505092915050565b6000806040838503121561173357611732612117565b5b600061174185828601611629565b9250506020611752858286016115ea565b9150509250929050565b6000806040838503121561177357611772612117565b5b600061178185828601611629565b925050602061179285828601611629565b9150509250929050565b600080600080600060a086880312156117b8576117b7612117565b5b60006117c688828901611629565b95505060206117d788828901611629565b94505060406117e888828901611629565b93505060606117f988828901611629565b925050608061180a88828901611629565b9150509295509295909350565b60008060008060008060008060006101208a8c03121561183a57611839612117565b5b60006118488c828d01611629565b99505060206118598c828d01611629565b985050604061186a8c828d01611629565b975050606061187b8c828d01611653565b965050608061188c8c828d01611614565b95505060a061189d8c828d01611614565b94505060c06118ae8c828d01611653565b93505060e06118bf8c828d01611614565b9250506101006118d18c828d01611614565b9150509295985092959850929598565b6118ea81611f6a565b82525050565b6118f981611f7c565b82525050565b61190881611f88565b82525050565b61191781611fc9565b82525050565b61192681611fed565b82525050565b61193581612011565b82525050565b61194481612035565b82525050565b6000611957602683611cd3565b915061196282612129565b604082019050919050565b600061197a602083611cd3565b915061198582612178565b602082019050919050565b61199981611fb2565b82525050565b6119a881611fbc565b82525050565b60006020820190506119c360008301846118e1565b92915050565b60006060820190506119de60008301866118e1565b6119eb60208301856118e1565b6119f86040830184611990565b949350505050565b600060e082019050611a15600083018a6118e1565b611a2260208301896118e1565b611a2f6040830188611990565b611a3c6060830187611990565b611a49608083018661199f565b611a5660a08301856118ff565b611a6360c08301846118ff565b98975050505050505050565b600060c082019050611a8460008301896118e1565b611a9160208301886118e1565b611a9e6040830187611990565b611aab606083018661199f565b611ab860808301856118ff565b611ac560a08301846118ff565b979650505050505050565b6000606082019050611ae560008301866118e1565b611af26020830185611990565b611aff6040830184611990565b949350505050565b6000602082019050611b1c60008301846118f0565b92915050565b6000602082019050611b37600083018461190e565b92915050565b6000602082019050611b52600083018461191d565b92915050565b6000602082019050611b6d600083018461192c565b92915050565b6000602082019050611b88600083018461193b565b92915050565b60006020820190508181036000830152611ba78161194a565b9050919050565b60006020820190508181036000830152611bc78161196d565b9050919050565b6000602082019050611be36000830184611990565b92915050565b6000604082019050611bfe6000830185611990565b611c0b60208301846118e1565b9392505050565b6000604082019050611c276000830185611990565b611c346020830184611990565b9392505050565b6000608082019050611c506000830187611990565b611c5d6020830186611990565b611c6a6040830185611990565b611c776060830184611990565b95945050505050565b600060a082019050611c956000830188611990565b611ca26020830187611990565b611caf6040830186611990565b611cbc6060830185611990565b611cc96080830184611990565b9695505050505050565b600082825260208201905092915050565b6000611cef82611fb2565b9150611cfa83611fb2565b9250827fffffffffffffffffffffffffffffffffffffffffffffffffffffffffffffffff03821115611d2f57611d2e61208a565b5b828201905092915050565b6000611d4582611fb2565b9150611d5083611fb2565b925082611d6057611d5f6120b9565b5b828204905092915050565b6000808291508390505b6001851115611db557808604811115611d9157611d9061208a565b5b6001851615611da05780820291505b8081029050611dae8561211c565b9450611d75565b94509492505050565b6000611dc982611fb2565b9150611dd483611fb2565b9250611e017fffffffffffffffffffffffffffffffffffffffffffffffffffffffffffffffff8484611e09565b905092915050565b600082611e195760019050611ed5565b81611e275760009050611ed5565b8160018114611e3d5760028114611e4757611e76565b6001915050611ed5565b60ff841115611e5957611e5861208a565b5b8360020a915084821115611e7057611e6f61208a565b5b50611ed5565b5060208310610133831016604e8410600b8410161715611eab5782820a905083811115611ea657611ea561208a565b5b611ed5565b611eb88484846001611d6b565b92509050818404811115611ecf57611ece61208a565b5b81810290505b9392505050565b6000611ee782611fb2565b9150611ef283611fb2565b9250817fffffffffffffffffffffffffffffffffffffffffffffffffffffffffffffffff0483118215151615611f2b57611f2a61208a565b5b828202905092915050565b6000611f4182611fb2565b9150611f4c83611fb2565b925082821015611f5f57611f5e61208a565b5b828203905092915050565b6000611f7582611f92565b9050919050565b60008115159050919050565b6000819050919050565b600073ffffffffffffffffffffffffffffffffffffffff82169050919050565b6000819050919050565b600060ff82169050919050565b6000611fd482611fdb565b9050919050565b6000611fe682611f92565b9050919050565b6000611ff882611fff565b9050919050565b600061200a82611f92565b9050919050565b600061201c82612023565b9050919050565b600061202e82611f92565b9050919050565b600061204082612047565b9050919050565b600061205282611f92565b9050919050565b600061206482611fb2565b915061206f83611fb2565b92508261207f5761207e6120b9565b5b828206905092915050565b7f4e487b7100000000000000000000000000000000000000000000000000000000600052601160045260246000fd5b7f4e487b7100000000000000000000000000000000000000000000000000000000600052601260045260246000fd5b7f4e487b7100000000000000000000000000000000000000000000000000000000600052603260045260246000fd5b600080fd5b60008160011c9050919050565b7f4f776e61626c653a206e6577206f776e657220697320746865207a65726f206160008201527f6464726573730000000000000000000000000000000000000000000000000000602082015250565b7f4f776e61626c653a2063616c6c6572206973206e6f7420746865206f776e6572600082015250565b6121aa81611f6a565b81146121b557600080fd5b50565b6121c181611f7c565b81146121cc57600080fd5b50565b6121d881611f88565b81146121e357600080fd5b50565b6121ef81611fb2565b81146121fa57600080fd5b50565b61220681611fbc565b811461221157600080fd5b5056fea264697066735822122005bf4a497baecc599e93e58b5c8eb0e5592075c606adb21af3d9f51a66462ace64736f6c63430008050033",
    "linkReferences": {},
    "deployedLinkReferences": {}
}