{
  "_format": "hh-sol-artifact-1",
  "contractName": "TheMaster",
  "sourceName": "contracts/TheMaster.sol",
  "abi": [
    {
      "inputs": [
        {
          "internalType": "uint256",
          "name": "_initialRewardPerBlock",
          "type": "uint256"
        },
        {
          "internalType": "uint256",
          "name": "_decreasingInterval",
          "type": "uint256"
        },
        {
          "internalType": "uint256",
          "name": "_startBlock",
          "type": "uint256"
        },
        {
          "internalType": "contract IMaidCoin",
          "name": "_maidCoin",
          "type": "address"
        }
      ],
      "stateMutability": "nonpayable",
      "type": "constructor"
    },
    {
      "anonymous": false,
      "inputs": [
        {
          "indexed": true,
          "internalType": "uint256",
          "name": "pid",
          "type": "uint256"
        },
        {
          "indexed": false,
          "internalType": "address",
          "name": "addr",
          "type": "address"
        },
        {
          "indexed": true,
          "internalType": "bool",
          "name": "delegate",
          "type": "bool"
        },
        {
          "indexed": true,
          "internalType": "bool",
          "name": "mintable",
          "type": "bool"
        },
        {
          "indexed": false,
          "internalType": "address",
          "name": "supportable",
          "type": "address"
        },
        {
          "indexed": false,
          "internalType": "uint8",
          "name": "supportingRatio",
          "type": "uint8"
        },
        {
          "indexed": false,
          "internalType": "uint256",
          "name": "allocPoint",
          "type": "uint256"
        }
      ],
      "name": "Add",
      "type": "event"
    },
    {
      "anonymous": false,
      "inputs": [
        {
          "indexed": false,
          "internalType": "address",
          "name": "addr",
          "type": "address"
        }
      ],
      "name": "ChangeRewardCalculator",
      "type": "event"
    },
    {
      "anonymous": false,
      "inputs": [
        {
          "indexed": true,
          "internalType": "uint256",
          "name": "userId",
          "type": "uint256"
        },
        {
          "indexed": true,
          "internalType": "uint256",
          "name": "pid",
          "type": "uint256"
        },
        {
          "indexed": false,
          "internalType": "uint256",
          "name": "amount",
          "type": "uint256"
        }
      ],
      "name": "Deposit",
      "type": "event"
    },
    {
      "anonymous": false,
      "inputs": [
        {
          "indexed": true,
          "internalType": "address",
          "name": "supporter",
          "type": "address"
        },
        {
          "indexed": true,
          "internalType": "uint256",
          "name": "pid",
          "type": "uint256"
        },
        {
          "indexed": false,
          "internalType": "uint256",
          "name": "amount",
          "type": "uint256"
        }
      ],
      "name": "Desupport",
      "type": "event"
    },
    {
      "anonymous": false,
      "inputs": [
        {
          "indexed": true,
          "internalType": "address",
          "name": "user",
          "type": "address"
        },
        {
          "indexed": true,
          "internalType": "uint256",
          "name": "pid",
          "type": "uint256"
        },
        {
          "indexed": false,
          "internalType": "uint256",
          "name": "amount",
          "type": "uint256"
        }
      ],
      "name": "EmergencyDesupport",
      "type": "event"
    },
    {
      "anonymous": false,
      "inputs": [
        {
          "indexed": true,
          "internalType": "address",
          "name": "user",
          "type": "address"
        },
        {
          "indexed": true,
          "internalType": "uint256",
          "name": "pid",
          "type": "uint256"
        },
        {
          "indexed": false,
          "internalType": "uint256",
          "name": "amount",
          "type": "uint256"
        }
      ],
      "name": "EmergencyWithdraw",
      "type": "event"
    },
    {
      "anonymous": false,
      "inputs": [
        {
          "indexed": true,
          "internalType": "address",
          "name": "previousOwner",
          "type": "address"
        },
        {
          "indexed": true,
          "internalType": "address",
          "name": "newOwner",
          "type": "address"
        }
      ],
      "name": "OwnershipTransferred",
      "type": "event"
    },
    {
      "anonymous": false,
      "inputs": [
        {
          "indexed": true,
          "internalType": "uint256",
          "name": "pid",
          "type": "uint256"
        },
        {
          "indexed": false,
          "internalType": "uint256",
          "name": "allocPoint",
          "type": "uint256"
        }
      ],
      "name": "Set",
      "type": "event"
    },
    {
      "anonymous": false,
      "inputs": [
        {
          "indexed": true,
          "internalType": "uint256",
          "name": "pid",
          "type": "uint256"
        },
        {
          "indexed": true,
          "internalType": "bool",
          "name": "status",
          "type": "bool"
        }
      ],
      "name": "SetIsSupporterPool",
      "type": "event"
    },
    {
      "anonymous": false,
      "inputs": [
        {
          "indexed": true,
          "internalType": "address",
          "name": "supporter",
          "type": "address"
        },
        {
          "indexed": true,
          "internalType": "uint256",
          "name": "pid",
          "type": "uint256"
        },
        {
          "indexed": false,
          "internalType": "uint256",
          "name": "amount",
          "type": "uint256"
        }
      ],
      "name": "Support",
      "type": "event"
    },
    {
      "anonymous": false,
      "inputs": [
        {
          "indexed": true,
          "internalType": "uint256",
          "name": "userId",
          "type": "uint256"
        },
        {
          "indexed": true,
          "internalType": "uint256",
          "name": "pid",
          "type": "uint256"
        },
        {
          "indexed": false,
          "internalType": "uint256",
          "name": "amount",
          "type": "uint256"
        }
      ],
      "name": "Withdraw",
      "type": "event"
    },
    {
      "inputs": [
        {
          "internalType": "address",
          "name": "addr",
          "type": "address"
        },
        {
          "internalType": "bool",
          "name": "delegate",
          "type": "bool"
        },
        {
          "internalType": "bool",
          "name": "mintable",
          "type": "bool"
        },
        {
          "internalType": "address",
          "name": "supportable",
          "type": "address"
        },
        {
          "internalType": "uint8",
          "name": "supportingRatio",
          "type": "uint8"
        },
        {
          "internalType": "uint256",
          "name": "allocPoint",
          "type": "uint256"
        }
      ],
      "name": "add",
      "outputs": [],
      "stateMutability": "nonpayable",
      "type": "function"
    },
    {
      "inputs": [
        {
          "internalType": "address",
          "name": "addr",
          "type": "address"
        }
      ],
      "name": "changeRewardCalculator",
      "outputs": [],
      "stateMutability": "nonpayable",
      "type": "function"
    },
    {
      "inputs": [],
      "name": "decreasingInterval",
      "outputs": [
        {
          "internalType": "uint256",
          "name": "",
          "type": "uint256"
        }
      ],
      "stateMutability": "view",
      "type": "function"
    },
    {
      "inputs": [
        {
          "internalType": "uint256",
          "name": "pid",
          "type": "uint256"
        },
        {
          "internalType": "uint256",
          "name": "amount",
          "type": "uint256"
        },
        {
          "internalType": "uint256",
          "name": "userId",
          "type": "uint256"
        }
      ],
      "name": "deposit",
      "outputs": [],
      "stateMutability": "nonpayable",
      "type": "function"
    },
    {
      "inputs": [
        {
          "internalType": "uint256",
          "name": "pid",
          "type": "uint256"
        },
        {
          "internalType": "uint256",
          "name": "amount",
          "type": "uint256"
        },
        {
          "internalType": "uint256",
          "name": "userId",
          "type": "uint256"
        },
        {
          "internalType": "uint256",
          "name": "deadline",
          "type": "uint256"
        },
        {
          "internalType": "uint8",
          "name": "v",
          "type": "uint8"
        },
        {
          "internalType": "bytes32",
          "name": "r",
          "type": "bytes32"
        },
        {
          "internalType": "bytes32",
          "name": "s",
          "type": "bytes32"
        }
      ],
      "name": "depositWithPermit",
      "outputs": [],
      "stateMutability": "nonpayable",
      "type": "function"
    },
    {
      "inputs": [
        {
          "internalType": "uint256",
          "name": "pid",
          "type": "uint256"
        },
        {
          "internalType": "uint256",
          "name": "amount",
          "type": "uint256"
        },
        {
          "internalType": "uint256",
          "name": "userId",
          "type": "uint256"
        },
        {
          "internalType": "uint256",
          "name": "deadline",
          "type": "uint256"
        },
        {
          "internalType": "uint8",
          "name": "v",
          "type": "uint8"
        },
        {
          "internalType": "bytes32",
          "name": "r",
          "type": "bytes32"
        },
        {
          "internalType": "bytes32",
          "name": "s",
          "type": "bytes32"
        }
      ],
      "name": "depositWithPermitMax",
      "outputs": [],
      "stateMutability": "nonpayable",
      "type": "function"
    },
    {
      "inputs": [
        {
          "internalType": "uint256",
          "name": "pid",
          "type": "uint256"
        },
        {
          "internalType": "uint256",
          "name": "amount",
          "type": "uint256"
        }
      ],
      "name": "desupport",
      "outputs": [],
      "stateMutability": "nonpayable",
      "type": "function"
    },
    {
      "inputs": [
        {
          "internalType": "uint256",
          "name": "pid",
          "type": "uint256"
        }
      ],
      "name": "emergencyDesupport",
      "outputs": [],
      "stateMutability": "nonpayable",
      "type": "function"
    },
    {
      "inputs": [
        {
          "internalType": "uint256",
          "name": "pid",
          "type": "uint256"
        }
      ],
      "name": "emergencyWithdraw",
      "outputs": [],
      "stateMutability": "nonpayable",
      "type": "function"
    },
    {
      "inputs": [],
      "name": "initialRewardPerBlock",
      "outputs": [
        {
          "internalType": "uint256",
          "name": "",
          "type": "uint256"
        }
      ],
      "stateMutability": "view",
      "type": "function"
    },
    {
      "inputs": [],
      "name": "maidCoin",
      "outputs": [
        {
          "internalType": "contract IMaidCoin",
          "name": "",
          "type": "address"
        }
      ],
      "stateMutability": "view",
      "type": "function"
    },
    {
      "inputs": [
        {
          "internalType": "address",
          "name": "to",
          "type": "address"
        },
        {
          "internalType": "uint256",
          "name": "amount",
          "type": "uint256"
        }
      ],
      "name": "mint",
      "outputs": [],
      "stateMutability": "nonpayable",
      "type": "function"
    },
    {
      "inputs": [],
      "name": "owner",
      "outputs": [
        {
          "internalType": "address",
          "name": "",
          "type": "address"
        }
      ],
      "stateMutability": "view",
      "type": "function"
    },
    {
      "inputs": [
        {
          "internalType": "uint256",
          "name": "pid",
          "type": "uint256"
        },
        {
          "internalType": "uint256",
          "name": "userId",
          "type": "uint256"
        }
      ],
      "name": "pendingReward",
      "outputs": [
        {
          "internalType": "uint256",
          "name": "",
          "type": "uint256"
        }
      ],
      "stateMutability": "view",
      "type": "function"
    },
    {
      "inputs": [
        {
          "internalType": "address",
          "name": "",
          "type": "address"
        }
      ],
      "name": "pidByAddr",
      "outputs": [
        {
          "internalType": "uint256",
          "name": "",
          "type": "uint256"
        }
      ],
      "stateMutability": "view",
      "type": "function"
    },
    {
      "inputs": [
        {
          "internalType": "uint256",
          "name": "",
          "type": "uint256"
        }
      ],
      "name": "poolInfo",
      "outputs": [
        {
          "internalType": "address",
          "name": "addr",
          "type": "address"
        },
        {
          "internalType": "bool",
          "name": "delegate",
          "type": "bool"
        },
        {
          "internalType": "bool",
          "name": "mintable",
          "type": "bool"
        },
        {
          "internalType": "contract ISupportable",
          "name": "supportable",
          "type": "address"
        },
        {
          "internalType": "uint8",
          "name": "supportingRatio",
          "type": "uint8"
        },
        {
          "internalType": "uint256",
          "name": "allocPoint",
          "type": "uint256"
        },
        {
          "internalType": "uint256",
          "name": "lastRewardBlock",
          "type": "uint256"
        },
        {
          "internalType": "uint256",
          "name": "accRewardPerShare",
          "type": "uint256"
        },
        {
          "internalType": "uint256",
          "name": "supply",
          "type": "uint256"
        }
      ],
      "stateMutability": "view",
      "type": "function"
    },
    {
      "inputs": [],
      "name": "renounceOwnership",
      "outputs": [],
      "stateMutability": "nonpayable",
      "type": "function"
    },
    {
      "inputs": [],
      "name": "rewardCalculator",
      "outputs": [
        {
          "internalType": "contract IRewardCalculator",
          "name": "",
          "type": "address"
        }
      ],
      "stateMutability": "view",
      "type": "function"
    },
    {
      "inputs": [],
      "name": "rewardPerBlock",
      "outputs": [
        {
          "internalType": "uint256",
          "name": "",
          "type": "uint256"
        }
      ],
      "stateMutability": "view",
      "type": "function"
    },
    {
      "inputs": [
        {
          "internalType": "uint256",
          "name": "pid",
          "type": "uint256"
        },
        {
          "internalType": "uint256",
          "name": "allocPoint",
          "type": "uint256"
        }
      ],
      "name": "set",
      "outputs": [],
      "stateMutability": "nonpayable",
      "type": "function"
    },
    {
      "inputs": [],
      "name": "startBlock",
      "outputs": [
        {
          "internalType": "uint256",
          "name": "",
          "type": "uint256"
        }
      ],
      "stateMutability": "view",
      "type": "function"
    },
    {
      "inputs": [
        {
          "internalType": "uint256",
          "name": "pid",
          "type": "uint256"
        },
        {
          "internalType": "uint256",
          "name": "amount",
          "type": "uint256"
        },
        {
          "internalType": "uint256",
          "name": "supportTo",
          "type": "uint256"
        }
      ],
      "name": "support",
      "outputs": [],
      "stateMutability": "nonpayable",
      "type": "function"
    },
    {
      "inputs": [],
      "name": "totalAllocPoint",
      "outputs": [
        {
          "internalType": "uint256",
          "name": "",
          "type": "uint256"
        }
      ],
      "stateMutability": "view",
      "type": "function"
    },
    {
      "inputs": [
        {
          "internalType": "address",
          "name": "newOwner",
          "type": "address"
        }
      ],
      "name": "transferOwnership",
      "outputs": [],
      "stateMutability": "nonpayable",
      "type": "function"
    },
    {
      "inputs": [
        {
          "internalType": "uint256",
          "name": "",
          "type": "uint256"
        },
        {
          "internalType": "uint256",
          "name": "",
          "type": "uint256"
        }
      ],
      "name": "userInfo",
      "outputs": [
        {
          "internalType": "uint256",
          "name": "amount",
          "type": "uint256"
        },
        {
          "internalType": "uint256",
          "name": "rewardDebt",
          "type": "uint256"
        }
      ],
      "stateMutability": "view",
      "type": "function"
    },
    {
      "inputs": [
        {
          "internalType": "uint256",
          "name": "pid",
          "type": "uint256"
        },
        {
          "internalType": "uint256",
          "name": "amount",
          "type": "uint256"
        },
        {
          "internalType": "uint256",
          "name": "userId",
          "type": "uint256"
        }
      ],
      "name": "withdraw",
      "outputs": [],
      "stateMutability": "nonpayable",
      "type": "function"
    }
  ],
  "bytecode": "0x6101006040523480156200001257600080fd5b5060405162002a9238038062002a9283398101604081905262000035916200009b565b600080546001600160a01b031916339081178255604051909182917f8be0079c531659141344cd1fd0a4f28419497f9722a3daafe3b4186f6b6457e0908290a35060809390935260a09190915260c05260601b6001600160601b03191660e052620000ec565b60008060008060808587031215620000b257600080fd5b845160208601516040870151606088015192965090945092506001600160a01b0381168114620000e157600080fd5b939692955090935050565b60805160a05160c05160e05160601c6129236200016f6000396000818161036a01528181610e3101528181611edd01528181611f9c0152818161204e01526120f70152600081816102b40152818161071f01528181610746015261133f0152600081816102ee015261131b01526000818161033b015261138101526129236000f3fe608060405234801561001057600080fd5b506004361061018d5760003560e01c806366d31e1b116100de57806396769e8911610097578063b345dc8c11610071578063b345dc8c146103f6578063e692c4531461043d578063f2fde38b14610450578063f440c1eb1461046357600080fd5b806396769e89146103bd578063a234d608146103d0578063a41fe49f146103e357600080fd5b806366d31e1b146103235780636b56781a14610336578063715018a61461035d578063849e5aff146103655780638ae39cac146103a45780638da5cb5b146103ac57600080fd5b80633d12f60d1161014b57806348cd4cb11161012557806348cd4cb1146102af5780635312ea8e146102d657806354ae7bb0146102e95780635acf624c1461031057600080fd5b80633d12f60d146102695780633fed8e8d1461028957806340c10f191461029c57600080fd5b8062aeef8a14610192578063058048ef146101a75780631526fe27146101ba57806317caf6f11461022c5780631ab06ee5146102435780633185c0bd14610256575b600080fd5b6101a56101a0366004612639565b610476565b005b6101a56101b53660046124f9565b610615565b6101cd6101c83660046125e5565b61099c565b604080516001600160a01b039a8b16815298151560208a01529615159688019690965296909316606086015260ff909116608085015260a084015260c083015260e0820192909252610100810191909152610120015b60405180910390f35b61023560055481565b604051908152602001610223565b6101a5610251366004612617565b610a09565b610235610264366004612617565b610ae5565b6102356102773660046124dc565b60046020526000908152604090205481565b6101a5610297366004612665565b610ccf565b6101a56102aa36600461256e565b610d74565b6102357f000000000000000000000000000000000000000000000000000000000000000081565b6101a56102e43660046125e5565b610e91565b6102357f000000000000000000000000000000000000000000000000000000000000000081565b6101a561031e3660046125e5565b611011565b6101a5610331366004612665565b6111a7565b6102357f000000000000000000000000000000000000000000000000000000000000000081565b6101a5611204565b61038c7f000000000000000000000000000000000000000000000000000000000000000081565b6040516001600160a01b039091168152602001610223565b610235611278565b6000546001600160a01b031661038c565b60015461038c906001600160a01b031681565b6101a56103de366004612617565b6113ab565b6101a56103f1366004612639565b6116c5565b610428610404366004612617565b60036020908152600092835260408084209091529082529020805460019091015482565b60408051928352602083019190915201610223565b6101a561044b366004612639565b611845565b6101a561045e3660046124dc565b611b60565b6101a56104713660046124dc565b611c4a565b60006002848154811061048b5761048b6128b1565b6000918252602090912060069091020160018101549091506001600160a01b0316156104fe5760405162461bcd60e51b815260206004820152601b60248201527f5468654d61737465723a2075736520737570706f72742066756e63000000000060448201526064015b60405180910390fd5b600084815260036020908152604080832085845290915290208154600160a01b900460ff16156105635781546001600160a01b031633146105515760405162461bcd60e51b81526004016104f590612786565b61055e8282866000611cc8565b6105d3565b6001600160a01b03831633146105c65760405162461bcd60e51b815260206004820152602260248201527f5468654d61737465723a206465706f73697420746f20796f7572206164647265604482015261737360f01b60648201526084016104f5565b6105d38282866001611cc8565b84837f33da4f9b82b3e18a281ca2cabbe2f076925692abb593b7ea3f850009e8ec97708660405161060691815260200190565b60405180910390a35050505050565b6000546001600160a01b0316331461063f5760405162461bcd60e51b81526004016104f590612751565b6001600160a01b038316156106c25760008260ff16118015610665575060508260ff1611155b6106bd5760405162461bcd60e51b8152602060048201526024808201527f5468654d61737465723a206f757472616e67656420737570706f7274696e67526044820152636174696f60e01b60648201526084016104f5565b610713565b60ff8216156107135760405162461bcd60e51b815260206004820152601f60248201527f5468654d61737465723a206e6f7420737570706f727461626c6520706f6f6c0060448201526064016104f5565b61071b611d9d565b60007f0000000000000000000000000000000000000000000000000000000000000000431161076a577f000000000000000000000000000000000000000000000000000000000000000061076c565b435b9050816005600082825461078091906127c7565b925050819055506000600280549050905080600460008a6001600160a01b03166001600160a01b031681526020019081526020016000208190555060026040518061012001604052808a6001600160a01b0316815260200189151581526020018815158152602001876001600160a01b031681526020018660ff168152602001858152602001848152602001600081526020016000815250908060018154018082558091505060019003906000526020600020906006020160009091909190915060008201518160000160006101000a8154816001600160a01b0302191690836001600160a01b0316021790555060208201518160000160146101000a81548160ff02191690831515021790555060408201518160000160156101000a81548160ff02191690831515021790555060608201518160010160006101000a8154816001600160a01b0302191690836001600160a01b0316021790555060808201518160010160146101000a81548160ff021916908360ff16021790555060a0820151816002015560c0820151816003015560e0820151816004015561010082015181600501555050851515871515827f85c5f9763b69537638ed9b50435c7c1296747fc78c92080777dd20909d46d0ac8b89898960405161098a94939291906001600160a01b03948516815292909316602083015260ff166040820152606081019190915260800190565b60405180910390a45050505050505050565b600281815481106109ac57600080fd5b60009182526020909120600690910201805460018201546002830154600384015460048501546005909501546001600160a01b03808616975060ff600160a01b808804821698600160a81b90980482169792871696041693929189565b6000546001600160a01b03163314610a335760405162461bcd60e51b81526004016104f590612751565b610a3b611d9d565b8060028381548110610a4f57610a4f6128b1565b906000526020600020906006020160020154600554610a6e9190612820565b610a7891906127c7565b6005819055508060028381548110610a9257610a926128b1565b906000526020600020906006020160020181905550817f545b620a3000f6303b158b321f06b4e95e28a27d70aecac8c6bdac4f48a9f6b382604051610ad991815260200190565b60405180910390a25050565b60008060028481548110610afb57610afb6128b1565b600091825260208083206040805161012081018252600690940290910180546001600160a01b03808216865260ff600160a01b8084048216151588880152600160a81b9093048116151587860152600180850154928316606089015292909104166080860152600282015460a086015260038083015460c08701908152600484015460e0880190815260059094015461010088019081528c89529186528488208b89528652968490208451808601909552805485529091015493830193909352519151935192945092909143118015610bd357508015155b15610c455760006005548560a00151610bea611278565b60c0880151610bf99043612820565b610c039190612801565b610c0d9190612801565b610c1791906127df565b905081610c2d68056bc75e2d6310000083612801565b610c3791906127df565b610c4190846127c7565b9250505b6000836020015168056bc75e2d63100000848660000151610c669190612801565b610c7091906127df565b610c7a9190612820565b9050846080015160ff1660001415610c98579450610cc99350505050565b6064856080015160ff1682610cad9190612801565b610cb791906127df565b610cc19082612820565b955050505050505b92915050565b60028781548110610ce257610ce26128b1565b600091825260209091206006909102015460405163d505accf60e01b81526001600160a01b039091169063d505accf90610d2e9033903090600019908a908a908a908a906004016126dd565b600060405180830381600087803b158015610d4857600080fd5b505af1158015610d5c573d6000803e3d6000fd5b50505050610d6b878787610476565b50505050505050565b33600090815260046020526040902054600280549091908110610d9957610d996128b1565b6000918252602090912060069091020154600160a81b900460ff16610e0b5760405162461bcd60e51b815260206004820152602260248201527f5468654d61737465723a2063616c6c65642066726f6d20756e2d6d696e7461626044820152616c6560f01b60648201526084016104f5565b6040516340c10f1960e01b81526001600160a01b038381166004830152602482018390527f000000000000000000000000000000000000000000000000000000000000000016906340c10f1990604401600060405180830381600087803b158015610e7557600080fd5b505af1158015610e89573d6000803e3d6000fd5b505050505050565b600060028281548110610ea657610ea66128b1565b6000918252602090912060069091020160018101549091506001600160a01b031615610f145760405162461bcd60e51b815260206004820152601d60248201527f5468654d61737465723a20757365206465737570706f72742066756e6300000060448201526064016104f5565b8054600160a01b900460ff1615610f7c5760405162461bcd60e51b815260206004820152602660248201527f5468654d61737465723a20506f6f6c2073686f756c64206265206e6f6e2d64656044820152656c656761746560d01b60648201526084016104f5565b6000828152600360209081526040808320338452909152812080548282556001820183905560058401805492939192839290610fb9908490612820565b90915550508254610fd4906001600160a01b03163383611de8565b604051818152849033907fbb757047c2b5f3974fe26b7c10f732e7bce710b0952a71082702781e62ae05959060200160405180910390a350505050565b600060028281548110611026576110266128b1565b6000918252602090912060069091020160018101549091506001600160a01b031680156110a35760405162461bcd60e51b815260206004820152602560248201527f5468654d61737465723a2075736520656d657267656e637957697468647261776044820152642066756e6360d81b60648201526084016104f5565b60008381526003602090815260408083203384529091528120805482825560018201839055600585018054929391928392906110e0908490612820565b90915550506001600160a01b03831663ddfeacca336110fe8461287e565b6040516001600160e01b031960e085901b1681526001600160a01b0390921660048301526024820152604401600060405180830381600087803b15801561114457600080fd5b505af1158015611158573d6000803e3d6000fd5b5050855461117392506001600160a01b031690503383611de8565b604051818152859033907f67a463e34014cd44cda35b27bf0daebb9c9e138b4e4b6ef2a23170d79595f8a090602001610606565b600287815481106111ba576111ba6128b1565b600091825260209091206006909102015460405163d505accf60e01b81526001600160a01b039091169063d505accf90610d2e90339030908b908a908a908a908a906004016126dd565b6000546001600160a01b0316331461122e5760405162461bcd60e51b81526004016104f590612751565b600080546040516001600160a01b03909116907f8be0079c531659141344cd1fd0a4f28419497f9722a3daafe3b4186f6b6457e0908390a3600080546001600160a01b0319169055565b6001546000906001600160a01b03161561131757600160009054906101000a90046001600160a01b03166001600160a01b0316638ae39cac6040518163ffffffff1660e01b815260040160206040518083038186803b1580156112da57600080fd5b505afa1580156112ee573d6000803e3d6000fd5b505050506040513d601f19601f8201168201806040525081019061131291906125fe565b905090565b60007f00000000000000000000000000000000000000000000000000000000000000006113647f000000000000000000000000000000000000000000000000000000000000000043612820565b61136e91906127df565b905061137b8160016127c7565b6113a5907f00000000000000000000000000000000000000000000000000000000000000006127df565b91505090565b6000600283815481106113c0576113c06128b1565b6000918252602090912060069091020160018101549091506001600160a01b03168061142e5760405162461bcd60e51b815260206004820152601c60248201527f5468654d61737465723a207573652077697468647261772066756e630000000060448201526064016104f5565b600084815260036020908152604080832033845290915290208054848110156114995760405162461bcd60e51b815260206004820152601e60248201527f5468654d61737465723a20496e73756666696369656e7420616d6f756e74000060448201526064016104f5565b6114a284611e50565b6004840154600183015460009068056bc75e2d631000006114c38486612801565b6114cd91906127df565b6114d79190612820565b905080156115a35760018601546040516303273bc760e01b815260048101839052336024820152600160a01b90910460ff16604482015260009081906001600160a01b038816906303273bc7906064016040805180830381600087803b15801561154057600080fd5b505af1158015611554573d6000803e3d6000fd5b505050506040513d601f19601f82011682018060405250810190611578919061259a565b9092509050801561158d5761158d8282611f84565b6115a03361159b8386612820565b611f84565b50505b8615611660576001600160a01b03851663ddfeacca336115c28a61287e565b6040516001600160e01b031960e085901b1681526001600160a01b0390921660048301526024820152604401600060405180830381600087803b15801561160857600080fd5b505af115801561161c573d6000803e3d6000fd5b50505050868660050160008282546116349190612820565b9091555061164490508784612820565b8085558654909350611660906001600160a01b03163389611de8565b68056bc75e2d631000006116748385612801565b61167e91906127df565b6001850155604051878152889033907fbcb1b254c83676670cc415f8ce8239bb9e972244993586ef7bf282f85ddadfe0906020015b60405180910390a35050505050505050565b6000600284815481106116da576116da6128b1565b6000918252602090912060069091020160018101549091506001600160a01b0316156117485760405162461bcd60e51b815260206004820152601d60248201527f5468654d61737465723a20757365206465737570706f72742066756e6300000060448201526064016104f5565b600084815260036020908152604080832085845290915290208154600160a01b900460ff16156117ad5781546001600160a01b0316331461179b5760405162461bcd60e51b81526004016104f590612786565b6117a88282866000612126565b611812565b6001600160a01b03831633146118055760405162461bcd60e51b815260206004820152601d60248201527f5468654d61737465723a204e6f742063616c6c6564206279207573657200000060448201526064016104f5565b6118128282866001612126565b84837fa01a72713bf837059e3a668d28f0de277fb7f24f2a4e95bf926703c95b5f12b28660405161060691815260200190565b60006002848154811061185a5761185a6128b1565b6000918252602090912060069091020160018101549091506001600160a01b0316806118c85760405162461bcd60e51b815260206004820152601b60248201527f5468654d61737465723a20757365206465706f7369742066756e63000000000060448201526064016104f5565b600085815260036020908152604080832033845290915290206118ea83611e50565b6004830154815480156119f057600183015460009068056bc75e2d631000006119138585612801565b61191d91906127df565b6119279190612820565b905080156119ee5760018601546040516303273bc760e01b815260048101839052336024820152600160a01b90910460ff16604482015260009081906001600160a01b038816906303273bc7906064016040805180830381600087803b15801561199057600080fd5b505af11580156119a4573d6000803e3d6000fd5b505050506040513d601f19601f820116820180604052508101906119c8919061259a565b909250905080156119dd576119dd8282611f84565b6119eb3361159b8386612820565b50505b505b8615611b095780611a67576040516359290a2560e11b815233600482015260248101879052604481018890526001600160a01b0385169063b252144a90606401600060405180830381600087803b158015611a4a57600080fd5b505af1158015611a5e573d6000803e3d6000fd5b50505050611ac8565b604051636eff566560e11b8152336004820152602481018890526001600160a01b0385169063ddfeacca90604401600060405180830381600087803b158015611aaf57600080fd5b505af1158015611ac3573d6000803e3d6000fd5b505050505b8454611adf906001600160a01b031633308a612242565b86856005016000828254611af391906127c7565b90915550611b03905087826127c7565b80845590505b68056bc75e2d63100000611b1d8383612801565b611b2791906127df565b6001840155604051878152889033907f3391b7506551053a045b28b04ba34acfab377a47e91db9f4a46d8ac01acac14f906020016116b3565b6000546001600160a01b03163314611b8a5760405162461bcd60e51b81526004016104f590612751565b6001600160a01b038116611bef5760405162461bcd60e51b815260206004820152602660248201527f4f776e61626c653a206e6577206f776e657220697320746865207a65726f206160448201526564647265737360d01b60648201526084016104f5565b600080546040516001600160a01b03808516939216917f8be0079c531659141344cd1fd0a4f28419497f9722a3daafe3b4186f6b6457e091a3600080546001600160a01b0319166001600160a01b0392909216919091179055565b6000546001600160a01b03163314611c745760405162461bcd60e51b81526004016104f590612751565b600180546001600160a01b0319166001600160a01b0383169081179091556040519081527f065fc3b77c68c383644c8d30a3e1f0df39d6f0ddc721adc950902574d599622b9060200160405180910390a150565b611cd184611e50565b600484015483548015611d2257600185015460009068056bc75e2d63100000611cfa8585612801565b611d0491906127df565b611d0e9190612820565b90508015611d2057611d203382611f84565b505b8315611d6f578215611d45578554611d45906001600160a01b0316333087612242565b83866005016000828254611d5991906127c7565b90915550611d69905084826127c7565b80865590505b68056bc75e2d63100000611d838383612801565b611d8d91906127df565b8560010181905550505050505050565b60025460005b81811015611de457611dd460028281548110611dc157611dc16128b1565b9060005260206000209060060201611e50565b611ddd81612863565b9050611da3565b5050565b6040516001600160a01b038316602482015260448101829052611e4b90849063a9059cbb60e01b906064015b60408051601f198184030181529190526020810180516001600160e01b03166001600160e01b03199093169290921790915261227a565b505050565b6003810154438110611e60575050565b6005820154801580611e7457506002830154155b15611e8457505043600390910155565b60006005548460020154611e96611278565b611ea08643612820565b611eaa9190612801565b611eb49190612801565b611ebe91906127df565b6040516340c10f1960e01b8152306004820152602481018290529091507f00000000000000000000000000000000000000000000000000000000000000006001600160a01b0316906340c10f1990604401600060405180830381600087803b158015611f2957600080fd5b505af1158015611f3d573d6000803e3d6000fd5b505050508168056bc75e2d6310000082611f579190612801565b611f6191906127df565b8460040154611f7091906127c7565b600485015550504360039092019190915550565b6040516370a0823160e01b81523060048201526000907f00000000000000000000000000000000000000000000000000000000000000006001600160a01b0316906370a082319060240160206040518083038186803b158015611fe657600080fd5b505afa158015611ffa573d6000803e3d6000fd5b505050506040513d601f19601f8201168201806040525081019061201e91906125fe565b9050808211156120d15760405163a9059cbb60e01b81526001600160a01b038481166004830152602482018390527f0000000000000000000000000000000000000000000000000000000000000000169063a9059cbb906044015b602060405180830381600087803b15801561209357600080fd5b505af11580156120a7573d6000803e3d6000fd5b505050506040513d601f19601f820116820180604052508101906120cb91906125c8565b50505050565b60405163a9059cbb60e01b81526001600160a01b038481166004830152602482018490527f0000000000000000000000000000000000000000000000000000000000000000169063a9059cbb90604401612079565b8254828110156121785760405162461bcd60e51b815260206004820152601e60248201527f5468654d61737465723a20496e73756666696369656e7420616d6f756e74000060448201526064016104f5565b61218185611e50565b6004850154600185015460009068056bc75e2d631000006121a28486612801565b6121ac91906127df565b6121b69190612820565b905080156121c8576121c83382611f84565b841561221357848760050160008282546121e29190612820565b909155506121f290508584612820565b80875592508315612213578654612213906001600160a01b03163387611de8565b68056bc75e2d631000006122278385612801565b61223191906127df565b866001018190555050505050505050565b6040516001600160a01b03808516602483015283166044820152606481018290526120cb9085906323b872dd60e01b90608401611e14565b60006122cf826040518060400160405280602081526020017f5361666545524332303a206c6f772d6c6576656c2063616c6c206661696c6564815250856001600160a01b031661234c9092919063ffffffff16565b805190915015611e4b57808060200190518101906122ed91906125c8565b611e4b5760405162461bcd60e51b815260206004820152602a60248201527f5361666545524332303a204552433230206f7065726174696f6e20646964206e6044820152691bdd081cdd58d8d9595960b21b60648201526084016104f5565b606061235b8484600085612365565b90505b9392505050565b6060824710156123c65760405162461bcd60e51b815260206004820152602660248201527f416464726573733a20696e73756666696369656e742062616c616e636520666f6044820152651c8818d85b1b60d21b60648201526084016104f5565b843b6124145760405162461bcd60e51b815260206004820152601d60248201527f416464726573733a2063616c6c20746f206e6f6e2d636f6e747261637400000060448201526064016104f5565b600080866001600160a01b0316858760405161243091906126c1565b60006040518083038185875af1925050503d806000811461246d576040519150601f19603f3d011682016040523d82523d6000602084013e612472565b606091505b509150915061248282828661248d565b979650505050505050565b6060831561249c57508161235e565b8251156124ac5782518084602001fd5b8160405162461bcd60e51b81526004016104f5919061271e565b803560ff811681146124d757600080fd5b919050565b6000602082840312156124ee57600080fd5b813561235e816128c7565b60008060008060008060c0878903121561251257600080fd5b863561251d816128c7565b9550602087013561252d816128df565b9450604087013561253d816128df565b9350606087013561254d816128c7565b925061255b608088016124c6565b915060a087013590509295509295509295565b6000806040838503121561258157600080fd5b823561258c816128c7565b946020939093013593505050565b600080604083850312156125ad57600080fd5b82516125b8816128c7565b6020939093015192949293505050565b6000602082840312156125da57600080fd5b815161235e816128df565b6000602082840312156125f757600080fd5b5035919050565b60006020828403121561261057600080fd5b5051919050565b6000806040838503121561262a57600080fd5b50508035926020909101359150565b60008060006060848603121561264e57600080fd5b505081359360208301359350604090920135919050565b600080600080600080600060e0888a03121561268057600080fd5b873596506020880135955060408801359450606088013593506126a5608089016124c6565b925060a0880135915060c0880135905092959891949750929550565b600082516126d3818460208701612837565b9190910192915050565b6001600160a01b0397881681529590961660208601526040850193909352606084019190915260ff16608083015260a082015260c081019190915260e00190565b602081526000825180602084015261273d816040850160208701612837565b601f01601f19169190910160400192915050565b6020808252818101527f4f776e61626c653a2063616c6c6572206973206e6f7420746865206f776e6572604082015260600190565b60208082526021908201527f5468654d61737465723a204e6f742063616c6c65642062792064656c656761746040820152606560f81b606082015260800190565b600082198211156127da576127da61289b565b500190565b6000826127fc57634e487b7160e01b600052601260045260246000fd5b500490565b600081600019048311821515161561281b5761281b61289b565b500290565b6000828210156128325761283261289b565b500390565b60005b8381101561285257818101518382015260200161283a565b838111156120cb5750506000910152565b60006000198214156128775761287761289b565b5060010190565b6000600160ff1b8214156128945761289461289b565b5060000390565b634e487b7160e01b600052601160045260246000fd5b634e487b7160e01b600052603260045260246000fd5b6001600160a01b03811681146128dc57600080fd5b50565b80151581146128dc57600080fdfea2646970667358221220bb8670d0254c188b891c55b51651e6cb508fc77eca39715be15ae347204e1c2064736f6c63430008050033",
  "linkReferences": {},
  "deployedLinkReferences": {}
}