{
  "contracts/TheMaster.sol": {
    "TheMaster": {
      "abi": [
        {
          "inputs": [
            {
              "internalType": "uint256",
              "name": "_initialRewardPerBlock",
              "type": "uint256"
            },
            {
              "internalType": "uint256",
              "name": "_decreasingInterval",
              "type": "uint256"
            },
            {
              "internalType": "uint256",
              "name": "_startBlock",
              "type": "uint256"
            },
            {
              "internalType": "contract IMaidCoin",
              "name": "_maidCoin",
              "type": "address"
            }
          ],
          "stateMutability": "nonpayable",
          "type": "constructor"
        },
        {
          "anonymous": false,
          "inputs": [
            {
              "indexed": true,
              "internalType": "uint256",
              "name": "pid",
              "type": "uint256"
            },
            {
              "indexed": false,
              "internalType": "address",
              "name": "addr",
              "type": "address"
            },
            {
              "indexed": true,
              "internalType": "bool",
              "name": "delegate",
              "type": "bool"
            },
            {
              "indexed": true,
              "internalType": "bool",
              "name": "mintable",
              "type": "bool"
            },
            {
              "indexed": false,
              "internalType": "address",
              "name": "supportable",
              "type": "address"
            },
            {
              "indexed": false,
              "internalType": "uint8",
              "name": "supportingRatio",
              "type": "uint8"
            },
            {
              "indexed": false,
              "internalType": "uint256",
              "name": "allocPoint",
              "type": "uint256"
            }
          ],
          "name": "Add",
          "type": "event"
        },
        {
          "anonymous": false,
          "inputs": [
            {
              "indexed": false,
              "internalType": "address",
              "name": "addr",
              "type": "address"
            }
          ],
          "name": "ChangeRewardCalculator",
          "type": "event"
        },
        {
          "anonymous": false,
          "inputs": [
            {
              "indexed": true,
              "internalType": "uint256",
              "name": "userId",
              "type": "uint256"
            },
            {
              "indexed": true,
              "internalType": "uint256",
              "name": "pid",
              "type": "uint256"
            },
            {
              "indexed": false,
              "internalType": "uint256",
              "name": "amount",
              "type": "uint256"
            }
          ],
          "name": "Deposit",
          "type": "event"
        },
        {
          "anonymous": false,
          "inputs": [
            {
              "indexed": true,
              "internalType": "address",
              "name": "supporter",
              "type": "address"
            },
            {
              "indexed": true,
              "internalType": "uint256",
              "name": "pid",
              "type": "uint256"
            },
            {
              "indexed": false,
              "internalType": "uint256",
              "name": "amount",
              "type": "uint256"
            }
          ],
          "name": "Desupport",
          "type": "event"
        },
        {
          "anonymous": false,
          "inputs": [
            {
              "indexed": true,
              "internalType": "address",
              "name": "user",
              "type": "address"
            },
            {
              "indexed": true,
              "internalType": "uint256",
              "name": "pid",
              "type": "uint256"
            },
            {
              "indexed": false,
              "internalType": "uint256",
              "name": "amount",
              "type": "uint256"
            }
          ],
          "name": "EmergencyDesupport",
          "type": "event"
        },
        {
          "anonymous": false,
          "inputs": [
            {
              "indexed": true,
              "internalType": "address",
              "name": "user",
              "type": "address"
            },
            {
              "indexed": true,
              "internalType": "uint256",
              "name": "pid",
              "type": "uint256"
            },
            {
              "indexed": false,
              "internalType": "uint256",
              "name": "amount",
              "type": "uint256"
            }
          ],
          "name": "EmergencyWithdraw",
          "type": "event"
        },
        {
          "anonymous": false,
          "inputs": [
            {
              "indexed": true,
              "internalType": "address",
              "name": "previousOwner",
              "type": "address"
            },
            {
              "indexed": true,
              "internalType": "address",
              "name": "newOwner",
              "type": "address"
            }
          ],
          "name": "OwnershipTransferred",
          "type": "event"
        },
        {
          "anonymous": false,
          "inputs": [
            {
              "indexed": true,
              "internalType": "uint256",
              "name": "pid",
              "type": "uint256"
            },
            {
              "indexed": false,
              "internalType": "uint256",
              "name": "allocPoint",
              "type": "uint256"
            }
          ],
          "name": "Set",
          "type": "event"
        },
        {
          "anonymous": false,
          "inputs": [
            {
              "indexed": true,
              "internalType": "uint256",
              "name": "pid",
              "type": "uint256"
            },
            {
              "indexed": true,
              "internalType": "bool",
              "name": "status",
              "type": "bool"
            }
          ],
          "name": "SetIsSupporterPool",
          "type": "event"
        },
        {
          "anonymous": false,
          "inputs": [
            {
              "indexed": true,
              "internalType": "address",
              "name": "supporter",
              "type": "address"
            },
            {
              "indexed": true,
              "internalType": "uint256",
              "name": "pid",
              "type": "uint256"
            },
            {
              "indexed": false,
              "internalType": "uint256",
              "name": "amount",
              "type": "uint256"
            }
          ],
          "name": "Support",
          "type": "event"
        },
        {
          "anonymous": false,
          "inputs": [
            {
              "indexed": true,
              "internalType": "uint256",
              "name": "userId",
              "type": "uint256"
            },
            {
              "indexed": true,
              "internalType": "uint256",
              "name": "pid",
              "type": "uint256"
            },
            {
              "indexed": false,
              "internalType": "uint256",
              "name": "amount",
              "type": "uint256"
            }
          ],
          "name": "Withdraw",
          "type": "event"
        },
        {
          "inputs": [
            {
              "internalType": "address",
              "name": "addr",
              "type": "address"
            },
            {
              "internalType": "bool",
              "name": "delegate",
              "type": "bool"
            },
            {
              "internalType": "bool",
              "name": "mintable",
              "type": "bool"
            },
            {
              "internalType": "address",
              "name": "supportable",
              "type": "address"
            },
            {
              "internalType": "uint8",
              "name": "supportingRatio",
              "type": "uint8"
            },
            {
              "internalType": "uint256",
              "name": "allocPoint",
              "type": "uint256"
            }
          ],
          "name": "add",
          "outputs": [],
          "stateMutability": "nonpayable",
          "type": "function"
        },
        {
          "inputs": [
            {
              "internalType": "address",
              "name": "addr",
              "type": "address"
            }
          ],
          "name": "changeRewardCalculator",
          "outputs": [],
          "stateMutability": "nonpayable",
          "type": "function"
        },
        {
          "inputs": [],
          "name": "decreasingInterval",
          "outputs": [
            {
              "internalType": "uint256",
              "name": "",
              "type": "uint256"
            }
          ],
          "stateMutability": "view",
          "type": "function"
        },
        {
          "inputs": [
            {
              "internalType": "uint256",
              "name": "pid",
              "type": "uint256"
            },
            {
              "internalType": "uint256",
              "name": "amount",
              "type": "uint256"
            },
            {
              "internalType": "uint256",
              "name": "userId",
              "type": "uint256"
            }
          ],
          "name": "deposit",
          "outputs": [],
          "stateMutability": "nonpayable",
          "type": "function"
        },
        {
          "inputs": [
            {
              "internalType": "uint256",
              "name": "pid",
              "type": "uint256"
            },
            {
              "internalType": "uint256",
              "name": "amount",
              "type": "uint256"
            },
            {
              "internalType": "uint256",
              "name": "userId",
              "type": "uint256"
            },
            {
              "internalType": "uint256",
              "name": "deadline",
              "type": "uint256"
            },
            {
              "internalType": "uint8",
              "name": "v",
              "type": "uint8"
            },
            {
              "internalType": "bytes32",
              "name": "r",
              "type": "bytes32"
            },
            {
              "internalType": "bytes32",
              "name": "s",
              "type": "bytes32"
            }
          ],
          "name": "depositWithPermit",
          "outputs": [],
          "stateMutability": "nonpayable",
          "type": "function"
        },
        {
          "inputs": [
            {
              "internalType": "uint256",
              "name": "pid",
              "type": "uint256"
            },
            {
              "internalType": "uint256",
              "name": "amount",
              "type": "uint256"
            },
            {
              "internalType": "uint256",
              "name": "userId",
              "type": "uint256"
            },
            {
              "internalType": "uint256",
              "name": "deadline",
              "type": "uint256"
            },
            {
              "internalType": "uint8",
              "name": "v",
              "type": "uint8"
            },
            {
              "internalType": "bytes32",
              "name": "r",
              "type": "bytes32"
            },
            {
              "internalType": "bytes32",
              "name": "s",
              "type": "bytes32"
            }
          ],
          "name": "depositWithPermitMax",
          "outputs": [],
          "stateMutability": "nonpayable",
          "type": "function"
        },
        {
          "inputs": [
            {
              "internalType": "uint256",
              "name": "pid",
              "type": "uint256"
            },
            {
              "internalType": "uint256",
              "name": "amount",
              "type": "uint256"
            }
          ],
          "name": "desupport",
          "outputs": [],
          "stateMutability": "nonpayable",
          "type": "function"
        },
        {
          "inputs": [
            {
              "internalType": "uint256",
              "name": "pid",
              "type": "uint256"
            }
          ],
          "name": "emergencyDesupport",
          "outputs": [],
          "stateMutability": "nonpayable",
          "type": "function"
        },
        {
          "inputs": [
            {
              "internalType": "uint256",
              "name": "pid",
              "type": "uint256"
            }
          ],
          "name": "emergencyWithdraw",
          "outputs": [],
          "stateMutability": "nonpayable",
          "type": "function"
        },
        {
          "inputs": [],
          "name": "initialRewardPerBlock",
          "outputs": [
            {
              "internalType": "uint256",
              "name": "",
              "type": "uint256"
            }
          ],
          "stateMutability": "view",
          "type": "function"
        },
        {
          "inputs": [],
          "name": "maidCoin",
          "outputs": [
            {
              "internalType": "contract IMaidCoin",
              "name": "",
              "type": "address"
            }
          ],
          "stateMutability": "view",
          "type": "function"
        },
        {
          "inputs": [
            {
              "internalType": "address",
              "name": "to",
              "type": "address"
            },
            {
              "internalType": "uint256",
              "name": "amount",
              "type": "uint256"
            }
          ],
          "name": "mint",
          "outputs": [],
          "stateMutability": "nonpayable",
          "type": "function"
        },
        {
          "inputs": [
            {
              "internalType": "address",
              "name": "",
              "type": "address"
            }
          ],
          "name": "mintableByAddr",
          "outputs": [
            {
              "internalType": "bool",
              "name": "",
              "type": "bool"
            }
          ],
          "stateMutability": "view",
          "type": "function"
        },
        {
          "inputs": [],
          "name": "owner",
          "outputs": [
            {
              "internalType": "address",
              "name": "",
              "type": "address"
            }
          ],
          "stateMutability": "view",
          "type": "function"
        },
        {
          "inputs": [
            {
              "internalType": "uint256",
              "name": "pid",
              "type": "uint256"
            },
            {
              "internalType": "uint256",
              "name": "userId",
              "type": "uint256"
            }
          ],
          "name": "pendingReward",
          "outputs": [
            {
              "internalType": "uint256",
              "name": "",
              "type": "uint256"
            }
          ],
          "stateMutability": "view",
          "type": "function"
        },
        {
          "inputs": [],
          "name": "poolCount",
          "outputs": [
            {
              "internalType": "uint256",
              "name": "",
              "type": "uint256"
            }
          ],
          "stateMutability": "view",
          "type": "function"
        },
        {
          "inputs": [
            {
              "internalType": "uint256",
              "name": "",
              "type": "uint256"
            }
          ],
          "name": "poolInfo",
          "outputs": [
            {
              "internalType": "address",
              "name": "addr",
              "type": "address"
            },
            {
              "internalType": "bool",
              "name": "delegate",
              "type": "bool"
            },
            {
              "internalType": "contract ISupportable",
              "name": "supportable",
              "type": "address"
            },
            {
              "internalType": "uint8",
              "name": "supportingRatio",
              "type": "uint8"
            },
            {
              "internalType": "uint256",
              "name": "allocPoint",
              "type": "uint256"
            },
            {
              "internalType": "uint256",
              "name": "lastRewardBlock",
              "type": "uint256"
            },
            {
              "internalType": "uint256",
              "name": "accRewardPerShare",
              "type": "uint256"
            },
            {
              "internalType": "uint256",
              "name": "supply",
              "type": "uint256"
            }
          ],
          "stateMutability": "view",
          "type": "function"
        },
        {
          "inputs": [],
          "name": "renounceOwnership",
          "outputs": [],
          "stateMutability": "nonpayable",
          "type": "function"
        },
        {
          "inputs": [],
          "name": "rewardCalculator",
          "outputs": [
            {
              "internalType": "contract IRewardCalculator",
              "name": "",
              "type": "address"
            }
          ],
          "stateMutability": "view",
          "type": "function"
        },
        {
          "inputs": [],
          "name": "rewardPerBlock",
          "outputs": [
            {
              "internalType": "uint256",
              "name": "",
              "type": "uint256"
            }
          ],
          "stateMutability": "view",
          "type": "function"
        },
        {
          "inputs": [
            {
              "internalType": "uint256",
              "name": "pid",
              "type": "uint256"
            },
            {
              "internalType": "uint256",
              "name": "allocPoint",
              "type": "uint256"
            }
          ],
          "name": "set",
          "outputs": [],
          "stateMutability": "nonpayable",
          "type": "function"
        },
        {
          "inputs": [],
          "name": "startBlock",
          "outputs": [
            {
              "internalType": "uint256",
              "name": "",
              "type": "uint256"
            }
          ],
          "stateMutability": "view",
          "type": "function"
        },
        {
          "inputs": [
            {
              "internalType": "uint256",
              "name": "pid",
              "type": "uint256"
            },
            {
              "internalType": "uint256",
              "name": "amount",
              "type": "uint256"
            },
            {
              "internalType": "uint256",
              "name": "supportTo",
              "type": "uint256"
            }
          ],
          "name": "support",
          "outputs": [],
          "stateMutability": "nonpayable",
          "type": "function"
        },
        {
          "inputs": [],
          "name": "totalAllocPoint",
          "outputs": [
            {
              "internalType": "uint256",
              "name": "",
              "type": "uint256"
            }
          ],
          "stateMutability": "view",
          "type": "function"
        },
        {
          "inputs": [
            {
              "internalType": "address",
              "name": "newOwner",
              "type": "address"
            }
          ],
          "name": "transferOwnership",
          "outputs": [],
          "stateMutability": "nonpayable",
          "type": "function"
        },
        {
          "inputs": [
            {
              "internalType": "uint256",
              "name": "",
              "type": "uint256"
            },
            {
              "internalType": "uint256",
              "name": "",
              "type": "uint256"
            }
          ],
          "name": "userInfo",
          "outputs": [
            {
              "internalType": "uint256",
              "name": "amount",
              "type": "uint256"
            },
            {
              "internalType": "uint256",
              "name": "rewardDebt",
              "type": "uint256"
            }
          ],
          "stateMutability": "view",
          "type": "function"
        },
        {
          "inputs": [
            {
              "internalType": "uint256",
              "name": "pid",
              "type": "uint256"
            },
            {
              "internalType": "uint256",
              "name": "amount",
              "type": "uint256"
            },
            {
              "internalType": "uint256",
              "name": "userId",
              "type": "uint256"
            }
          ],
          "name": "withdraw",
          "outputs": [],
          "stateMutability": "nonpayable",
          "type": "function"
        }
      ],
      "evm": {
        "bytecode": {
          "linkReferences": {},
          "object": "6101006040523480156200001257600080fd5b5060405162004a4b38038062004a4b833981810160405281019062000038919062000177565b60006200004a6200014160201b60201c565b9050806000806101000a81548173ffffffffffffffffffffffffffffffffffffffff021916908373ffffffffffffffffffffffffffffffffffffffff1602179055508073ffffffffffffffffffffffffffffffffffffffff16600073ffffffffffffffffffffffffffffffffffffffff167f8be0079c531659141344cd1fd0a4f28419497f9722a3daafe3b4186f6b6457e060405160405180910390a35083608081815250508260a081815250508160c081815250508073ffffffffffffffffffffffffffffffffffffffff1660e08173ffffffffffffffffffffffffffffffffffffffff1660601b815250505050505062000274565b600033905090565b6000815190506200015a8162000240565b92915050565b60008151905062000171816200025a565b92915050565b600080600080608085870312156200019457620001936200023b565b5b6000620001a48782880162000160565b9450506020620001b78782880162000160565b9350506040620001ca8782880162000160565b9250506060620001dd8782880162000149565b91505092959194509250565b6000620001f68262000211565b9050919050565b60006200020a82620001e9565b9050919050565b600073ffffffffffffffffffffffffffffffffffffffff82169050919050565b6000819050919050565b600080fd5b6200024b81620001fd565b81146200025757600080fd5b50565b620002658162000231565b81146200027157600080fd5b50565b60805160a05160c05160e05160601c614754620002f7600039600081816111c30152818161193e01528181612b4c01528181612c2201528181612cd50152612d880152600081816108af015281816108d6015281816112540152611a8301526000818161149d0152611a620152600081816117e00152611ac801526147546000f3fe608060405234801561001057600080fd5b50600436106101a85760003560e01c80636b56781a116100f9578063a41fe49f11610097578063e692c45311610071578063e692c45314610487578063f2fde38b146104a3578063f440c1eb146104bf578063f525cb68146104db576101a8565b8063a41fe49f1461040a578063b345dc8c14610426578063e23ee3b214610457576101a8565b80638ae39cac116100d35780638ae39cac146103945780638da5cb5b146103b257806396769e89146103d0578063a234d608146103ee576101a8565b80636b56781a1461034e578063715018a61461036c578063849e5aff14610376576101a8565b80633fed8e8d116101665780635312ea8e116101405780635312ea8e146102dc57806354ae7bb0146102f85780635acf624c1461031657806366d31e1b14610332576101a8565b80633fed8e8d1461028657806340c10f19146102a257806348cd4cb1146102be576101a8565b8062aeef8a146101ad578063058048ef146101c95780631526fe27146101e557806317caf6f11461021c5780631ab06ee51461023a5780633185c0bd14610256575b600080fd5b6101c760048036038101906101c29190613541565b6104f9565b005b6101e360048036038101906101de919061336d565b610751565b005b6101ff60048036038101906101fa91906134a7565b610bb2565b604051610213989796959493929190613aba565b60405180910390f35b610224610c64565b6040516102319190613e74565b60405180910390f35b610254600480360381019061024f9190613501565b610c6a565b005b610270600480360381019061026b9190613501565b610d98565b60405161027d9190613e74565b60405180910390f35b6102a0600480360381019061029b9190613594565b611045565b005b6102bc60048036038101906102b791906133fa565b611135565b005b6102c6611252565b6040516102d39190613e74565b60405180910390f35b6102f660048036038101906102f191906134a7565b611276565b005b61030061149b565b60405161030d9190613e74565b60405180910390f35b610330600480360381019061032b91906134a7565b6114bf565b005b61034c60048036038101906103479190613594565b61170e565b005b6103566117de565b6040516103639190613e74565b60405180910390f35b610374611802565b005b61037e61193c565b60405161038b9190613bdc565b60405180910390f35b61039c611960565b6040516103a99190613e74565b60405180910390f35b6103ba611af8565b6040516103c791906139b4565b60405180910390f35b6103d8611b21565b6040516103e59190613bf7565b60405180910390f35b61040860048036038101906104039190613501565b611b47565b005b610424600480360381019061041f9190613541565b611f32565b005b610440600480360381019061043b9190613501565b61218a565b60405161044e929190613ec6565b60405180910390f35b610471600480360381019061046c9190613340565b6121bb565b60405161047e9190613bc1565b60405180910390f35b6104a1600480360381019061049c9190613541565b6121db565b005b6104bd60048036038101906104b89190613340565b612605565b005b6104d960048036038101906104d49190613340565b6127ae565b005b6104e36128a5565b6040516104f09190613e74565b60405180910390f35b60006002848154811061050f5761050e61422e565b5b90600052602060002090600602019050600073ffffffffffffffffffffffffffffffffffffffff168160010160009054906101000a900473ffffffffffffffffffffffffffffffffffffffff1673ffffffffffffffffffffffffffffffffffffffff16146105b2576040517f08c379a00000000000000000000000000000000000000000000000000000000081526004016105a990613d14565b60405180910390fd5b600060036000868152602001908152602001600020600084815260200190815260200160002090508160000160149054906101000a900460ff1615610695573373ffffffffffffffffffffffffffffffffffffffff168260000160009054906101000a900473ffffffffffffffffffffffffffffffffffffffff1673ffffffffffffffffffffffffffffffffffffffff1614610683576040517f08c379a000000000000000000000000000000000000000000000000000000000815260040161067a90613dd4565b60405180910390fd5b61069082828660006128b2565b610711565b3373ffffffffffffffffffffffffffffffffffffffff168373ffffffffffffffffffffffffffffffffffffffff1614610703576040517f08c379a00000000000000000000000000000000000000000000000000000000081526004016106fa90613df4565b60405180910390fd5b61071082828660016128b2565b5b84837f33da4f9b82b3e18a281ca2cabbe2f076925692abb593b7ea3f850009e8ec9770866040516107429190613e74565b60405180910390a35050505050565b6107596129e3565b73ffffffffffffffffffffffffffffffffffffffff16610777611af8565b73ffffffffffffffffffffffffffffffffffffffff16146107cd576040517f08c379a00000000000000000000000000000000000000000000000000000000081526004016107c490613d34565b60405180910390fd5b600073ffffffffffffffffffffffffffffffffffffffff168373ffffffffffffffffffffffffffffffffffffffff161461085c5760008260ff16118015610818575060508260ff1611155b610857576040517f08c379a000000000000000000000000000000000000000000000000000000000815260040161084e90613c74565b60405180910390fd5b6108a3565b60008260ff16146108a2576040517f08c379a000000000000000000000000000000000000000000000000000000000815260040161089990613cb4565b60405180910390fd5b5b6108ab6129eb565b60007f000000000000000000000000000000000000000000000000000000000000000043116108fa577f00000000000000000000000000000000000000000000000000000000000000006108fc565b435b905081600560008282546109109190613f21565b925050819055506000600280549050905060026040518061010001604052808a73ffffffffffffffffffffffffffffffffffffffff16815260200189151581526020018773ffffffffffffffffffffffffffffffffffffffff1681526020018660ff168152602001858152602001848152602001600081526020016000815250908060018154018082558091505060019003906000526020600020906006020160009091909190915060008201518160000160006101000a81548173ffffffffffffffffffffffffffffffffffffffff021916908373ffffffffffffffffffffffffffffffffffffffff16021790555060208201518160000160146101000a81548160ff02191690831515021790555060408201518160010160006101000a81548173ffffffffffffffffffffffffffffffffffffffff021916908373ffffffffffffffffffffffffffffffffffffffff16021790555060608201518160010160146101000a81548160ff021916908360ff1602179055506080820151816002015560a0820151816003015560c0820151816004015560e082015181600501555050600115158615151415610b18576001600460008a73ffffffffffffffffffffffffffffffffffffffff1673ffffffffffffffffffffffffffffffffffffffff16815260200190815260200160002060006101000a81548160ff0219169083151502179055505b600460008973ffffffffffffffffffffffffffffffffffffffff1673ffffffffffffffffffffffffffffffffffffffff16815260200190815260200160002060009054906101000a900460ff161515871515827f85c5f9763b69537638ed9b50435c7c1296747fc78c92080777dd20909d46d0ac8b898989604051610ba09493929190613a75565b60405180910390a45050505050505050565b60028181548110610bc257600080fd5b90600052602060002090600602016000915090508060000160009054906101000a900473ffffffffffffffffffffffffffffffffffffffff16908060000160149054906101000a900460ff16908060010160009054906101000a900473ffffffffffffffffffffffffffffffffffffffff16908060010160149054906101000a900460ff16908060020154908060030154908060040154908060050154905088565b60055481565b610c726129e3565b73ffffffffffffffffffffffffffffffffffffffff16610c90611af8565b73ffffffffffffffffffffffffffffffffffffffff1614610ce6576040517f08c379a0000000000000000000000000000000000000000000000000000000008152600401610cdd90613d34565b60405180910390fd5b610cee6129eb565b8060028381548110610d0357610d0261422e565b5b906000526020600020906006020160020154600554610d229190614002565b610d2c9190613f21565b6005819055508060028381548110610d4757610d4661422e565b5b906000526020600020906006020160020181905550817f545b620a3000f6303b158b321f06b4e95e28a27d70aecac8c6bdac4f48a9f6b382604051610d8c9190613e74565b60405180910390a25050565b60008060028481548110610daf57610dae61422e565b5b9060005260206000209060060201604051806101000160405290816000820160009054906101000a900473ffffffffffffffffffffffffffffffffffffffff1673ffffffffffffffffffffffffffffffffffffffff1673ffffffffffffffffffffffffffffffffffffffff1681526020016000820160149054906101000a900460ff161515151581526020016001820160009054906101000a900473ffffffffffffffffffffffffffffffffffffffff1673ffffffffffffffffffffffffffffffffffffffff1673ffffffffffffffffffffffffffffffffffffffff1681526020016001820160149054906101000a900460ff1660ff1660ff168152602001600282015481526020016003820154815260200160048201548152602001600582015481525050905060006003600086815260200190815260200160002060008581526020019081526020016000206040518060400160405290816000820154815260200160018201548152505090506000808360c001518460e00151915091508360a0015143118015610f43575060008114155b15610fb95760006005548560800151610f5a611960565b8760a0015143610f6a9190614002565b610f749190613fa8565b610f7e9190613fa8565b610f889190613f77565b90508168056bc75e2d6310000082610fa09190613fa8565b610faa9190613f77565b83610fb59190613f21565b9250505b6000836020015168056bc75e2d63100000848660000151610fda9190613fa8565b610fe49190613f77565b610fee9190614002565b90506000856060015160ff16141561100d57809550505050505061103f565b6064856060015160ff16826110229190613fa8565b61102c9190613f77565b816110379190614002565b955050505050505b92915050565b600287815481106110595761105861422e565b5b906000526020600020906006020160000160009054906101000a900473ffffffffffffffffffffffffffffffffffffffff1673ffffffffffffffffffffffffffffffffffffffff1663d505accf33307fffffffffffffffffffffffffffffffffffffffffffffffffffffffffffffffff888888886040518863ffffffff1660e01b81526004016110ef9796959493929190613a06565b600060405180830381600087803b15801561110957600080fd5b505af115801561111d573d6000803e3d6000fd5b5050505061112c8787876104f9565b50505050505050565b600460003373ffffffffffffffffffffffffffffffffffffffff1673ffffffffffffffffffffffffffffffffffffffff16815260200190815260200160002060009054906101000a900460ff166111c1576040517f08c379a00000000000000000000000000000000000000000000000000000000081526004016111b890613d74565b60405180910390fd5b7f000000000000000000000000000000000000000000000000000000000000000073ffffffffffffffffffffffffffffffffffffffff166340c10f1983836040518363ffffffff1660e01b815260040161121c929190613b61565b600060405180830381600087803b15801561123657600080fd5b505af115801561124a573d6000803e3d6000fd5b505050505050565b7f000000000000000000000000000000000000000000000000000000000000000081565b60006002828154811061128c5761128b61422e565b5b90600052602060002090600602019050600073ffffffffffffffffffffffffffffffffffffffff168160010160009054906101000a900473ffffffffffffffffffffffffffffffffffffffff1673ffffffffffffffffffffffffffffffffffffffff161461132f576040517f08c379a000000000000000000000000000000000000000000000000000000000815260040161132690613e54565b60405180910390fd5b8060000160149054906101000a900460ff1615611381576040517f08c379a000000000000000000000000000000000000000000000000000000000815260040161137890613e14565b60405180910390fd5b60006003600084815260200190815260200160002060003373ffffffffffffffffffffffffffffffffffffffff16815260200190815260200160002090506000816000015490506000826000018190555060008260010181905550808360050160008282546113f09190614002565b9250508190555061144633828560000160009054906101000a900473ffffffffffffffffffffffffffffffffffffffff1673ffffffffffffffffffffffffffffffffffffffff16612a3f9092919063ffffffff16565b833373ffffffffffffffffffffffffffffffffffffffff167fbb757047c2b5f3974fe26b7c10f732e7bce710b0952a71082702781e62ae05958360405161148d9190613e74565b60405180910390a350505050565b7f000000000000000000000000000000000000000000000000000000000000000081565b6000600282815481106114d5576114d461422e565b5b9060005260206000209060060201905060008160010160009054906101000a900473ffffffffffffffffffffffffffffffffffffffff169050600073ffffffffffffffffffffffffffffffffffffffff168173ffffffffffffffffffffffffffffffffffffffff161461157d576040517f08c379a000000000000000000000000000000000000000000000000000000000815260040161157490613cf4565b60405180910390fd5b60006003600085815260200190815260200160002060003373ffffffffffffffffffffffffffffffffffffffff16815260200190815260200160002090506000816000015490506000826000018190555060008260010181905550808460050160008282546115ec9190614002565b925050819055508273ffffffffffffffffffffffffffffffffffffffff1663ddfeacca338361161a90614187565b6040518363ffffffff1660e01b8152600401611637929190613b38565b600060405180830381600087803b15801561165157600080fd5b505af1158015611665573d6000803e3d6000fd5b505050506116b833828660000160009054906101000a900473ffffffffffffffffffffffffffffffffffffffff1673ffffffffffffffffffffffffffffffffffffffff16612a3f9092919063ffffffff16565b843373ffffffffffffffffffffffffffffffffffffffff167f67a463e34014cd44cda35b27bf0daebb9c9e138b4e4b6ef2a23170d79595f8a0836040516116ff9190613e74565b60405180910390a35050505050565b600287815481106117225761172161422e565b5b906000526020600020906006020160000160009054906101000a900473ffffffffffffffffffffffffffffffffffffffff1673ffffffffffffffffffffffffffffffffffffffff1663d505accf333089888888886040518863ffffffff1660e01b81526004016117989796959493929190613a06565b600060405180830381600087803b1580156117b257600080fd5b505af11580156117c6573d6000803e3d6000fd5b505050506117d58787876104f9565b50505050505050565b7f000000000000000000000000000000000000000000000000000000000000000081565b61180a6129e3565b73ffffffffffffffffffffffffffffffffffffffff16611828611af8565b73ffffffffffffffffffffffffffffffffffffffff161461187e576040517f08c379a000000000000000000000000000000000000000000000000000000000815260040161187590613d34565b60405180910390fd5b600073ffffffffffffffffffffffffffffffffffffffff1660008054906101000a900473ffffffffffffffffffffffffffffffffffffffff1673ffffffffffffffffffffffffffffffffffffffff167f8be0079c531659141344cd1fd0a4f28419497f9722a3daafe3b4186f6b6457e060405160405180910390a360008060006101000a81548173ffffffffffffffffffffffffffffffffffffffff021916908373ffffffffffffffffffffffffffffffffffffffff160217905550565b7f000000000000000000000000000000000000000000000000000000000000000081565b60008073ffffffffffffffffffffffffffffffffffffffff16600160009054906101000a900473ffffffffffffffffffffffffffffffffffffffff1673ffffffffffffffffffffffffffffffffffffffff1614611a5e57600160009054906101000a900473ffffffffffffffffffffffffffffffffffffffff1673ffffffffffffffffffffffffffffffffffffffff16638ae39cac6040518163ffffffff1660e01b815260040160206040518083038186803b158015611a1f57600080fd5b505afa158015611a33573d6000803e3d6000fd5b505050506040513d601f19601f82011682018060405250810190611a5791906134d4565b9050611af5565b60007f00000000000000000000000000000000000000000000000000000000000000007f000000000000000000000000000000000000000000000000000000000000000043611aad9190614002565b611ab79190613f77565b9050600181611ac69190613f21565b7f0000000000000000000000000000000000000000000000000000000000000000611af19190613f77565b9150505b90565b60008060009054906101000a900473ffffffffffffffffffffffffffffffffffffffff16905090565b600160009054906101000a900473ffffffffffffffffffffffffffffffffffffffff1681565b600060028381548110611b5d57611b5c61422e565b5b9060005260206000209060060201905060008160010160009054906101000a900473ffffffffffffffffffffffffffffffffffffffff169050600073ffffffffffffffffffffffffffffffffffffffff168173ffffffffffffffffffffffffffffffffffffffff161415611c06576040517f08c379a0000000000000000000000000000000000000000000000000000000008152600401611bfd90613cd4565b60405180910390fd5b60006003600086815260200190815260200160002060003373ffffffffffffffffffffffffffffffffffffffff168152602001908152602001600020905060008160000154905084811015611c90576040517f08c379a0000000000000000000000000000000000000000000000000000000008152600401611c8790613d54565b60405180910390fd5b611c9984612ac5565b6000846004015490506000836001015468056bc75e2d631000008385611cbf9190613fa8565b611cc99190613f77565b611cd39190614002565b90506000811115611db0576000808673ffffffffffffffffffffffffffffffffffffffff166303273bc784338b60010160149054906101000a900460ff166040518463ffffffff1660e01b8152600401611d2f93929190613e8f565b6040805180830381600087803b158015611d4857600080fd5b505af1158015611d5c573d6000803e3d6000fd5b505050506040513d601f19601f82011682018060405250810190611d80919061343a565b915091506000811115611d9857611d978282612c1e565b5b611dad338285611da89190614002565b612c1e565b50505b6000871115611eb1578473ffffffffffffffffffffffffffffffffffffffff1663ddfeacca3389611de090614187565b6040518363ffffffff1660e01b8152600401611dfd929190613b38565b600060405180830381600087803b158015611e1757600080fd5b505af1158015611e2b573d6000803e3d6000fd5b5050505086866005016000828254611e439190614002565b925050819055508683611e569190614002565b9250828460000181905550611eb033888860000160009054906101000a900473ffffffffffffffffffffffffffffffffffffffff1673ffffffffffffffffffffffffffffffffffffffff16612a3f9092919063ffffffff16565b5b68056bc75e2d631000008284611ec79190613fa8565b611ed19190613f77565b8460010181905550873373ffffffffffffffffffffffffffffffffffffffff167fbcb1b254c83676670cc415f8ce8239bb9e972244993586ef7bf282f85ddadfe089604051611f209190613e74565b60405180910390a35050505050505050565b600060028481548110611f4857611f4761422e565b5b90600052602060002090600602019050600073ffffffffffffffffffffffffffffffffffffffff168160010160009054906101000a900473ffffffffffffffffffffffffffffffffffffffff1673ffffffffffffffffffffffffffffffffffffffff1614611feb576040517f08c379a0000000000000000000000000000000000000000000000000000000008152600401611fe290613e54565b60405180910390fd5b600060036000868152602001908152602001600020600084815260200190815260200160002090508160000160149054906101000a900460ff16156120ce573373ffffffffffffffffffffffffffffffffffffffff168260000160009054906101000a900473ffffffffffffffffffffffffffffffffffffffff1673ffffffffffffffffffffffffffffffffffffffff16146120bc576040517f08c379a00000000000000000000000000000000000000000000000000000000081526004016120b390613dd4565b60405180910390fd5b6120c98282866000612e3a565b61214a565b3373ffffffffffffffffffffffffffffffffffffffff168373ffffffffffffffffffffffffffffffffffffffff161461213c576040517f08c379a000000000000000000000000000000000000000000000000000000000815260040161213390613e34565b60405180910390fd5b6121498282866001612e3a565b5b84837fa01a72713bf837059e3a668d28f0de277fb7f24f2a4e95bf926703c95b5f12b28660405161217b9190613e74565b60405180910390a35050505050565b6003602052816000526040600020602052806000526040600020600091509150508060000154908060010154905082565b60046020528060005260406000206000915054906101000a900460ff1681565b6000600284815481106121f1576121f061422e565b5b9060005260206000209060060201905060008160010160009054906101000a900473ffffffffffffffffffffffffffffffffffffffff169050600073ffffffffffffffffffffffffffffffffffffffff168173ffffffffffffffffffffffffffffffffffffffff16141561229a576040517f08c379a000000000000000000000000000000000000000000000000000000000815260040161229190613c54565b60405180910390fd5b60006003600087815260200190815260200160002060003373ffffffffffffffffffffffffffffffffffffffff16815260200190815260200160002090506122e183612ac5565b600083600401549050600082600001549050600081111561240c576000836001015468056bc75e2d6310000084846123199190613fa8565b6123239190613f77565b61232d9190614002565b9050600081111561240a576000808673ffffffffffffffffffffffffffffffffffffffff166303273bc784338b60010160149054906101000a900460ff166040518463ffffffff1660e01b815260040161238993929190613e8f565b6040805180830381600087803b1580156123a257600080fd5b505af11580156123b6573d6000803e3d6000fd5b505050506040513d601f19601f820116820180604052508101906123da919061343a565b9150915060008111156123f2576123f18282612c1e565b5b6124073382856124029190614002565b612c1e565b50505b505b6000871115612584576000811415612492578373ffffffffffffffffffffffffffffffffffffffff1663b252144a33888a6040518463ffffffff1660e01b815260040161245b93929190613b8a565b600060405180830381600087803b15801561247557600080fd5b505af1158015612489573d6000803e3d6000fd5b50505050612500565b8373ffffffffffffffffffffffffffffffffffffffff1663ddfeacca33896040518363ffffffff1660e01b81526004016124cd929190613b38565b600060405180830381600087803b1580156124e757600080fd5b505af11580156124fb573d6000803e3d6000fd5b505050505b6125513330898860000160009054906101000a900473ffffffffffffffffffffffffffffffffffffffff1673ffffffffffffffffffffffffffffffffffffffff16612fa2909392919063ffffffff16565b868560050160008282546125659190613f21565b9250508190555086816125789190613f21565b90508083600001819055505b68056bc75e2d63100000828261259a9190613fa8565b6125a49190613f77565b8360010181905550873373ffffffffffffffffffffffffffffffffffffffff167f3391b7506551053a045b28b04ba34acfab377a47e91db9f4a46d8ac01acac14f896040516125f39190613e74565b60405180910390a35050505050505050565b61260d6129e3565b73ffffffffffffffffffffffffffffffffffffffff1661262b611af8565b73ffffffffffffffffffffffffffffffffffffffff1614612681576040517f08c379a000000000000000000000000000000000000000000000000000000000815260040161267890613d34565b60405180910390fd5b600073ffffffffffffffffffffffffffffffffffffffff168173ffffffffffffffffffffffffffffffffffffffff1614156126f1576040517f08c379a00000000000000000000000000000000000000000000000000000000081526004016126e890613c34565b60405180910390fd5b8073ffffffffffffffffffffffffffffffffffffffff1660008054906101000a900473ffffffffffffffffffffffffffffffffffffffff1673ffffffffffffffffffffffffffffffffffffffff167f8be0079c531659141344cd1fd0a4f28419497f9722a3daafe3b4186f6b6457e060405160405180910390a3806000806101000a81548173ffffffffffffffffffffffffffffffffffffffff021916908373ffffffffffffffffffffffffffffffffffffffff16021790555050565b6127b66129e3565b73ffffffffffffffffffffffffffffffffffffffff166127d4611af8565b73ffffffffffffffffffffffffffffffffffffffff161461282a576040517f08c379a000000000000000000000000000000000000000000000000000000000815260040161282190613d34565b60405180910390fd5b80600160006101000a81548173ffffffffffffffffffffffffffffffffffffffff021916908373ffffffffffffffffffffffffffffffffffffffff1602179055507f065fc3b77c68c383644c8d30a3e1f0df39d6f0ddc721adc950902574d599622b8160405161289a91906139b4565b60405180910390a150565b6000600280549050905090565b6128bb84612ac5565b600084600401549050600084600001549050600081111561291f576000856001015468056bc75e2d6310000084846128f39190613fa8565b6128fd9190613f77565b6129079190614002565b9050600081111561291d5761291c3382612c1e565b5b505b60008411156129b35782156129805761297f3330868960000160009054906101000a900473ffffffffffffffffffffffffffffffffffffffff1673ffffffffffffffffffffffffffffffffffffffff16612fa2909392919063ffffffff16565b5b838660050160008282546129949190613f21565b9250508190555083816129a79190613f21565b90508085600001819055505b68056bc75e2d6310000082826129c99190613fa8565b6129d39190613f77565b8560010181905550505050505050565b600033905090565b6000600280549050905060005b81811015612a3b57612a2a60028281548110612a1757612a1661422e565b5b9060005260206000209060060201612ac5565b80612a349061413e565b90506129f8565b5050565b612ac08363a9059cbb60e01b8484604051602401612a5e929190613b61565b604051602081830303815290604052907bffffffffffffffffffffffffffffffffffffffffffffffffffffffff19166020820180517bffffffffffffffffffffffffffffffffffffffffffffffffffffffff838183161783525050505061302b565b505050565b600081600301549050804311612adb5750612c1b565b6000826005015490506000811480612af7575060008360020154145b15612b0c574383600301819055505050612c1b565b60006005548460020154612b1e611960565b8543612b2a9190614002565b612b349190613fa8565b612b3e9190613fa8565b612b489190613f77565b90507f000000000000000000000000000000000000000000000000000000000000000073ffffffffffffffffffffffffffffffffffffffff166340c10f1930836040518363ffffffff1660e01b8152600401612ba5929190613b61565b600060405180830381600087803b158015612bbf57600080fd5b505af1158015612bd3573d6000803e3d6000fd5b505050508168056bc75e2d6310000082612bed9190613fa8565b612bf79190613f77565b8460040154612c069190613f21565b84600401819055504384600301819055505050505b50565b60007f000000000000000000000000000000000000000000000000000000000000000073ffffffffffffffffffffffffffffffffffffffff166370a08231306040518263ffffffff1660e01b8152600401612c7991906139b4565b60206040518083038186803b158015612c9157600080fd5b505afa158015612ca5573d6000803e3d6000fd5b505050506040513d601f19601f82011682018060405250810190612cc991906134d4565b905080821115612d86577f000000000000000000000000000000000000000000000000000000000000000073ffffffffffffffffffffffffffffffffffffffff1663a9059cbb84836040518363ffffffff1660e01b8152600401612d2e929190613b61565b602060405180830381600087803b158015612d4857600080fd5b505af1158015612d5c573d6000803e3d6000fd5b505050506040513d601f19601f82011682018060405250810190612d80919061347a565b50612e35565b7f000000000000000000000000000000000000000000000000000000000000000073ffffffffffffffffffffffffffffffffffffffff1663a9059cbb84846040518363ffffffff1660e01b8152600401612de1929190613b61565b602060405180830381600087803b158015612dfb57600080fd5b505af1158015612e0f573d6000803e3d6000fd5b505050506040513d601f19601f82011682018060405250810190612e33919061347a565b505b505050565b60008360000154905082811015612e86576040517f08c379a0000000000000000000000000000000000000000000000000000000008152600401612e7d90613d54565b60405180910390fd5b612e8f85612ac5565b6000856004015490506000856001015468056bc75e2d631000008385612eb59190613fa8565b612ebf9190613f77565b612ec99190614002565b90506000811115612edf57612ede3382612c1e565b5b6000851115612f715784876005016000828254612efc9190614002565b925050819055508483612f0f9190614002565b92508286600001819055508315612f7057612f6f33868960000160009054906101000a900473ffffffffffffffffffffffffffffffffffffffff1673ffffffffffffffffffffffffffffffffffffffff16612a3f9092919063ffffffff16565b5b5b68056bc75e2d631000008284612f879190613fa8565b612f919190613f77565b866001018190555050505050505050565b613025846323b872dd60e01b858585604051602401612fc3939291906139cf565b604051602081830303815290604052907bffffffffffffffffffffffffffffffffffffffffffffffffffffffff19166020820180517bffffffffffffffffffffffffffffffffffffffffffffffffffffffff838183161783525050505061302b565b50505050565b600061308d826040518060400160405280602081526020017f5361666545524332303a206c6f772d6c6576656c2063616c6c206661696c65648152508573ffffffffffffffffffffffffffffffffffffffff166130f29092919063ffffffff16565b90506000815111156130ed57808060200190518101906130ad919061347a565b6130ec576040517f08c379a00000000000000000000000000000000000000000000000000000000081526004016130e390613db4565b60405180910390fd5b5b505050565b6060613101848460008561310a565b90509392505050565b60608247101561314f576040517f08c379a000000000000000000000000000000000000000000000000000000000815260040161314690613c94565b60405180910390fd5b6131588561321e565b613197576040517f08c379a000000000000000000000000000000000000000000000000000000000815260040161318e90613d94565b60405180910390fd5b6000808673ffffffffffffffffffffffffffffffffffffffff1685876040516131c0919061399d565b60006040518083038185875af1925050503d80600081146131fd576040519150601f19603f3d011682016040523d82523d6000602084013e613202565b606091505b5091509150613212828286613231565b92505050949350505050565b600080823b905060008111915050919050565b6060831561324157829050613291565b6000835111156132545782518084602001fd5b816040517f08c379a00000000000000000000000000000000000000000000000000000000081526004016132889190613c12565b60405180910390fd5b9392505050565b6000813590506132a7816146ab565b92915050565b6000815190506132bc816146ab565b92915050565b6000813590506132d1816146c2565b92915050565b6000815190506132e6816146c2565b92915050565b6000813590506132fb816146d9565b92915050565b600081359050613310816146f0565b92915050565b600081519050613325816146f0565b92915050565b60008135905061333a81614707565b92915050565b6000602082840312156133565761335561425d565b5b600061336484828501613298565b91505092915050565b60008060008060008060c0878903121561338a5761338961425d565b5b600061339889828a01613298565b96505060206133a989828a016132c2565b95505060406133ba89828a016132c2565b94505060606133cb89828a01613298565b93505060806133dc89828a0161332b565b92505060a06133ed89828a01613301565b9150509295509295509295565b600080604083850312156134115761341061425d565b5b600061341f85828601613298565b925050602061343085828601613301565b9150509250929050565b600080604083850312156134515761345061425d565b5b600061345f858286016132ad565b925050602061347085828601613316565b9150509250929050565b6000602082840312156134905761348f61425d565b5b600061349e848285016132d7565b91505092915050565b6000602082840312156134bd576134bc61425d565b5b60006134cb84828501613301565b91505092915050565b6000602082840312156134ea576134e961425d565b5b60006134f884828501613316565b91505092915050565b600080604083850312156135185761351761425d565b5b600061352685828601613301565b925050602061353785828601613301565b9150509250929050565b60008060006060848603121561355a5761355961425d565b5b600061356886828701613301565b935050602061357986828701613301565b925050604061358a86828701613301565b9150509250925092565b600080600080600080600060e0888a0312156135b3576135b261425d565b5b60006135c18a828b01613301565b97505060206135d28a828b01613301565b96505060406135e38a828b01613301565b95505060606135f48a828b01613301565b94505060806136058a828b0161332b565b93505060a06136168a828b016132ec565b92505060c06136278a828b016132ec565b91505092959891949750929550565b61363f81614036565b82525050565b61364e81614048565b82525050565b61365d81614054565b82525050565b600061366e82613eef565b6136788185613f05565b935061368881856020860161410b565b80840191505092915050565b61369d8161409f565b82525050565b6136ac816140c3565b82525050565b6136bb816140e7565b82525050565b6136ca8161405e565b82525050565b60006136db82613efa565b6136e58185613f10565b93506136f581856020860161410b565b6136fe81614262565b840191505092915050565b6000613716602683613f10565b915061372182614273565b604082019050919050565b6000613739601b83613f10565b9150613744826142c2565b602082019050919050565b600061375c602483613f10565b9150613767826142eb565b604082019050919050565b600061377f602683613f10565b915061378a8261433a565b604082019050919050565b60006137a2601f83613f10565b91506137ad82614389565b602082019050919050565b60006137c5601c83613f10565b91506137d0826143b2565b602082019050919050565b60006137e8602583613f10565b91506137f3826143db565b604082019050919050565b600061380b601b83613f10565b91506138168261442a565b602082019050919050565b600061382e602083613f10565b915061383982614453565b602082019050919050565b6000613851601e83613f10565b915061385c8261447c565b602082019050919050565b6000613874602283613f10565b915061387f826144a5565b604082019050919050565b6000613897601d83613f10565b91506138a2826144f4565b602082019050919050565b60006138ba602a83613f10565b91506138c58261451d565b604082019050919050565b60006138dd602183613f10565b91506138e88261456c565b604082019050919050565b6000613900602283613f10565b915061390b826145bb565b604082019050919050565b6000613923602683613f10565b915061392e8261460a565b604082019050919050565b6000613946601d83613f10565b915061395182614659565b602082019050919050565b6000613969601d83613f10565b915061397482614682565b602082019050919050565b61398881614088565b82525050565b61399781614092565b82525050565b60006139a98284613663565b915081905092915050565b60006020820190506139c96000830184613636565b92915050565b60006060820190506139e46000830186613636565b6139f16020830185613636565b6139fe604083018461397f565b949350505050565b600060e082019050613a1b600083018a613636565b613a286020830189613636565b613a35604083018861397f565b613a42606083018761397f565b613a4f608083018661398e565b613a5c60a0830185613654565b613a6960c0830184613654565b98975050505050505050565b6000608082019050613a8a6000830187613636565b613a976020830186613636565b613aa4604083018561398e565b613ab1606083018461397f565b95945050505050565b600061010082019050613ad0600083018b613636565b613add602083018a613645565b613aea60408301896136b2565b613af7606083018861398e565b613b04608083018761397f565b613b1160a083018661397f565b613b1e60c083018561397f565b613b2b60e083018461397f565b9998505050505050505050565b6000604082019050613b4d6000830185613636565b613b5a60208301846136c1565b9392505050565b6000604082019050613b766000830185613636565b613b83602083018461397f565b9392505050565b6000606082019050613b9f6000830186613636565b613bac602083018561397f565b613bb9604083018461397f565b949350505050565b6000602082019050613bd66000830184613645565b92915050565b6000602082019050613bf16000830184613694565b92915050565b6000602082019050613c0c60008301846136a3565b92915050565b60006020820190508181036000830152613c2c81846136d0565b905092915050565b60006020820190508181036000830152613c4d81613709565b9050919050565b60006020820190508181036000830152613c6d8161372c565b9050919050565b60006020820190508181036000830152613c8d8161374f565b9050919050565b60006020820190508181036000830152613cad81613772565b9050919050565b60006020820190508181036000830152613ccd81613795565b9050919050565b60006020820190508181036000830152613ced816137b8565b9050919050565b60006020820190508181036000830152613d0d816137db565b9050919050565b60006020820190508181036000830152613d2d816137fe565b9050919050565b60006020820190508181036000830152613d4d81613821565b9050919050565b60006020820190508181036000830152613d6d81613844565b9050919050565b60006020820190508181036000830152613d8d81613867565b9050919050565b60006020820190508181036000830152613dad8161388a565b9050919050565b60006020820190508181036000830152613dcd816138ad565b9050919050565b60006020820190508181036000830152613ded816138d0565b9050919050565b60006020820190508181036000830152613e0d816138f3565b9050919050565b60006020820190508181036000830152613e2d81613916565b9050919050565b60006020820190508181036000830152613e4d81613939565b9050919050565b60006020820190508181036000830152613e6d8161395c565b9050919050565b6000602082019050613e89600083018461397f565b92915050565b6000606082019050613ea4600083018661397f565b613eb16020830185613636565b613ebe604083018461398e565b949350505050565b6000604082019050613edb600083018561397f565b613ee8602083018461397f565b9392505050565b600081519050919050565b600081519050919050565b600081905092915050565b600082825260208201905092915050565b6000613f2c82614088565b9150613f3783614088565b9250827fffffffffffffffffffffffffffffffffffffffffffffffffffffffffffffffff03821115613f6c57613f6b6141d0565b5b828201905092915050565b6000613f8282614088565b9150613f8d83614088565b925082613f9d57613f9c6141ff565b5b828204905092915050565b6000613fb382614088565b9150613fbe83614088565b9250817fffffffffffffffffffffffffffffffffffffffffffffffffffffffffffffffff0483118215151615613ff757613ff66141d0565b5b828202905092915050565b600061400d82614088565b915061401883614088565b92508282101561402b5761402a6141d0565b5b828203905092915050565b600061404182614068565b9050919050565b60008115159050919050565b6000819050919050565b6000819050919050565b600073ffffffffffffffffffffffffffffffffffffffff82169050919050565b6000819050919050565b600060ff82169050919050565b60006140aa826140b1565b9050919050565b60006140bc82614068565b9050919050565b60006140ce826140d5565b9050919050565b60006140e082614068565b9050919050565b60006140f2826140f9565b9050919050565b600061410482614068565b9050919050565b60005b8381101561412957808201518184015260208101905061410e565b83811115614138576000848401525b50505050565b600061414982614088565b91507fffffffffffffffffffffffffffffffffffffffffffffffffffffffffffffffff82141561417c5761417b6141d0565b5b600182019050919050565b60006141928261405e565b91507f80000000000000000000000000000000000000000000000000000000000000008214156141c5576141c46141d0565b5b816000039050919050565b7f4e487b7100000000000000000000000000000000000000000000000000000000600052601160045260246000fd5b7f4e487b7100000000000000000000000000000000000000000000000000000000600052601260045260246000fd5b7f4e487b7100000000000000000000000000000000000000000000000000000000600052603260045260246000fd5b600080fd5b6000601f19601f8301169050919050565b7f4f776e61626c653a206e6577206f776e657220697320746865207a65726f206160008201527f6464726573730000000000000000000000000000000000000000000000000000602082015250565b7f5468654d61737465723a20757365206465706f7369742066756e630000000000600082015250565b7f5468654d61737465723a206f757472616e67656420737570706f7274696e675260008201527f6174696f00000000000000000000000000000000000000000000000000000000602082015250565b7f416464726573733a20696e73756666696369656e742062616c616e636520666f60008201527f722063616c6c0000000000000000000000000000000000000000000000000000602082015250565b7f5468654d61737465723a206e6f7420737570706f727461626c6520706f6f6c00600082015250565b7f5468654d61737465723a207573652077697468647261772066756e6300000000600082015250565b7f5468654d61737465723a2075736520656d657267656e6379576974686472617760008201527f2066756e63000000000000000000000000000000000000000000000000000000602082015250565b7f5468654d61737465723a2075736520737570706f72742066756e630000000000600082015250565b7f4f776e61626c653a2063616c6c6572206973206e6f7420746865206f776e6572600082015250565b7f5468654d61737465723a20496e73756666696369656e7420616d6f756e740000600082015250565b7f5468654d61737465723a2063616c6c65642066726f6d20756e2d6d696e74616260008201527f6c65000000000000000000000000000000000000000000000000000000000000602082015250565b7f416464726573733a2063616c6c20746f206e6f6e2d636f6e7472616374000000600082015250565b7f5361666545524332303a204552433230206f7065726174696f6e20646964206e60008201527f6f74207375636365656400000000000000000000000000000000000000000000602082015250565b7f5468654d61737465723a204e6f742063616c6c65642062792064656c6567617460008201527f6500000000000000000000000000000000000000000000000000000000000000602082015250565b7f5468654d61737465723a206465706f73697420746f20796f757220616464726560008201527f7373000000000000000000000000000000000000000000000000000000000000602082015250565b7f5468654d61737465723a20506f6f6c2073686f756c64206265206e6f6e2d646560008201527f6c65676174650000000000000000000000000000000000000000000000000000602082015250565b7f5468654d61737465723a204e6f742063616c6c65642062792075736572000000600082015250565b7f5468654d61737465723a20757365206465737570706f72742066756e63000000600082015250565b6146b481614036565b81146146bf57600080fd5b50565b6146cb81614048565b81146146d657600080fd5b50565b6146e281614054565b81146146ed57600080fd5b50565b6146f981614088565b811461470457600080fd5b50565b61471081614092565b811461471b57600080fd5b5056fea2646970667358221220c865a790d0427da57fe4c6ab5c6a4e029ef9c5aeed4806dae72f4dda6d7eaf2964736f6c63430008050033",
          "opcodes": "PUSH2 0x100 PUSH1 0x40 MSTORE CALLVALUE DUP1 ISZERO PUSH3 0x12 JUMPI PUSH1 0x0 DUP1 REVERT JUMPDEST POP PUSH1 0x40 MLOAD PUSH3 0x4A4B CODESIZE SUB DUP1 PUSH3 0x4A4B DUP4 CODECOPY DUP2 DUP2 ADD PUSH1 0x40 MSTORE DUP2 ADD SWAP1 PUSH3 0x38 SWAP2 SWAP1 PUSH3 0x177 JUMP JUMPDEST PUSH1 0x0 PUSH3 0x4A PUSH3 0x141 PUSH1 0x20 SHL PUSH1 0x20 SHR JUMP JUMPDEST SWAP1 POP DUP1 PUSH1 0x0 DUP1 PUSH2 0x100 EXP DUP2 SLOAD DUP2 PUSH20 0xFFFFFFFFFFFFFFFFFFFFFFFFFFFFFFFFFFFFFFFF MUL NOT AND SWAP1 DUP4 PUSH20 0xFFFFFFFFFFFFFFFFFFFFFFFFFFFFFFFFFFFFFFFF AND MUL OR SWAP1 SSTORE POP DUP1 PUSH20 0xFFFFFFFFFFFFFFFFFFFFFFFFFFFFFFFFFFFFFFFF AND PUSH1 0x0 PUSH20 0xFFFFFFFFFFFFFFFFFFFFFFFFFFFFFFFFFFFFFFFF AND PUSH32 0x8BE0079C531659141344CD1FD0A4F28419497F9722A3DAAFE3B4186F6B6457E0 PUSH1 0x40 MLOAD PUSH1 0x40 MLOAD DUP1 SWAP2 SUB SWAP1 LOG3 POP DUP4 PUSH1 0x80 DUP2 DUP2 MSTORE POP POP DUP3 PUSH1 0xA0 DUP2 DUP2 MSTORE POP POP DUP2 PUSH1 0xC0 DUP2 DUP2 MSTORE POP POP DUP1 PUSH20 0xFFFFFFFFFFFFFFFFFFFFFFFFFFFFFFFFFFFFFFFF AND PUSH1 0xE0 DUP2 PUSH20 0xFFFFFFFFFFFFFFFFFFFFFFFFFFFFFFFFFFFFFFFF AND PUSH1 0x60 SHL DUP2 MSTORE POP POP POP POP POP POP PUSH3 0x274 JUMP JUMPDEST PUSH1 0x0 CALLER SWAP1 POP SWAP1 JUMP JUMPDEST PUSH1 0x0 DUP2 MLOAD SWAP1 POP PUSH3 0x15A DUP2 PUSH3 0x240 JUMP JUMPDEST SWAP3 SWAP2 POP POP JUMP JUMPDEST PUSH1 0x0 DUP2 MLOAD SWAP1 POP PUSH3 0x171 DUP2 PUSH3 0x25A JUMP JUMPDEST SWAP3 SWAP2 POP POP JUMP JUMPDEST PUSH1 0x0 DUP1 PUSH1 0x0 DUP1 PUSH1 0x80 DUP6 DUP8 SUB SLT ISZERO PUSH3 0x194 JUMPI PUSH3 0x193 PUSH3 0x23B JUMP JUMPDEST JUMPDEST PUSH1 0x0 PUSH3 0x1A4 DUP8 DUP3 DUP9 ADD PUSH3 0x160 JUMP JUMPDEST SWAP5 POP POP PUSH1 0x20 PUSH3 0x1B7 DUP8 DUP3 DUP9 ADD PUSH3 0x160 JUMP JUMPDEST SWAP4 POP POP PUSH1 0x40 PUSH3 0x1CA DUP8 DUP3 DUP9 ADD PUSH3 0x160 JUMP JUMPDEST SWAP3 POP POP PUSH1 0x60 PUSH3 0x1DD DUP8 DUP3 DUP9 ADD PUSH3 0x149 JUMP JUMPDEST SWAP2 POP POP SWAP3 SWAP6 SWAP2 SWAP5 POP SWAP3 POP JUMP JUMPDEST PUSH1 0x0 PUSH3 0x1F6 DUP3 PUSH3 0x211 JUMP JUMPDEST SWAP1 POP SWAP2 SWAP1 POP JUMP JUMPDEST PUSH1 0x0 PUSH3 0x20A DUP3 PUSH3 0x1E9 JUMP JUMPDEST SWAP1 POP SWAP2 SWAP1 POP JUMP JUMPDEST PUSH1 0x0 PUSH20 0xFFFFFFFFFFFFFFFFFFFFFFFFFFFFFFFFFFFFFFFF DUP3 AND SWAP1 POP SWAP2 SWAP1 POP JUMP JUMPDEST PUSH1 0x0 DUP2 SWAP1 POP SWAP2 SWAP1 POP JUMP JUMPDEST PUSH1 0x0 DUP1 REVERT JUMPDEST PUSH3 0x24B DUP2 PUSH3 0x1FD JUMP JUMPDEST DUP2 EQ PUSH3 0x257 JUMPI PUSH1 0x0 DUP1 REVERT JUMPDEST POP JUMP JUMPDEST PUSH3 0x265 DUP2 PUSH3 0x231 JUMP JUMPDEST DUP2 EQ PUSH3 0x271 JUMPI PUSH1 0x0 DUP1 REVERT JUMPDEST POP JUMP JUMPDEST PUSH1 0x80 MLOAD PUSH1 0xA0 MLOAD PUSH1 0xC0 MLOAD PUSH1 0xE0 MLOAD PUSH1 0x60 SHR PUSH2 0x4754 PUSH3 0x2F7 PUSH1 0x0 CODECOPY PUSH1 0x0 DUP2 DUP2 PUSH2 0x11C3 ADD MSTORE DUP2 DUP2 PUSH2 0x193E ADD MSTORE DUP2 DUP2 PUSH2 0x2B4C ADD MSTORE DUP2 DUP2 PUSH2 0x2C22 ADD MSTORE DUP2 DUP2 PUSH2 0x2CD5 ADD MSTORE PUSH2 0x2D88 ADD MSTORE PUSH1 0x0 DUP2 DUP2 PUSH2 0x8AF ADD MSTORE DUP2 DUP2 PUSH2 0x8D6 ADD MSTORE DUP2 DUP2 PUSH2 0x1254 ADD MSTORE PUSH2 0x1A83 ADD MSTORE PUSH1 0x0 DUP2 DUP2 PUSH2 0x149D ADD MSTORE PUSH2 0x1A62 ADD MSTORE PUSH1 0x0 DUP2 DUP2 PUSH2 0x17E0 ADD MSTORE PUSH2 0x1AC8 ADD MSTORE PUSH2 0x4754 PUSH1 0x0 RETURN INVALID PUSH1 0x80 PUSH1 0x40 MSTORE CALLVALUE DUP1 ISZERO PUSH2 0x10 JUMPI PUSH1 0x0 DUP1 REVERT JUMPDEST POP PUSH1 0x4 CALLDATASIZE LT PUSH2 0x1A8 JUMPI PUSH1 0x0 CALLDATALOAD PUSH1 0xE0 SHR DUP1 PUSH4 0x6B56781A GT PUSH2 0xF9 JUMPI DUP1 PUSH4 0xA41FE49F GT PUSH2 0x97 JUMPI DUP1 PUSH4 0xE692C453 GT PUSH2 0x71 JUMPI DUP1 PUSH4 0xE692C453 EQ PUSH2 0x487 JUMPI DUP1 PUSH4 0xF2FDE38B EQ PUSH2 0x4A3 JUMPI DUP1 PUSH4 0xF440C1EB EQ PUSH2 0x4BF JUMPI DUP1 PUSH4 0xF525CB68 EQ PUSH2 0x4DB JUMPI PUSH2 0x1A8 JUMP JUMPDEST DUP1 PUSH4 0xA41FE49F EQ PUSH2 0x40A JUMPI DUP1 PUSH4 0xB345DC8C EQ PUSH2 0x426 JUMPI DUP1 PUSH4 0xE23EE3B2 EQ PUSH2 0x457 JUMPI PUSH2 0x1A8 JUMP JUMPDEST DUP1 PUSH4 0x8AE39CAC GT PUSH2 0xD3 JUMPI DUP1 PUSH4 0x8AE39CAC EQ PUSH2 0x394 JUMPI DUP1 PUSH4 0x8DA5CB5B EQ PUSH2 0x3B2 JUMPI DUP1 PUSH4 0x96769E89 EQ PUSH2 0x3D0 JUMPI DUP1 PUSH4 0xA234D608 EQ PUSH2 0x3EE JUMPI PUSH2 0x1A8 JUMP JUMPDEST DUP1 PUSH4 0x6B56781A EQ PUSH2 0x34E JUMPI DUP1 PUSH4 0x715018A6 EQ PUSH2 0x36C JUMPI DUP1 PUSH4 0x849E5AFF EQ PUSH2 0x376 JUMPI PUSH2 0x1A8 JUMP JUMPDEST DUP1 PUSH4 0x3FED8E8D GT PUSH2 0x166 JUMPI DUP1 PUSH4 0x5312EA8E GT PUSH2 0x140 JUMPI DUP1 PUSH4 0x5312EA8E EQ PUSH2 0x2DC JUMPI DUP1 PUSH4 0x54AE7BB0 EQ PUSH2 0x2F8 JUMPI DUP1 PUSH4 0x5ACF624C EQ PUSH2 0x316 JUMPI DUP1 PUSH4 0x66D31E1B EQ PUSH2 0x332 JUMPI PUSH2 0x1A8 JUMP JUMPDEST DUP1 PUSH4 0x3FED8E8D EQ PUSH2 0x286 JUMPI DUP1 PUSH4 0x40C10F19 EQ PUSH2 0x2A2 JUMPI DUP1 PUSH4 0x48CD4CB1 EQ PUSH2 0x2BE JUMPI PUSH2 0x1A8 JUMP JUMPDEST DUP1 PUSH3 0xAEEF8A EQ PUSH2 0x1AD JUMPI DUP1 PUSH4 0x58048EF EQ PUSH2 0x1C9 JUMPI DUP1 PUSH4 0x1526FE27 EQ PUSH2 0x1E5 JUMPI DUP1 PUSH4 0x17CAF6F1 EQ PUSH2 0x21C JUMPI DUP1 PUSH4 0x1AB06EE5 EQ PUSH2 0x23A JUMPI DUP1 PUSH4 0x3185C0BD EQ PUSH2 0x256 JUMPI JUMPDEST PUSH1 0x0 DUP1 REVERT JUMPDEST PUSH2 0x1C7 PUSH1 0x4 DUP1 CALLDATASIZE SUB DUP2 ADD SWAP1 PUSH2 0x1C2 SWAP2 SWAP1 PUSH2 0x3541 JUMP JUMPDEST PUSH2 0x4F9 JUMP JUMPDEST STOP JUMPDEST PUSH2 0x1E3 PUSH1 0x4 DUP1 CALLDATASIZE SUB DUP2 ADD SWAP1 PUSH2 0x1DE SWAP2 SWAP1 PUSH2 0x336D JUMP JUMPDEST PUSH2 0x751 JUMP JUMPDEST STOP JUMPDEST PUSH2 0x1FF PUSH1 0x4 DUP1 CALLDATASIZE SUB DUP2 ADD SWAP1 PUSH2 0x1FA SWAP2 SWAP1 PUSH2 0x34A7 JUMP JUMPDEST PUSH2 0xBB2 JUMP JUMPDEST PUSH1 0x40 MLOAD PUSH2 0x213 SWAP9 SWAP8 SWAP7 SWAP6 SWAP5 SWAP4 SWAP3 SWAP2 SWAP1 PUSH2 0x3ABA JUMP JUMPDEST PUSH1 0x40 MLOAD DUP1 SWAP2 SUB SWAP1 RETURN JUMPDEST PUSH2 0x224 PUSH2 0xC64 JUMP JUMPDEST PUSH1 0x40 MLOAD PUSH2 0x231 SWAP2 SWAP1 PUSH2 0x3E74 JUMP JUMPDEST PUSH1 0x40 MLOAD DUP1 SWAP2 SUB SWAP1 RETURN JUMPDEST PUSH2 0x254 PUSH1 0x4 DUP1 CALLDATASIZE SUB DUP2 ADD SWAP1 PUSH2 0x24F SWAP2 SWAP1 PUSH2 0x3501 JUMP JUMPDEST PUSH2 0xC6A JUMP JUMPDEST STOP JUMPDEST PUSH2 0x270 PUSH1 0x4 DUP1 CALLDATASIZE SUB DUP2 ADD SWAP1 PUSH2 0x26B SWAP2 SWAP1 PUSH2 0x3501 JUMP JUMPDEST PUSH2 0xD98 JUMP JUMPDEST PUSH1 0x40 MLOAD PUSH2 0x27D SWAP2 SWAP1 PUSH2 0x3E74 JUMP JUMPDEST PUSH1 0x40 MLOAD DUP1 SWAP2 SUB SWAP1 RETURN JUMPDEST PUSH2 0x2A0 PUSH1 0x4 DUP1 CALLDATASIZE SUB DUP2 ADD SWAP1 PUSH2 0x29B SWAP2 SWAP1 PUSH2 0x3594 JUMP JUMPDEST PUSH2 0x1045 JUMP JUMPDEST STOP JUMPDEST PUSH2 0x2BC PUSH1 0x4 DUP1 CALLDATASIZE SUB DUP2 ADD SWAP1 PUSH2 0x2B7 SWAP2 SWAP1 PUSH2 0x33FA JUMP JUMPDEST PUSH2 0x1135 JUMP JUMPDEST STOP JUMPDEST PUSH2 0x2C6 PUSH2 0x1252 JUMP JUMPDEST PUSH1 0x40 MLOAD PUSH2 0x2D3 SWAP2 SWAP1 PUSH2 0x3E74 JUMP JUMPDEST PUSH1 0x40 MLOAD DUP1 SWAP2 SUB SWAP1 RETURN JUMPDEST PUSH2 0x2F6 PUSH1 0x4 DUP1 CALLDATASIZE SUB DUP2 ADD SWAP1 PUSH2 0x2F1 SWAP2 SWAP1 PUSH2 0x34A7 JUMP JUMPDEST PUSH2 0x1276 JUMP JUMPDEST STOP JUMPDEST PUSH2 0x300 PUSH2 0x149B JUMP JUMPDEST PUSH1 0x40 MLOAD PUSH2 0x30D SWAP2 SWAP1 PUSH2 0x3E74 JUMP JUMPDEST PUSH1 0x40 MLOAD DUP1 SWAP2 SUB SWAP1 RETURN JUMPDEST PUSH2 0x330 PUSH1 0x4 DUP1 CALLDATASIZE SUB DUP2 ADD SWAP1 PUSH2 0x32B SWAP2 SWAP1 PUSH2 0x34A7 JUMP JUMPDEST PUSH2 0x14BF JUMP JUMPDEST STOP JUMPDEST PUSH2 0x34C PUSH1 0x4 DUP1 CALLDATASIZE SUB DUP2 ADD SWAP1 PUSH2 0x347 SWAP2 SWAP1 PUSH2 0x3594 JUMP JUMPDEST PUSH2 0x170E JUMP JUMPDEST STOP JUMPDEST PUSH2 0x356 PUSH2 0x17DE JUMP JUMPDEST PUSH1 0x40 MLOAD PUSH2 0x363 SWAP2 SWAP1 PUSH2 0x3E74 JUMP JUMPDEST PUSH1 0x40 MLOAD DUP1 SWAP2 SUB SWAP1 RETURN JUMPDEST PUSH2 0x374 PUSH2 0x1802 JUMP JUMPDEST STOP JUMPDEST PUSH2 0x37E PUSH2 0x193C JUMP JUMPDEST PUSH1 0x40 MLOAD PUSH2 0x38B SWAP2 SWAP1 PUSH2 0x3BDC JUMP JUMPDEST PUSH1 0x40 MLOAD DUP1 SWAP2 SUB SWAP1 RETURN JUMPDEST PUSH2 0x39C PUSH2 0x1960 JUMP JUMPDEST PUSH1 0x40 MLOAD PUSH2 0x3A9 SWAP2 SWAP1 PUSH2 0x3E74 JUMP JUMPDEST PUSH1 0x40 MLOAD DUP1 SWAP2 SUB SWAP1 RETURN JUMPDEST PUSH2 0x3BA PUSH2 0x1AF8 JUMP JUMPDEST PUSH1 0x40 MLOAD PUSH2 0x3C7 SWAP2 SWAP1 PUSH2 0x39B4 JUMP JUMPDEST PUSH1 0x40 MLOAD DUP1 SWAP2 SUB SWAP1 RETURN JUMPDEST PUSH2 0x3D8 PUSH2 0x1B21 JUMP JUMPDEST PUSH1 0x40 MLOAD PUSH2 0x3E5 SWAP2 SWAP1 PUSH2 0x3BF7 JUMP JUMPDEST PUSH1 0x40 MLOAD DUP1 SWAP2 SUB SWAP1 RETURN JUMPDEST PUSH2 0x408 PUSH1 0x4 DUP1 CALLDATASIZE SUB DUP2 ADD SWAP1 PUSH2 0x403 SWAP2 SWAP1 PUSH2 0x3501 JUMP JUMPDEST PUSH2 0x1B47 JUMP JUMPDEST STOP JUMPDEST PUSH2 0x424 PUSH1 0x4 DUP1 CALLDATASIZE SUB DUP2 ADD SWAP1 PUSH2 0x41F SWAP2 SWAP1 PUSH2 0x3541 JUMP JUMPDEST PUSH2 0x1F32 JUMP JUMPDEST STOP JUMPDEST PUSH2 0x440 PUSH1 0x4 DUP1 CALLDATASIZE SUB DUP2 ADD SWAP1 PUSH2 0x43B SWAP2 SWAP1 PUSH2 0x3501 JUMP JUMPDEST PUSH2 0x218A JUMP JUMPDEST PUSH1 0x40 MLOAD PUSH2 0x44E SWAP3 SWAP2 SWAP1 PUSH2 0x3EC6 JUMP JUMPDEST PUSH1 0x40 MLOAD DUP1 SWAP2 SUB SWAP1 RETURN JUMPDEST PUSH2 0x471 PUSH1 0x4 DUP1 CALLDATASIZE SUB DUP2 ADD SWAP1 PUSH2 0x46C SWAP2 SWAP1 PUSH2 0x3340 JUMP JUMPDEST PUSH2 0x21BB JUMP JUMPDEST PUSH1 0x40 MLOAD PUSH2 0x47E SWAP2 SWAP1 PUSH2 0x3BC1 JUMP JUMPDEST PUSH1 0x40 MLOAD DUP1 SWAP2 SUB SWAP1 RETURN JUMPDEST PUSH2 0x4A1 PUSH1 0x4 DUP1 CALLDATASIZE SUB DUP2 ADD SWAP1 PUSH2 0x49C SWAP2 SWAP1 PUSH2 0x3541 JUMP JUMPDEST PUSH2 0x21DB JUMP JUMPDEST STOP JUMPDEST PUSH2 0x4BD PUSH1 0x4 DUP1 CALLDATASIZE SUB DUP2 ADD SWAP1 PUSH2 0x4B8 SWAP2 SWAP1 PUSH2 0x3340 JUMP JUMPDEST PUSH2 0x2605 JUMP JUMPDEST STOP JUMPDEST PUSH2 0x4D9 PUSH1 0x4 DUP1 CALLDATASIZE SUB DUP2 ADD SWAP1 PUSH2 0x4D4 SWAP2 SWAP1 PUSH2 0x3340 JUMP JUMPDEST PUSH2 0x27AE JUMP JUMPDEST STOP JUMPDEST PUSH2 0x4E3 PUSH2 0x28A5 JUMP JUMPDEST PUSH1 0x40 MLOAD PUSH2 0x4F0 SWAP2 SWAP1 PUSH2 0x3E74 JUMP JUMPDEST PUSH1 0x40 MLOAD DUP1 SWAP2 SUB SWAP1 RETURN JUMPDEST PUSH1 0x0 PUSH1 0x2 DUP5 DUP2 SLOAD DUP2 LT PUSH2 0x50F JUMPI PUSH2 0x50E PUSH2 0x422E JUMP JUMPDEST JUMPDEST SWAP1 PUSH1 0x0 MSTORE PUSH1 0x20 PUSH1 0x0 KECCAK256 SWAP1 PUSH1 0x6 MUL ADD SWAP1 POP PUSH1 0x0 PUSH20 0xFFFFFFFFFFFFFFFFFFFFFFFFFFFFFFFFFFFFFFFF AND DUP2 PUSH1 0x1 ADD PUSH1 0x0 SWAP1 SLOAD SWAP1 PUSH2 0x100 EXP SWAP1 DIV PUSH20 0xFFFFFFFFFFFFFFFFFFFFFFFFFFFFFFFFFFFFFFFF AND PUSH20 0xFFFFFFFFFFFFFFFFFFFFFFFFFFFFFFFFFFFFFFFF AND EQ PUSH2 0x5B2 JUMPI PUSH1 0x40 MLOAD PUSH32 0x8C379A000000000000000000000000000000000000000000000000000000000 DUP2 MSTORE PUSH1 0x4 ADD PUSH2 0x5A9 SWAP1 PUSH2 0x3D14 JUMP JUMPDEST PUSH1 0x40 MLOAD DUP1 SWAP2 SUB SWAP1 REVERT JUMPDEST PUSH1 0x0 PUSH1 0x3 PUSH1 0x0 DUP7 DUP2 MSTORE PUSH1 0x20 ADD SWAP1 DUP2 MSTORE PUSH1 0x20 ADD PUSH1 0x0 KECCAK256 PUSH1 0x0 DUP5 DUP2 MSTORE PUSH1 0x20 ADD SWAP1 DUP2 MSTORE PUSH1 0x20 ADD PUSH1 0x0 KECCAK256 SWAP1 POP DUP2 PUSH1 0x0 ADD PUSH1 0x14 SWAP1 SLOAD SWAP1 PUSH2 0x100 EXP SWAP1 DIV PUSH1 0xFF AND ISZERO PUSH2 0x695 JUMPI CALLER PUSH20 0xFFFFFFFFFFFFFFFFFFFFFFFFFFFFFFFFFFFFFFFF AND DUP3 PUSH1 0x0 ADD PUSH1 0x0 SWAP1 SLOAD SWAP1 PUSH2 0x100 EXP SWAP1 DIV PUSH20 0xFFFFFFFFFFFFFFFFFFFFFFFFFFFFFFFFFFFFFFFF AND PUSH20 0xFFFFFFFFFFFFFFFFFFFFFFFFFFFFFFFFFFFFFFFF AND EQ PUSH2 0x683 JUMPI PUSH1 0x40 MLOAD PUSH32 0x8C379A000000000000000000000000000000000000000000000000000000000 DUP2 MSTORE PUSH1 0x4 ADD PUSH2 0x67A SWAP1 PUSH2 0x3DD4 JUMP JUMPDEST PUSH1 0x40 MLOAD DUP1 SWAP2 SUB SWAP1 REVERT JUMPDEST PUSH2 0x690 DUP3 DUP3 DUP7 PUSH1 0x0 PUSH2 0x28B2 JUMP JUMPDEST PUSH2 0x711 JUMP JUMPDEST CALLER PUSH20 0xFFFFFFFFFFFFFFFFFFFFFFFFFFFFFFFFFFFFFFFF AND DUP4 PUSH20 0xFFFFFFFFFFFFFFFFFFFFFFFFFFFFFFFFFFFFFFFF AND EQ PUSH2 0x703 JUMPI PUSH1 0x40 MLOAD PUSH32 0x8C379A000000000000000000000000000000000000000000000000000000000 DUP2 MSTORE PUSH1 0x4 ADD PUSH2 0x6FA SWAP1 PUSH2 0x3DF4 JUMP JUMPDEST PUSH1 0x40 MLOAD DUP1 SWAP2 SUB SWAP1 REVERT JUMPDEST PUSH2 0x710 DUP3 DUP3 DUP7 PUSH1 0x1 PUSH2 0x28B2 JUMP JUMPDEST JUMPDEST DUP5 DUP4 PUSH32 0x33DA4F9B82B3E18A281CA2CABBE2F076925692ABB593B7EA3F850009E8EC9770 DUP7 PUSH1 0x40 MLOAD PUSH2 0x742 SWAP2 SWAP1 PUSH2 0x3E74 JUMP JUMPDEST PUSH1 0x40 MLOAD DUP1 SWAP2 SUB SWAP1 LOG3 POP POP POP POP POP JUMP JUMPDEST PUSH2 0x759 PUSH2 0x29E3 JUMP JUMPDEST PUSH20 0xFFFFFFFFFFFFFFFFFFFFFFFFFFFFFFFFFFFFFFFF AND PUSH2 0x777 PUSH2 0x1AF8 JUMP JUMPDEST PUSH20 0xFFFFFFFFFFFFFFFFFFFFFFFFFFFFFFFFFFFFFFFF AND EQ PUSH2 0x7CD JUMPI PUSH1 0x40 MLOAD PUSH32 0x8C379A000000000000000000000000000000000000000000000000000000000 DUP2 MSTORE PUSH1 0x4 ADD PUSH2 0x7C4 SWAP1 PUSH2 0x3D34 JUMP JUMPDEST PUSH1 0x40 MLOAD DUP1 SWAP2 SUB SWAP1 REVERT JUMPDEST PUSH1 0x0 PUSH20 0xFFFFFFFFFFFFFFFFFFFFFFFFFFFFFFFFFFFFFFFF AND DUP4 PUSH20 0xFFFFFFFFFFFFFFFFFFFFFFFFFFFFFFFFFFFFFFFF AND EQ PUSH2 0x85C JUMPI PUSH1 0x0 DUP3 PUSH1 0xFF AND GT DUP1 ISZERO PUSH2 0x818 JUMPI POP PUSH1 0x50 DUP3 PUSH1 0xFF AND GT ISZERO JUMPDEST PUSH2 0x857 JUMPI PUSH1 0x40 MLOAD PUSH32 0x8C379A000000000000000000000000000000000000000000000000000000000 DUP2 MSTORE PUSH1 0x4 ADD PUSH2 0x84E SWAP1 PUSH2 0x3C74 JUMP JUMPDEST PUSH1 0x40 MLOAD DUP1 SWAP2 SUB SWAP1 REVERT JUMPDEST PUSH2 0x8A3 JUMP JUMPDEST PUSH1 0x0 DUP3 PUSH1 0xFF AND EQ PUSH2 0x8A2 JUMPI PUSH1 0x40 MLOAD PUSH32 0x8C379A000000000000000000000000000000000000000000000000000000000 DUP2 MSTORE PUSH1 0x4 ADD PUSH2 0x899 SWAP1 PUSH2 0x3CB4 JUMP JUMPDEST PUSH1 0x40 MLOAD DUP1 SWAP2 SUB SWAP1 REVERT JUMPDEST JUMPDEST PUSH2 0x8AB PUSH2 0x29EB JUMP JUMPDEST PUSH1 0x0 PUSH32 0x0 NUMBER GT PUSH2 0x8FA JUMPI PUSH32 0x0 PUSH2 0x8FC JUMP JUMPDEST NUMBER JUMPDEST SWAP1 POP DUP2 PUSH1 0x5 PUSH1 0x0 DUP3 DUP3 SLOAD PUSH2 0x910 SWAP2 SWAP1 PUSH2 0x3F21 JUMP JUMPDEST SWAP3 POP POP DUP2 SWAP1 SSTORE POP PUSH1 0x0 PUSH1 0x2 DUP1 SLOAD SWAP1 POP SWAP1 POP PUSH1 0x2 PUSH1 0x40 MLOAD DUP1 PUSH2 0x100 ADD PUSH1 0x40 MSTORE DUP1 DUP11 PUSH20 0xFFFFFFFFFFFFFFFFFFFFFFFFFFFFFFFFFFFFFFFF AND DUP2 MSTORE PUSH1 0x20 ADD DUP10 ISZERO ISZERO DUP2 MSTORE PUSH1 0x20 ADD DUP8 PUSH20 0xFFFFFFFFFFFFFFFFFFFFFFFFFFFFFFFFFFFFFFFF AND DUP2 MSTORE PUSH1 0x20 ADD DUP7 PUSH1 0xFF AND DUP2 MSTORE PUSH1 0x20 ADD DUP6 DUP2 MSTORE PUSH1 0x20 ADD DUP5 DUP2 MSTORE PUSH1 0x20 ADD PUSH1 0x0 DUP2 MSTORE PUSH1 0x20 ADD PUSH1 0x0 DUP2 MSTORE POP SWAP1 DUP1 PUSH1 0x1 DUP2 SLOAD ADD DUP1 DUP3 SSTORE DUP1 SWAP2 POP POP PUSH1 0x1 SWAP1 SUB SWAP1 PUSH1 0x0 MSTORE PUSH1 0x20 PUSH1 0x0 KECCAK256 SWAP1 PUSH1 0x6 MUL ADD PUSH1 0x0 SWAP1 SWAP2 SWAP1 SWAP2 SWAP1 SWAP2 POP PUSH1 0x0 DUP3 ADD MLOAD DUP2 PUSH1 0x0 ADD PUSH1 0x0 PUSH2 0x100 EXP DUP2 SLOAD DUP2 PUSH20 0xFFFFFFFFFFFFFFFFFFFFFFFFFFFFFFFFFFFFFFFF MUL NOT AND SWAP1 DUP4 PUSH20 0xFFFFFFFFFFFFFFFFFFFFFFFFFFFFFFFFFFFFFFFF AND MUL OR SWAP1 SSTORE POP PUSH1 0x20 DUP3 ADD MLOAD DUP2 PUSH1 0x0 ADD PUSH1 0x14 PUSH2 0x100 EXP DUP2 SLOAD DUP2 PUSH1 0xFF MUL NOT AND SWAP1 DUP4 ISZERO ISZERO MUL OR SWAP1 SSTORE POP PUSH1 0x40 DUP3 ADD MLOAD DUP2 PUSH1 0x1 ADD PUSH1 0x0 PUSH2 0x100 EXP DUP2 SLOAD DUP2 PUSH20 0xFFFFFFFFFFFFFFFFFFFFFFFFFFFFFFFFFFFFFFFF MUL NOT AND SWAP1 DUP4 PUSH20 0xFFFFFFFFFFFFFFFFFFFFFFFFFFFFFFFFFFFFFFFF AND MUL OR SWAP1 SSTORE POP PUSH1 0x60 DUP3 ADD MLOAD DUP2 PUSH1 0x1 ADD PUSH1 0x14 PUSH2 0x100 EXP DUP2 SLOAD DUP2 PUSH1 0xFF MUL NOT AND SWAP1 DUP4 PUSH1 0xFF AND MUL OR SWAP1 SSTORE POP PUSH1 0x80 DUP3 ADD MLOAD DUP2 PUSH1 0x2 ADD SSTORE PUSH1 0xA0 DUP3 ADD MLOAD DUP2 PUSH1 0x3 ADD SSTORE PUSH1 0xC0 DUP3 ADD MLOAD DUP2 PUSH1 0x4 ADD SSTORE PUSH1 0xE0 DUP3 ADD MLOAD DUP2 PUSH1 0x5 ADD SSTORE POP POP PUSH1 0x1 ISZERO ISZERO DUP7 ISZERO ISZERO EQ ISZERO PUSH2 0xB18 JUMPI PUSH1 0x1 PUSH1 0x4 PUSH1 0x0 DUP11 PUSH20 0xFFFFFFFFFFFFFFFFFFFFFFFFFFFFFFFFFFFFFFFF AND PUSH20 0xFFFFFFFFFFFFFFFFFFFFFFFFFFFFFFFFFFFFFFFF AND DUP2 MSTORE PUSH1 0x20 ADD SWAP1 DUP2 MSTORE PUSH1 0x20 ADD PUSH1 0x0 KECCAK256 PUSH1 0x0 PUSH2 0x100 EXP DUP2 SLOAD DUP2 PUSH1 0xFF MUL NOT AND SWAP1 DUP4 ISZERO ISZERO MUL OR SWAP1 SSTORE POP JUMPDEST PUSH1 0x4 PUSH1 0x0 DUP10 PUSH20 0xFFFFFFFFFFFFFFFFFFFFFFFFFFFFFFFFFFFFFFFF AND PUSH20 0xFFFFFFFFFFFFFFFFFFFFFFFFFFFFFFFFFFFFFFFF AND DUP2 MSTORE PUSH1 0x20 ADD SWAP1 DUP2 MSTORE PUSH1 0x20 ADD PUSH1 0x0 KECCAK256 PUSH1 0x0 SWAP1 SLOAD SWAP1 PUSH2 0x100 EXP SWAP1 DIV PUSH1 0xFF AND ISZERO ISZERO DUP8 ISZERO ISZERO DUP3 PUSH32 0x85C5F9763B69537638ED9B50435C7C1296747FC78C92080777DD20909D46D0AC DUP12 DUP10 DUP10 DUP10 PUSH1 0x40 MLOAD PUSH2 0xBA0 SWAP5 SWAP4 SWAP3 SWAP2 SWAP1 PUSH2 0x3A75 JUMP JUMPDEST PUSH1 0x40 MLOAD DUP1 SWAP2 SUB SWAP1 LOG4 POP POP POP POP POP POP POP POP JUMP JUMPDEST PUSH1 0x2 DUP2 DUP2 SLOAD DUP2 LT PUSH2 0xBC2 JUMPI PUSH1 0x0 DUP1 REVERT JUMPDEST SWAP1 PUSH1 0x0 MSTORE PUSH1 0x20 PUSH1 0x0 KECCAK256 SWAP1 PUSH1 0x6 MUL ADD PUSH1 0x0 SWAP2 POP SWAP1 POP DUP1 PUSH1 0x0 ADD PUSH1 0x0 SWAP1 SLOAD SWAP1 PUSH2 0x100 EXP SWAP1 DIV PUSH20 0xFFFFFFFFFFFFFFFFFFFFFFFFFFFFFFFFFFFFFFFF AND SWAP1 DUP1 PUSH1 0x0 ADD PUSH1 0x14 SWAP1 SLOAD SWAP1 PUSH2 0x100 EXP SWAP1 DIV PUSH1 0xFF AND SWAP1 DUP1 PUSH1 0x1 ADD PUSH1 0x0 SWAP1 SLOAD SWAP1 PUSH2 0x100 EXP SWAP1 DIV PUSH20 0xFFFFFFFFFFFFFFFFFFFFFFFFFFFFFFFFFFFFFFFF AND SWAP1 DUP1 PUSH1 0x1 ADD PUSH1 0x14 SWAP1 SLOAD SWAP1 PUSH2 0x100 EXP SWAP1 DIV PUSH1 0xFF AND SWAP1 DUP1 PUSH1 0x2 ADD SLOAD SWAP1 DUP1 PUSH1 0x3 ADD SLOAD SWAP1 DUP1 PUSH1 0x4 ADD SLOAD SWAP1 DUP1 PUSH1 0x5 ADD SLOAD SWAP1 POP DUP9 JUMP JUMPDEST PUSH1 0x5 SLOAD DUP2 JUMP JUMPDEST PUSH2 0xC72 PUSH2 0x29E3 JUMP JUMPDEST PUSH20 0xFFFFFFFFFFFFFFFFFFFFFFFFFFFFFFFFFFFFFFFF AND PUSH2 0xC90 PUSH2 0x1AF8 JUMP JUMPDEST PUSH20 0xFFFFFFFFFFFFFFFFFFFFFFFFFFFFFFFFFFFFFFFF AND EQ PUSH2 0xCE6 JUMPI PUSH1 0x40 MLOAD PUSH32 0x8C379A000000000000000000000000000000000000000000000000000000000 DUP2 MSTORE PUSH1 0x4 ADD PUSH2 0xCDD SWAP1 PUSH2 0x3D34 JUMP JUMPDEST PUSH1 0x40 MLOAD DUP1 SWAP2 SUB SWAP1 REVERT JUMPDEST PUSH2 0xCEE PUSH2 0x29EB JUMP JUMPDEST DUP1 PUSH1 0x2 DUP4 DUP2 SLOAD DUP2 LT PUSH2 0xD03 JUMPI PUSH2 0xD02 PUSH2 0x422E JUMP JUMPDEST JUMPDEST SWAP1 PUSH1 0x0 MSTORE PUSH1 0x20 PUSH1 0x0 KECCAK256 SWAP1 PUSH1 0x6 MUL ADD PUSH1 0x2 ADD SLOAD PUSH1 0x5 SLOAD PUSH2 0xD22 SWAP2 SWAP1 PUSH2 0x4002 JUMP JUMPDEST PUSH2 0xD2C SWAP2 SWAP1 PUSH2 0x3F21 JUMP JUMPDEST PUSH1 0x5 DUP2 SWAP1 SSTORE POP DUP1 PUSH1 0x2 DUP4 DUP2 SLOAD DUP2 LT PUSH2 0xD47 JUMPI PUSH2 0xD46 PUSH2 0x422E JUMP JUMPDEST JUMPDEST SWAP1 PUSH1 0x0 MSTORE PUSH1 0x20 PUSH1 0x0 KECCAK256 SWAP1 PUSH1 0x6 MUL ADD PUSH1 0x2 ADD DUP2 SWAP1 SSTORE POP DUP2 PUSH32 0x545B620A3000F6303B158B321F06B4E95E28A27D70AECAC8C6BDAC4F48A9F6B3 DUP3 PUSH1 0x40 MLOAD PUSH2 0xD8C SWAP2 SWAP1 PUSH2 0x3E74 JUMP JUMPDEST PUSH1 0x40 MLOAD DUP1 SWAP2 SUB SWAP1 LOG2 POP POP JUMP JUMPDEST PUSH1 0x0 DUP1 PUSH1 0x2 DUP5 DUP2 SLOAD DUP2 LT PUSH2 0xDAF JUMPI PUSH2 0xDAE PUSH2 0x422E JUMP JUMPDEST JUMPDEST SWAP1 PUSH1 0x0 MSTORE PUSH1 0x20 PUSH1 0x0 KECCAK256 SWAP1 PUSH1 0x6 MUL ADD PUSH1 0x40 MLOAD DUP1 PUSH2 0x100 ADD PUSH1 0x40 MSTORE SWAP1 DUP2 PUSH1 0x0 DUP3 ADD PUSH1 0x0 SWAP1 SLOAD SWAP1 PUSH2 0x100 EXP SWAP1 DIV PUSH20 0xFFFFFFFFFFFFFFFFFFFFFFFFFFFFFFFFFFFFFFFF AND PUSH20 0xFFFFFFFFFFFFFFFFFFFFFFFFFFFFFFFFFFFFFFFF AND PUSH20 0xFFFFFFFFFFFFFFFFFFFFFFFFFFFFFFFFFFFFFFFF AND DUP2 MSTORE PUSH1 0x20 ADD PUSH1 0x0 DUP3 ADD PUSH1 0x14 SWAP1 SLOAD SWAP1 PUSH2 0x100 EXP SWAP1 DIV PUSH1 0xFF AND ISZERO ISZERO ISZERO ISZERO DUP2 MSTORE PUSH1 0x20 ADD PUSH1 0x1 DUP3 ADD PUSH1 0x0 SWAP1 SLOAD SWAP1 PUSH2 0x100 EXP SWAP1 DIV PUSH20 0xFFFFFFFFFFFFFFFFFFFFFFFFFFFFFFFFFFFFFFFF AND PUSH20 0xFFFFFFFFFFFFFFFFFFFFFFFFFFFFFFFFFFFFFFFF AND PUSH20 0xFFFFFFFFFFFFFFFFFFFFFFFFFFFFFFFFFFFFFFFF AND DUP2 MSTORE PUSH1 0x20 ADD PUSH1 0x1 DUP3 ADD PUSH1 0x14 SWAP1 SLOAD SWAP1 PUSH2 0x100 EXP SWAP1 DIV PUSH1 0xFF AND PUSH1 0xFF AND PUSH1 0xFF AND DUP2 MSTORE PUSH1 0x20 ADD PUSH1 0x2 DUP3 ADD SLOAD DUP2 MSTORE PUSH1 0x20 ADD PUSH1 0x3 DUP3 ADD SLOAD DUP2 MSTORE PUSH1 0x20 ADD PUSH1 0x4 DUP3 ADD SLOAD DUP2 MSTORE PUSH1 0x20 ADD PUSH1 0x5 DUP3 ADD SLOAD DUP2 MSTORE POP POP SWAP1 POP PUSH1 0x0 PUSH1 0x3 PUSH1 0x0 DUP7 DUP2 MSTORE PUSH1 0x20 ADD SWAP1 DUP2 MSTORE PUSH1 0x20 ADD PUSH1 0x0 KECCAK256 PUSH1 0x0 DUP6 DUP2 MSTORE PUSH1 0x20 ADD SWAP1 DUP2 MSTORE PUSH1 0x20 ADD PUSH1 0x0 KECCAK256 PUSH1 0x40 MLOAD DUP1 PUSH1 0x40 ADD PUSH1 0x40 MSTORE SWAP1 DUP2 PUSH1 0x0 DUP3 ADD SLOAD DUP2 MSTORE PUSH1 0x20 ADD PUSH1 0x1 DUP3 ADD SLOAD DUP2 MSTORE POP POP SWAP1 POP PUSH1 0x0 DUP1 DUP4 PUSH1 0xC0 ADD MLOAD DUP5 PUSH1 0xE0 ADD MLOAD SWAP2 POP SWAP2 POP DUP4 PUSH1 0xA0 ADD MLOAD NUMBER GT DUP1 ISZERO PUSH2 0xF43 JUMPI POP PUSH1 0x0 DUP2 EQ ISZERO JUMPDEST ISZERO PUSH2 0xFB9 JUMPI PUSH1 0x0 PUSH1 0x5 SLOAD DUP6 PUSH1 0x80 ADD MLOAD PUSH2 0xF5A PUSH2 0x1960 JUMP JUMPDEST DUP8 PUSH1 0xA0 ADD MLOAD NUMBER PUSH2 0xF6A SWAP2 SWAP1 PUSH2 0x4002 JUMP JUMPDEST PUSH2 0xF74 SWAP2 SWAP1 PUSH2 0x3FA8 JUMP JUMPDEST PUSH2 0xF7E SWAP2 SWAP1 PUSH2 0x3FA8 JUMP JUMPDEST PUSH2 0xF88 SWAP2 SWAP1 PUSH2 0x3F77 JUMP JUMPDEST SWAP1 POP DUP2 PUSH9 0x56BC75E2D63100000 DUP3 PUSH2 0xFA0 SWAP2 SWAP1 PUSH2 0x3FA8 JUMP JUMPDEST PUSH2 0xFAA SWAP2 SWAP1 PUSH2 0x3F77 JUMP JUMPDEST DUP4 PUSH2 0xFB5 SWAP2 SWAP1 PUSH2 0x3F21 JUMP JUMPDEST SWAP3 POP POP JUMPDEST PUSH1 0x0 DUP4 PUSH1 0x20 ADD MLOAD PUSH9 0x56BC75E2D63100000 DUP5 DUP7 PUSH1 0x0 ADD MLOAD PUSH2 0xFDA SWAP2 SWAP1 PUSH2 0x3FA8 JUMP JUMPDEST PUSH2 0xFE4 SWAP2 SWAP1 PUSH2 0x3F77 JUMP JUMPDEST PUSH2 0xFEE SWAP2 SWAP1 PUSH2 0x4002 JUMP JUMPDEST SWAP1 POP PUSH1 0x0 DUP6 PUSH1 0x60 ADD MLOAD PUSH1 0xFF AND EQ ISZERO PUSH2 0x100D JUMPI DUP1 SWAP6 POP POP POP POP POP POP PUSH2 0x103F JUMP JUMPDEST PUSH1 0x64 DUP6 PUSH1 0x60 ADD MLOAD PUSH1 0xFF AND DUP3 PUSH2 0x1022 SWAP2 SWAP1 PUSH2 0x3FA8 JUMP JUMPDEST PUSH2 0x102C SWAP2 SWAP1 PUSH2 0x3F77 JUMP JUMPDEST DUP2 PUSH2 0x1037 SWAP2 SWAP1 PUSH2 0x4002 JUMP JUMPDEST SWAP6 POP POP POP POP POP POP JUMPDEST SWAP3 SWAP2 POP POP JUMP JUMPDEST PUSH1 0x2 DUP8 DUP2 SLOAD DUP2 LT PUSH2 0x1059 JUMPI PUSH2 0x1058 PUSH2 0x422E JUMP JUMPDEST JUMPDEST SWAP1 PUSH1 0x0 MSTORE PUSH1 0x20 PUSH1 0x0 KECCAK256 SWAP1 PUSH1 0x6 MUL ADD PUSH1 0x0 ADD PUSH1 0x0 SWAP1 SLOAD SWAP1 PUSH2 0x100 EXP SWAP1 DIV PUSH20 0xFFFFFFFFFFFFFFFFFFFFFFFFFFFFFFFFFFFFFFFF AND PUSH20 0xFFFFFFFFFFFFFFFFFFFFFFFFFFFFFFFFFFFFFFFF AND PUSH4 0xD505ACCF CALLER ADDRESS PUSH32 0xFFFFFFFFFFFFFFFFFFFFFFFFFFFFFFFFFFFFFFFFFFFFFFFFFFFFFFFFFFFFFFFF DUP9 DUP9 DUP9 DUP9 PUSH1 0x40 MLOAD DUP9 PUSH4 0xFFFFFFFF AND PUSH1 0xE0 SHL DUP2 MSTORE PUSH1 0x4 ADD PUSH2 0x10EF SWAP8 SWAP7 SWAP6 SWAP5 SWAP4 SWAP3 SWAP2 SWAP1 PUSH2 0x3A06 JUMP JUMPDEST PUSH1 0x0 PUSH1 0x40 MLOAD DUP1 DUP4 SUB DUP2 PUSH1 0x0 DUP8 DUP1 EXTCODESIZE ISZERO DUP1 ISZERO PUSH2 0x1109 JUMPI PUSH1 0x0 DUP1 REVERT JUMPDEST POP GAS CALL ISZERO DUP1 ISZERO PUSH2 0x111D JUMPI RETURNDATASIZE PUSH1 0x0 DUP1 RETURNDATACOPY RETURNDATASIZE PUSH1 0x0 REVERT JUMPDEST POP POP POP POP PUSH2 0x112C DUP8 DUP8 DUP8 PUSH2 0x4F9 JUMP JUMPDEST POP POP POP POP POP POP POP JUMP JUMPDEST PUSH1 0x4 PUSH1 0x0 CALLER PUSH20 0xFFFFFFFFFFFFFFFFFFFFFFFFFFFFFFFFFFFFFFFF AND PUSH20 0xFFFFFFFFFFFFFFFFFFFFFFFFFFFFFFFFFFFFFFFF AND DUP2 MSTORE PUSH1 0x20 ADD SWAP1 DUP2 MSTORE PUSH1 0x20 ADD PUSH1 0x0 KECCAK256 PUSH1 0x0 SWAP1 SLOAD SWAP1 PUSH2 0x100 EXP SWAP1 DIV PUSH1 0xFF AND PUSH2 0x11C1 JUMPI PUSH1 0x40 MLOAD PUSH32 0x8C379A000000000000000000000000000000000000000000000000000000000 DUP2 MSTORE PUSH1 0x4 ADD PUSH2 0x11B8 SWAP1 PUSH2 0x3D74 JUMP JUMPDEST PUSH1 0x40 MLOAD DUP1 SWAP2 SUB SWAP1 REVERT JUMPDEST PUSH32 0x0 PUSH20 0xFFFFFFFFFFFFFFFFFFFFFFFFFFFFFFFFFFFFFFFF AND PUSH4 0x40C10F19 DUP4 DUP4 PUSH1 0x40 MLOAD DUP4 PUSH4 0xFFFFFFFF AND PUSH1 0xE0 SHL DUP2 MSTORE PUSH1 0x4 ADD PUSH2 0x121C SWAP3 SWAP2 SWAP1 PUSH2 0x3B61 JUMP JUMPDEST PUSH1 0x0 PUSH1 0x40 MLOAD DUP1 DUP4 SUB DUP2 PUSH1 0x0 DUP8 DUP1 EXTCODESIZE ISZERO DUP1 ISZERO PUSH2 0x1236 JUMPI PUSH1 0x0 DUP1 REVERT JUMPDEST POP GAS CALL ISZERO DUP1 ISZERO PUSH2 0x124A JUMPI RETURNDATASIZE PUSH1 0x0 DUP1 RETURNDATACOPY RETURNDATASIZE PUSH1 0x0 REVERT JUMPDEST POP POP POP POP POP POP JUMP JUMPDEST PUSH32 0x0 DUP2 JUMP JUMPDEST PUSH1 0x0 PUSH1 0x2 DUP3 DUP2 SLOAD DUP2 LT PUSH2 0x128C JUMPI PUSH2 0x128B PUSH2 0x422E JUMP JUMPDEST JUMPDEST SWAP1 PUSH1 0x0 MSTORE PUSH1 0x20 PUSH1 0x0 KECCAK256 SWAP1 PUSH1 0x6 MUL ADD SWAP1 POP PUSH1 0x0 PUSH20 0xFFFFFFFFFFFFFFFFFFFFFFFFFFFFFFFFFFFFFFFF AND DUP2 PUSH1 0x1 ADD PUSH1 0x0 SWAP1 SLOAD SWAP1 PUSH2 0x100 EXP SWAP1 DIV PUSH20 0xFFFFFFFFFFFFFFFFFFFFFFFFFFFFFFFFFFFFFFFF AND PUSH20 0xFFFFFFFFFFFFFFFFFFFFFFFFFFFFFFFFFFFFFFFF AND EQ PUSH2 0x132F JUMPI PUSH1 0x40 MLOAD PUSH32 0x8C379A000000000000000000000000000000000000000000000000000000000 DUP2 MSTORE PUSH1 0x4 ADD PUSH2 0x1326 SWAP1 PUSH2 0x3E54 JUMP JUMPDEST PUSH1 0x40 MLOAD DUP1 SWAP2 SUB SWAP1 REVERT JUMPDEST DUP1 PUSH1 0x0 ADD PUSH1 0x14 SWAP1 SLOAD SWAP1 PUSH2 0x100 EXP SWAP1 DIV PUSH1 0xFF AND ISZERO PUSH2 0x1381 JUMPI PUSH1 0x40 MLOAD PUSH32 0x8C379A000000000000000000000000000000000000000000000000000000000 DUP2 MSTORE PUSH1 0x4 ADD PUSH2 0x1378 SWAP1 PUSH2 0x3E14 JUMP JUMPDEST PUSH1 0x40 MLOAD DUP1 SWAP2 SUB SWAP1 REVERT JUMPDEST PUSH1 0x0 PUSH1 0x3 PUSH1 0x0 DUP5 DUP2 MSTORE PUSH1 0x20 ADD SWAP1 DUP2 MSTORE PUSH1 0x20 ADD PUSH1 0x0 KECCAK256 PUSH1 0x0 CALLER PUSH20 0xFFFFFFFFFFFFFFFFFFFFFFFFFFFFFFFFFFFFFFFF AND DUP2 MSTORE PUSH1 0x20 ADD SWAP1 DUP2 MSTORE PUSH1 0x20 ADD PUSH1 0x0 KECCAK256 SWAP1 POP PUSH1 0x0 DUP2 PUSH1 0x0 ADD SLOAD SWAP1 POP PUSH1 0x0 DUP3 PUSH1 0x0 ADD DUP2 SWAP1 SSTORE POP PUSH1 0x0 DUP3 PUSH1 0x1 ADD DUP2 SWAP1 SSTORE POP DUP1 DUP4 PUSH1 0x5 ADD PUSH1 0x0 DUP3 DUP3 SLOAD PUSH2 0x13F0 SWAP2 SWAP1 PUSH2 0x4002 JUMP JUMPDEST SWAP3 POP POP DUP2 SWAP1 SSTORE POP PUSH2 0x1446 CALLER DUP3 DUP6 PUSH1 0x0 ADD PUSH1 0x0 SWAP1 SLOAD SWAP1 PUSH2 0x100 EXP SWAP1 DIV PUSH20 0xFFFFFFFFFFFFFFFFFFFFFFFFFFFFFFFFFFFFFFFF AND PUSH20 0xFFFFFFFFFFFFFFFFFFFFFFFFFFFFFFFFFFFFFFFF AND PUSH2 0x2A3F SWAP1 SWAP3 SWAP2 SWAP1 PUSH4 0xFFFFFFFF AND JUMP JUMPDEST DUP4 CALLER PUSH20 0xFFFFFFFFFFFFFFFFFFFFFFFFFFFFFFFFFFFFFFFF AND PUSH32 0xBB757047C2B5F3974FE26B7C10F732E7BCE710B0952A71082702781E62AE0595 DUP4 PUSH1 0x40 MLOAD PUSH2 0x148D SWAP2 SWAP1 PUSH2 0x3E74 JUMP JUMPDEST PUSH1 0x40 MLOAD DUP1 SWAP2 SUB SWAP1 LOG3 POP POP POP POP JUMP JUMPDEST PUSH32 0x0 DUP2 JUMP JUMPDEST PUSH1 0x0 PUSH1 0x2 DUP3 DUP2 SLOAD DUP2 LT PUSH2 0x14D5 JUMPI PUSH2 0x14D4 PUSH2 0x422E JUMP JUMPDEST JUMPDEST SWAP1 PUSH1 0x0 MSTORE PUSH1 0x20 PUSH1 0x0 KECCAK256 SWAP1 PUSH1 0x6 MUL ADD SWAP1 POP PUSH1 0x0 DUP2 PUSH1 0x1 ADD PUSH1 0x0 SWAP1 SLOAD SWAP1 PUSH2 0x100 EXP SWAP1 DIV PUSH20 0xFFFFFFFFFFFFFFFFFFFFFFFFFFFFFFFFFFFFFFFF AND SWAP1 POP PUSH1 0x0 PUSH20 0xFFFFFFFFFFFFFFFFFFFFFFFFFFFFFFFFFFFFFFFF AND DUP2 PUSH20 0xFFFFFFFFFFFFFFFFFFFFFFFFFFFFFFFFFFFFFFFF AND EQ PUSH2 0x157D JUMPI PUSH1 0x40 MLOAD PUSH32 0x8C379A000000000000000000000000000000000000000000000000000000000 DUP2 MSTORE PUSH1 0x4 ADD PUSH2 0x1574 SWAP1 PUSH2 0x3CF4 JUMP JUMPDEST PUSH1 0x40 MLOAD DUP1 SWAP2 SUB SWAP1 REVERT JUMPDEST PUSH1 0x0 PUSH1 0x3 PUSH1 0x0 DUP6 DUP2 MSTORE PUSH1 0x20 ADD SWAP1 DUP2 MSTORE PUSH1 0x20 ADD PUSH1 0x0 KECCAK256 PUSH1 0x0 CALLER PUSH20 0xFFFFFFFFFFFFFFFFFFFFFFFFFFFFFFFFFFFFFFFF AND DUP2 MSTORE PUSH1 0x20 ADD SWAP1 DUP2 MSTORE PUSH1 0x20 ADD PUSH1 0x0 KECCAK256 SWAP1 POP PUSH1 0x0 DUP2 PUSH1 0x0 ADD SLOAD SWAP1 POP PUSH1 0x0 DUP3 PUSH1 0x0 ADD DUP2 SWAP1 SSTORE POP PUSH1 0x0 DUP3 PUSH1 0x1 ADD DUP2 SWAP1 SSTORE POP DUP1 DUP5 PUSH1 0x5 ADD PUSH1 0x0 DUP3 DUP3 SLOAD PUSH2 0x15EC SWAP2 SWAP1 PUSH2 0x4002 JUMP JUMPDEST SWAP3 POP POP DUP2 SWAP1 SSTORE POP DUP3 PUSH20 0xFFFFFFFFFFFFFFFFFFFFFFFFFFFFFFFFFFFFFFFF AND PUSH4 0xDDFEACCA CALLER DUP4 PUSH2 0x161A SWAP1 PUSH2 0x4187 JUMP JUMPDEST PUSH1 0x40 MLOAD DUP4 PUSH4 0xFFFFFFFF AND PUSH1 0xE0 SHL DUP2 MSTORE PUSH1 0x4 ADD PUSH2 0x1637 SWAP3 SWAP2 SWAP1 PUSH2 0x3B38 JUMP JUMPDEST PUSH1 0x0 PUSH1 0x40 MLOAD DUP1 DUP4 SUB DUP2 PUSH1 0x0 DUP8 DUP1 EXTCODESIZE ISZERO DUP1 ISZERO PUSH2 0x1651 JUMPI PUSH1 0x0 DUP1 REVERT JUMPDEST POP GAS CALL ISZERO DUP1 ISZERO PUSH2 0x1665 JUMPI RETURNDATASIZE PUSH1 0x0 DUP1 RETURNDATACOPY RETURNDATASIZE PUSH1 0x0 REVERT JUMPDEST POP POP POP POP PUSH2 0x16B8 CALLER DUP3 DUP7 PUSH1 0x0 ADD PUSH1 0x0 SWAP1 SLOAD SWAP1 PUSH2 0x100 EXP SWAP1 DIV PUSH20 0xFFFFFFFFFFFFFFFFFFFFFFFFFFFFFFFFFFFFFFFF AND PUSH20 0xFFFFFFFFFFFFFFFFFFFFFFFFFFFFFFFFFFFFFFFF AND PUSH2 0x2A3F SWAP1 SWAP3 SWAP2 SWAP1 PUSH4 0xFFFFFFFF AND JUMP JUMPDEST DUP5 CALLER PUSH20 0xFFFFFFFFFFFFFFFFFFFFFFFFFFFFFFFFFFFFFFFF AND PUSH32 0x67A463E34014CD44CDA35B27BF0DAEBB9C9E138B4E4B6EF2A23170D79595F8A0 DUP4 PUSH1 0x40 MLOAD PUSH2 0x16FF SWAP2 SWAP1 PUSH2 0x3E74 JUMP JUMPDEST PUSH1 0x40 MLOAD DUP1 SWAP2 SUB SWAP1 LOG3 POP POP POP POP POP JUMP JUMPDEST PUSH1 0x2 DUP8 DUP2 SLOAD DUP2 LT PUSH2 0x1722 JUMPI PUSH2 0x1721 PUSH2 0x422E JUMP JUMPDEST JUMPDEST SWAP1 PUSH1 0x0 MSTORE PUSH1 0x20 PUSH1 0x0 KECCAK256 SWAP1 PUSH1 0x6 MUL ADD PUSH1 0x0 ADD PUSH1 0x0 SWAP1 SLOAD SWAP1 PUSH2 0x100 EXP SWAP1 DIV PUSH20 0xFFFFFFFFFFFFFFFFFFFFFFFFFFFFFFFFFFFFFFFF AND PUSH20 0xFFFFFFFFFFFFFFFFFFFFFFFFFFFFFFFFFFFFFFFF AND PUSH4 0xD505ACCF CALLER ADDRESS DUP10 DUP9 DUP9 DUP9 DUP9 PUSH1 0x40 MLOAD DUP9 PUSH4 0xFFFFFFFF AND PUSH1 0xE0 SHL DUP2 MSTORE PUSH1 0x4 ADD PUSH2 0x1798 SWAP8 SWAP7 SWAP6 SWAP5 SWAP4 SWAP3 SWAP2 SWAP1 PUSH2 0x3A06 JUMP JUMPDEST PUSH1 0x0 PUSH1 0x40 MLOAD DUP1 DUP4 SUB DUP2 PUSH1 0x0 DUP8 DUP1 EXTCODESIZE ISZERO DUP1 ISZERO PUSH2 0x17B2 JUMPI PUSH1 0x0 DUP1 REVERT JUMPDEST POP GAS CALL ISZERO DUP1 ISZERO PUSH2 0x17C6 JUMPI RETURNDATASIZE PUSH1 0x0 DUP1 RETURNDATACOPY RETURNDATASIZE PUSH1 0x0 REVERT JUMPDEST POP POP POP POP PUSH2 0x17D5 DUP8 DUP8 DUP8 PUSH2 0x4F9 JUMP JUMPDEST POP POP POP POP POP POP POP JUMP JUMPDEST PUSH32 0x0 DUP2 JUMP JUMPDEST PUSH2 0x180A PUSH2 0x29E3 JUMP JUMPDEST PUSH20 0xFFFFFFFFFFFFFFFFFFFFFFFFFFFFFFFFFFFFFFFF AND PUSH2 0x1828 PUSH2 0x1AF8 JUMP JUMPDEST PUSH20 0xFFFFFFFFFFFFFFFFFFFFFFFFFFFFFFFFFFFFFFFF AND EQ PUSH2 0x187E JUMPI PUSH1 0x40 MLOAD PUSH32 0x8C379A000000000000000000000000000000000000000000000000000000000 DUP2 MSTORE PUSH1 0x4 ADD PUSH2 0x1875 SWAP1 PUSH2 0x3D34 JUMP JUMPDEST PUSH1 0x40 MLOAD DUP1 SWAP2 SUB SWAP1 REVERT JUMPDEST PUSH1 0x0 PUSH20 0xFFFFFFFFFFFFFFFFFFFFFFFFFFFFFFFFFFFFFFFF AND PUSH1 0x0 DUP1 SLOAD SWAP1 PUSH2 0x100 EXP SWAP1 DIV PUSH20 0xFFFFFFFFFFFFFFFFFFFFFFFFFFFFFFFFFFFFFFFF AND PUSH20 0xFFFFFFFFFFFFFFFFFFFFFFFFFFFFFFFFFFFFFFFF AND PUSH32 0x8BE0079C531659141344CD1FD0A4F28419497F9722A3DAAFE3B4186F6B6457E0 PUSH1 0x40 MLOAD PUSH1 0x40 MLOAD DUP1 SWAP2 SUB SWAP1 LOG3 PUSH1 0x0 DUP1 PUSH1 0x0 PUSH2 0x100 EXP DUP2 SLOAD DUP2 PUSH20 0xFFFFFFFFFFFFFFFFFFFFFFFFFFFFFFFFFFFFFFFF MUL NOT AND SWAP1 DUP4 PUSH20 0xFFFFFFFFFFFFFFFFFFFFFFFFFFFFFFFFFFFFFFFF AND MUL OR SWAP1 SSTORE POP JUMP JUMPDEST PUSH32 0x0 DUP2 JUMP JUMPDEST PUSH1 0x0 DUP1 PUSH20 0xFFFFFFFFFFFFFFFFFFFFFFFFFFFFFFFFFFFFFFFF AND PUSH1 0x1 PUSH1 0x0 SWAP1 SLOAD SWAP1 PUSH2 0x100 EXP SWAP1 DIV PUSH20 0xFFFFFFFFFFFFFFFFFFFFFFFFFFFFFFFFFFFFFFFF AND PUSH20 0xFFFFFFFFFFFFFFFFFFFFFFFFFFFFFFFFFFFFFFFF AND EQ PUSH2 0x1A5E JUMPI PUSH1 0x1 PUSH1 0x0 SWAP1 SLOAD SWAP1 PUSH2 0x100 EXP SWAP1 DIV PUSH20 0xFFFFFFFFFFFFFFFFFFFFFFFFFFFFFFFFFFFFFFFF AND PUSH20 0xFFFFFFFFFFFFFFFFFFFFFFFFFFFFFFFFFFFFFFFF AND PUSH4 0x8AE39CAC PUSH1 0x40 MLOAD DUP2 PUSH4 0xFFFFFFFF AND PUSH1 0xE0 SHL DUP2 MSTORE PUSH1 0x4 ADD PUSH1 0x20 PUSH1 0x40 MLOAD DUP1 DUP4 SUB DUP2 DUP7 DUP1 EXTCODESIZE ISZERO DUP1 ISZERO PUSH2 0x1A1F JUMPI PUSH1 0x0 DUP1 REVERT JUMPDEST POP GAS STATICCALL ISZERO DUP1 ISZERO PUSH2 0x1A33 JUMPI RETURNDATASIZE PUSH1 0x0 DUP1 RETURNDATACOPY RETURNDATASIZE PUSH1 0x0 REVERT JUMPDEST POP POP POP POP PUSH1 0x40 MLOAD RETURNDATASIZE PUSH1 0x1F NOT PUSH1 0x1F DUP3 ADD AND DUP3 ADD DUP1 PUSH1 0x40 MSTORE POP DUP2 ADD SWAP1 PUSH2 0x1A57 SWAP2 SWAP1 PUSH2 0x34D4 JUMP JUMPDEST SWAP1 POP PUSH2 0x1AF5 JUMP JUMPDEST PUSH1 0x0 PUSH32 0x0 PUSH32 0x0 NUMBER PUSH2 0x1AAD SWAP2 SWAP1 PUSH2 0x4002 JUMP JUMPDEST PUSH2 0x1AB7 SWAP2 SWAP1 PUSH2 0x3F77 JUMP JUMPDEST SWAP1 POP PUSH1 0x1 DUP2 PUSH2 0x1AC6 SWAP2 SWAP1 PUSH2 0x3F21 JUMP JUMPDEST PUSH32 0x0 PUSH2 0x1AF1 SWAP2 SWAP1 PUSH2 0x3F77 JUMP JUMPDEST SWAP2 POP POP JUMPDEST SWAP1 JUMP JUMPDEST PUSH1 0x0 DUP1 PUSH1 0x0 SWAP1 SLOAD SWAP1 PUSH2 0x100 EXP SWAP1 DIV PUSH20 0xFFFFFFFFFFFFFFFFFFFFFFFFFFFFFFFFFFFFFFFF AND SWAP1 POP SWAP1 JUMP JUMPDEST PUSH1 0x1 PUSH1 0x0 SWAP1 SLOAD SWAP1 PUSH2 0x100 EXP SWAP1 DIV PUSH20 0xFFFFFFFFFFFFFFFFFFFFFFFFFFFFFFFFFFFFFFFF AND DUP2 JUMP JUMPDEST PUSH1 0x0 PUSH1 0x2 DUP4 DUP2 SLOAD DUP2 LT PUSH2 0x1B5D JUMPI PUSH2 0x1B5C PUSH2 0x422E JUMP JUMPDEST JUMPDEST SWAP1 PUSH1 0x0 MSTORE PUSH1 0x20 PUSH1 0x0 KECCAK256 SWAP1 PUSH1 0x6 MUL ADD SWAP1 POP PUSH1 0x0 DUP2 PUSH1 0x1 ADD PUSH1 0x0 SWAP1 SLOAD SWAP1 PUSH2 0x100 EXP SWAP1 DIV PUSH20 0xFFFFFFFFFFFFFFFFFFFFFFFFFFFFFFFFFFFFFFFF AND SWAP1 POP PUSH1 0x0 PUSH20 0xFFFFFFFFFFFFFFFFFFFFFFFFFFFFFFFFFFFFFFFF AND DUP2 PUSH20 0xFFFFFFFFFFFFFFFFFFFFFFFFFFFFFFFFFFFFFFFF AND EQ ISZERO PUSH2 0x1C06 JUMPI PUSH1 0x40 MLOAD PUSH32 0x8C379A000000000000000000000000000000000000000000000000000000000 DUP2 MSTORE PUSH1 0x4 ADD PUSH2 0x1BFD SWAP1 PUSH2 0x3CD4 JUMP JUMPDEST PUSH1 0x40 MLOAD DUP1 SWAP2 SUB SWAP1 REVERT JUMPDEST PUSH1 0x0 PUSH1 0x3 PUSH1 0x0 DUP7 DUP2 MSTORE PUSH1 0x20 ADD SWAP1 DUP2 MSTORE PUSH1 0x20 ADD PUSH1 0x0 KECCAK256 PUSH1 0x0 CALLER PUSH20 0xFFFFFFFFFFFFFFFFFFFFFFFFFFFFFFFFFFFFFFFF AND DUP2 MSTORE PUSH1 0x20 ADD SWAP1 DUP2 MSTORE PUSH1 0x20 ADD PUSH1 0x0 KECCAK256 SWAP1 POP PUSH1 0x0 DUP2 PUSH1 0x0 ADD SLOAD SWAP1 POP DUP5 DUP2 LT ISZERO PUSH2 0x1C90 JUMPI PUSH1 0x40 MLOAD PUSH32 0x8C379A000000000000000000000000000000000000000000000000000000000 DUP2 MSTORE PUSH1 0x4 ADD PUSH2 0x1C87 SWAP1 PUSH2 0x3D54 JUMP JUMPDEST PUSH1 0x40 MLOAD DUP1 SWAP2 SUB SWAP1 REVERT JUMPDEST PUSH2 0x1C99 DUP5 PUSH2 0x2AC5 JUMP JUMPDEST PUSH1 0x0 DUP5 PUSH1 0x4 ADD SLOAD SWAP1 POP PUSH1 0x0 DUP4 PUSH1 0x1 ADD SLOAD PUSH9 0x56BC75E2D63100000 DUP4 DUP6 PUSH2 0x1CBF SWAP2 SWAP1 PUSH2 0x3FA8 JUMP JUMPDEST PUSH2 0x1CC9 SWAP2 SWAP1 PUSH2 0x3F77 JUMP JUMPDEST PUSH2 0x1CD3 SWAP2 SWAP1 PUSH2 0x4002 JUMP JUMPDEST SWAP1 POP PUSH1 0x0 DUP2 GT ISZERO PUSH2 0x1DB0 JUMPI PUSH1 0x0 DUP1 DUP7 PUSH20 0xFFFFFFFFFFFFFFFFFFFFFFFFFFFFFFFFFFFFFFFF AND PUSH4 0x3273BC7 DUP5 CALLER DUP12 PUSH1 0x1 ADD PUSH1 0x14 SWAP1 SLOAD SWAP1 PUSH2 0x100 EXP SWAP1 DIV PUSH1 0xFF AND PUSH1 0x40 MLOAD DUP5 PUSH4 0xFFFFFFFF AND PUSH1 0xE0 SHL DUP2 MSTORE PUSH1 0x4 ADD PUSH2 0x1D2F SWAP4 SWAP3 SWAP2 SWAP1 PUSH2 0x3E8F JUMP JUMPDEST PUSH1 0x40 DUP1 MLOAD DUP1 DUP4 SUB DUP2 PUSH1 0x0 DUP8 DUP1 EXTCODESIZE ISZERO DUP1 ISZERO PUSH2 0x1D48 JUMPI PUSH1 0x0 DUP1 REVERT JUMPDEST POP GAS CALL ISZERO DUP1 ISZERO PUSH2 0x1D5C JUMPI RETURNDATASIZE PUSH1 0x0 DUP1 RETURNDATACOPY RETURNDATASIZE PUSH1 0x0 REVERT JUMPDEST POP POP POP POP PUSH1 0x40 MLOAD RETURNDATASIZE PUSH1 0x1F NOT PUSH1 0x1F DUP3 ADD AND DUP3 ADD DUP1 PUSH1 0x40 MSTORE POP DUP2 ADD SWAP1 PUSH2 0x1D80 SWAP2 SWAP1 PUSH2 0x343A JUMP JUMPDEST SWAP2 POP SWAP2 POP PUSH1 0x0 DUP2 GT ISZERO PUSH2 0x1D98 JUMPI PUSH2 0x1D97 DUP3 DUP3 PUSH2 0x2C1E JUMP JUMPDEST JUMPDEST PUSH2 0x1DAD CALLER DUP3 DUP6 PUSH2 0x1DA8 SWAP2 SWAP1 PUSH2 0x4002 JUMP JUMPDEST PUSH2 0x2C1E JUMP JUMPDEST POP POP JUMPDEST PUSH1 0x0 DUP8 GT ISZERO PUSH2 0x1EB1 JUMPI DUP5 PUSH20 0xFFFFFFFFFFFFFFFFFFFFFFFFFFFFFFFFFFFFFFFF AND PUSH4 0xDDFEACCA CALLER DUP10 PUSH2 0x1DE0 SWAP1 PUSH2 0x4187 JUMP JUMPDEST PUSH1 0x40 MLOAD DUP4 PUSH4 0xFFFFFFFF AND PUSH1 0xE0 SHL DUP2 MSTORE PUSH1 0x4 ADD PUSH2 0x1DFD SWAP3 SWAP2 SWAP1 PUSH2 0x3B38 JUMP JUMPDEST PUSH1 0x0 PUSH1 0x40 MLOAD DUP1 DUP4 SUB DUP2 PUSH1 0x0 DUP8 DUP1 EXTCODESIZE ISZERO DUP1 ISZERO PUSH2 0x1E17 JUMPI PUSH1 0x0 DUP1 REVERT JUMPDEST POP GAS CALL ISZERO DUP1 ISZERO PUSH2 0x1E2B JUMPI RETURNDATASIZE PUSH1 0x0 DUP1 RETURNDATACOPY RETURNDATASIZE PUSH1 0x0 REVERT JUMPDEST POP POP POP POP DUP7 DUP7 PUSH1 0x5 ADD PUSH1 0x0 DUP3 DUP3 SLOAD PUSH2 0x1E43 SWAP2 SWAP1 PUSH2 0x4002 JUMP JUMPDEST SWAP3 POP POP DUP2 SWAP1 SSTORE POP DUP7 DUP4 PUSH2 0x1E56 SWAP2 SWAP1 PUSH2 0x4002 JUMP JUMPDEST SWAP3 POP DUP3 DUP5 PUSH1 0x0 ADD DUP2 SWAP1 SSTORE POP PUSH2 0x1EB0 CALLER DUP9 DUP9 PUSH1 0x0 ADD PUSH1 0x0 SWAP1 SLOAD SWAP1 PUSH2 0x100 EXP SWAP1 DIV PUSH20 0xFFFFFFFFFFFFFFFFFFFFFFFFFFFFFFFFFFFFFFFF AND PUSH20 0xFFFFFFFFFFFFFFFFFFFFFFFFFFFFFFFFFFFFFFFF AND PUSH2 0x2A3F SWAP1 SWAP3 SWAP2 SWAP1 PUSH4 0xFFFFFFFF AND JUMP JUMPDEST JUMPDEST PUSH9 0x56BC75E2D63100000 DUP3 DUP5 PUSH2 0x1EC7 SWAP2 SWAP1 PUSH2 0x3FA8 JUMP JUMPDEST PUSH2 0x1ED1 SWAP2 SWAP1 PUSH2 0x3F77 JUMP JUMPDEST DUP5 PUSH1 0x1 ADD DUP2 SWAP1 SSTORE POP DUP8 CALLER PUSH20 0xFFFFFFFFFFFFFFFFFFFFFFFFFFFFFFFFFFFFFFFF AND PUSH32 0xBCB1B254C83676670CC415F8CE8239BB9E972244993586EF7BF282F85DDADFE0 DUP10 PUSH1 0x40 MLOAD PUSH2 0x1F20 SWAP2 SWAP1 PUSH2 0x3E74 JUMP JUMPDEST PUSH1 0x40 MLOAD DUP1 SWAP2 SUB SWAP1 LOG3 POP POP POP POP POP POP POP POP JUMP JUMPDEST PUSH1 0x0 PUSH1 0x2 DUP5 DUP2 SLOAD DUP2 LT PUSH2 0x1F48 JUMPI PUSH2 0x1F47 PUSH2 0x422E JUMP JUMPDEST JUMPDEST SWAP1 PUSH1 0x0 MSTORE PUSH1 0x20 PUSH1 0x0 KECCAK256 SWAP1 PUSH1 0x6 MUL ADD SWAP1 POP PUSH1 0x0 PUSH20 0xFFFFFFFFFFFFFFFFFFFFFFFFFFFFFFFFFFFFFFFF AND DUP2 PUSH1 0x1 ADD PUSH1 0x0 SWAP1 SLOAD SWAP1 PUSH2 0x100 EXP SWAP1 DIV PUSH20 0xFFFFFFFFFFFFFFFFFFFFFFFFFFFFFFFFFFFFFFFF AND PUSH20 0xFFFFFFFFFFFFFFFFFFFFFFFFFFFFFFFFFFFFFFFF AND EQ PUSH2 0x1FEB JUMPI PUSH1 0x40 MLOAD PUSH32 0x8C379A000000000000000000000000000000000000000000000000000000000 DUP2 MSTORE PUSH1 0x4 ADD PUSH2 0x1FE2 SWAP1 PUSH2 0x3E54 JUMP JUMPDEST PUSH1 0x40 MLOAD DUP1 SWAP2 SUB SWAP1 REVERT JUMPDEST PUSH1 0x0 PUSH1 0x3 PUSH1 0x0 DUP7 DUP2 MSTORE PUSH1 0x20 ADD SWAP1 DUP2 MSTORE PUSH1 0x20 ADD PUSH1 0x0 KECCAK256 PUSH1 0x0 DUP5 DUP2 MSTORE PUSH1 0x20 ADD SWAP1 DUP2 MSTORE PUSH1 0x20 ADD PUSH1 0x0 KECCAK256 SWAP1 POP DUP2 PUSH1 0x0 ADD PUSH1 0x14 SWAP1 SLOAD SWAP1 PUSH2 0x100 EXP SWAP1 DIV PUSH1 0xFF AND ISZERO PUSH2 0x20CE JUMPI CALLER PUSH20 0xFFFFFFFFFFFFFFFFFFFFFFFFFFFFFFFFFFFFFFFF AND DUP3 PUSH1 0x0 ADD PUSH1 0x0 SWAP1 SLOAD SWAP1 PUSH2 0x100 EXP SWAP1 DIV PUSH20 0xFFFFFFFFFFFFFFFFFFFFFFFFFFFFFFFFFFFFFFFF AND PUSH20 0xFFFFFFFFFFFFFFFFFFFFFFFFFFFFFFFFFFFFFFFF AND EQ PUSH2 0x20BC JUMPI PUSH1 0x40 MLOAD PUSH32 0x8C379A000000000000000000000000000000000000000000000000000000000 DUP2 MSTORE PUSH1 0x4 ADD PUSH2 0x20B3 SWAP1 PUSH2 0x3DD4 JUMP JUMPDEST PUSH1 0x40 MLOAD DUP1 SWAP2 SUB SWAP1 REVERT JUMPDEST PUSH2 0x20C9 DUP3 DUP3 DUP7 PUSH1 0x0 PUSH2 0x2E3A JUMP JUMPDEST PUSH2 0x214A JUMP JUMPDEST CALLER PUSH20 0xFFFFFFFFFFFFFFFFFFFFFFFFFFFFFFFFFFFFFFFF AND DUP4 PUSH20 0xFFFFFFFFFFFFFFFFFFFFFFFFFFFFFFFFFFFFFFFF AND EQ PUSH2 0x213C JUMPI PUSH1 0x40 MLOAD PUSH32 0x8C379A000000000000000000000000000000000000000000000000000000000 DUP2 MSTORE PUSH1 0x4 ADD PUSH2 0x2133 SWAP1 PUSH2 0x3E34 JUMP JUMPDEST PUSH1 0x40 MLOAD DUP1 SWAP2 SUB SWAP1 REVERT JUMPDEST PUSH2 0x2149 DUP3 DUP3 DUP7 PUSH1 0x1 PUSH2 0x2E3A JUMP JUMPDEST JUMPDEST DUP5 DUP4 PUSH32 0xA01A72713BF837059E3A668D28F0DE277FB7F24F2A4E95BF926703C95B5F12B2 DUP7 PUSH1 0x40 MLOAD PUSH2 0x217B SWAP2 SWAP1 PUSH2 0x3E74 JUMP JUMPDEST PUSH1 0x40 MLOAD DUP1 SWAP2 SUB SWAP1 LOG3 POP POP POP POP POP JUMP JUMPDEST PUSH1 0x3 PUSH1 0x20 MSTORE DUP2 PUSH1 0x0 MSTORE PUSH1 0x40 PUSH1 0x0 KECCAK256 PUSH1 0x20 MSTORE DUP1 PUSH1 0x0 MSTORE PUSH1 0x40 PUSH1 0x0 KECCAK256 PUSH1 0x0 SWAP2 POP SWAP2 POP POP DUP1 PUSH1 0x0 ADD SLOAD SWAP1 DUP1 PUSH1 0x1 ADD SLOAD SWAP1 POP DUP3 JUMP JUMPDEST PUSH1 0x4 PUSH1 0x20 MSTORE DUP1 PUSH1 0x0 MSTORE PUSH1 0x40 PUSH1 0x0 KECCAK256 PUSH1 0x0 SWAP2 POP SLOAD SWAP1 PUSH2 0x100 EXP SWAP1 DIV PUSH1 0xFF AND DUP2 JUMP JUMPDEST PUSH1 0x0 PUSH1 0x2 DUP5 DUP2 SLOAD DUP2 LT PUSH2 0x21F1 JUMPI PUSH2 0x21F0 PUSH2 0x422E JUMP JUMPDEST JUMPDEST SWAP1 PUSH1 0x0 MSTORE PUSH1 0x20 PUSH1 0x0 KECCAK256 SWAP1 PUSH1 0x6 MUL ADD SWAP1 POP PUSH1 0x0 DUP2 PUSH1 0x1 ADD PUSH1 0x0 SWAP1 SLOAD SWAP1 PUSH2 0x100 EXP SWAP1 DIV PUSH20 0xFFFFFFFFFFFFFFFFFFFFFFFFFFFFFFFFFFFFFFFF AND SWAP1 POP PUSH1 0x0 PUSH20 0xFFFFFFFFFFFFFFFFFFFFFFFFFFFFFFFFFFFFFFFF AND DUP2 PUSH20 0xFFFFFFFFFFFFFFFFFFFFFFFFFFFFFFFFFFFFFFFF AND EQ ISZERO PUSH2 0x229A JUMPI PUSH1 0x40 MLOAD PUSH32 0x8C379A000000000000000000000000000000000000000000000000000000000 DUP2 MSTORE PUSH1 0x4 ADD PUSH2 0x2291 SWAP1 PUSH2 0x3C54 JUMP JUMPDEST PUSH1 0x40 MLOAD DUP1 SWAP2 SUB SWAP1 REVERT JUMPDEST PUSH1 0x0 PUSH1 0x3 PUSH1 0x0 DUP8 DUP2 MSTORE PUSH1 0x20 ADD SWAP1 DUP2 MSTORE PUSH1 0x20 ADD PUSH1 0x0 KECCAK256 PUSH1 0x0 CALLER PUSH20 0xFFFFFFFFFFFFFFFFFFFFFFFFFFFFFFFFFFFFFFFF AND DUP2 MSTORE PUSH1 0x20 ADD SWAP1 DUP2 MSTORE PUSH1 0x20 ADD PUSH1 0x0 KECCAK256 SWAP1 POP PUSH2 0x22E1 DUP4 PUSH2 0x2AC5 JUMP JUMPDEST PUSH1 0x0 DUP4 PUSH1 0x4 ADD SLOAD SWAP1 POP PUSH1 0x0 DUP3 PUSH1 0x0 ADD SLOAD SWAP1 POP PUSH1 0x0 DUP2 GT ISZERO PUSH2 0x240C JUMPI PUSH1 0x0 DUP4 PUSH1 0x1 ADD SLOAD PUSH9 0x56BC75E2D63100000 DUP5 DUP5 PUSH2 0x2319 SWAP2 SWAP1 PUSH2 0x3FA8 JUMP JUMPDEST PUSH2 0x2323 SWAP2 SWAP1 PUSH2 0x3F77 JUMP JUMPDEST PUSH2 0x232D SWAP2 SWAP1 PUSH2 0x4002 JUMP JUMPDEST SWAP1 POP PUSH1 0x0 DUP2 GT ISZERO PUSH2 0x240A JUMPI PUSH1 0x0 DUP1 DUP7 PUSH20 0xFFFFFFFFFFFFFFFFFFFFFFFFFFFFFFFFFFFFFFFF AND PUSH4 0x3273BC7 DUP5 CALLER DUP12 PUSH1 0x1 ADD PUSH1 0x14 SWAP1 SLOAD SWAP1 PUSH2 0x100 EXP SWAP1 DIV PUSH1 0xFF AND PUSH1 0x40 MLOAD DUP5 PUSH4 0xFFFFFFFF AND PUSH1 0xE0 SHL DUP2 MSTORE PUSH1 0x4 ADD PUSH2 0x2389 SWAP4 SWAP3 SWAP2 SWAP1 PUSH2 0x3E8F JUMP JUMPDEST PUSH1 0x40 DUP1 MLOAD DUP1 DUP4 SUB DUP2 PUSH1 0x0 DUP8 DUP1 EXTCODESIZE ISZERO DUP1 ISZERO PUSH2 0x23A2 JUMPI PUSH1 0x0 DUP1 REVERT JUMPDEST POP GAS CALL ISZERO DUP1 ISZERO PUSH2 0x23B6 JUMPI RETURNDATASIZE PUSH1 0x0 DUP1 RETURNDATACOPY RETURNDATASIZE PUSH1 0x0 REVERT JUMPDEST POP POP POP POP PUSH1 0x40 MLOAD RETURNDATASIZE PUSH1 0x1F NOT PUSH1 0x1F DUP3 ADD AND DUP3 ADD DUP1 PUSH1 0x40 MSTORE POP DUP2 ADD SWAP1 PUSH2 0x23DA SWAP2 SWAP1 PUSH2 0x343A JUMP JUMPDEST SWAP2 POP SWAP2 POP PUSH1 0x0 DUP2 GT ISZERO PUSH2 0x23F2 JUMPI PUSH2 0x23F1 DUP3 DUP3 PUSH2 0x2C1E JUMP JUMPDEST JUMPDEST PUSH2 0x2407 CALLER DUP3 DUP6 PUSH2 0x2402 SWAP2 SWAP1 PUSH2 0x4002 JUMP JUMPDEST PUSH2 0x2C1E JUMP JUMPDEST POP POP JUMPDEST POP JUMPDEST PUSH1 0x0 DUP8 GT ISZERO PUSH2 0x2584 JUMPI PUSH1 0x0 DUP2 EQ ISZERO PUSH2 0x2492 JUMPI DUP4 PUSH20 0xFFFFFFFFFFFFFFFFFFFFFFFFFFFFFFFFFFFFFFFF AND PUSH4 0xB252144A CALLER DUP9 DUP11 PUSH1 0x40 MLOAD DUP5 PUSH4 0xFFFFFFFF AND PUSH1 0xE0 SHL DUP2 MSTORE PUSH1 0x4 ADD PUSH2 0x245B SWAP4 SWAP3 SWAP2 SWAP1 PUSH2 0x3B8A JUMP JUMPDEST PUSH1 0x0 PUSH1 0x40 MLOAD DUP1 DUP4 SUB DUP2 PUSH1 0x0 DUP8 DUP1 EXTCODESIZE ISZERO DUP1 ISZERO PUSH2 0x2475 JUMPI PUSH1 0x0 DUP1 REVERT JUMPDEST POP GAS CALL ISZERO DUP1 ISZERO PUSH2 0x2489 JUMPI RETURNDATASIZE PUSH1 0x0 DUP1 RETURNDATACOPY RETURNDATASIZE PUSH1 0x0 REVERT JUMPDEST POP POP POP POP PUSH2 0x2500 JUMP JUMPDEST DUP4 PUSH20 0xFFFFFFFFFFFFFFFFFFFFFFFFFFFFFFFFFFFFFFFF AND PUSH4 0xDDFEACCA CALLER DUP10 PUSH1 0x40 MLOAD DUP4 PUSH4 0xFFFFFFFF AND PUSH1 0xE0 SHL DUP2 MSTORE PUSH1 0x4 ADD PUSH2 0x24CD SWAP3 SWAP2 SWAP1 PUSH2 0x3B38 JUMP JUMPDEST PUSH1 0x0 PUSH1 0x40 MLOAD DUP1 DUP4 SUB DUP2 PUSH1 0x0 DUP8 DUP1 EXTCODESIZE ISZERO DUP1 ISZERO PUSH2 0x24E7 JUMPI PUSH1 0x0 DUP1 REVERT JUMPDEST POP GAS CALL ISZERO DUP1 ISZERO PUSH2 0x24FB JUMPI RETURNDATASIZE PUSH1 0x0 DUP1 RETURNDATACOPY RETURNDATASIZE PUSH1 0x0 REVERT JUMPDEST POP POP POP POP JUMPDEST PUSH2 0x2551 CALLER ADDRESS DUP10 DUP9 PUSH1 0x0 ADD PUSH1 0x0 SWAP1 SLOAD SWAP1 PUSH2 0x100 EXP SWAP1 DIV PUSH20 0xFFFFFFFFFFFFFFFFFFFFFFFFFFFFFFFFFFFFFFFF AND PUSH20 0xFFFFFFFFFFFFFFFFFFFFFFFFFFFFFFFFFFFFFFFF AND PUSH2 0x2FA2 SWAP1 SWAP4 SWAP3 SWAP2 SWAP1 PUSH4 0xFFFFFFFF AND JUMP JUMPDEST DUP7 DUP6 PUSH1 0x5 ADD PUSH1 0x0 DUP3 DUP3 SLOAD PUSH2 0x2565 SWAP2 SWAP1 PUSH2 0x3F21 JUMP JUMPDEST SWAP3 POP POP DUP2 SWAP1 SSTORE POP DUP7 DUP2 PUSH2 0x2578 SWAP2 SWAP1 PUSH2 0x3F21 JUMP JUMPDEST SWAP1 POP DUP1 DUP4 PUSH1 0x0 ADD DUP2 SWAP1 SSTORE POP JUMPDEST PUSH9 0x56BC75E2D63100000 DUP3 DUP3 PUSH2 0x259A SWAP2 SWAP1 PUSH2 0x3FA8 JUMP JUMPDEST PUSH2 0x25A4 SWAP2 SWAP1 PUSH2 0x3F77 JUMP JUMPDEST DUP4 PUSH1 0x1 ADD DUP2 SWAP1 SSTORE POP DUP8 CALLER PUSH20 0xFFFFFFFFFFFFFFFFFFFFFFFFFFFFFFFFFFFFFFFF AND PUSH32 0x3391B7506551053A045B28B04BA34ACFAB377A47E91DB9F4A46D8AC01ACAC14F DUP10 PUSH1 0x40 MLOAD PUSH2 0x25F3 SWAP2 SWAP1 PUSH2 0x3E74 JUMP JUMPDEST PUSH1 0x40 MLOAD DUP1 SWAP2 SUB SWAP1 LOG3 POP POP POP POP POP POP POP POP JUMP JUMPDEST PUSH2 0x260D PUSH2 0x29E3 JUMP JUMPDEST PUSH20 0xFFFFFFFFFFFFFFFFFFFFFFFFFFFFFFFFFFFFFFFF AND PUSH2 0x262B PUSH2 0x1AF8 JUMP JUMPDEST PUSH20 0xFFFFFFFFFFFFFFFFFFFFFFFFFFFFFFFFFFFFFFFF AND EQ PUSH2 0x2681 JUMPI PUSH1 0x40 MLOAD PUSH32 0x8C379A000000000000000000000000000000000000000000000000000000000 DUP2 MSTORE PUSH1 0x4 ADD PUSH2 0x2678 SWAP1 PUSH2 0x3D34 JUMP JUMPDEST PUSH1 0x40 MLOAD DUP1 SWAP2 SUB SWAP1 REVERT JUMPDEST PUSH1 0x0 PUSH20 0xFFFFFFFFFFFFFFFFFFFFFFFFFFFFFFFFFFFFFFFF AND DUP2 PUSH20 0xFFFFFFFFFFFFFFFFFFFFFFFFFFFFFFFFFFFFFFFF AND EQ ISZERO PUSH2 0x26F1 JUMPI PUSH1 0x40 MLOAD PUSH32 0x8C379A000000000000000000000000000000000000000000000000000000000 DUP2 MSTORE PUSH1 0x4 ADD PUSH2 0x26E8 SWAP1 PUSH2 0x3C34 JUMP JUMPDEST PUSH1 0x40 MLOAD DUP1 SWAP2 SUB SWAP1 REVERT JUMPDEST DUP1 PUSH20 0xFFFFFFFFFFFFFFFFFFFFFFFFFFFFFFFFFFFFFFFF AND PUSH1 0x0 DUP1 SLOAD SWAP1 PUSH2 0x100 EXP SWAP1 DIV PUSH20 0xFFFFFFFFFFFFFFFFFFFFFFFFFFFFFFFFFFFFFFFF AND PUSH20 0xFFFFFFFFFFFFFFFFFFFFFFFFFFFFFFFFFFFFFFFF AND PUSH32 0x8BE0079C531659141344CD1FD0A4F28419497F9722A3DAAFE3B4186F6B6457E0 PUSH1 0x40 MLOAD PUSH1 0x40 MLOAD DUP1 SWAP2 SUB SWAP1 LOG3 DUP1 PUSH1 0x0 DUP1 PUSH2 0x100 EXP DUP2 SLOAD DUP2 PUSH20 0xFFFFFFFFFFFFFFFFFFFFFFFFFFFFFFFFFFFFFFFF MUL NOT AND SWAP1 DUP4 PUSH20 0xFFFFFFFFFFFFFFFFFFFFFFFFFFFFFFFFFFFFFFFF AND MUL OR SWAP1 SSTORE POP POP JUMP JUMPDEST PUSH2 0x27B6 PUSH2 0x29E3 JUMP JUMPDEST PUSH20 0xFFFFFFFFFFFFFFFFFFFFFFFFFFFFFFFFFFFFFFFF AND PUSH2 0x27D4 PUSH2 0x1AF8 JUMP JUMPDEST PUSH20 0xFFFFFFFFFFFFFFFFFFFFFFFFFFFFFFFFFFFFFFFF AND EQ PUSH2 0x282A JUMPI PUSH1 0x40 MLOAD PUSH32 0x8C379A000000000000000000000000000000000000000000000000000000000 DUP2 MSTORE PUSH1 0x4 ADD PUSH2 0x2821 SWAP1 PUSH2 0x3D34 JUMP JUMPDEST PUSH1 0x40 MLOAD DUP1 SWAP2 SUB SWAP1 REVERT JUMPDEST DUP1 PUSH1 0x1 PUSH1 0x0 PUSH2 0x100 EXP DUP2 SLOAD DUP2 PUSH20 0xFFFFFFFFFFFFFFFFFFFFFFFFFFFFFFFFFFFFFFFF MUL NOT AND SWAP1 DUP4 PUSH20 0xFFFFFFFFFFFFFFFFFFFFFFFFFFFFFFFFFFFFFFFF AND MUL OR SWAP1 SSTORE POP PUSH32 0x65FC3B77C68C383644C8D30A3E1F0DF39D6F0DDC721ADC950902574D599622B DUP2 PUSH1 0x40 MLOAD PUSH2 0x289A SWAP2 SWAP1 PUSH2 0x39B4 JUMP JUMPDEST PUSH1 0x40 MLOAD DUP1 SWAP2 SUB SWAP1 LOG1 POP JUMP JUMPDEST PUSH1 0x0 PUSH1 0x2 DUP1 SLOAD SWAP1 POP SWAP1 POP SWAP1 JUMP JUMPDEST PUSH2 0x28BB DUP5 PUSH2 0x2AC5 JUMP JUMPDEST PUSH1 0x0 DUP5 PUSH1 0x4 ADD SLOAD SWAP1 POP PUSH1 0x0 DUP5 PUSH1 0x0 ADD SLOAD SWAP1 POP PUSH1 0x0 DUP2 GT ISZERO PUSH2 0x291F JUMPI PUSH1 0x0 DUP6 PUSH1 0x1 ADD SLOAD PUSH9 0x56BC75E2D63100000 DUP5 DUP5 PUSH2 0x28F3 SWAP2 SWAP1 PUSH2 0x3FA8 JUMP JUMPDEST PUSH2 0x28FD SWAP2 SWAP1 PUSH2 0x3F77 JUMP JUMPDEST PUSH2 0x2907 SWAP2 SWAP1 PUSH2 0x4002 JUMP JUMPDEST SWAP1 POP PUSH1 0x0 DUP2 GT ISZERO PUSH2 0x291D JUMPI PUSH2 0x291C CALLER DUP3 PUSH2 0x2C1E JUMP JUMPDEST JUMPDEST POP JUMPDEST PUSH1 0x0 DUP5 GT ISZERO PUSH2 0x29B3 JUMPI DUP3 ISZERO PUSH2 0x2980 JUMPI PUSH2 0x297F CALLER ADDRESS DUP7 DUP10 PUSH1 0x0 ADD PUSH1 0x0 SWAP1 SLOAD SWAP1 PUSH2 0x100 EXP SWAP1 DIV PUSH20 0xFFFFFFFFFFFFFFFFFFFFFFFFFFFFFFFFFFFFFFFF AND PUSH20 0xFFFFFFFFFFFFFFFFFFFFFFFFFFFFFFFFFFFFFFFF AND PUSH2 0x2FA2 SWAP1 SWAP4 SWAP3 SWAP2 SWAP1 PUSH4 0xFFFFFFFF AND JUMP JUMPDEST JUMPDEST DUP4 DUP7 PUSH1 0x5 ADD PUSH1 0x0 DUP3 DUP3 SLOAD PUSH2 0x2994 SWAP2 SWAP1 PUSH2 0x3F21 JUMP JUMPDEST SWAP3 POP POP DUP2 SWAP1 SSTORE POP DUP4 DUP2 PUSH2 0x29A7 SWAP2 SWAP1 PUSH2 0x3F21 JUMP JUMPDEST SWAP1 POP DUP1 DUP6 PUSH1 0x0 ADD DUP2 SWAP1 SSTORE POP JUMPDEST PUSH9 0x56BC75E2D63100000 DUP3 DUP3 PUSH2 0x29C9 SWAP2 SWAP1 PUSH2 0x3FA8 JUMP JUMPDEST PUSH2 0x29D3 SWAP2 SWAP1 PUSH2 0x3F77 JUMP JUMPDEST DUP6 PUSH1 0x1 ADD DUP2 SWAP1 SSTORE POP POP POP POP POP POP POP JUMP JUMPDEST PUSH1 0x0 CALLER SWAP1 POP SWAP1 JUMP JUMPDEST PUSH1 0x0 PUSH1 0x2 DUP1 SLOAD SWAP1 POP SWAP1 POP PUSH1 0x0 JUMPDEST DUP2 DUP2 LT ISZERO PUSH2 0x2A3B JUMPI PUSH2 0x2A2A PUSH1 0x2 DUP3 DUP2 SLOAD DUP2 LT PUSH2 0x2A17 JUMPI PUSH2 0x2A16 PUSH2 0x422E JUMP JUMPDEST JUMPDEST SWAP1 PUSH1 0x0 MSTORE PUSH1 0x20 PUSH1 0x0 KECCAK256 SWAP1 PUSH1 0x6 MUL ADD PUSH2 0x2AC5 JUMP JUMPDEST DUP1 PUSH2 0x2A34 SWAP1 PUSH2 0x413E JUMP JUMPDEST SWAP1 POP PUSH2 0x29F8 JUMP JUMPDEST POP POP JUMP JUMPDEST PUSH2 0x2AC0 DUP4 PUSH4 0xA9059CBB PUSH1 0xE0 SHL DUP5 DUP5 PUSH1 0x40 MLOAD PUSH1 0x24 ADD PUSH2 0x2A5E SWAP3 SWAP2 SWAP1 PUSH2 0x3B61 JUMP JUMPDEST PUSH1 0x40 MLOAD PUSH1 0x20 DUP2 DUP4 SUB SUB DUP2 MSTORE SWAP1 PUSH1 0x40 MSTORE SWAP1 PUSH28 0xFFFFFFFFFFFFFFFFFFFFFFFFFFFFFFFFFFFFFFFFFFFFFFFFFFFFFFFF NOT AND PUSH1 0x20 DUP3 ADD DUP1 MLOAD PUSH28 0xFFFFFFFFFFFFFFFFFFFFFFFFFFFFFFFFFFFFFFFFFFFFFFFFFFFFFFFF DUP4 DUP2 DUP4 AND OR DUP4 MSTORE POP POP POP POP PUSH2 0x302B JUMP JUMPDEST POP POP POP JUMP JUMPDEST PUSH1 0x0 DUP2 PUSH1 0x3 ADD SLOAD SWAP1 POP DUP1 NUMBER GT PUSH2 0x2ADB JUMPI POP PUSH2 0x2C1B JUMP JUMPDEST PUSH1 0x0 DUP3 PUSH1 0x5 ADD SLOAD SWAP1 POP PUSH1 0x0 DUP2 EQ DUP1 PUSH2 0x2AF7 JUMPI POP PUSH1 0x0 DUP4 PUSH1 0x2 ADD SLOAD EQ JUMPDEST ISZERO PUSH2 0x2B0C JUMPI NUMBER DUP4 PUSH1 0x3 ADD DUP2 SWAP1 SSTORE POP POP POP PUSH2 0x2C1B JUMP JUMPDEST PUSH1 0x0 PUSH1 0x5 SLOAD DUP5 PUSH1 0x2 ADD SLOAD PUSH2 0x2B1E PUSH2 0x1960 JUMP JUMPDEST DUP6 NUMBER PUSH2 0x2B2A SWAP2 SWAP1 PUSH2 0x4002 JUMP JUMPDEST PUSH2 0x2B34 SWAP2 SWAP1 PUSH2 0x3FA8 JUMP JUMPDEST PUSH2 0x2B3E SWAP2 SWAP1 PUSH2 0x3FA8 JUMP JUMPDEST PUSH2 0x2B48 SWAP2 SWAP1 PUSH2 0x3F77 JUMP JUMPDEST SWAP1 POP PUSH32 0x0 PUSH20 0xFFFFFFFFFFFFFFFFFFFFFFFFFFFFFFFFFFFFFFFF AND PUSH4 0x40C10F19 ADDRESS DUP4 PUSH1 0x40 MLOAD DUP4 PUSH4 0xFFFFFFFF AND PUSH1 0xE0 SHL DUP2 MSTORE PUSH1 0x4 ADD PUSH2 0x2BA5 SWAP3 SWAP2 SWAP1 PUSH2 0x3B61 JUMP JUMPDEST PUSH1 0x0 PUSH1 0x40 MLOAD DUP1 DUP4 SUB DUP2 PUSH1 0x0 DUP8 DUP1 EXTCODESIZE ISZERO DUP1 ISZERO PUSH2 0x2BBF JUMPI PUSH1 0x0 DUP1 REVERT JUMPDEST POP GAS CALL ISZERO DUP1 ISZERO PUSH2 0x2BD3 JUMPI RETURNDATASIZE PUSH1 0x0 DUP1 RETURNDATACOPY RETURNDATASIZE PUSH1 0x0 REVERT JUMPDEST POP POP POP POP DUP2 PUSH9 0x56BC75E2D63100000 DUP3 PUSH2 0x2BED SWAP2 SWAP1 PUSH2 0x3FA8 JUMP JUMPDEST PUSH2 0x2BF7 SWAP2 SWAP1 PUSH2 0x3F77 JUMP JUMPDEST DUP5 PUSH1 0x4 ADD SLOAD PUSH2 0x2C06 SWAP2 SWAP1 PUSH2 0x3F21 JUMP JUMPDEST DUP5 PUSH1 0x4 ADD DUP2 SWAP1 SSTORE POP NUMBER DUP5 PUSH1 0x3 ADD DUP2 SWAP1 SSTORE POP POP POP POP JUMPDEST POP JUMP JUMPDEST PUSH1 0x0 PUSH32 0x0 PUSH20 0xFFFFFFFFFFFFFFFFFFFFFFFFFFFFFFFFFFFFFFFF AND PUSH4 0x70A08231 ADDRESS PUSH1 0x40 MLOAD DUP3 PUSH4 0xFFFFFFFF AND PUSH1 0xE0 SHL DUP2 MSTORE PUSH1 0x4 ADD PUSH2 0x2C79 SWAP2 SWAP1 PUSH2 0x39B4 JUMP JUMPDEST PUSH1 0x20 PUSH1 0x40 MLOAD DUP1 DUP4 SUB DUP2 DUP7 DUP1 EXTCODESIZE ISZERO DUP1 ISZERO PUSH2 0x2C91 JUMPI PUSH1 0x0 DUP1 REVERT JUMPDEST POP GAS STATICCALL ISZERO DUP1 ISZERO PUSH2 0x2CA5 JUMPI RETURNDATASIZE PUSH1 0x0 DUP1 RETURNDATACOPY RETURNDATASIZE PUSH1 0x0 REVERT JUMPDEST POP POP POP POP PUSH1 0x40 MLOAD RETURNDATASIZE PUSH1 0x1F NOT PUSH1 0x1F DUP3 ADD AND DUP3 ADD DUP1 PUSH1 0x40 MSTORE POP DUP2 ADD SWAP1 PUSH2 0x2CC9 SWAP2 SWAP1 PUSH2 0x34D4 JUMP JUMPDEST SWAP1 POP DUP1 DUP3 GT ISZERO PUSH2 0x2D86 JUMPI PUSH32 0x0 PUSH20 0xFFFFFFFFFFFFFFFFFFFFFFFFFFFFFFFFFFFFFFFF AND PUSH4 0xA9059CBB DUP5 DUP4 PUSH1 0x40 MLOAD DUP4 PUSH4 0xFFFFFFFF AND PUSH1 0xE0 SHL DUP2 MSTORE PUSH1 0x4 ADD PUSH2 0x2D2E SWAP3 SWAP2 SWAP1 PUSH2 0x3B61 JUMP JUMPDEST PUSH1 0x20 PUSH1 0x40 MLOAD DUP1 DUP4 SUB DUP2 PUSH1 0x0 DUP8 DUP1 EXTCODESIZE ISZERO DUP1 ISZERO PUSH2 0x2D48 JUMPI PUSH1 0x0 DUP1 REVERT JUMPDEST POP GAS CALL ISZERO DUP1 ISZERO PUSH2 0x2D5C JUMPI RETURNDATASIZE PUSH1 0x0 DUP1 RETURNDATACOPY RETURNDATASIZE PUSH1 0x0 REVERT JUMPDEST POP POP POP POP PUSH1 0x40 MLOAD RETURNDATASIZE PUSH1 0x1F NOT PUSH1 0x1F DUP3 ADD AND DUP3 ADD DUP1 PUSH1 0x40 MSTORE POP DUP2 ADD SWAP1 PUSH2 0x2D80 SWAP2 SWAP1 PUSH2 0x347A JUMP JUMPDEST POP PUSH2 0x2E35 JUMP JUMPDEST PUSH32 0x0 PUSH20 0xFFFFFFFFFFFFFFFFFFFFFFFFFFFFFFFFFFFFFFFF AND PUSH4 0xA9059CBB DUP5 DUP5 PUSH1 0x40 MLOAD DUP4 PUSH4 0xFFFFFFFF AND PUSH1 0xE0 SHL DUP2 MSTORE PUSH1 0x4 ADD PUSH2 0x2DE1 SWAP3 SWAP2 SWAP1 PUSH2 0x3B61 JUMP JUMPDEST PUSH1 0x20 PUSH1 0x40 MLOAD DUP1 DUP4 SUB DUP2 PUSH1 0x0 DUP8 DUP1 EXTCODESIZE ISZERO DUP1 ISZERO PUSH2 0x2DFB JUMPI PUSH1 0x0 DUP1 REVERT JUMPDEST POP GAS CALL ISZERO DUP1 ISZERO PUSH2 0x2E0F JUMPI RETURNDATASIZE PUSH1 0x0 DUP1 RETURNDATACOPY RETURNDATASIZE PUSH1 0x0 REVERT JUMPDEST POP POP POP POP PUSH1 0x40 MLOAD RETURNDATASIZE PUSH1 0x1F NOT PUSH1 0x1F DUP3 ADD AND DUP3 ADD DUP1 PUSH1 0x40 MSTORE POP DUP2 ADD SWAP1 PUSH2 0x2E33 SWAP2 SWAP1 PUSH2 0x347A JUMP JUMPDEST POP JUMPDEST POP POP POP JUMP JUMPDEST PUSH1 0x0 DUP4 PUSH1 0x0 ADD SLOAD SWAP1 POP DUP3 DUP2 LT ISZERO PUSH2 0x2E86 JUMPI PUSH1 0x40 MLOAD PUSH32 0x8C379A000000000000000000000000000000000000000000000000000000000 DUP2 MSTORE PUSH1 0x4 ADD PUSH2 0x2E7D SWAP1 PUSH2 0x3D54 JUMP JUMPDEST PUSH1 0x40 MLOAD DUP1 SWAP2 SUB SWAP1 REVERT JUMPDEST PUSH2 0x2E8F DUP6 PUSH2 0x2AC5 JUMP JUMPDEST PUSH1 0x0 DUP6 PUSH1 0x4 ADD SLOAD SWAP1 POP PUSH1 0x0 DUP6 PUSH1 0x1 ADD SLOAD PUSH9 0x56BC75E2D63100000 DUP4 DUP6 PUSH2 0x2EB5 SWAP2 SWAP1 PUSH2 0x3FA8 JUMP JUMPDEST PUSH2 0x2EBF SWAP2 SWAP1 PUSH2 0x3F77 JUMP JUMPDEST PUSH2 0x2EC9 SWAP2 SWAP1 PUSH2 0x4002 JUMP JUMPDEST SWAP1 POP PUSH1 0x0 DUP2 GT ISZERO PUSH2 0x2EDF JUMPI PUSH2 0x2EDE CALLER DUP3 PUSH2 0x2C1E JUMP JUMPDEST JUMPDEST PUSH1 0x0 DUP6 GT ISZERO PUSH2 0x2F71 JUMPI DUP5 DUP8 PUSH1 0x5 ADD PUSH1 0x0 DUP3 DUP3 SLOAD PUSH2 0x2EFC SWAP2 SWAP1 PUSH2 0x4002 JUMP JUMPDEST SWAP3 POP POP DUP2 SWAP1 SSTORE POP DUP5 DUP4 PUSH2 0x2F0F SWAP2 SWAP1 PUSH2 0x4002 JUMP JUMPDEST SWAP3 POP DUP3 DUP7 PUSH1 0x0 ADD DUP2 SWAP1 SSTORE POP DUP4 ISZERO PUSH2 0x2F70 JUMPI PUSH2 0x2F6F CALLER DUP7 DUP10 PUSH1 0x0 ADD PUSH1 0x0 SWAP1 SLOAD SWAP1 PUSH2 0x100 EXP SWAP1 DIV PUSH20 0xFFFFFFFFFFFFFFFFFFFFFFFFFFFFFFFFFFFFFFFF AND PUSH20 0xFFFFFFFFFFFFFFFFFFFFFFFFFFFFFFFFFFFFFFFF AND PUSH2 0x2A3F SWAP1 SWAP3 SWAP2 SWAP1 PUSH4 0xFFFFFFFF AND JUMP JUMPDEST JUMPDEST JUMPDEST PUSH9 0x56BC75E2D63100000 DUP3 DUP5 PUSH2 0x2F87 SWAP2 SWAP1 PUSH2 0x3FA8 JUMP JUMPDEST PUSH2 0x2F91 SWAP2 SWAP1 PUSH2 0x3F77 JUMP JUMPDEST DUP7 PUSH1 0x1 ADD DUP2 SWAP1 SSTORE POP POP POP POP POP POP POP POP JUMP JUMPDEST PUSH2 0x3025 DUP5 PUSH4 0x23B872DD PUSH1 0xE0 SHL DUP6 DUP6 DUP6 PUSH1 0x40 MLOAD PUSH1 0x24 ADD PUSH2 0x2FC3 SWAP4 SWAP3 SWAP2 SWAP1 PUSH2 0x39CF JUMP JUMPDEST PUSH1 0x40 MLOAD PUSH1 0x20 DUP2 DUP4 SUB SUB DUP2 MSTORE SWAP1 PUSH1 0x40 MSTORE SWAP1 PUSH28 0xFFFFFFFFFFFFFFFFFFFFFFFFFFFFFFFFFFFFFFFFFFFFFFFFFFFFFFFF NOT AND PUSH1 0x20 DUP3 ADD DUP1 MLOAD PUSH28 0xFFFFFFFFFFFFFFFFFFFFFFFFFFFFFFFFFFFFFFFFFFFFFFFFFFFFFFFF DUP4 DUP2 DUP4 AND OR DUP4 MSTORE POP POP POP POP PUSH2 0x302B JUMP JUMPDEST POP POP POP POP JUMP JUMPDEST PUSH1 0x0 PUSH2 0x308D DUP3 PUSH1 0x40 MLOAD DUP1 PUSH1 0x40 ADD PUSH1 0x40 MSTORE DUP1 PUSH1 0x20 DUP2 MSTORE PUSH1 0x20 ADD PUSH32 0x5361666545524332303A206C6F772D6C6576656C2063616C6C206661696C6564 DUP2 MSTORE POP DUP6 PUSH20 0xFFFFFFFFFFFFFFFFFFFFFFFFFFFFFFFFFFFFFFFF AND PUSH2 0x30F2 SWAP1 SWAP3 SWAP2 SWAP1 PUSH4 0xFFFFFFFF AND JUMP JUMPDEST SWAP1 POP PUSH1 0x0 DUP2 MLOAD GT ISZERO PUSH2 0x30ED JUMPI DUP1 DUP1 PUSH1 0x20 ADD SWAP1 MLOAD DUP2 ADD SWAP1 PUSH2 0x30AD SWAP2 SWAP1 PUSH2 0x347A JUMP JUMPDEST PUSH2 0x30EC JUMPI PUSH1 0x40 MLOAD PUSH32 0x8C379A000000000000000000000000000000000000000000000000000000000 DUP2 MSTORE PUSH1 0x4 ADD PUSH2 0x30E3 SWAP1 PUSH2 0x3DB4 JUMP JUMPDEST PUSH1 0x40 MLOAD DUP1 SWAP2 SUB SWAP1 REVERT JUMPDEST JUMPDEST POP POP POP JUMP JUMPDEST PUSH1 0x60 PUSH2 0x3101 DUP5 DUP5 PUSH1 0x0 DUP6 PUSH2 0x310A JUMP JUMPDEST SWAP1 POP SWAP4 SWAP3 POP POP POP JUMP JUMPDEST PUSH1 0x60 DUP3 SELFBALANCE LT ISZERO PUSH2 0x314F JUMPI PUSH1 0x40 MLOAD PUSH32 0x8C379A000000000000000000000000000000000000000000000000000000000 DUP2 MSTORE PUSH1 0x4 ADD PUSH2 0x3146 SWAP1 PUSH2 0x3C94 JUMP JUMPDEST PUSH1 0x40 MLOAD DUP1 SWAP2 SUB SWAP1 REVERT JUMPDEST PUSH2 0x3158 DUP6 PUSH2 0x321E JUMP JUMPDEST PUSH2 0x3197 JUMPI PUSH1 0x40 MLOAD PUSH32 0x8C379A000000000000000000000000000000000000000000000000000000000 DUP2 MSTORE PUSH1 0x4 ADD PUSH2 0x318E SWAP1 PUSH2 0x3D94 JUMP JUMPDEST PUSH1 0x40 MLOAD DUP1 SWAP2 SUB SWAP1 REVERT JUMPDEST PUSH1 0x0 DUP1 DUP7 PUSH20 0xFFFFFFFFFFFFFFFFFFFFFFFFFFFFFFFFFFFFFFFF AND DUP6 DUP8 PUSH1 0x40 MLOAD PUSH2 0x31C0 SWAP2 SWAP1 PUSH2 0x399D JUMP JUMPDEST PUSH1 0x0 PUSH1 0x40 MLOAD DUP1 DUP4 SUB DUP2 DUP6 DUP8 GAS CALL SWAP3 POP POP POP RETURNDATASIZE DUP1 PUSH1 0x0 DUP2 EQ PUSH2 0x31FD JUMPI PUSH1 0x40 MLOAD SWAP2 POP PUSH1 0x1F NOT PUSH1 0x3F RETURNDATASIZE ADD AND DUP3 ADD PUSH1 0x40 MSTORE RETURNDATASIZE DUP3 MSTORE RETURNDATASIZE PUSH1 0x0 PUSH1 0x20 DUP5 ADD RETURNDATACOPY PUSH2 0x3202 JUMP JUMPDEST PUSH1 0x60 SWAP2 POP JUMPDEST POP SWAP2 POP SWAP2 POP PUSH2 0x3212 DUP3 DUP3 DUP7 PUSH2 0x3231 JUMP JUMPDEST SWAP3 POP POP POP SWAP5 SWAP4 POP POP POP POP JUMP JUMPDEST PUSH1 0x0 DUP1 DUP3 EXTCODESIZE SWAP1 POP PUSH1 0x0 DUP2 GT SWAP2 POP POP SWAP2 SWAP1 POP JUMP JUMPDEST PUSH1 0x60 DUP4 ISZERO PUSH2 0x3241 JUMPI DUP3 SWAP1 POP PUSH2 0x3291 JUMP JUMPDEST PUSH1 0x0 DUP4 MLOAD GT ISZERO PUSH2 0x3254 JUMPI DUP3 MLOAD DUP1 DUP5 PUSH1 0x20 ADD REVERT JUMPDEST DUP2 PUSH1 0x40 MLOAD PUSH32 0x8C379A000000000000000000000000000000000000000000000000000000000 DUP2 MSTORE PUSH1 0x4 ADD PUSH2 0x3288 SWAP2 SWAP1 PUSH2 0x3C12 JUMP JUMPDEST PUSH1 0x40 MLOAD DUP1 SWAP2 SUB SWAP1 REVERT JUMPDEST SWAP4 SWAP3 POP POP POP JUMP JUMPDEST PUSH1 0x0 DUP2 CALLDATALOAD SWAP1 POP PUSH2 0x32A7 DUP2 PUSH2 0x46AB JUMP JUMPDEST SWAP3 SWAP2 POP POP JUMP JUMPDEST PUSH1 0x0 DUP2 MLOAD SWAP1 POP PUSH2 0x32BC DUP2 PUSH2 0x46AB JUMP JUMPDEST SWAP3 SWAP2 POP POP JUMP JUMPDEST PUSH1 0x0 DUP2 CALLDATALOAD SWAP1 POP PUSH2 0x32D1 DUP2 PUSH2 0x46C2 JUMP JUMPDEST SWAP3 SWAP2 POP POP JUMP JUMPDEST PUSH1 0x0 DUP2 MLOAD SWAP1 POP PUSH2 0x32E6 DUP2 PUSH2 0x46C2 JUMP JUMPDEST SWAP3 SWAP2 POP POP JUMP JUMPDEST PUSH1 0x0 DUP2 CALLDATALOAD SWAP1 POP PUSH2 0x32FB DUP2 PUSH2 0x46D9 JUMP JUMPDEST SWAP3 SWAP2 POP POP JUMP JUMPDEST PUSH1 0x0 DUP2 CALLDATALOAD SWAP1 POP PUSH2 0x3310 DUP2 PUSH2 0x46F0 JUMP JUMPDEST SWAP3 SWAP2 POP POP JUMP JUMPDEST PUSH1 0x0 DUP2 MLOAD SWAP1 POP PUSH2 0x3325 DUP2 PUSH2 0x46F0 JUMP JUMPDEST SWAP3 SWAP2 POP POP JUMP JUMPDEST PUSH1 0x0 DUP2 CALLDATALOAD SWAP1 POP PUSH2 0x333A DUP2 PUSH2 0x4707 JUMP JUMPDEST SWAP3 SWAP2 POP POP JUMP JUMPDEST PUSH1 0x0 PUSH1 0x20 DUP3 DUP5 SUB SLT ISZERO PUSH2 0x3356 JUMPI PUSH2 0x3355 PUSH2 0x425D JUMP JUMPDEST JUMPDEST PUSH1 0x0 PUSH2 0x3364 DUP5 DUP3 DUP6 ADD PUSH2 0x3298 JUMP JUMPDEST SWAP2 POP POP SWAP3 SWAP2 POP POP JUMP JUMPDEST PUSH1 0x0 DUP1 PUSH1 0x0 DUP1 PUSH1 0x0 DUP1 PUSH1 0xC0 DUP8 DUP10 SUB SLT ISZERO PUSH2 0x338A JUMPI PUSH2 0x3389 PUSH2 0x425D JUMP JUMPDEST JUMPDEST PUSH1 0x0 PUSH2 0x3398 DUP10 DUP3 DUP11 ADD PUSH2 0x3298 JUMP JUMPDEST SWAP7 POP POP PUSH1 0x20 PUSH2 0x33A9 DUP10 DUP3 DUP11 ADD PUSH2 0x32C2 JUMP JUMPDEST SWAP6 POP POP PUSH1 0x40 PUSH2 0x33BA DUP10 DUP3 DUP11 ADD PUSH2 0x32C2 JUMP JUMPDEST SWAP5 POP POP PUSH1 0x60 PUSH2 0x33CB DUP10 DUP3 DUP11 ADD PUSH2 0x3298 JUMP JUMPDEST SWAP4 POP POP PUSH1 0x80 PUSH2 0x33DC DUP10 DUP3 DUP11 ADD PUSH2 0x332B JUMP JUMPDEST SWAP3 POP POP PUSH1 0xA0 PUSH2 0x33ED DUP10 DUP3 DUP11 ADD PUSH2 0x3301 JUMP JUMPDEST SWAP2 POP POP SWAP3 SWAP6 POP SWAP3 SWAP6 POP SWAP3 SWAP6 JUMP JUMPDEST PUSH1 0x0 DUP1 PUSH1 0x40 DUP4 DUP6 SUB SLT ISZERO PUSH2 0x3411 JUMPI PUSH2 0x3410 PUSH2 0x425D JUMP JUMPDEST JUMPDEST PUSH1 0x0 PUSH2 0x341F DUP6 DUP3 DUP7 ADD PUSH2 0x3298 JUMP JUMPDEST SWAP3 POP POP PUSH1 0x20 PUSH2 0x3430 DUP6 DUP3 DUP7 ADD PUSH2 0x3301 JUMP JUMPDEST SWAP2 POP POP SWAP3 POP SWAP3 SWAP1 POP JUMP JUMPDEST PUSH1 0x0 DUP1 PUSH1 0x40 DUP4 DUP6 SUB SLT ISZERO PUSH2 0x3451 JUMPI PUSH2 0x3450 PUSH2 0x425D JUMP JUMPDEST JUMPDEST PUSH1 0x0 PUSH2 0x345F DUP6 DUP3 DUP7 ADD PUSH2 0x32AD JUMP JUMPDEST SWAP3 POP POP PUSH1 0x20 PUSH2 0x3470 DUP6 DUP3 DUP7 ADD PUSH2 0x3316 JUMP JUMPDEST SWAP2 POP POP SWAP3 POP SWAP3 SWAP1 POP JUMP JUMPDEST PUSH1 0x0 PUSH1 0x20 DUP3 DUP5 SUB SLT ISZERO PUSH2 0x3490 JUMPI PUSH2 0x348F PUSH2 0x425D JUMP JUMPDEST JUMPDEST PUSH1 0x0 PUSH2 0x349E DUP5 DUP3 DUP6 ADD PUSH2 0x32D7 JUMP JUMPDEST SWAP2 POP POP SWAP3 SWAP2 POP POP JUMP JUMPDEST PUSH1 0x0 PUSH1 0x20 DUP3 DUP5 SUB SLT ISZERO PUSH2 0x34BD JUMPI PUSH2 0x34BC PUSH2 0x425D JUMP JUMPDEST JUMPDEST PUSH1 0x0 PUSH2 0x34CB DUP5 DUP3 DUP6 ADD PUSH2 0x3301 JUMP JUMPDEST SWAP2 POP POP SWAP3 SWAP2 POP POP JUMP JUMPDEST PUSH1 0x0 PUSH1 0x20 DUP3 DUP5 SUB SLT ISZERO PUSH2 0x34EA JUMPI PUSH2 0x34E9 PUSH2 0x425D JUMP JUMPDEST JUMPDEST PUSH1 0x0 PUSH2 0x34F8 DUP5 DUP3 DUP6 ADD PUSH2 0x3316 JUMP JUMPDEST SWAP2 POP POP SWAP3 SWAP2 POP POP JUMP JUMPDEST PUSH1 0x0 DUP1 PUSH1 0x40 DUP4 DUP6 SUB SLT ISZERO PUSH2 0x3518 JUMPI PUSH2 0x3517 PUSH2 0x425D JUMP JUMPDEST JUMPDEST PUSH1 0x0 PUSH2 0x3526 DUP6 DUP3 DUP7 ADD PUSH2 0x3301 JUMP JUMPDEST SWAP3 POP POP PUSH1 0x20 PUSH2 0x3537 DUP6 DUP3 DUP7 ADD PUSH2 0x3301 JUMP JUMPDEST SWAP2 POP POP SWAP3 POP SWAP3 SWAP1 POP JUMP JUMPDEST PUSH1 0x0 DUP1 PUSH1 0x0 PUSH1 0x60 DUP5 DUP7 SUB SLT ISZERO PUSH2 0x355A JUMPI PUSH2 0x3559 PUSH2 0x425D JUMP JUMPDEST JUMPDEST PUSH1 0x0 PUSH2 0x3568 DUP7 DUP3 DUP8 ADD PUSH2 0x3301 JUMP JUMPDEST SWAP4 POP POP PUSH1 0x20 PUSH2 0x3579 DUP7 DUP3 DUP8 ADD PUSH2 0x3301 JUMP JUMPDEST SWAP3 POP POP PUSH1 0x40 PUSH2 0x358A DUP7 DUP3 DUP8 ADD PUSH2 0x3301 JUMP JUMPDEST SWAP2 POP POP SWAP3 POP SWAP3 POP SWAP3 JUMP JUMPDEST PUSH1 0x0 DUP1 PUSH1 0x0 DUP1 PUSH1 0x0 DUP1 PUSH1 0x0 PUSH1 0xE0 DUP9 DUP11 SUB SLT ISZERO PUSH2 0x35B3 JUMPI PUSH2 0x35B2 PUSH2 0x425D JUMP JUMPDEST JUMPDEST PUSH1 0x0 PUSH2 0x35C1 DUP11 DUP3 DUP12 ADD PUSH2 0x3301 JUMP JUMPDEST SWAP8 POP POP PUSH1 0x20 PUSH2 0x35D2 DUP11 DUP3 DUP12 ADD PUSH2 0x3301 JUMP JUMPDEST SWAP7 POP POP PUSH1 0x40 PUSH2 0x35E3 DUP11 DUP3 DUP12 ADD PUSH2 0x3301 JUMP JUMPDEST SWAP6 POP POP PUSH1 0x60 PUSH2 0x35F4 DUP11 DUP3 DUP12 ADD PUSH2 0x3301 JUMP JUMPDEST SWAP5 POP POP PUSH1 0x80 PUSH2 0x3605 DUP11 DUP3 DUP12 ADD PUSH2 0x332B JUMP JUMPDEST SWAP4 POP POP PUSH1 0xA0 PUSH2 0x3616 DUP11 DUP3 DUP12 ADD PUSH2 0x32EC JUMP JUMPDEST SWAP3 POP POP PUSH1 0xC0 PUSH2 0x3627 DUP11 DUP3 DUP12 ADD PUSH2 0x32EC JUMP JUMPDEST SWAP2 POP POP SWAP3 SWAP6 SWAP9 SWAP2 SWAP5 SWAP8 POP SWAP3 SWAP6 POP JUMP JUMPDEST PUSH2 0x363F DUP2 PUSH2 0x4036 JUMP JUMPDEST DUP3 MSTORE POP POP JUMP JUMPDEST PUSH2 0x364E DUP2 PUSH2 0x4048 JUMP JUMPDEST DUP3 MSTORE POP POP JUMP JUMPDEST PUSH2 0x365D DUP2 PUSH2 0x4054 JUMP JUMPDEST DUP3 MSTORE POP POP JUMP JUMPDEST PUSH1 0x0 PUSH2 0x366E DUP3 PUSH2 0x3EEF JUMP JUMPDEST PUSH2 0x3678 DUP2 DUP6 PUSH2 0x3F05 JUMP JUMPDEST SWAP4 POP PUSH2 0x3688 DUP2 DUP6 PUSH1 0x20 DUP7 ADD PUSH2 0x410B JUMP JUMPDEST DUP1 DUP5 ADD SWAP2 POP POP SWAP3 SWAP2 POP POP JUMP JUMPDEST PUSH2 0x369D DUP2 PUSH2 0x409F JUMP JUMPDEST DUP3 MSTORE POP POP JUMP JUMPDEST PUSH2 0x36AC DUP2 PUSH2 0x40C3 JUMP JUMPDEST DUP3 MSTORE POP POP JUMP JUMPDEST PUSH2 0x36BB DUP2 PUSH2 0x40E7 JUMP JUMPDEST DUP3 MSTORE POP POP JUMP JUMPDEST PUSH2 0x36CA DUP2 PUSH2 0x405E JUMP JUMPDEST DUP3 MSTORE POP POP JUMP JUMPDEST PUSH1 0x0 PUSH2 0x36DB DUP3 PUSH2 0x3EFA JUMP JUMPDEST PUSH2 0x36E5 DUP2 DUP6 PUSH2 0x3F10 JUMP JUMPDEST SWAP4 POP PUSH2 0x36F5 DUP2 DUP6 PUSH1 0x20 DUP7 ADD PUSH2 0x410B JUMP JUMPDEST PUSH2 0x36FE DUP2 PUSH2 0x4262 JUMP JUMPDEST DUP5 ADD SWAP2 POP POP SWAP3 SWAP2 POP POP JUMP JUMPDEST PUSH1 0x0 PUSH2 0x3716 PUSH1 0x26 DUP4 PUSH2 0x3F10 JUMP JUMPDEST SWAP2 POP PUSH2 0x3721 DUP3 PUSH2 0x4273 JUMP JUMPDEST PUSH1 0x40 DUP3 ADD SWAP1 POP SWAP2 SWAP1 POP JUMP JUMPDEST PUSH1 0x0 PUSH2 0x3739 PUSH1 0x1B DUP4 PUSH2 0x3F10 JUMP JUMPDEST SWAP2 POP PUSH2 0x3744 DUP3 PUSH2 0x42C2 JUMP JUMPDEST PUSH1 0x20 DUP3 ADD SWAP1 POP SWAP2 SWAP1 POP JUMP JUMPDEST PUSH1 0x0 PUSH2 0x375C PUSH1 0x24 DUP4 PUSH2 0x3F10 JUMP JUMPDEST SWAP2 POP PUSH2 0x3767 DUP3 PUSH2 0x42EB JUMP JUMPDEST PUSH1 0x40 DUP3 ADD SWAP1 POP SWAP2 SWAP1 POP JUMP JUMPDEST PUSH1 0x0 PUSH2 0x377F PUSH1 0x26 DUP4 PUSH2 0x3F10 JUMP JUMPDEST SWAP2 POP PUSH2 0x378A DUP3 PUSH2 0x433A JUMP JUMPDEST PUSH1 0x40 DUP3 ADD SWAP1 POP SWAP2 SWAP1 POP JUMP JUMPDEST PUSH1 0x0 PUSH2 0x37A2 PUSH1 0x1F DUP4 PUSH2 0x3F10 JUMP JUMPDEST SWAP2 POP PUSH2 0x37AD DUP3 PUSH2 0x4389 JUMP JUMPDEST PUSH1 0x20 DUP3 ADD SWAP1 POP SWAP2 SWAP1 POP JUMP JUMPDEST PUSH1 0x0 PUSH2 0x37C5 PUSH1 0x1C DUP4 PUSH2 0x3F10 JUMP JUMPDEST SWAP2 POP PUSH2 0x37D0 DUP3 PUSH2 0x43B2 JUMP JUMPDEST PUSH1 0x20 DUP3 ADD SWAP1 POP SWAP2 SWAP1 POP JUMP JUMPDEST PUSH1 0x0 PUSH2 0x37E8 PUSH1 0x25 DUP4 PUSH2 0x3F10 JUMP JUMPDEST SWAP2 POP PUSH2 0x37F3 DUP3 PUSH2 0x43DB JUMP JUMPDEST PUSH1 0x40 DUP3 ADD SWAP1 POP SWAP2 SWAP1 POP JUMP JUMPDEST PUSH1 0x0 PUSH2 0x380B PUSH1 0x1B DUP4 PUSH2 0x3F10 JUMP JUMPDEST SWAP2 POP PUSH2 0x3816 DUP3 PUSH2 0x442A JUMP JUMPDEST PUSH1 0x20 DUP3 ADD SWAP1 POP SWAP2 SWAP1 POP JUMP JUMPDEST PUSH1 0x0 PUSH2 0x382E PUSH1 0x20 DUP4 PUSH2 0x3F10 JUMP JUMPDEST SWAP2 POP PUSH2 0x3839 DUP3 PUSH2 0x4453 JUMP JUMPDEST PUSH1 0x20 DUP3 ADD SWAP1 POP SWAP2 SWAP1 POP JUMP JUMPDEST PUSH1 0x0 PUSH2 0x3851 PUSH1 0x1E DUP4 PUSH2 0x3F10 JUMP JUMPDEST SWAP2 POP PUSH2 0x385C DUP3 PUSH2 0x447C JUMP JUMPDEST PUSH1 0x20 DUP3 ADD SWAP1 POP SWAP2 SWAP1 POP JUMP JUMPDEST PUSH1 0x0 PUSH2 0x3874 PUSH1 0x22 DUP4 PUSH2 0x3F10 JUMP JUMPDEST SWAP2 POP PUSH2 0x387F DUP3 PUSH2 0x44A5 JUMP JUMPDEST PUSH1 0x40 DUP3 ADD SWAP1 POP SWAP2 SWAP1 POP JUMP JUMPDEST PUSH1 0x0 PUSH2 0x3897 PUSH1 0x1D DUP4 PUSH2 0x3F10 JUMP JUMPDEST SWAP2 POP PUSH2 0x38A2 DUP3 PUSH2 0x44F4 JUMP JUMPDEST PUSH1 0x20 DUP3 ADD SWAP1 POP SWAP2 SWAP1 POP JUMP JUMPDEST PUSH1 0x0 PUSH2 0x38BA PUSH1 0x2A DUP4 PUSH2 0x3F10 JUMP JUMPDEST SWAP2 POP PUSH2 0x38C5 DUP3 PUSH2 0x451D JUMP JUMPDEST PUSH1 0x40 DUP3 ADD SWAP1 POP SWAP2 SWAP1 POP JUMP JUMPDEST PUSH1 0x0 PUSH2 0x38DD PUSH1 0x21 DUP4 PUSH2 0x3F10 JUMP JUMPDEST SWAP2 POP PUSH2 0x38E8 DUP3 PUSH2 0x456C JUMP JUMPDEST PUSH1 0x40 DUP3 ADD SWAP1 POP SWAP2 SWAP1 POP JUMP JUMPDEST PUSH1 0x0 PUSH2 0x3900 PUSH1 0x22 DUP4 PUSH2 0x3F10 JUMP JUMPDEST SWAP2 POP PUSH2 0x390B DUP3 PUSH2 0x45BB JUMP JUMPDEST PUSH1 0x40 DUP3 ADD SWAP1 POP SWAP2 SWAP1 POP JUMP JUMPDEST PUSH1 0x0 PUSH2 0x3923 PUSH1 0x26 DUP4 PUSH2 0x3F10 JUMP JUMPDEST SWAP2 POP PUSH2 0x392E DUP3 PUSH2 0x460A JUMP JUMPDEST PUSH1 0x40 DUP3 ADD SWAP1 POP SWAP2 SWAP1 POP JUMP JUMPDEST PUSH1 0x0 PUSH2 0x3946 PUSH1 0x1D DUP4 PUSH2 0x3F10 JUMP JUMPDEST SWAP2 POP PUSH2 0x3951 DUP3 PUSH2 0x4659 JUMP JUMPDEST PUSH1 0x20 DUP3 ADD SWAP1 POP SWAP2 SWAP1 POP JUMP JUMPDEST PUSH1 0x0 PUSH2 0x3969 PUSH1 0x1D DUP4 PUSH2 0x3F10 JUMP JUMPDEST SWAP2 POP PUSH2 0x3974 DUP3 PUSH2 0x4682 JUMP JUMPDEST PUSH1 0x20 DUP3 ADD SWAP1 POP SWAP2 SWAP1 POP JUMP JUMPDEST PUSH2 0x3988 DUP2 PUSH2 0x4088 JUMP JUMPDEST DUP3 MSTORE POP POP JUMP JUMPDEST PUSH2 0x3997 DUP2 PUSH2 0x4092 JUMP JUMPDEST DUP3 MSTORE POP POP JUMP JUMPDEST PUSH1 0x0 PUSH2 0x39A9 DUP3 DUP5 PUSH2 0x3663 JUMP JUMPDEST SWAP2 POP DUP2 SWAP1 POP SWAP3 SWAP2 POP POP JUMP JUMPDEST PUSH1 0x0 PUSH1 0x20 DUP3 ADD SWAP1 POP PUSH2 0x39C9 PUSH1 0x0 DUP4 ADD DUP5 PUSH2 0x3636 JUMP JUMPDEST SWAP3 SWAP2 POP POP JUMP JUMPDEST PUSH1 0x0 PUSH1 0x60 DUP3 ADD SWAP1 POP PUSH2 0x39E4 PUSH1 0x0 DUP4 ADD DUP7 PUSH2 0x3636 JUMP JUMPDEST PUSH2 0x39F1 PUSH1 0x20 DUP4 ADD DUP6 PUSH2 0x3636 JUMP JUMPDEST PUSH2 0x39FE PUSH1 0x40 DUP4 ADD DUP5 PUSH2 0x397F JUMP JUMPDEST SWAP5 SWAP4 POP POP POP POP JUMP JUMPDEST PUSH1 0x0 PUSH1 0xE0 DUP3 ADD SWAP1 POP PUSH2 0x3A1B PUSH1 0x0 DUP4 ADD DUP11 PUSH2 0x3636 JUMP JUMPDEST PUSH2 0x3A28 PUSH1 0x20 DUP4 ADD DUP10 PUSH2 0x3636 JUMP JUMPDEST PUSH2 0x3A35 PUSH1 0x40 DUP4 ADD DUP9 PUSH2 0x397F JUMP JUMPDEST PUSH2 0x3A42 PUSH1 0x60 DUP4 ADD DUP8 PUSH2 0x397F JUMP JUMPDEST PUSH2 0x3A4F PUSH1 0x80 DUP4 ADD DUP7 PUSH2 0x398E JUMP JUMPDEST PUSH2 0x3A5C PUSH1 0xA0 DUP4 ADD DUP6 PUSH2 0x3654 JUMP JUMPDEST PUSH2 0x3A69 PUSH1 0xC0 DUP4 ADD DUP5 PUSH2 0x3654 JUMP JUMPDEST SWAP9 SWAP8 POP POP POP POP POP POP POP POP JUMP JUMPDEST PUSH1 0x0 PUSH1 0x80 DUP3 ADD SWAP1 POP PUSH2 0x3A8A PUSH1 0x0 DUP4 ADD DUP8 PUSH2 0x3636 JUMP JUMPDEST PUSH2 0x3A97 PUSH1 0x20 DUP4 ADD DUP7 PUSH2 0x3636 JUMP JUMPDEST PUSH2 0x3AA4 PUSH1 0x40 DUP4 ADD DUP6 PUSH2 0x398E JUMP JUMPDEST PUSH2 0x3AB1 PUSH1 0x60 DUP4 ADD DUP5 PUSH2 0x397F JUMP JUMPDEST SWAP6 SWAP5 POP POP POP POP POP JUMP JUMPDEST PUSH1 0x0 PUSH2 0x100 DUP3 ADD SWAP1 POP PUSH2 0x3AD0 PUSH1 0x0 DUP4 ADD DUP12 PUSH2 0x3636 JUMP JUMPDEST PUSH2 0x3ADD PUSH1 0x20 DUP4 ADD DUP11 PUSH2 0x3645 JUMP JUMPDEST PUSH2 0x3AEA PUSH1 0x40 DUP4 ADD DUP10 PUSH2 0x36B2 JUMP JUMPDEST PUSH2 0x3AF7 PUSH1 0x60 DUP4 ADD DUP9 PUSH2 0x398E JUMP JUMPDEST PUSH2 0x3B04 PUSH1 0x80 DUP4 ADD DUP8 PUSH2 0x397F JUMP JUMPDEST PUSH2 0x3B11 PUSH1 0xA0 DUP4 ADD DUP7 PUSH2 0x397F JUMP JUMPDEST PUSH2 0x3B1E PUSH1 0xC0 DUP4 ADD DUP6 PUSH2 0x397F JUMP JUMPDEST PUSH2 0x3B2B PUSH1 0xE0 DUP4 ADD DUP5 PUSH2 0x397F JUMP JUMPDEST SWAP10 SWAP9 POP POP POP POP POP POP POP POP POP JUMP JUMPDEST PUSH1 0x0 PUSH1 0x40 DUP3 ADD SWAP1 POP PUSH2 0x3B4D PUSH1 0x0 DUP4 ADD DUP6 PUSH2 0x3636 JUMP JUMPDEST PUSH2 0x3B5A PUSH1 0x20 DUP4 ADD DUP5 PUSH2 0x36C1 JUMP JUMPDEST SWAP4 SWAP3 POP POP POP JUMP JUMPDEST PUSH1 0x0 PUSH1 0x40 DUP3 ADD SWAP1 POP PUSH2 0x3B76 PUSH1 0x0 DUP4 ADD DUP6 PUSH2 0x3636 JUMP JUMPDEST PUSH2 0x3B83 PUSH1 0x20 DUP4 ADD DUP5 PUSH2 0x397F JUMP JUMPDEST SWAP4 SWAP3 POP POP POP JUMP JUMPDEST PUSH1 0x0 PUSH1 0x60 DUP3 ADD SWAP1 POP PUSH2 0x3B9F PUSH1 0x0 DUP4 ADD DUP7 PUSH2 0x3636 JUMP JUMPDEST PUSH2 0x3BAC PUSH1 0x20 DUP4 ADD DUP6 PUSH2 0x397F JUMP JUMPDEST PUSH2 0x3BB9 PUSH1 0x40 DUP4 ADD DUP5 PUSH2 0x397F JUMP JUMPDEST SWAP5 SWAP4 POP POP POP POP JUMP JUMPDEST PUSH1 0x0 PUSH1 0x20 DUP3 ADD SWAP1 POP PUSH2 0x3BD6 PUSH1 0x0 DUP4 ADD DUP5 PUSH2 0x3645 JUMP JUMPDEST SWAP3 SWAP2 POP POP JUMP JUMPDEST PUSH1 0x0 PUSH1 0x20 DUP3 ADD SWAP1 POP PUSH2 0x3BF1 PUSH1 0x0 DUP4 ADD DUP5 PUSH2 0x3694 JUMP JUMPDEST SWAP3 SWAP2 POP POP JUMP JUMPDEST PUSH1 0x0 PUSH1 0x20 DUP3 ADD SWAP1 POP PUSH2 0x3C0C PUSH1 0x0 DUP4 ADD DUP5 PUSH2 0x36A3 JUMP JUMPDEST SWAP3 SWAP2 POP POP JUMP JUMPDEST PUSH1 0x0 PUSH1 0x20 DUP3 ADD SWAP1 POP DUP2 DUP2 SUB PUSH1 0x0 DUP4 ADD MSTORE PUSH2 0x3C2C DUP2 DUP5 PUSH2 0x36D0 JUMP JUMPDEST SWAP1 POP SWAP3 SWAP2 POP POP JUMP JUMPDEST PUSH1 0x0 PUSH1 0x20 DUP3 ADD SWAP1 POP DUP2 DUP2 SUB PUSH1 0x0 DUP4 ADD MSTORE PUSH2 0x3C4D DUP2 PUSH2 0x3709 JUMP JUMPDEST SWAP1 POP SWAP2 SWAP1 POP JUMP JUMPDEST PUSH1 0x0 PUSH1 0x20 DUP3 ADD SWAP1 POP DUP2 DUP2 SUB PUSH1 0x0 DUP4 ADD MSTORE PUSH2 0x3C6D DUP2 PUSH2 0x372C JUMP JUMPDEST SWAP1 POP SWAP2 SWAP1 POP JUMP JUMPDEST PUSH1 0x0 PUSH1 0x20 DUP3 ADD SWAP1 POP DUP2 DUP2 SUB PUSH1 0x0 DUP4 ADD MSTORE PUSH2 0x3C8D DUP2 PUSH2 0x374F JUMP JUMPDEST SWAP1 POP SWAP2 SWAP1 POP JUMP JUMPDEST PUSH1 0x0 PUSH1 0x20 DUP3 ADD SWAP1 POP DUP2 DUP2 SUB PUSH1 0x0 DUP4 ADD MSTORE PUSH2 0x3CAD DUP2 PUSH2 0x3772 JUMP JUMPDEST SWAP1 POP SWAP2 SWAP1 POP JUMP JUMPDEST PUSH1 0x0 PUSH1 0x20 DUP3 ADD SWAP1 POP DUP2 DUP2 SUB PUSH1 0x0 DUP4 ADD MSTORE PUSH2 0x3CCD DUP2 PUSH2 0x3795 JUMP JUMPDEST SWAP1 POP SWAP2 SWAP1 POP JUMP JUMPDEST PUSH1 0x0 PUSH1 0x20 DUP3 ADD SWAP1 POP DUP2 DUP2 SUB PUSH1 0x0 DUP4 ADD MSTORE PUSH2 0x3CED DUP2 PUSH2 0x37B8 JUMP JUMPDEST SWAP1 POP SWAP2 SWAP1 POP JUMP JUMPDEST PUSH1 0x0 PUSH1 0x20 DUP3 ADD SWAP1 POP DUP2 DUP2 SUB PUSH1 0x0 DUP4 ADD MSTORE PUSH2 0x3D0D DUP2 PUSH2 0x37DB JUMP JUMPDEST SWAP1 POP SWAP2 SWAP1 POP JUMP JUMPDEST PUSH1 0x0 PUSH1 0x20 DUP3 ADD SWAP1 POP DUP2 DUP2 SUB PUSH1 0x0 DUP4 ADD MSTORE PUSH2 0x3D2D DUP2 PUSH2 0x37FE JUMP JUMPDEST SWAP1 POP SWAP2 SWAP1 POP JUMP JUMPDEST PUSH1 0x0 PUSH1 0x20 DUP3 ADD SWAP1 POP DUP2 DUP2 SUB PUSH1 0x0 DUP4 ADD MSTORE PUSH2 0x3D4D DUP2 PUSH2 0x3821 JUMP JUMPDEST SWAP1 POP SWAP2 SWAP1 POP JUMP JUMPDEST PUSH1 0x0 PUSH1 0x20 DUP3 ADD SWAP1 POP DUP2 DUP2 SUB PUSH1 0x0 DUP4 ADD MSTORE PUSH2 0x3D6D DUP2 PUSH2 0x3844 JUMP JUMPDEST SWAP1 POP SWAP2 SWAP1 POP JUMP JUMPDEST PUSH1 0x0 PUSH1 0x20 DUP3 ADD SWAP1 POP DUP2 DUP2 SUB PUSH1 0x0 DUP4 ADD MSTORE PUSH2 0x3D8D DUP2 PUSH2 0x3867 JUMP JUMPDEST SWAP1 POP SWAP2 SWAP1 POP JUMP JUMPDEST PUSH1 0x0 PUSH1 0x20 DUP3 ADD SWAP1 POP DUP2 DUP2 SUB PUSH1 0x0 DUP4 ADD MSTORE PUSH2 0x3DAD DUP2 PUSH2 0x388A JUMP JUMPDEST SWAP1 POP SWAP2 SWAP1 POP JUMP JUMPDEST PUSH1 0x0 PUSH1 0x20 DUP3 ADD SWAP1 POP DUP2 DUP2 SUB PUSH1 0x0 DUP4 ADD MSTORE PUSH2 0x3DCD DUP2 PUSH2 0x38AD JUMP JUMPDEST SWAP1 POP SWAP2 SWAP1 POP JUMP JUMPDEST PUSH1 0x0 PUSH1 0x20 DUP3 ADD SWAP1 POP DUP2 DUP2 SUB PUSH1 0x0 DUP4 ADD MSTORE PUSH2 0x3DED DUP2 PUSH2 0x38D0 JUMP JUMPDEST SWAP1 POP SWAP2 SWAP1 POP JUMP JUMPDEST PUSH1 0x0 PUSH1 0x20 DUP3 ADD SWAP1 POP DUP2 DUP2 SUB PUSH1 0x0 DUP4 ADD MSTORE PUSH2 0x3E0D DUP2 PUSH2 0x38F3 JUMP JUMPDEST SWAP1 POP SWAP2 SWAP1 POP JUMP JUMPDEST PUSH1 0x0 PUSH1 0x20 DUP3 ADD SWAP1 POP DUP2 DUP2 SUB PUSH1 0x0 DUP4 ADD MSTORE PUSH2 0x3E2D DUP2 PUSH2 0x3916 JUMP JUMPDEST SWAP1 POP SWAP2 SWAP1 POP JUMP JUMPDEST PUSH1 0x0 PUSH1 0x20 DUP3 ADD SWAP1 POP DUP2 DUP2 SUB PUSH1 0x0 DUP4 ADD MSTORE PUSH2 0x3E4D DUP2 PUSH2 0x3939 JUMP JUMPDEST SWAP1 POP SWAP2 SWAP1 POP JUMP JUMPDEST PUSH1 0x0 PUSH1 0x20 DUP3 ADD SWAP1 POP DUP2 DUP2 SUB PUSH1 0x0 DUP4 ADD MSTORE PUSH2 0x3E6D DUP2 PUSH2 0x395C JUMP JUMPDEST SWAP1 POP SWAP2 SWAP1 POP JUMP JUMPDEST PUSH1 0x0 PUSH1 0x20 DUP3 ADD SWAP1 POP PUSH2 0x3E89 PUSH1 0x0 DUP4 ADD DUP5 PUSH2 0x397F JUMP JUMPDEST SWAP3 SWAP2 POP POP JUMP JUMPDEST PUSH1 0x0 PUSH1 0x60 DUP3 ADD SWAP1 POP PUSH2 0x3EA4 PUSH1 0x0 DUP4 ADD DUP7 PUSH2 0x397F JUMP JUMPDEST PUSH2 0x3EB1 PUSH1 0x20 DUP4 ADD DUP6 PUSH2 0x3636 JUMP JUMPDEST PUSH2 0x3EBE PUSH1 0x40 DUP4 ADD DUP5 PUSH2 0x398E JUMP JUMPDEST SWAP5 SWAP4 POP POP POP POP JUMP JUMPDEST PUSH1 0x0 PUSH1 0x40 DUP3 ADD SWAP1 POP PUSH2 0x3EDB PUSH1 0x0 DUP4 ADD DUP6 PUSH2 0x397F JUMP JUMPDEST PUSH2 0x3EE8 PUSH1 0x20 DUP4 ADD DUP5 PUSH2 0x397F JUMP JUMPDEST SWAP4 SWAP3 POP POP POP JUMP JUMPDEST PUSH1 0x0 DUP2 MLOAD SWAP1 POP SWAP2 SWAP1 POP JUMP JUMPDEST PUSH1 0x0 DUP2 MLOAD SWAP1 POP SWAP2 SWAP1 POP JUMP JUMPDEST PUSH1 0x0 DUP2 SWAP1 POP SWAP3 SWAP2 POP POP JUMP JUMPDEST PUSH1 0x0 DUP3 DUP3 MSTORE PUSH1 0x20 DUP3 ADD SWAP1 POP SWAP3 SWAP2 POP POP JUMP JUMPDEST PUSH1 0x0 PUSH2 0x3F2C DUP3 PUSH2 0x4088 JUMP JUMPDEST SWAP2 POP PUSH2 0x3F37 DUP4 PUSH2 0x4088 JUMP JUMPDEST SWAP3 POP DUP3 PUSH32 0xFFFFFFFFFFFFFFFFFFFFFFFFFFFFFFFFFFFFFFFFFFFFFFFFFFFFFFFFFFFFFFFF SUB DUP3 GT ISZERO PUSH2 0x3F6C JUMPI PUSH2 0x3F6B PUSH2 0x41D0 JUMP JUMPDEST JUMPDEST DUP3 DUP3 ADD SWAP1 POP SWAP3 SWAP2 POP POP JUMP JUMPDEST PUSH1 0x0 PUSH2 0x3F82 DUP3 PUSH2 0x4088 JUMP JUMPDEST SWAP2 POP PUSH2 0x3F8D DUP4 PUSH2 0x4088 JUMP JUMPDEST SWAP3 POP DUP3 PUSH2 0x3F9D JUMPI PUSH2 0x3F9C PUSH2 0x41FF JUMP JUMPDEST JUMPDEST DUP3 DUP3 DIV SWAP1 POP SWAP3 SWAP2 POP POP JUMP JUMPDEST PUSH1 0x0 PUSH2 0x3FB3 DUP3 PUSH2 0x4088 JUMP JUMPDEST SWAP2 POP PUSH2 0x3FBE DUP4 PUSH2 0x4088 JUMP JUMPDEST SWAP3 POP DUP2 PUSH32 0xFFFFFFFFFFFFFFFFFFFFFFFFFFFFFFFFFFFFFFFFFFFFFFFFFFFFFFFFFFFFFFFF DIV DUP4 GT DUP3 ISZERO ISZERO AND ISZERO PUSH2 0x3FF7 JUMPI PUSH2 0x3FF6 PUSH2 0x41D0 JUMP JUMPDEST JUMPDEST DUP3 DUP3 MUL SWAP1 POP SWAP3 SWAP2 POP POP JUMP JUMPDEST PUSH1 0x0 PUSH2 0x400D DUP3 PUSH2 0x4088 JUMP JUMPDEST SWAP2 POP PUSH2 0x4018 DUP4 PUSH2 0x4088 JUMP JUMPDEST SWAP3 POP DUP3 DUP3 LT ISZERO PUSH2 0x402B JUMPI PUSH2 0x402A PUSH2 0x41D0 JUMP JUMPDEST JUMPDEST DUP3 DUP3 SUB SWAP1 POP SWAP3 SWAP2 POP POP JUMP JUMPDEST PUSH1 0x0 PUSH2 0x4041 DUP3 PUSH2 0x4068 JUMP JUMPDEST SWAP1 POP SWAP2 SWAP1 POP JUMP JUMPDEST PUSH1 0x0 DUP2 ISZERO ISZERO SWAP1 POP SWAP2 SWAP1 POP JUMP JUMPDEST PUSH1 0x0 DUP2 SWAP1 POP SWAP2 SWAP1 POP JUMP JUMPDEST PUSH1 0x0 DUP2 SWAP1 POP SWAP2 SWAP1 POP JUMP JUMPDEST PUSH1 0x0 PUSH20 0xFFFFFFFFFFFFFFFFFFFFFFFFFFFFFFFFFFFFFFFF DUP3 AND SWAP1 POP SWAP2 SWAP1 POP JUMP JUMPDEST PUSH1 0x0 DUP2 SWAP1 POP SWAP2 SWAP1 POP JUMP JUMPDEST PUSH1 0x0 PUSH1 0xFF DUP3 AND SWAP1 POP SWAP2 SWAP1 POP JUMP JUMPDEST PUSH1 0x0 PUSH2 0x40AA DUP3 PUSH2 0x40B1 JUMP JUMPDEST SWAP1 POP SWAP2 SWAP1 POP JUMP JUMPDEST PUSH1 0x0 PUSH2 0x40BC DUP3 PUSH2 0x4068 JUMP JUMPDEST SWAP1 POP SWAP2 SWAP1 POP JUMP JUMPDEST PUSH1 0x0 PUSH2 0x40CE DUP3 PUSH2 0x40D5 JUMP JUMPDEST SWAP1 POP SWAP2 SWAP1 POP JUMP JUMPDEST PUSH1 0x0 PUSH2 0x40E0 DUP3 PUSH2 0x4068 JUMP JUMPDEST SWAP1 POP SWAP2 SWAP1 POP JUMP JUMPDEST PUSH1 0x0 PUSH2 0x40F2 DUP3 PUSH2 0x40F9 JUMP JUMPDEST SWAP1 POP SWAP2 SWAP1 POP JUMP JUMPDEST PUSH1 0x0 PUSH2 0x4104 DUP3 PUSH2 0x4068 JUMP JUMPDEST SWAP1 POP SWAP2 SWAP1 POP JUMP JUMPDEST PUSH1 0x0 JUMPDEST DUP4 DUP2 LT ISZERO PUSH2 0x4129 JUMPI DUP1 DUP3 ADD MLOAD DUP2 DUP5 ADD MSTORE PUSH1 0x20 DUP2 ADD SWAP1 POP PUSH2 0x410E JUMP JUMPDEST DUP4 DUP2 GT ISZERO PUSH2 0x4138 JUMPI PUSH1 0x0 DUP5 DUP5 ADD MSTORE JUMPDEST POP POP POP POP JUMP JUMPDEST PUSH1 0x0 PUSH2 0x4149 DUP3 PUSH2 0x4088 JUMP JUMPDEST SWAP2 POP PUSH32 0xFFFFFFFFFFFFFFFFFFFFFFFFFFFFFFFFFFFFFFFFFFFFFFFFFFFFFFFFFFFFFFFF DUP3 EQ ISZERO PUSH2 0x417C JUMPI PUSH2 0x417B PUSH2 0x41D0 JUMP JUMPDEST JUMPDEST PUSH1 0x1 DUP3 ADD SWAP1 POP SWAP2 SWAP1 POP JUMP JUMPDEST PUSH1 0x0 PUSH2 0x4192 DUP3 PUSH2 0x405E JUMP JUMPDEST SWAP2 POP PUSH32 0x8000000000000000000000000000000000000000000000000000000000000000 DUP3 EQ ISZERO PUSH2 0x41C5 JUMPI PUSH2 0x41C4 PUSH2 0x41D0 JUMP JUMPDEST JUMPDEST DUP2 PUSH1 0x0 SUB SWAP1 POP SWAP2 SWAP1 POP JUMP JUMPDEST PUSH32 0x4E487B7100000000000000000000000000000000000000000000000000000000 PUSH1 0x0 MSTORE PUSH1 0x11 PUSH1 0x4 MSTORE PUSH1 0x24 PUSH1 0x0 REVERT JUMPDEST PUSH32 0x4E487B7100000000000000000000000000000000000000000000000000000000 PUSH1 0x0 MSTORE PUSH1 0x12 PUSH1 0x4 MSTORE PUSH1 0x24 PUSH1 0x0 REVERT JUMPDEST PUSH32 0x4E487B7100000000000000000000000000000000000000000000000000000000 PUSH1 0x0 MSTORE PUSH1 0x32 PUSH1 0x4 MSTORE PUSH1 0x24 PUSH1 0x0 REVERT JUMPDEST PUSH1 0x0 DUP1 REVERT JUMPDEST PUSH1 0x0 PUSH1 0x1F NOT PUSH1 0x1F DUP4 ADD AND SWAP1 POP SWAP2 SWAP1 POP JUMP JUMPDEST PUSH32 0x4F776E61626C653A206E6577206F776E657220697320746865207A65726F2061 PUSH1 0x0 DUP3 ADD MSTORE PUSH32 0x6464726573730000000000000000000000000000000000000000000000000000 PUSH1 0x20 DUP3 ADD MSTORE POP JUMP JUMPDEST PUSH32 0x5468654D61737465723A20757365206465706F7369742066756E630000000000 PUSH1 0x0 DUP3 ADD MSTORE POP JUMP JUMPDEST PUSH32 0x5468654D61737465723A206F757472616E67656420737570706F7274696E6752 PUSH1 0x0 DUP3 ADD MSTORE PUSH32 0x6174696F00000000000000000000000000000000000000000000000000000000 PUSH1 0x20 DUP3 ADD MSTORE POP JUMP JUMPDEST PUSH32 0x416464726573733A20696E73756666696369656E742062616C616E636520666F PUSH1 0x0 DUP3 ADD MSTORE PUSH32 0x722063616C6C0000000000000000000000000000000000000000000000000000 PUSH1 0x20 DUP3 ADD MSTORE POP JUMP JUMPDEST PUSH32 0x5468654D61737465723A206E6F7420737570706F727461626C6520706F6F6C00 PUSH1 0x0 DUP3 ADD MSTORE POP JUMP JUMPDEST PUSH32 0x5468654D61737465723A207573652077697468647261772066756E6300000000 PUSH1 0x0 DUP3 ADD MSTORE POP JUMP JUMPDEST PUSH32 0x5468654D61737465723A2075736520656D657267656E63795769746864726177 PUSH1 0x0 DUP3 ADD MSTORE PUSH32 0x2066756E63000000000000000000000000000000000000000000000000000000 PUSH1 0x20 DUP3 ADD MSTORE POP JUMP JUMPDEST PUSH32 0x5468654D61737465723A2075736520737570706F72742066756E630000000000 PUSH1 0x0 DUP3 ADD MSTORE POP JUMP JUMPDEST PUSH32 0x4F776E61626C653A2063616C6C6572206973206E6F7420746865206F776E6572 PUSH1 0x0 DUP3 ADD MSTORE POP JUMP JUMPDEST PUSH32 0x5468654D61737465723A20496E73756666696369656E7420616D6F756E740000 PUSH1 0x0 DUP3 ADD MSTORE POP JUMP JUMPDEST PUSH32 0x5468654D61737465723A2063616C6C65642066726F6D20756E2D6D696E746162 PUSH1 0x0 DUP3 ADD MSTORE PUSH32 0x6C65000000000000000000000000000000000000000000000000000000000000 PUSH1 0x20 DUP3 ADD MSTORE POP JUMP JUMPDEST PUSH32 0x416464726573733A2063616C6C20746F206E6F6E2D636F6E7472616374000000 PUSH1 0x0 DUP3 ADD MSTORE POP JUMP JUMPDEST PUSH32 0x5361666545524332303A204552433230206F7065726174696F6E20646964206E PUSH1 0x0 DUP3 ADD MSTORE PUSH32 0x6F74207375636365656400000000000000000000000000000000000000000000 PUSH1 0x20 DUP3 ADD MSTORE POP JUMP JUMPDEST PUSH32 0x5468654D61737465723A204E6F742063616C6C65642062792064656C65676174 PUSH1 0x0 DUP3 ADD MSTORE PUSH32 0x6500000000000000000000000000000000000000000000000000000000000000 PUSH1 0x20 DUP3 ADD MSTORE POP JUMP JUMPDEST PUSH32 0x5468654D61737465723A206465706F73697420746F20796F7572206164647265 PUSH1 0x0 DUP3 ADD MSTORE PUSH32 0x7373000000000000000000000000000000000000000000000000000000000000 PUSH1 0x20 DUP3 ADD MSTORE POP JUMP JUMPDEST PUSH32 0x5468654D61737465723A20506F6F6C2073686F756C64206265206E6F6E2D6465 PUSH1 0x0 DUP3 ADD MSTORE PUSH32 0x6C65676174650000000000000000000000000000000000000000000000000000 PUSH1 0x20 DUP3 ADD MSTORE POP JUMP JUMPDEST PUSH32 0x5468654D61737465723A204E6F742063616C6C65642062792075736572000000 PUSH1 0x0 DUP3 ADD MSTORE POP JUMP JUMPDEST PUSH32 0x5468654D61737465723A20757365206465737570706F72742066756E63000000 PUSH1 0x0 DUP3 ADD MSTORE POP JUMP JUMPDEST PUSH2 0x46B4 DUP2 PUSH2 0x4036 JUMP JUMPDEST DUP2 EQ PUSH2 0x46BF JUMPI PUSH1 0x0 DUP1 REVERT JUMPDEST POP JUMP JUMPDEST PUSH2 0x46CB DUP2 PUSH2 0x4048 JUMP JUMPDEST DUP2 EQ PUSH2 0x46D6 JUMPI PUSH1 0x0 DUP1 REVERT JUMPDEST POP JUMP JUMPDEST PUSH2 0x46E2 DUP2 PUSH2 0x4054 JUMP JUMPDEST DUP2 EQ PUSH2 0x46ED JUMPI PUSH1 0x0 DUP1 REVERT JUMPDEST POP JUMP JUMPDEST PUSH2 0x46F9 DUP2 PUSH2 0x4088 JUMP JUMPDEST DUP2 EQ PUSH2 0x4704 JUMPI PUSH1 0x0 DUP1 REVERT JUMPDEST POP JUMP JUMPDEST PUSH2 0x4710 DUP2 PUSH2 0x4092 JUMP JUMPDEST DUP2 EQ PUSH2 0x471B JUMPI PUSH1 0x0 DUP1 REVERT JUMPDEST POP JUMP INVALID LOG2 PUSH5 0x6970667358 0x22 SLT KECCAK256 0xC8 PUSH6 0xA790D0427DA5 PUSH32 0xE4C6AB5C6A4E029EF9C5AEED4806DAE72F4DDA6D7EAF2964736F6C6343000805 STOP CALLER "
        },
        "methodIdentifiers": {
          "add(address,bool,bool,address,uint8,uint256)": "058048ef",
          "changeRewardCalculator(address)": "f440c1eb",
          "decreasingInterval()": "54ae7bb0",
          "deposit(uint256,uint256,uint256)": "00aeef8a",
          "depositWithPermit(uint256,uint256,uint256,uint256,uint8,bytes32,bytes32)": "66d31e1b",
          "depositWithPermitMax(uint256,uint256,uint256,uint256,uint8,bytes32,bytes32)": "3fed8e8d",
          "desupport(uint256,uint256)": "a234d608",
          "emergencyDesupport(uint256)": "5acf624c",
          "emergencyWithdraw(uint256)": "5312ea8e",
          "initialRewardPerBlock()": "6b56781a",
          "maidCoin()": "849e5aff",
          "mint(address,uint256)": "40c10f19",
          "mintableByAddr(address)": "e23ee3b2",
          "owner()": "8da5cb5b",
          "pendingReward(uint256,uint256)": "3185c0bd",
          "poolCount()": "f525cb68",
          "poolInfo(uint256)": "1526fe27",
          "renounceOwnership()": "715018a6",
          "rewardCalculator()": "96769e89",
          "rewardPerBlock()": "8ae39cac",
          "set(uint256,uint256)": "1ab06ee5",
          "startBlock()": "48cd4cb1",
          "support(uint256,uint256,uint256)": "e692c453",
          "totalAllocPoint()": "17caf6f1",
          "transferOwnership(address)": "f2fde38b",
          "userInfo(uint256,uint256)": "b345dc8c",
          "withdraw(uint256,uint256,uint256)": "a41fe49f"
        }
      }
    }
  }
}