{
    "_format": "hh-sol-artifact-1",
    "contractName": "CloneNurse",
    "sourceName": "contracts/CloneNurse.sol",
    "abi": [
        {
            "inputs": [
                {
                    "internalType": "contract INursePart",
                    "name": "_nursePart",
                    "type": "address"
                },
                {
                    "internalType": "contract IMaidCoin",
                    "name": "_maidCoin",
                    "type": "address"
                },
                {
                    "internalType": "contract ITheMaster",
                    "name": "_theMaster",
                    "type": "address"
                }
            ],
            "stateMutability": "nonpayable",
            "type": "constructor"
        },
        {
            "anonymous": false,
            "inputs": [
                {
                    "indexed": true,
                    "internalType": "address",
                    "name": "owner",
                    "type": "address"
                },
                {
                    "indexed": true,
                    "internalType": "address",
                    "name": "approved",
                    "type": "address"
                },
                {
                    "indexed": true,
                    "internalType": "uint256",
                    "name": "tokenId",
                    "type": "uint256"
                }
            ],
            "name": "Approval",
            "type": "event"
        },
        {
            "anonymous": false,
            "inputs": [
                {
                    "indexed": true,
                    "internalType": "address",
                    "name": "owner",
                    "type": "address"
                },
                {
                    "indexed": true,
                    "internalType": "address",
                    "name": "operator",
                    "type": "address"
                },
                {
                    "indexed": false,
                    "internalType": "bool",
                    "name": "approved",
                    "type": "bool"
                }
            ],
            "name": "ApprovalForAll",
            "type": "event"
        },
        {
            "anonymous": false,
            "inputs": [
                {
                    "indexed": true,
                    "internalType": "uint256",
                    "name": "id",
                    "type": "uint256"
                },
                {
                    "indexed": false,
                    "internalType": "int256",
                    "name": "power",
                    "type": "int256"
                }
            ],
            "name": "ChangeSupportedPower",
            "type": "event"
        },
        {
            "anonymous": false,
            "inputs": [
                {
                    "indexed": true,
                    "internalType": "uint256",
                    "name": "from",
                    "type": "uint256"
                },
                {
                    "indexed": true,
                    "internalType": "uint256",
                    "name": "to",
                    "type": "uint256"
                }
            ],
            "name": "ChangeSupportingRoute",
            "type": "event"
        },
        {
            "anonymous": false,
            "inputs": [
                {
                    "indexed": true,
                    "internalType": "uint256",
                    "name": "id",
                    "type": "uint256"
                },
                {
                    "indexed": true,
                    "internalType": "address",
                    "name": "claimer",
                    "type": "address"
                },
                {
                    "indexed": false,
                    "internalType": "uint256",
                    "name": "reward",
                    "type": "uint256"
                }
            ],
            "name": "Claim",
            "type": "event"
        },
        {
            "anonymous": false,
            "inputs": [
                {
                    "indexed": true,
                    "internalType": "address",
                    "name": "previousOwner",
                    "type": "address"
                },
                {
                    "indexed": true,
                    "internalType": "address",
                    "name": "newOwner",
                    "type": "address"
                }
            ],
            "name": "OwnershipTransferred",
            "type": "event"
        },
        {
            "anonymous": false,
            "inputs": [
                {
                    "indexed": true,
                    "internalType": "address",
                    "name": "supporter",
                    "type": "address"
                },
                {
                    "indexed": true,
                    "internalType": "uint256",
                    "name": "to",
                    "type": "uint256"
                }
            ],
            "name": "SupportTo",
            "type": "event"
        },
        {
            "anonymous": false,
            "inputs": [
                {
                    "indexed": true,
                    "internalType": "address",
                    "name": "from",
                    "type": "address"
                },
                {
                    "indexed": true,
                    "internalType": "address",
                    "name": "to",
                    "type": "address"
                },
                {
                    "indexed": true,
                    "internalType": "uint256",
                    "name": "tokenId",
                    "type": "uint256"
                }
            ],
            "name": "Transfer",
            "type": "event"
        },
        {
            "anonymous": false,
            "inputs": [
                {
                    "indexed": true,
                    "internalType": "address",
                    "name": "supporter",
                    "type": "address"
                },
                {
                    "indexed": true,
                    "internalType": "uint256",
                    "name": "id",
                    "type": "uint256"
                },
                {
                    "indexed": false,
                    "internalType": "uint256",
                    "name": "amounts",
                    "type": "uint256"
                }
            ],
            "name": "TransferSupportingRewards",
            "type": "event"
        },
        {
            "inputs": [
                {
                    "internalType": "uint256",
                    "name": "partCount",
                    "type": "uint256"
                },
                {
                    "internalType": "uint256",
                    "name": "destroyReturn",
                    "type": "uint256"
                },
                {
                    "internalType": "uint256",
                    "name": "power",
                    "type": "uint256"
                }
            ],
            "name": "addNurseType",
            "outputs": [
                {
                    "internalType": "uint256",
                    "name": "nurseType",
                    "type": "uint256"
                }
            ],
            "stateMutability": "nonpayable",
            "type": "function"
        },
        {
            "inputs": [
                {
                    "internalType": "address",
                    "name": "to",
                    "type": "address"
                },
                {
                    "internalType": "uint256",
                    "name": "tokenId",
                    "type": "uint256"
                }
            ],
            "name": "approve",
            "outputs": [],
            "stateMutability": "nonpayable",
            "type": "function"
        },
        {
            "inputs": [
                {
                    "internalType": "uint256",
                    "name": "nurserType",
                    "type": "uint256"
                }
            ],
            "name": "assemble",
            "outputs": [],
            "stateMutability": "nonpayable",
            "type": "function"
        },
        {
            "inputs": [
                {
                    "internalType": "uint256",
                    "name": "nurserType",
                    "type": "uint256"
                },
                {
                    "internalType": "uint256",
                    "name": "deadline",
                    "type": "uint256"
                },
                {
                    "internalType": "uint8",
                    "name": "v",
                    "type": "uint8"
                },
                {
                    "internalType": "bytes32",
                    "name": "r",
                    "type": "bytes32"
                },
                {
                    "internalType": "bytes32",
                    "name": "s",
                    "type": "bytes32"
                }
            ],
            "name": "assembleWithPermit",
            "outputs": [],
            "stateMutability": "nonpayable",
            "type": "function"
        },
        {
            "inputs": [
                {
                    "internalType": "address",
                    "name": "owner",
                    "type": "address"
                }
            ],
            "name": "balanceOf",
            "outputs": [
                {
                    "internalType": "uint256",
                    "name": "",
                    "type": "uint256"
                }
            ],
            "stateMutability": "view",
            "type": "function"
        },
        {
            "inputs": [
                {
                    "internalType": "address",
                    "name": "supporter",
                    "type": "address"
                },
                {
                    "internalType": "int256",
                    "name": "power",
                    "type": "int256"
                }
            ],
            "name": "changeSupportedPower",
            "outputs": [],
            "stateMutability": "nonpayable",
            "type": "function"
        },
        {
            "inputs": [
                {
                    "internalType": "address",
                    "name": "supporter",
                    "type": "address"
                }
            ],
            "name": "checkSupportingRoute",
            "outputs": [
                {
                    "internalType": "address",
                    "name": "",
                    "type": "address"
                },
                {
                    "internalType": "uint256",
                    "name": "",
                    "type": "uint256"
                }
            ],
            "stateMutability": "nonpayable",
            "type": "function"
        },
        {
            "inputs": [
                {
                    "internalType": "uint256",
                    "name": "id",
                    "type": "uint256"
                }
            ],
            "name": "claim",
            "outputs": [],
            "stateMutability": "nonpayable",
            "type": "function"
        },
        {
            "inputs": [
                {
                    "internalType": "uint256",
                    "name": "id",
                    "type": "uint256"
                },
                {
                    "internalType": "uint256",
                    "name": "toId",
                    "type": "uint256"
                }
            ],
            "name": "destroy",
            "outputs": [],
            "stateMutability": "nonpayable",
            "type": "function"
        },
        {
            "inputs": [
                {
                    "internalType": "uint256",
                    "name": "tokenId",
                    "type": "uint256"
                }
            ],
            "name": "getApproved",
            "outputs": [
                {
                    "internalType": "address",
                    "name": "",
                    "type": "address"
                }
            ],
            "stateMutability": "view",
            "type": "function"
        },
        {
            "inputs": [
                {
                    "internalType": "address",
                    "name": "owner",
                    "type": "address"
                },
                {
                    "internalType": "address",
                    "name": "operator",
                    "type": "address"
                }
            ],
            "name": "isApprovedForAll",
            "outputs": [
                {
                    "internalType": "bool",
                    "name": "",
                    "type": "bool"
                }
            ],
            "stateMutability": "view",
            "type": "function"
        },
        {
            "inputs": [],
            "name": "maidCoin",
            "outputs": [
                {
                    "internalType": "contract IMaidCoin",
                    "name": "",
                    "type": "address"
                }
            ],
            "stateMutability": "view",
            "type": "function"
        },
        {
            "inputs": [],
            "name": "name",
            "outputs": [
                {
                    "internalType": "string",
                    "name": "",
                    "type": "string"
                }
            ],
            "stateMutability": "view",
            "type": "function"
        },
        {
            "inputs": [],
            "name": "nursePart",
            "outputs": [
                {
                    "internalType": "contract INursePart",
                    "name": "",
                    "type": "address"
                }
            ],
            "stateMutability": "view",
            "type": "function"
        },
        {
            "inputs": [
                {
                    "internalType": "uint256",
                    "name": "",
                    "type": "uint256"
                }
            ],
            "name": "nurseTypes",
            "outputs": [
                {
                    "internalType": "uint256",
                    "name": "partCount",
                    "type": "uint256"
                },
                {
                    "internalType": "uint256",
                    "name": "destroyReturn",
                    "type": "uint256"
                },
                {
                    "internalType": "uint256",
                    "name": "power",
                    "type": "uint256"
                }
            ],
            "stateMutability": "view",
            "type": "function"
        },
        {
            "inputs": [
                {
                    "internalType": "uint256",
                    "name": "",
                    "type": "uint256"
                }
            ],
            "name": "nurses",
            "outputs": [
                {
                    "internalType": "uint256",
                    "name": "nurseType",
                    "type": "uint256"
                }
            ],
            "stateMutability": "view",
            "type": "function"
        },
        {
            "inputs": [
                {
                    "internalType": "address",
                    "name": "",
                    "type": "address"
                },
                {
                    "internalType": "address",
                    "name": "",
                    "type": "address"
                },
                {
                    "internalType": "uint256[]",
                    "name": "",
                    "type": "uint256[]"
                },
                {
                    "internalType": "uint256[]",
                    "name": "",
                    "type": "uint256[]"
                },
                {
                    "internalType": "bytes",
                    "name": "",
                    "type": "bytes"
                }
            ],
            "name": "onERC1155BatchReceived",
            "outputs": [
                {
                    "internalType": "bytes4",
                    "name": "",
                    "type": "bytes4"
                }
            ],
            "stateMutability": "nonpayable",
            "type": "function"
        },
        {
            "inputs": [
                {
                    "internalType": "address",
                    "name": "",
                    "type": "address"
                },
                {
                    "internalType": "address",
                    "name": "",
                    "type": "address"
                },
                {
                    "internalType": "uint256",
                    "name": "",
                    "type": "uint256"
                },
                {
                    "internalType": "uint256",
                    "name": "",
                    "type": "uint256"
                },
                {
                    "internalType": "bytes",
                    "name": "",
                    "type": "bytes"
                }
            ],
            "name": "onERC1155Received",
            "outputs": [
                {
                    "internalType": "bytes4",
                    "name": "",
                    "type": "bytes4"
                }
            ],
            "stateMutability": "nonpayable",
            "type": "function"
        },
        {
            "inputs": [],
            "name": "owner",
            "outputs": [
                {
                    "internalType": "address",
                    "name": "",
                    "type": "address"
                }
            ],
            "stateMutability": "view",
            "type": "function"
        },
        {
            "inputs": [
                {
                    "internalType": "uint256",
                    "name": "tokenId",
                    "type": "uint256"
                }
            ],
            "name": "ownerOf",
            "outputs": [
                {
                    "internalType": "address",
                    "name": "",
                    "type": "address"
                }
            ],
            "stateMutability": "view",
            "type": "function"
        },
        {
            "inputs": [
                {
                    "internalType": "uint256",
                    "name": "id",
                    "type": "uint256"
                }
            ],
            "name": "pendingReward",
            "outputs": [
                {
                    "internalType": "uint256",
                    "name": "",
                    "type": "uint256"
                }
            ],
            "stateMutability": "view",
            "type": "function"
        },
        {
            "inputs": [],
            "name": "renounceOwnership",
            "outputs": [],
            "stateMutability": "nonpayable",
            "type": "function"
        },
        {
            "inputs": [
                {
                    "internalType": "address",
                    "name": "from",
                    "type": "address"
                },
                {
                    "internalType": "address",
                    "name": "to",
                    "type": "address"
                },
                {
                    "internalType": "uint256",
                    "name": "tokenId",
                    "type": "uint256"
                }
            ],
            "name": "safeTransferFrom",
            "outputs": [],
            "stateMutability": "nonpayable",
            "type": "function"
        },
        {
            "inputs": [
                {
                    "internalType": "address",
                    "name": "from",
                    "type": "address"
                },
                {
                    "internalType": "address",
                    "name": "to",
                    "type": "address"
                },
                {
                    "internalType": "uint256",
                    "name": "tokenId",
                    "type": "uint256"
                },
                {
                    "internalType": "bytes",
                    "name": "_data",
                    "type": "bytes"
                }
            ],
            "name": "safeTransferFrom",
            "outputs": [],
            "stateMutability": "nonpayable",
            "type": "function"
        },
        {
            "inputs": [
                {
                    "internalType": "address",
                    "name": "operator",
                    "type": "address"
                },
                {
                    "internalType": "bool",
                    "name": "approved",
                    "type": "bool"
                }
            ],
            "name": "setApprovalForAll",
            "outputs": [],
            "stateMutability": "nonpayable",
            "type": "function"
        },
        {
            "inputs": [
                {
                    "internalType": "address",
                    "name": "supporter",
                    "type": "address"
                },
                {
                    "internalType": "uint256",
                    "name": "to",
                    "type": "uint256"
                },
                {
                    "internalType": "uint256",
                    "name": "amounts",
                    "type": "uint256"
                }
            ],
            "name": "setSupportingTo",
            "outputs": [],
            "stateMutability": "nonpayable",
            "type": "function"
        },
        {
            "inputs": [
                {
                    "internalType": "uint256",
                    "name": "pending",
                    "type": "uint256"
                },
                {
                    "internalType": "address",
                    "name": "supporter",
                    "type": "address"
                },
                {
                    "internalType": "uint8",
                    "name": "supportingRatio",
                    "type": "uint8"
                }
            ],
            "name": "shareRewards",
            "outputs": [
                {
                    "internalType": "address",
                    "name": "nurseOwner",
                    "type": "address"
                },
                {
                    "internalType": "uint256",
                    "name": "amountToNurseOwner",
                    "type": "uint256"
                }
            ],
            "stateMutability": "nonpayable",
            "type": "function"
        },
        {
            "inputs": [
                {
                    "internalType": "uint256",
                    "name": "",
                    "type": "uint256"
                }
            ],
            "name": "supportedPower",
            "outputs": [
                {
                    "internalType": "uint256",
                    "name": "",
                    "type": "uint256"
                }
            ],
            "stateMutability": "view",
            "type": "function"
        },
        {
            "inputs": [
                {
                    "internalType": "uint256",
                    "name": "",
                    "type": "uint256"
                }
            ],
            "name": "supportingRoute",
            "outputs": [
                {
                    "internalType": "uint256",
                    "name": "",
                    "type": "uint256"
                }
            ],
            "stateMutability": "view",
            "type": "function"
        },
        {
            "inputs": [
                {
                    "internalType": "address",
                    "name": "",
                    "type": "address"
                }
            ],
            "name": "supportingTo",
            "outputs": [
                {
                    "internalType": "uint256",
                    "name": "",
                    "type": "uint256"
                }
            ],
            "stateMutability": "view",
            "type": "function"
        },
        {
            "inputs": [
                {
                    "internalType": "bytes4",
                    "name": "interfaceId",
                    "type": "bytes4"
                }
            ],
            "name": "supportsInterface",
            "outputs": [
                {
                    "internalType": "bool",
                    "name": "",
                    "type": "bool"
                }
            ],
            "stateMutability": "view",
            "type": "function"
        },
        {
            "inputs": [],
            "name": "symbol",
            "outputs": [
                {
                    "internalType": "string",
                    "name": "",
                    "type": "string"
                }
            ],
            "stateMutability": "view",
            "type": "function"
        },
        {
            "inputs": [],
            "name": "theMaster",
            "outputs": [
                {
                    "internalType": "contract ITheMaster",
                    "name": "",
                    "type": "address"
                }
            ],
            "stateMutability": "view",
            "type": "function"
        },
        {
            "inputs": [
                {
                    "internalType": "uint256",
                    "name": "index",
                    "type": "uint256"
                }
            ],
            "name": "tokenByIndex",
            "outputs": [
                {
                    "internalType": "uint256",
                    "name": "",
                    "type": "uint256"
                }
            ],
            "stateMutability": "view",
            "type": "function"
        },
        {
            "inputs": [
                {
                    "internalType": "address",
                    "name": "owner",
                    "type": "address"
                },
                {
                    "internalType": "uint256",
                    "name": "index",
                    "type": "uint256"
                }
            ],
            "name": "tokenOfOwnerByIndex",
            "outputs": [
                {
                    "internalType": "uint256",
                    "name": "",
                    "type": "uint256"
                }
            ],
            "stateMutability": "view",
            "type": "function"
        },
        {
            "inputs": [
                {
                    "internalType": "uint256",
                    "name": "tokenId",
                    "type": "uint256"
                }
            ],
            "name": "tokenURI",
            "outputs": [
                {
                    "internalType": "string",
                    "name": "",
                    "type": "string"
                }
            ],
            "stateMutability": "view",
            "type": "function"
        },
        {
            "inputs": [
                {
                    "internalType": "uint256",
                    "name": "",
                    "type": "uint256"
                }
            ],
            "name": "totalRewardsFromSupporters",
            "outputs": [
                {
                    "internalType": "uint256",
                    "name": "",
                    "type": "uint256"
                }
            ],
            "stateMutability": "view",
            "type": "function"
        },
        {
            "inputs": [],
            "name": "totalSupply",
            "outputs": [
                {
                    "internalType": "uint256",
                    "name": "",
                    "type": "uint256"
                }
            ],
            "stateMutability": "view",
            "type": "function"
        },
        {
            "inputs": [
                {
                    "internalType": "address",
                    "name": "from",
                    "type": "address"
                },
                {
                    "internalType": "address",
                    "name": "to",
                    "type": "address"
                },
                {
                    "internalType": "uint256",
                    "name": "tokenId",
                    "type": "uint256"
                }
            ],
            "name": "transferFrom",
            "outputs": [],
            "stateMutability": "nonpayable",
            "type": "function"
        },
        {
            "inputs": [
                {
                    "internalType": "address",
                    "name": "newOwner",
                    "type": "address"
                }
            ],
            "name": "transferOwnership",
            "outputs": [],
            "stateMutability": "nonpayable",
            "type": "function"
        }
    ],
    "bytecode": "0x60e06040523480156200001157600080fd5b5060405162005c8f38038062005c8f833981810160405281019062000037919062000332565b6040518060400160405280600a81526020017f436c6f6e654e75727365000000000000000000000000000000000000000000008152506040518060400160405280600681526020017f434e5552534500000000000000000000000000000000000000000000000000008152506000620000b56200023560201b60201c565b9050806000806101000a81548173ffffffffffffffffffffffffffffffffffffffff021916908373ffffffffffffffffffffffffffffffffffffffff1602179055508073ffffffffffffffffffffffffffffffffffffffff16600073ffffffffffffffffffffffffffffffffffffffff167f8be0079c531659141344cd1fd0a4f28419497f9722a3daafe3b4186f6b6457e060405160405180910390a35081600190805190602001906200016b9291906200023d565b508060029080519060200190620001849291906200023d565b5050508273ffffffffffffffffffffffffffffffffffffffff1660808173ffffffffffffffffffffffffffffffffffffffff1660601b815250508173ffffffffffffffffffffffffffffffffffffffff1660a08173ffffffffffffffffffffffffffffffffffffffff1660601b815250508073ffffffffffffffffffffffffffffffffffffffff1660c08173ffffffffffffffffffffffffffffffffffffffff1660601b81525050505050620004b6565b600033905090565b8280546200024b90620003fe565b90600052602060002090601f0160209004810192826200026f5760008555620002bb565b82601f106200028a57805160ff1916838001178555620002bb565b82800160010185558215620002bb579182015b82811115620002ba5782518255916020019190600101906200029d565b5b509050620002ca9190620002ce565b5090565b5b80821115620002e9576000816000905550600101620002cf565b5090565b600081519050620002fe8162000468565b92915050565b600081519050620003158162000482565b92915050565b6000815190506200032c816200049c565b92915050565b6000806000606084860312156200034e576200034d62000463565b5b60006200035e8682870162000304565b93505060206200037186828701620002ed565b925050604062000384868287016200031b565b9150509250925092565b60006200039b82620003de565b9050919050565b6000620003af826200038e565b9050919050565b6000620003c3826200038e565b9050919050565b6000620003d7826200038e565b9050919050565b600073ffffffffffffffffffffffffffffffffffffffff82169050919050565b600060028204905060018216806200041757607f821691505b602082108114156200042e576200042d62000434565b5b50919050565b7f4e487b7100000000000000000000000000000000000000000000000000000000600052602260045260246000fd5b600080fd5b6200047381620003a2565b81146200047f57600080fd5b50565b6200048d81620003b6565b81146200049957600080fd5b50565b620004a781620003ca565b8114620004b357600080fd5b50565b60805160601c60a05160601c60c05160601c6157226200056d6000396000818161085401528181610c4701528181610f29015281816112f0015281816117ab01528181611b0b01528181611d890152818161206b0152818161228d015261269b015260008181610e7e01528181610fbb0152818161107f0152818161150601528181611cde01528181611e1f0152611ee3015260008181611787015281816119850152818161215d01526121f201526157226000f3fe608060405234801561001057600080fd5b50600436106102485760003560e01c8063715018a61161013b578063c0a24499116100b8578063e6a6e7a21161007c578063e6a6e7a214610775578063e985e9c514610791578063f23a6e61146107c1578063f2fde38b146107f1578063fa600f761461080d57610248565b8063c0a24499146106bf578063c87b56dd146106db578063cd5a146e1461070b578063ddfeacca1461073d578063e3a940511461075957610248565b8063a22cb465116100ff578063a22cb4651461061d578063b24606b814610639578063b252144a14610657578063b88d4fde14610673578063bc197c811461068f57610248565b8063715018a614610588578063849e5aff146105925780638da5cb5b146105b05780639222ce8c146105ce57806395d89b41146105ff57610248565b806323b872dd116101c957806342842e0e1161018d57806342842e0e146104be5780634f6ccce7146104da5780636352211e1461050a578063671104c91461053a57806370a082311461055857610248565b806323b872dd146103f65780632b2269b8146104125780632f745c5914610442578063379607f5146104725780633a64e0d11461048e57610248565b806309805b941161021057806309805b941461031857806311b9e6b21461034857806312f7086c1461037857806318160ddd146103a8578063184935c1146103c657610248565b806301ffc9a71461024d57806303273bc71461027d57806306fdde03146102ae578063081812fc146102cc578063095ea7b3146102fc575b600080fd5b61026760048036038101906102629190613f67565b61083d565b60405161027491906146d9565b60405180910390f35b6102976004803603810190610292919061401b565b61084f565b6040516102a59291906146b0565b60405180910390f35b6102b66108f7565b6040516102c39190614812565b60405180910390f35b6102e660048036038101906102e19190613fc1565b610989565b6040516102f39190614590565b60405180910390f35b61031660048036038101906103119190613ea7565b610a0e565b005b610332600480360381019061032d91906140ae565b610b26565b60405161033f9190614a74565b60405180910390f35b610362600480360381019061035d9190613fc1565b610c19565b60405161036f9190614a74565b60405180910390f35b610392600480360381019061038d9190613fc1565b610c31565b60405161039f9190614a74565b60405180910390f35b6103b0610cf8565b6040516103bd9190614a74565b60405180910390f35b6103e060048036038101906103db9190613fc1565b610d05565b6040516103ed9190614a74565b60405180910390f35b610410600480360381019061040b9190613cba565b610d1d565b005b61042c60048036038101906104279190613fc1565b610d7d565b6040516104399190614a74565b60405180910390f35b61045c60048036038101906104579190613ea7565b610d95565b6040516104699190614a74565b60405180910390f35b61048c60048036038101906104879190613fc1565b610e3a565b005b6104a860048036038101906104a39190613fc1565b611181565b6040516104b59190614a74565b60405180910390f35b6104d860048036038101906104d39190613cba565b6111ab565b005b6104f460048036038101906104ef9190613fc1565b6111cb565b6040516105019190614a74565b60405180910390f35b610524600480360381019061051f9190613fc1565b61123c565b6040516105319190614590565b60405180910390f35b6105426112ee565b60405161054f9190614745565b60405180910390f35b610572600480360381019061056d9190613b7e565b611312565b60405161057f9190614a74565b60405180910390f35b6105906113ca565b005b61059a611504565b6040516105a7919061470f565b60405180910390f35b6105b8611528565b6040516105c59190614590565b60405180910390f35b6105e860048036038101906105e39190613b7e565b611551565b6040516105f69291906146b0565b60405180910390f35b6106076116dd565b6040516106149190614812565b60405180910390f35b61063760048036038101906106329190613e27565b61176f565b005b610641611785565b60405161064e919061472a565b60405180910390f35b610671600480360381019061066c9190613ee7565b6117a9565b005b61068d60048036038101906106889190613d0d565b61190c565b005b6106a960048036038101906106a49190613beb565b61196e565b6040516106b691906146f4565b60405180910390f35b6106d960048036038101906106d49190614101565b611983565b005b6106f560048036038101906106f09190613fc1565b611a28565b6040516107029190614812565b60405180910390f35b61072560048036038101906107209190613fc1565b611acf565b60405161073493929190614ab8565b60405180910390f35b61075760048036038101906107529190613e67565b611b09565b005b610773600480360381019061076e919061406e565b611c0b565b005b61078f600480360381019061078a9190613fc1565b61210c565b005b6107ab60048036038101906107a69190613bab565b6123b5565b6040516107b891906146d9565b60405180910390f35b6107db60048036038101906107d69190613d90565b612449565b6040516107e891906146f4565b60405180910390f35b61080b60048036038101906108069190613b7e565b61245e565b005b61082760048036038101906108229190613b7e565b612607565b6040516108349190614a74565b60405180910390f35b60006108488261261f565b9050919050565b6000807f000000000000000000000000000000000000000000000000000000000000000073ffffffffffffffffffffffffffffffffffffffff163373ffffffffffffffffffffffffffffffffffffffff16146108aa57600080fd5b60648360ff16866108bb9190614ccf565b6108c59190614c9e565b90506000808211156108ee576108da85611551565b80925081945050506108ed858284612699565b5b50935093915050565b60606001805461090690614ec4565b80601f016020809104026020016040519081016040528092919081815260200182805461093290614ec4565b801561097f5780601f106109545761010080835404028352916020019161097f565b820191906000526020600020905b81548152906001019060200180831161096257829003601f168201915b5050505050905090565b60006109948261276f565b6109d3576040517f08c379a00000000000000000000000000000000000000000000000000000000081526004016109ca90614994565b60405180910390fd5b6005600083815260200190815260200160002060009054906101000a900473ffffffffffffffffffffffffffffffffffffffff169050919050565b6000610a198261123c565b90508073ffffffffffffffffffffffffffffffffffffffff168373ffffffffffffffffffffffffffffffffffffffff161415610a8a576040517f08c379a0000000000000000000000000000000000000000000000000000000008152600401610a8190614a14565b60405180910390fd5b8073ffffffffffffffffffffffffffffffffffffffff16610aa96127db565b73ffffffffffffffffffffffffffffffffffffffff161480610ad85750610ad781610ad26127db565b6123b5565b5b610b17576040517f08c379a0000000000000000000000000000000000000000000000000000000008152600401610b0e90614914565b60405180910390fd5b610b2183836127e3565b505050565b6000610b306127db565b73ffffffffffffffffffffffffffffffffffffffff16610b4e611528565b73ffffffffffffffffffffffffffffffffffffffff1614610ba4576040517f08c379a0000000000000000000000000000000000000000000000000000000008152600401610b9b906149b4565b60405180910390fd5b600f805490509050600f604051806060016040528086815260200185815260200184815250908060018154018082558091505060019003906000526020600020906003020160009091909190915060008201518160000155602082015181600101556040820151816002015550509392505050565b600d6020528060005260406000206000915090505481565b6000610c3c8261276f565b610c4557600080fd5b7f000000000000000000000000000000000000000000000000000000000000000073ffffffffffffffffffffffffffffffffffffffff16633185c0bd6002846040518363ffffffff1660e01b8152600401610ca19291906147b2565b60206040518083038186803b158015610cb957600080fd5b505afa158015610ccd573d6000803e3d6000fd5b505050506040513d601f19601f82011682018060405250810190610cf19190613fee565b9050919050565b6000600980549050905090565b600e6020528060005260406000206000915090505481565b610d2e610d286127db565b8261289c565b610d6d576040517f08c379a0000000000000000000000000000000000000000000000000000000008152600401610d6490614a34565b60405180910390fd5b610d7883838361297a565b505050565b600b6020528060005260406000206000915090505481565b6000610da083611312565b8210610de1576040517f08c379a0000000000000000000000000000000000000000000000000000000008152600401610dd890614834565b60405180910390fd5b600760008473ffffffffffffffffffffffffffffffffffffffff1673ffffffffffffffffffffffffffffffffffffffff168152602001908152602001600020600083815260200190815260200160002054905092915050565b610e438161123c565b73ffffffffffffffffffffffffffffffffffffffff163373ffffffffffffffffffffffffffffffffffffffff1614610e7a57600080fd5b60007f000000000000000000000000000000000000000000000000000000000000000073ffffffffffffffffffffffffffffffffffffffff166370a08231306040518263ffffffff1660e01b8152600401610ed59190614590565b60206040518083038186803b158015610eed57600080fd5b505afa158015610f01573d6000803e3d6000fd5b505050506040513d601f19601f82011682018060405250810190610f259190613fee565b90507f000000000000000000000000000000000000000000000000000000000000000073ffffffffffffffffffffffffffffffffffffffff1662aeef8a60026000856040518463ffffffff1660e01b8152600401610f859392919061477b565b600060405180830381600087803b158015610f9f57600080fd5b505af1158015610fb3573d6000803e3d6000fd5b5050505060007f000000000000000000000000000000000000000000000000000000000000000073ffffffffffffffffffffffffffffffffffffffff166370a08231306040518263ffffffff1660e01b81526004016110129190614590565b60206040518083038186803b15801561102a57600080fd5b505afa15801561103e573d6000803e3d6000fd5b505050506040513d601f19601f820116820180604052508101906110629190613fee565b9050600082826110729190614d29565b9050600081111561112c577f000000000000000000000000000000000000000000000000000000000000000073ffffffffffffffffffffffffffffffffffffffff1663a9059cbb33836040518363ffffffff1660e01b81526004016110d89291906146b0565b602060405180830381600087803b1580156110f257600080fd5b505af1158015611106573d6000803e3d6000fd5b505050506040513d601f19601f8201168201806040525081019061112a9190613f3a565b505b3373ffffffffffffffffffffffffffffffffffffffff16847f3ed1528b0fdc7c5207c1bf935e34a667e13656b9ed165260c522be0bc544f303836040516111739190614a74565b60405180910390a350505050565b6010818154811061119157600080fd5b906000526020600020016000915090508060000154905081565b6111c68383836040518060200160405280600081525061190c565b505050565b60006111d5610cf8565b8210611216576040517f08c379a000000000000000000000000000000000000000000000000000000000815260040161120d90614a54565b60405180910390fd5b6009828154811061122a576112296150a6565b5b90600052602060002001549050919050565b6000806003600084815260200190815260200160002060009054906101000a900473ffffffffffffffffffffffffffffffffffffffff169050600073ffffffffffffffffffffffffffffffffffffffff168173ffffffffffffffffffffffffffffffffffffffff1614156112e5576040517f08c379a00000000000000000000000000000000000000000000000000000000081526004016112dc90614954565b60405180910390fd5b80915050919050565b7f000000000000000000000000000000000000000000000000000000000000000081565b60008073ffffffffffffffffffffffffffffffffffffffff168273ffffffffffffffffffffffffffffffffffffffff161415611383576040517f08c379a000000000000000000000000000000000000000000000000000000000815260040161137a90614934565b60405180910390fd5b600460008373ffffffffffffffffffffffffffffffffffffffff1673ffffffffffffffffffffffffffffffffffffffff168152602001908152602001600020549050919050565b6113d26127db565b73ffffffffffffffffffffffffffffffffffffffff166113f0611528565b73ffffffffffffffffffffffffffffffffffffffff1614611446576040517f08c379a000000000000000000000000000000000000000000000000000000000815260040161143d906149b4565b60405180910390fd5b600073ffffffffffffffffffffffffffffffffffffffff1660008054906101000a900473ffffffffffffffffffffffffffffffffffffffff1673ffffffffffffffffffffffffffffffffffffffff167f8be0079c531659141344cd1fd0a4f28419497f9722a3daafe3b4186f6b6457e060405160405180910390a360008060006101000a81548173ffffffffffffffffffffffffffffffffffffffff021916908373ffffffffffffffffffffffffffffffffffffffff160217905550565b7f000000000000000000000000000000000000000000000000000000000000000081565b60008060009054906101000a900473ffffffffffffffffffffffffffffffffffffffff16905090565b6000806000600c60008573ffffffffffffffffffffffffffffffffffffffff1673ffffffffffffffffffffffffffffffffffffffff1681526020019081526020016000205490506000600b6000838152602001908152602001600020549050818114156115cd576115c18261123c565b829350935050506116d8565b60008290505b8282146115f857819250600b60008481526020019081526020016000205491506115d3565b82600c60008873ffffffffffffffffffffffffffffffffffffffff1673ffffffffffffffffffffffffffffffffffffffff1681526020019081526020016000208190555082600b60008381526020019081526020016000208190555082817f692926c201c1a490c1553d7bd4d53beeae98652233db64a10ec99102aaadc9d360405160405180910390a3828673ffffffffffffffffffffffffffffffffffffffff167f74afd1219e1106da193179db213370f587f8a6893614bd79eae534375ba60b9a60405160405180910390a36116cf8361123c565b83945094505050505b915091565b6060600280546116ec90614ec4565b80601f016020809104026020016040519081016040528092919081815260200182805461171890614ec4565b80156117655780601f1061173a57610100808354040283529160200191611765565b820191906000526020600020905b81548152906001019060200180831161174857829003601f168201915b5050505050905090565b61178161177a6127db565b8383612bd6565b5050565b7f000000000000000000000000000000000000000000000000000000000000000081565b7f000000000000000000000000000000000000000000000000000000000000000073ffffffffffffffffffffffffffffffffffffffff163373ffffffffffffffffffffffffffffffffffffffff161461180157600080fd5b61180a8261276f565b61181357600080fd5b81600c60008573ffffffffffffffffffffffffffffffffffffffff1673ffffffffffffffffffffffffffffffffffffffff16815260200190815260200160002081905550818373ffffffffffffffffffffffffffffffffffffffff167f74afd1219e1106da193179db213370f587f8a6893614bd79eae534375ba60b9a60405160405180910390a360008111156119075780600d600084815260200190815260200160002060008282546118c79190614c48565b92505081905550817f95dbced4d615bf88768e343c98d3d10cd6458a8fab8cc8a1b5ae9cb691677365826040516118fe9190614760565b60405180910390a25b505050565b61191d6119176127db565b8361289c565b61195c576040517f08c379a000000000000000000000000000000000000000000000000000000000815260040161195390614a34565b60405180910390fd5b61196884848484612d43565b50505050565b600063bc197c8160e01b905095945050505050565b7f000000000000000000000000000000000000000000000000000000000000000073ffffffffffffffffffffffffffffffffffffffff166348613c283330878787876040518763ffffffff1660e01b81526004016119e69695949392919061464f565b600060405180830381600087803b158015611a0057600080fd5b505af1158015611a14573d6000803e3d6000fd5b50505050611a218561210c565b5050505050565b6060611a338261276f565b611a72576040517f08c379a0000000000000000000000000000000000000000000000000000000008152600401611a69906149f4565b60405180910390fd5b6000611a7c612d9f565b90506000815111611a9c5760405180602001604052806000815250611ac7565b80611aa684612dbf565b604051602001611ab792919061456c565b6040516020818303038152906040525b915050919050565b600f8181548110611adf57600080fd5b90600052602060002090600302016000915090508060000154908060010154908060020154905083565b7f000000000000000000000000000000000000000000000000000000000000000073ffffffffffffffffffffffffffffffffffffffff163373ffffffffffffffffffffffffffffffffffffffff1614611b6157600080fd5b6000611b6c83611551565b9150506000600d60008381526020019081526020016000205490506000831215611ba75782611b9a90614fa1565b811215611ba657600080fd5b5b8281611bb39190614bb4565b905080600d600084815260200190815260200160002081905550817f95dbced4d615bf88768e343c98d3d10cd6458a8fab8cc8a1b5ae9cb69167736584604051611bfd9190614760565b60405180910390a250505050565b81811415611c1857600080fd5b611c218261123c565b73ffffffffffffffffffffffffffffffffffffffff163373ffffffffffffffffffffffffffffffffffffffff1614611c5857600080fd5b611c618161276f565b611c6a57600080fd5b6000600f60108481548110611c8257611c816150a6565b5b906000526020600020016000015481548110611ca157611ca06150a6565b5b90600052602060002090600302016040518060600160405290816000820154815260200160018201548152602001600282015481525050905060007f000000000000000000000000000000000000000000000000000000000000000073ffffffffffffffffffffffffffffffffffffffff166370a08231306040518263ffffffff1660e01b8152600401611d359190614590565b60206040518083038186803b158015611d4d57600080fd5b505afa158015611d61573d6000803e3d6000fd5b505050506040513d601f19601f82011682018060405250810190611d859190613fee565b90507f000000000000000000000000000000000000000000000000000000000000000073ffffffffffffffffffffffffffffffffffffffff1663a41fe49f60028460400151876040518463ffffffff1660e01b8152600401611de9939291906147db565b600060405180830381600087803b158015611e0357600080fd5b505af1158015611e17573d6000803e3d6000fd5b5050505060007f000000000000000000000000000000000000000000000000000000000000000073ffffffffffffffffffffffffffffffffffffffff166370a08231306040518263ffffffff1660e01b8152600401611e769190614590565b60206040518083038186803b158015611e8e57600080fd5b505afa158015611ea2573d6000803e3d6000fd5b505050506040513d601f19601f82011682018060405250810190611ec69190613fee565b905060008282611ed69190614d29565b90506000811115611f90577f000000000000000000000000000000000000000000000000000000000000000073ffffffffffffffffffffffffffffffffffffffff1663a9059cbb33836040518363ffffffff1660e01b8152600401611f3c9291906146b0565b602060405180830381600087803b158015611f5657600080fd5b505af1158015611f6a573d6000803e3d6000fd5b505050506040513d601f19601f82011682018060405250810190611f8e9190613f3a565b505b84600b60008881526020019081526020016000208190555084867f692926c201c1a490c1553d7bd4d53beeae98652233db64a10ec99102aaadc9d360405160405180910390a36000600d600088815260200190815260200160002054905080600d600088815260200190815260200160002060008282546120119190614c48565b925050819055506000600d600089815260200190815260200160002081905550857f95dbced4d615bf88768e343c98d3d10cd6458a8fab8cc8a1b5ae9cb691677365826040516120619190614760565b60405180910390a27f000000000000000000000000000000000000000000000000000000000000000073ffffffffffffffffffffffffffffffffffffffff166340c10f193387602001516040518363ffffffff1660e01b81526004016120c89291906146b0565b600060405180830381600087803b1580156120e257600080fd5b505af11580156120f6573d6000803e3d6000fd5b5050505061210387612f20565b50505050505050565b6000600f8281548110612122576121216150a6565b5b9060005260206000209060030201604051806060016040529081600082015481526020016001820154815260200160028201548152505090507f000000000000000000000000000000000000000000000000000000000000000073ffffffffffffffffffffffffffffffffffffffff1663f242432a33308585600001516040518563ffffffff1660e01b81526004016121be94939291906145f7565b600060405180830381600087803b1580156121d857600080fd5b505af11580156121ec573d6000803e3d6000fd5b505050507f000000000000000000000000000000000000000000000000000000000000000073ffffffffffffffffffffffffffffffffffffffff1663b390c0ab8383600001516040518363ffffffff1660e01b815260040161224f929190614a8f565b600060405180830381600087803b15801561226957600080fd5b505af115801561227d573d6000803e3d6000fd5b50505050600060108054905090507f000000000000000000000000000000000000000000000000000000000000000073ffffffffffffffffffffffffffffffffffffffff1662aeef8a60028460400151846040518463ffffffff1660e01b81526004016122ec939291906147db565b600060405180830381600087803b15801561230657600080fd5b505af115801561231a573d6000803e3d6000fd5b5050505060106040518060200160405280858152509080600181540180825580915050600190039060005260206000200160009091909190915060008201518160000155505080600b60008381526020019081526020016000208190555080817f692926c201c1a490c1553d7bd4d53beeae98652233db64a10ec99102aaadc9d360405160405180910390a36123b03382613031565b505050565b6000600660008473ffffffffffffffffffffffffffffffffffffffff1673ffffffffffffffffffffffffffffffffffffffff16815260200190815260200160002060008373ffffffffffffffffffffffffffffffffffffffff1673ffffffffffffffffffffffffffffffffffffffff16815260200190815260200160002060009054906101000a900460ff16905092915050565b600063f23a6e6160e01b905095945050505050565b6124666127db565b73ffffffffffffffffffffffffffffffffffffffff16612484611528565b73ffffffffffffffffffffffffffffffffffffffff16146124da576040517f08c379a00000000000000000000000000000000000000000000000000000000081526004016124d1906149b4565b60405180910390fd5b600073ffffffffffffffffffffffffffffffffffffffff168173ffffffffffffffffffffffffffffffffffffffff16141561254a576040517f08c379a000000000000000000000000000000000000000000000000000000000815260040161254190614874565b60405180910390fd5b8073ffffffffffffffffffffffffffffffffffffffff1660008054906101000a900473ffffffffffffffffffffffffffffffffffffffff1673ffffffffffffffffffffffffffffffffffffffff167f8be0079c531659141344cd1fd0a4f28419497f9722a3daafe3b4186f6b6457e060405160405180910390a3806000806101000a81548173ffffffffffffffffffffffffffffffffffffffff021916908373ffffffffffffffffffffffffffffffffffffffff16021790555050565b600c6020528060005260406000206000915090505481565b60007f4e2312e0000000000000000000000000000000000000000000000000000000007bffffffffffffffffffffffffffffffffffffffffffffffffffffffff1916827bffffffffffffffffffffffffffffffffffffffffffffffffffffffff191614806126925750612691826131ff565b5b9050919050565b7f000000000000000000000000000000000000000000000000000000000000000073ffffffffffffffffffffffffffffffffffffffff163373ffffffffffffffffffffffffffffffffffffffff16146126f157600080fd5b80600e600084815260200190815260200160002060008282546127149190614c48565b92505081905550818373ffffffffffffffffffffffffffffffffffffffff167f6ad72273f2c6a083788e6d2e111a219924ac6344c1bd520d0b318eba5b5cb04a836040516127629190614a74565b60405180910390a3505050565b60008073ffffffffffffffffffffffffffffffffffffffff166003600084815260200190815260200160002060009054906101000a900473ffffffffffffffffffffffffffffffffffffffff1673ffffffffffffffffffffffffffffffffffffffff1614159050919050565b600033905090565b816005600083815260200190815260200160002060006101000a81548173ffffffffffffffffffffffffffffffffffffffff021916908373ffffffffffffffffffffffffffffffffffffffff160217905550808273ffffffffffffffffffffffffffffffffffffffff166128568361123c565b73ffffffffffffffffffffffffffffffffffffffff167f8c5be1e5ebec7d5bd14f71427d1e84f3dd0314c0f7b2291e5b200ac8c7c3b92560405160405180910390a45050565b60006128a78261276f565b6128e6576040517f08c379a00000000000000000000000000000000000000000000000000000000081526004016128dd906148f4565b60405180910390fd5b60006128f18361123c565b90508073ffffffffffffffffffffffffffffffffffffffff168473ffffffffffffffffffffffffffffffffffffffff16148061296057508373ffffffffffffffffffffffffffffffffffffffff1661294884610989565b73ffffffffffffffffffffffffffffffffffffffff16145b80612971575061297081856123b5565b5b91505092915050565b8273ffffffffffffffffffffffffffffffffffffffff1661299a8261123c565b73ffffffffffffffffffffffffffffffffffffffff16146129f0576040517f08c379a00000000000000000000000000000000000000000000000000000000081526004016129e7906149d4565b60405180910390fd5b600073ffffffffffffffffffffffffffffffffffffffff168273ffffffffffffffffffffffffffffffffffffffff161415612a60576040517f08c379a0000000000000000000000000000000000000000000000000000000008152600401612a57906148b4565b60405180910390fd5b612a6b838383613279565b612a766000826127e3565b6001600460008573ffffffffffffffffffffffffffffffffffffffff1673ffffffffffffffffffffffffffffffffffffffff1681526020019081526020016000206000828254612ac69190614d29565b925050819055506001600460008473ffffffffffffffffffffffffffffffffffffffff1673ffffffffffffffffffffffffffffffffffffffff1681526020019081526020016000206000828254612b1d9190614c48565b92505081905550816003600083815260200190815260200160002060006101000a81548173ffffffffffffffffffffffffffffffffffffffff021916908373ffffffffffffffffffffffffffffffffffffffff160217905550808273ffffffffffffffffffffffffffffffffffffffff168473ffffffffffffffffffffffffffffffffffffffff167fddf252ad1be2c89b69c2b068fc378daa952ba7f163c4a11628f55a4df523b3ef60405160405180910390a4505050565b8173ffffffffffffffffffffffffffffffffffffffff168373ffffffffffffffffffffffffffffffffffffffff161415612c45576040517f08c379a0000000000000000000000000000000000000000000000000000000008152600401612c3c906148d4565b60405180910390fd5b80600660008573ffffffffffffffffffffffffffffffffffffffff1673ffffffffffffffffffffffffffffffffffffffff16815260200190815260200160002060008473ffffffffffffffffffffffffffffffffffffffff1673ffffffffffffffffffffffffffffffffffffffff16815260200190815260200160002060006101000a81548160ff0219169083151502179055508173ffffffffffffffffffffffffffffffffffffffff168373ffffffffffffffffffffffffffffffffffffffff167f17307eab39ab6107e8899845ad3d59bd9653f200f220920489ca2b5937696c3183604051612d3691906146d9565b60405180910390a3505050565b612d4e84848461297a565b612d5a84848484613289565b612d99576040517f08c379a0000000000000000000000000000000000000000000000000000000008152600401612d9090614854565b60405180910390fd5b50505050565b60606040518060600160405280602481526020016156c960249139905090565b60606000821415612e07576040518060400160405280600181526020017f30000000000000000000000000000000000000000000000000000000000000008152509050612f1b565b600082905060005b60008214612e39578080612e2290614f27565b915050600a82612e329190614c9e565b9150612e0f565b60008167ffffffffffffffff811115612e5557612e546150d5565b5b6040519080825280601f01601f191660200182016040528015612e875781602001600182028036833780820191505090505b5090505b60008514612f1457600182612ea09190614d29565b9150600a85612eaf9190614f70565b6030612ebb9190614c48565b60f81b818381518110612ed157612ed06150a6565b5b60200101907effffffffffffffffffffffffffffffffffffffffffffffffffffffffffffff1916908160001a905350600a85612f0d9190614c9e565b9450612e8b565b8093505050505b919050565b6000612f2b8261123c565b9050612f3981600084613279565b612f446000836127e3565b6001600460008373ffffffffffffffffffffffffffffffffffffffff1673ffffffffffffffffffffffffffffffffffffffff1681526020019081526020016000206000828254612f949190614d29565b925050819055506003600083815260200190815260200160002060006101000a81549073ffffffffffffffffffffffffffffffffffffffff021916905581600073ffffffffffffffffffffffffffffffffffffffff168273ffffffffffffffffffffffffffffffffffffffff167fddf252ad1be2c89b69c2b068fc378daa952ba7f163c4a11628f55a4df523b3ef60405160405180910390a45050565b600073ffffffffffffffffffffffffffffffffffffffff168273ffffffffffffffffffffffffffffffffffffffff1614156130a1576040517f08c379a000000000000000000000000000000000000000000000000000000000815260040161309890614974565b60405180910390fd5b6130aa8161276f565b156130ea576040517f08c379a00000000000000000000000000000000000000000000000000000000081526004016130e190614894565b60405180910390fd5b6130f660008383613279565b6001600460008473ffffffffffffffffffffffffffffffffffffffff1673ffffffffffffffffffffffffffffffffffffffff16815260200190815260200160002060008282546131469190614c48565b92505081905550816003600083815260200190815260200160002060006101000a81548173ffffffffffffffffffffffffffffffffffffffff021916908373ffffffffffffffffffffffffffffffffffffffff160217905550808273ffffffffffffffffffffffffffffffffffffffff16600073ffffffffffffffffffffffffffffffffffffffff167fddf252ad1be2c89b69c2b068fc378daa952ba7f163c4a11628f55a4df523b3ef60405160405180910390a45050565b60007f780e9d63000000000000000000000000000000000000000000000000000000007bffffffffffffffffffffffffffffffffffffffffffffffffffffffff1916827bffffffffffffffffffffffffffffffffffffffffffffffffffffffff19161480613272575061327182613420565b5b9050919050565b613284838383613502565b505050565b60006132aa8473ffffffffffffffffffffffffffffffffffffffff16613616565b15613413578373ffffffffffffffffffffffffffffffffffffffff1663150b7a026132d36127db565b8786866040518563ffffffff1660e01b81526004016132f594939291906145ab565b602060405180830381600087803b15801561330f57600080fd5b505af192505050801561334057506040513d601f19601f8201168201806040525081019061333d9190613f94565b60015b6133c3573d8060008114613370576040519150601f19603f3d011682016040523d82523d6000602084013e613375565b606091505b506000815114156133bb576040517f08c379a00000000000000000000000000000000000000000000000000000000081526004016133b290614854565b60405180910390fd5b805181602001fd5b63150b7a0260e01b7bffffffffffffffffffffffffffffffffffffffffffffffffffffffff1916817bffffffffffffffffffffffffffffffffffffffffffffffffffffffff191614915050613418565b600190505b949350505050565b60007f80ac58cd000000000000000000000000000000000000000000000000000000007bffffffffffffffffffffffffffffffffffffffffffffffffffffffff1916827bffffffffffffffffffffffffffffffffffffffffffffffffffffffff191614806134eb57507f5b5e139f000000000000000000000000000000000000000000000000000000007bffffffffffffffffffffffffffffffffffffffffffffffffffffffff1916827bffffffffffffffffffffffffffffffffffffffffffffffffffffffff1916145b806134fb57506134fa82613629565b5b9050919050565b61350d838383613693565b600073ffffffffffffffffffffffffffffffffffffffff168373ffffffffffffffffffffffffffffffffffffffff1614156135505761354b81613698565b61358f565b8173ffffffffffffffffffffffffffffffffffffffff168373ffffffffffffffffffffffffffffffffffffffff161461358e5761358d83826136e1565b5b5b600073ffffffffffffffffffffffffffffffffffffffff168273ffffffffffffffffffffffffffffffffffffffff1614156135d2576135cd8161384e565b613611565b8273ffffffffffffffffffffffffffffffffffffffff168273ffffffffffffffffffffffffffffffffffffffff16146136105761360f828261391f565b5b5b505050565b600080823b905060008111915050919050565b60007f01ffc9a7000000000000000000000000000000000000000000000000000000007bffffffffffffffffffffffffffffffffffffffffffffffffffffffff1916827bffffffffffffffffffffffffffffffffffffffffffffffffffffffff1916149050919050565b505050565b600980549050600a600083815260200190815260200160002081905550600981908060018154018082558091505060019003906000526020600020016000909190919091505550565b600060016136ee84611312565b6136f89190614d29565b90506000600860008481526020019081526020016000205490508181146137dd576000600760008673ffffffffffffffffffffffffffffffffffffffff1673ffffffffffffffffffffffffffffffffffffffff168152602001908152602001600020600084815260200190815260200160002054905080600760008773ffffffffffffffffffffffffffffffffffffffff1673ffffffffffffffffffffffffffffffffffffffff168152602001908152602001600020600084815260200190815260200160002081905550816008600083815260200190815260200160002081905550505b6008600084815260200190815260200160002060009055600760008573ffffffffffffffffffffffffffffffffffffffff1673ffffffffffffffffffffffffffffffffffffffff16815260200190815260200160002060008381526020019081526020016000206000905550505050565b600060016009805490506138629190614d29565b90506000600a6000848152602001908152602001600020549050600060098381548110613892576138916150a6565b5b9060005260206000200154905080600983815481106138b4576138b36150a6565b5b906000526020600020018190555081600a600083815260200190815260200160002081905550600a600085815260200190815260200160002060009055600980548061390357613902615077565b5b6001900381819060005260206000200160009055905550505050565b600061392a83611312565b905081600760008573ffffffffffffffffffffffffffffffffffffffff1673ffffffffffffffffffffffffffffffffffffffff168152602001908152602001600020600083815260200190815260200160002081905550806008600084815260200190815260200160002081905550505050565b60006139b16139ac84614b14565b614aef565b905080838252602082019050828560208602820111156139d4576139d3615109565b5b60005b85811015613a0457816139ea8882613b3f565b8452602084019350602083019250506001810190506139d7565b5050509392505050565b6000613a21613a1c84614b40565b614aef565b905082815260208101848484011115613a3d57613a3c61510e565b5b613a48848285614e82565b509392505050565b600081359050613a5f81615627565b92915050565b600082601f830112613a7a57613a79615104565b5b8135613a8a84826020860161399e565b91505092915050565b600081359050613aa28161563e565b92915050565b600081519050613ab78161563e565b92915050565b600081359050613acc81615655565b92915050565b600081359050613ae18161566c565b92915050565b600081519050613af68161566c565b92915050565b600082601f830112613b1157613b10615104565b5b8135613b21848260208601613a0e565b91505092915050565b600081359050613b3981615683565b92915050565b600081359050613b4e8161569a565b92915050565b600081519050613b638161569a565b92915050565b600081359050613b78816156b1565b92915050565b600060208284031215613b9457613b93615118565b5b6000613ba284828501613a50565b91505092915050565b60008060408385031215613bc257613bc1615118565b5b6000613bd085828601613a50565b9250506020613be185828601613a50565b9150509250929050565b600080600080600060a08688031215613c0757613c06615118565b5b6000613c1588828901613a50565b9550506020613c2688828901613a50565b945050604086013567ffffffffffffffff811115613c4757613c46615113565b5b613c5388828901613a65565b935050606086013567ffffffffffffffff811115613c7457613c73615113565b5b613c8088828901613a65565b925050608086013567ffffffffffffffff811115613ca157613ca0615113565b5b613cad88828901613afc565b9150509295509295909350565b600080600060608486031215613cd357613cd2615118565b5b6000613ce186828701613a50565b9350506020613cf286828701613a50565b9250506040613d0386828701613b3f565b9150509250925092565b60008060008060808587031215613d2757613d26615118565b5b6000613d3587828801613a50565b9450506020613d4687828801613a50565b9350506040613d5787828801613b3f565b925050606085013567ffffffffffffffff811115613d7857613d77615113565b5b613d8487828801613afc565b91505092959194509250565b600080600080600060a08688031215613dac57613dab615118565b5b6000613dba88828901613a50565b9550506020613dcb88828901613a50565b9450506040613ddc88828901613b3f565b9350506060613ded88828901613b3f565b925050608086013567ffffffffffffffff811115613e0e57613e0d615113565b5b613e1a88828901613afc565b9150509295509295909350565b60008060408385031215613e3e57613e3d615118565b5b6000613e4c85828601613a50565b9250506020613e5d85828601613a93565b9150509250929050565b60008060408385031215613e7e57613e7d615118565b5b6000613e8c85828601613a50565b9250506020613e9d85828601613b2a565b9150509250929050565b60008060408385031215613ebe57613ebd615118565b5b6000613ecc85828601613a50565b9250506020613edd85828601613b3f565b9150509250929050565b600080600060608486031215613f0057613eff615118565b5b6000613f0e86828701613a50565b9350506020613f1f86828701613b3f565b9250506040613f3086828701613b3f565b9150509250925092565b600060208284031215613f5057613f4f615118565b5b6000613f5e84828501613aa8565b91505092915050565b600060208284031215613f7d57613f7c615118565b5b6000613f8b84828501613ad2565b91505092915050565b600060208284031215613faa57613fa9615118565b5b6000613fb884828501613ae7565b91505092915050565b600060208284031215613fd757613fd6615118565b5b6000613fe584828501613b3f565b91505092915050565b60006020828403121561400457614003615118565b5b600061401284828501613b54565b91505092915050565b60008060006060848603121561403457614033615118565b5b600061404286828701613b3f565b935050602061405386828701613a50565b925050604061406486828701613b69565b9150509250925092565b6000806040838503121561408557614084615118565b5b600061409385828601613b3f565b92505060206140a485828601613b3f565b9150509250929050565b6000806000606084860312156140c7576140c6615118565b5b60006140d586828701613b3f565b93505060206140e686828701613b3f565b92505060406140f786828701613b3f565b9150509250925092565b600080600080600060a0868803121561411d5761411c615118565b5b600061412b88828901613b3f565b955050602061413c88828901613b3f565b945050604061414d88828901613b69565b935050606061415e88828901613abd565b925050608061416f88828901613abd565b9150509295509295909350565b61418581614d5d565b82525050565b61419481614d6f565b82525050565b6141a381614d7b565b82525050565b6141b281614d85565b82525050565b60006141c382614b71565b6141cd8185614b87565b93506141dd818560208601614e91565b6141e68161511d565b840191505092915050565b6141fa81614df2565b82525050565b61420981614e16565b82525050565b61421881614e3a565b82525050565b61422781614db1565b82525050565b61423681614e5e565b82525050565b61424581614e70565b82525050565b600061425682614b7c565b6142608185614b98565b9350614270818560208601614e91565b6142798161511d565b840191505092915050565b600061428f82614b7c565b6142998185614ba9565b93506142a9818560208601614e91565b80840191505092915050565b60006142c2602b83614b98565b91506142cd8261512e565b604082019050919050565b60006142e5603283614b98565b91506142f08261517d565b604082019050919050565b6000614308602683614b98565b9150614313826151cc565b604082019050919050565b600061432b601c83614b98565b91506143368261521b565b602082019050919050565b600061434e602483614b98565b915061435982615244565b604082019050919050565b6000614371601983614b98565b915061437c82615293565b602082019050919050565b6000614394602c83614b98565b915061439f826152bc565b604082019050919050565b60006143b7603883614b98565b91506143c28261530b565b604082019050919050565b60006143da602a83614b98565b91506143e58261535a565b604082019050919050565b60006143fd602983614b98565b9150614408826153a9565b604082019050919050565b6000614420602083614b98565b915061442b826153f8565b602082019050919050565b6000614443602c83614b98565b915061444e82615421565b604082019050919050565b6000614466602083614b98565b915061447182615470565b602082019050919050565b6000614489602983614b98565b915061449482615499565b604082019050919050565b60006144ac602f83614b98565b91506144b7826154e8565b604082019050919050565b60006144cf602183614b98565b91506144da82615537565b604082019050919050565b60006144f2600083614b87565b91506144fd82615586565b600082019050919050565b6000614515603183614b98565b915061452082615589565b604082019050919050565b6000614538602c83614b98565b9150614543826155d8565b604082019050919050565b61455781614ddb565b82525050565b61456681614de5565b82525050565b60006145788285614284565b91506145848284614284565b91508190509392505050565b60006020820190506145a5600083018461417c565b92915050565b60006080820190506145c0600083018761417c565b6145cd602083018661417c565b6145da604083018561454e565b81810360608301526145ec81846141b8565b905095945050505050565b600060a08201905061460c600083018761417c565b614619602083018661417c565b614626604083018561454e565b614633606083018461454e565b8181036080830152614644816144e5565b905095945050505050565b600060c082019050614664600083018961417c565b614671602083018861417c565b61467e604083018761454e565b61468b606083018661455d565b614698608083018561419a565b6146a560a083018461419a565b979650505050505050565b60006040820190506146c5600083018561417c565b6146d2602083018461454e565b9392505050565b60006020820190506146ee600083018461418b565b92915050565b600060208201905061470960008301846141a9565b92915050565b600060208201905061472460008301846141f1565b92915050565b600060208201905061473f6000830184614200565b92915050565b600060208201905061475a600083018461420f565b92915050565b6000602082019050614775600083018461421e565b92915050565b6000606082019050614790600083018661423c565b61479d602083018561422d565b6147aa604083018461454e565b949350505050565b60006040820190506147c7600083018561423c565b6147d4602083018461454e565b9392505050565b60006060820190506147f0600083018661423c565b6147fd602083018561454e565b61480a604083018461454e565b949350505050565b6000602082019050818103600083015261482c818461424b565b905092915050565b6000602082019050818103600083015261484d816142b5565b9050919050565b6000602082019050818103600083015261486d816142d8565b9050919050565b6000602082019050818103600083015261488d816142fb565b9050919050565b600060208201905081810360008301526148ad8161431e565b9050919050565b600060208201905081810360008301526148cd81614341565b9050919050565b600060208201905081810360008301526148ed81614364565b9050919050565b6000602082019050818103600083015261490d81614387565b9050919050565b6000602082019050818103600083015261492d816143aa565b9050919050565b6000602082019050818103600083015261494d816143cd565b9050919050565b6000602082019050818103600083015261496d816143f0565b9050919050565b6000602082019050818103600083015261498d81614413565b9050919050565b600060208201905081810360008301526149ad81614436565b9050919050565b600060208201905081810360008301526149cd81614459565b9050919050565b600060208201905081810360008301526149ed8161447c565b9050919050565b60006020820190508181036000830152614a0d8161449f565b9050919050565b60006020820190508181036000830152614a2d816144c2565b9050919050565b60006020820190508181036000830152614a4d81614508565b9050919050565b60006020820190508181036000830152614a6d8161452b565b9050919050565b6000602082019050614a89600083018461454e565b92915050565b6000604082019050614aa4600083018561454e565b614ab1602083018461454e565b9392505050565b6000606082019050614acd600083018661454e565b614ada602083018561454e565b614ae7604083018461454e565b949350505050565b6000614af9614b0a565b9050614b058282614ef6565b919050565b6000604051905090565b600067ffffffffffffffff821115614b2f57614b2e6150d5565b5b602082029050602081019050919050565b600067ffffffffffffffff821115614b5b57614b5a6150d5565b5b614b648261511d565b9050602081019050919050565b600081519050919050565b600081519050919050565b600082825260208201905092915050565b600082825260208201905092915050565b600081905092915050565b6000614bbf82614db1565b9150614bca83614db1565b9250817f7fffffffffffffffffffffffffffffffffffffffffffffffffffffffffffffff03831360008312151615614c0557614c04614fea565b5b817f8000000000000000000000000000000000000000000000000000000000000000038312600083121615614c3d57614c3c614fea565b5b828201905092915050565b6000614c5382614ddb565b9150614c5e83614ddb565b9250827fffffffffffffffffffffffffffffffffffffffffffffffffffffffffffffffff03821115614c9357614c92614fea565b5b828201905092915050565b6000614ca982614ddb565b9150614cb483614ddb565b925082614cc457614cc3615019565b5b828204905092915050565b6000614cda82614ddb565b9150614ce583614ddb565b9250817fffffffffffffffffffffffffffffffffffffffffffffffffffffffffffffffff0483118215151615614d1e57614d1d614fea565b5b828202905092915050565b6000614d3482614ddb565b9150614d3f83614ddb565b925082821015614d5257614d51614fea565b5b828203905092915050565b6000614d6882614dbb565b9050919050565b60008115159050919050565b6000819050919050565b60007fffffffff0000000000000000000000000000000000000000000000000000000082169050919050565b6000819050919050565b600073ffffffffffffffffffffffffffffffffffffffff82169050919050565b6000819050919050565b600060ff82169050919050565b6000614dfd82614e04565b9050919050565b6000614e0f82614dbb565b9050919050565b6000614e2182614e28565b9050919050565b6000614e3382614dbb565b9050919050565b6000614e4582614e4c565b9050919050565b6000614e5782614dbb565b9050919050565b6000614e6982614ddb565b9050919050565b6000614e7b82614ddb565b9050919050565b82818337600083830152505050565b60005b83811015614eaf578082015181840152602081019050614e94565b83811115614ebe576000848401525b50505050565b60006002820490506001821680614edc57607f821691505b60208210811415614ef057614eef615048565b5b50919050565b614eff8261511d565b810181811067ffffffffffffffff82111715614f1e57614f1d6150d5565b5b80604052505050565b6000614f3282614ddb565b91507fffffffffffffffffffffffffffffffffffffffffffffffffffffffffffffffff821415614f6557614f64614fea565b5b600182019050919050565b6000614f7b82614ddb565b9150614f8683614ddb565b925082614f9657614f95615019565b5b828206905092915050565b6000614fac82614db1565b91507f8000000000000000000000000000000000000000000000000000000000000000821415614fdf57614fde614fea565b5b816000039050919050565b7f4e487b7100000000000000000000000000000000000000000000000000000000600052601160045260246000fd5b7f4e487b7100000000000000000000000000000000000000000000000000000000600052601260045260246000fd5b7f4e487b7100000000000000000000000000000000000000000000000000000000600052602260045260246000fd5b7f4e487b7100000000000000000000000000000000000000000000000000000000600052603160045260246000fd5b7f4e487b7100000000000000000000000000000000000000000000000000000000600052603260045260246000fd5b7f4e487b7100000000000000000000000000000000000000000000000000000000600052604160045260246000fd5b600080fd5b600080fd5b600080fd5b600080fd5b600080fd5b6000601f19601f8301169050919050565b7f455243373231456e756d657261626c653a206f776e657220696e646578206f7560008201527f74206f6620626f756e6473000000000000000000000000000000000000000000602082015250565b7f4552433732313a207472616e7366657220746f206e6f6e20455243373231526560008201527f63656976657220696d706c656d656e7465720000000000000000000000000000602082015250565b7f4f776e61626c653a206e6577206f776e657220697320746865207a65726f206160008201527f6464726573730000000000000000000000000000000000000000000000000000602082015250565b7f4552433732313a20746f6b656e20616c7265616479206d696e74656400000000600082015250565b7f4552433732313a207472616e7366657220746f20746865207a65726f2061646460008201527f7265737300000000000000000000000000000000000000000000000000000000602082015250565b7f4552433732313a20617070726f766520746f2063616c6c657200000000000000600082015250565b7f4552433732313a206f70657261746f7220717565727920666f72206e6f6e657860008201527f697374656e7420746f6b656e0000000000000000000000000000000000000000602082015250565b7f4552433732313a20617070726f76652063616c6c6572206973206e6f74206f7760008201527f6e6572206e6f7220617070726f76656420666f7220616c6c0000000000000000602082015250565b7f4552433732313a2062616c616e636520717565727920666f7220746865207a6560008201527f726f206164647265737300000000000000000000000000000000000000000000602082015250565b7f4552433732313a206f776e657220717565727920666f72206e6f6e657869737460008201527f656e7420746f6b656e0000000000000000000000000000000000000000000000602082015250565b7f4552433732313a206d696e7420746f20746865207a65726f2061646472657373600082015250565b7f4552433732313a20617070726f76656420717565727920666f72206e6f6e657860008201527f697374656e7420746f6b656e0000000000000000000000000000000000000000602082015250565b7f4f776e61626c653a2063616c6c6572206973206e6f7420746865206f776e6572600082015250565b7f4552433732313a207472616e73666572206f6620746f6b656e2074686174206960008201527f73206e6f74206f776e0000000000000000000000000000000000000000000000602082015250565b7f4552433732314d657461646174613a2055524920717565727920666f72206e6f60008201527f6e6578697374656e7420746f6b656e0000000000000000000000000000000000602082015250565b7f4552433732313a20617070726f76616c20746f2063757272656e74206f776e6560008201527f7200000000000000000000000000000000000000000000000000000000000000602082015250565b50565b7f4552433732313a207472616e736665722063616c6c6572206973206e6f74206f60008201527f776e6572206e6f7220617070726f766564000000000000000000000000000000602082015250565b7f455243373231456e756d657261626c653a20676c6f62616c20696e646578206f60008201527f7574206f6620626f756e64730000000000000000000000000000000000000000602082015250565b61563081614d5d565b811461563b57600080fd5b50565b61564781614d6f565b811461565257600080fd5b50565b61565e81614d7b565b811461566957600080fd5b50565b61567581614d85565b811461568057600080fd5b50565b61568c81614db1565b811461569757600080fd5b50565b6156a381614ddb565b81146156ae57600080fd5b50565b6156ba81614de5565b81146156c557600080fd5b5056fe68747470733a2f2f6170692e6d616964636f696e2e6f72672f636c6f6e656e757273652fa2646970667358221220d0c11de27f4d217dd8a7f74fa046486b881a08bebc2be1f508ee90757bebb5c664736f6c63430008050033",
    "linkReferences": {},
    "deployedLinkReferences": {}
}