{
  "_format": "hh-sol-artifact-1",
  "contractName": "TheMaster",
  "sourceName": "contracts/TheMaster.sol",
  "abi": [
    {
      "inputs": [
        {
          "internalType": "uint256",
          "name": "_initialRewardPerBlock",
          "type": "uint256"
        },
        {
          "internalType": "uint256",
          "name": "_decreasingInterval",
          "type": "uint256"
        },
        {
          "internalType": "uint256",
          "name": "_startBlock",
          "type": "uint256"
        },
        {
          "internalType": "contract IMaidCoin",
          "name": "_maidCoin",
          "type": "address"
        }
      ],
      "stateMutability": "nonpayable",
      "type": "constructor"
    },
    {
      "anonymous": false,
      "inputs": [
        {
          "indexed": true,
          "internalType": "uint256",
          "name": "pid",
          "type": "uint256"
        },
        {
          "indexed": false,
          "internalType": "address",
          "name": "addr",
          "type": "address"
        },
        {
          "indexed": true,
          "internalType": "bool",
          "name": "delegate",
          "type": "bool"
        },
        {
          "indexed": true,
          "internalType": "bool",
          "name": "mintable",
          "type": "bool"
        },
        {
          "indexed": false,
          "internalType": "address",
          "name": "supportable",
          "type": "address"
        },
        {
          "indexed": false,
          "internalType": "uint8",
          "name": "supportingRatio",
          "type": "uint8"
        },
        {
          "indexed": false,
          "internalType": "uint256",
          "name": "allocPoint",
          "type": "uint256"
        }
      ],
      "name": "Add",
      "type": "event"
    },
    {
      "anonymous": false,
      "inputs": [
        {
          "indexed": false,
          "internalType": "address",
          "name": "addr",
          "type": "address"
        }
      ],
      "name": "ChangeRewardCalculator",
      "type": "event"
    },
    {
      "anonymous": false,
      "inputs": [
        {
          "indexed": true,
          "internalType": "uint256",
          "name": "userId",
          "type": "uint256"
        },
        {
          "indexed": true,
          "internalType": "uint256",
          "name": "pid",
          "type": "uint256"
        },
        {
          "indexed": false,
          "internalType": "uint256",
          "name": "amount",
          "type": "uint256"
        }
      ],
      "name": "Deposit",
      "type": "event"
    },
    {
      "anonymous": false,
      "inputs": [
        {
          "indexed": true,
          "internalType": "address",
          "name": "supporter",
          "type": "address"
        },
        {
          "indexed": true,
          "internalType": "uint256",
          "name": "pid",
          "type": "uint256"
        },
        {
          "indexed": false,
          "internalType": "uint256",
          "name": "amount",
          "type": "uint256"
        }
      ],
      "name": "Desupport",
      "type": "event"
    },
    {
      "anonymous": false,
      "inputs": [
        {
          "indexed": true,
          "internalType": "address",
          "name": "user",
          "type": "address"
        },
        {
          "indexed": true,
          "internalType": "uint256",
          "name": "pid",
          "type": "uint256"
        },
        {
          "indexed": false,
          "internalType": "uint256",
          "name": "amount",
          "type": "uint256"
        }
      ],
      "name": "EmergencyDesupport",
      "type": "event"
    },
    {
      "anonymous": false,
      "inputs": [
        {
          "indexed": true,
          "internalType": "address",
          "name": "user",
          "type": "address"
        },
        {
          "indexed": true,
          "internalType": "uint256",
          "name": "pid",
          "type": "uint256"
        },
        {
          "indexed": false,
          "internalType": "uint256",
          "name": "amount",
          "type": "uint256"
        }
      ],
      "name": "EmergencyWithdraw",
      "type": "event"
    },
    {
      "anonymous": false,
      "inputs": [
        {
          "indexed": true,
          "internalType": "address",
          "name": "previousOwner",
          "type": "address"
        },
        {
          "indexed": true,
          "internalType": "address",
          "name": "newOwner",
          "type": "address"
        }
      ],
      "name": "OwnershipTransferred",
      "type": "event"
    },
    {
      "anonymous": false,
      "inputs": [
        {
          "indexed": true,
          "internalType": "uint256",
          "name": "pid",
          "type": "uint256"
        },
        {
          "indexed": false,
          "internalType": "uint256",
          "name": "allocPoint",
          "type": "uint256"
        }
      ],
      "name": "Set",
      "type": "event"
    },
    {
      "anonymous": false,
      "inputs": [
        {
          "indexed": true,
          "internalType": "uint256",
          "name": "pid",
          "type": "uint256"
        },
        {
          "indexed": true,
          "internalType": "bool",
          "name": "status",
          "type": "bool"
        }
      ],
      "name": "SetIsSupporterPool",
      "type": "event"
    },
    {
      "anonymous": false,
      "inputs": [
        {
          "indexed": true,
          "internalType": "address",
          "name": "supporter",
          "type": "address"
        },
        {
          "indexed": true,
          "internalType": "uint256",
          "name": "pid",
          "type": "uint256"
        },
        {
          "indexed": false,
          "internalType": "uint256",
          "name": "amount",
          "type": "uint256"
        }
      ],
      "name": "Support",
      "type": "event"
    },
    {
      "anonymous": false,
      "inputs": [
        {
          "indexed": true,
          "internalType": "uint256",
          "name": "userId",
          "type": "uint256"
        },
        {
          "indexed": true,
          "internalType": "uint256",
          "name": "pid",
          "type": "uint256"
        },
        {
          "indexed": false,
          "internalType": "uint256",
          "name": "amount",
          "type": "uint256"
        }
      ],
      "name": "Withdraw",
      "type": "event"
    },
    {
      "inputs": [
        {
          "internalType": "address",
          "name": "addr",
          "type": "address"
        },
        {
          "internalType": "bool",
          "name": "delegate",
          "type": "bool"
        },
        {
          "internalType": "bool",
          "name": "mintable",
          "type": "bool"
        },
        {
          "internalType": "address",
          "name": "supportable",
          "type": "address"
        },
        {
          "internalType": "uint8",
          "name": "supportingRatio",
          "type": "uint8"
        },
        {
          "internalType": "uint256",
          "name": "allocPoint",
          "type": "uint256"
        }
      ],
      "name": "add",
      "outputs": [],
      "stateMutability": "nonpayable",
      "type": "function"
    },
    {
      "inputs": [
        {
          "internalType": "address",
          "name": "addr",
          "type": "address"
        }
      ],
      "name": "changeRewardCalculator",
      "outputs": [],
      "stateMutability": "nonpayable",
      "type": "function"
    },
    {
      "inputs": [],
      "name": "decreasingInterval",
      "outputs": [
        {
          "internalType": "uint256",
          "name": "",
          "type": "uint256"
        }
      ],
      "stateMutability": "view",
      "type": "function"
    },
    {
      "inputs": [
        {
          "internalType": "uint256",
          "name": "pid",
          "type": "uint256"
        },
        {
          "internalType": "uint256",
          "name": "amount",
          "type": "uint256"
        },
        {
          "internalType": "uint256",
          "name": "userId",
          "type": "uint256"
        }
      ],
      "name": "deposit",
      "outputs": [],
      "stateMutability": "nonpayable",
      "type": "function"
    },
    {
      "inputs": [
        {
          "internalType": "uint256",
          "name": "pid",
          "type": "uint256"
        },
        {
          "internalType": "uint256",
          "name": "amount",
          "type": "uint256"
        },
        {
          "internalType": "uint256",
          "name": "userId",
          "type": "uint256"
        },
        {
          "internalType": "uint256",
          "name": "deadline",
          "type": "uint256"
        },
        {
          "internalType": "uint8",
          "name": "v",
          "type": "uint8"
        },
        {
          "internalType": "bytes32",
          "name": "r",
          "type": "bytes32"
        },
        {
          "internalType": "bytes32",
          "name": "s",
          "type": "bytes32"
        }
      ],
      "name": "depositWithPermit",
      "outputs": [],
      "stateMutability": "nonpayable",
      "type": "function"
    },
    {
      "inputs": [
        {
          "internalType": "uint256",
          "name": "pid",
          "type": "uint256"
        },
        {
          "internalType": "uint256",
          "name": "amount",
          "type": "uint256"
        },
        {
          "internalType": "uint256",
          "name": "userId",
          "type": "uint256"
        },
        {
          "internalType": "uint256",
          "name": "deadline",
          "type": "uint256"
        },
        {
          "internalType": "uint8",
          "name": "v",
          "type": "uint8"
        },
        {
          "internalType": "bytes32",
          "name": "r",
          "type": "bytes32"
        },
        {
          "internalType": "bytes32",
          "name": "s",
          "type": "bytes32"
        }
      ],
      "name": "depositWithPermitMax",
      "outputs": [],
      "stateMutability": "nonpayable",
      "type": "function"
    },
    {
      "inputs": [
        {
          "internalType": "uint256",
          "name": "pid",
          "type": "uint256"
        },
        {
          "internalType": "uint256",
          "name": "amount",
          "type": "uint256"
        }
      ],
      "name": "desupport",
      "outputs": [],
      "stateMutability": "nonpayable",
      "type": "function"
    },
    {
      "inputs": [
        {
          "internalType": "uint256",
          "name": "pid",
          "type": "uint256"
        }
      ],
      "name": "emergencyDesupport",
      "outputs": [],
      "stateMutability": "nonpayable",
      "type": "function"
    },
    {
      "inputs": [
        {
          "internalType": "uint256",
          "name": "pid",
          "type": "uint256"
        }
      ],
      "name": "emergencyWithdraw",
      "outputs": [],
      "stateMutability": "nonpayable",
      "type": "function"
    },
    {
      "inputs": [],
      "name": "initialRewardPerBlock",
      "outputs": [
        {
          "internalType": "uint256",
          "name": "",
          "type": "uint256"
        }
      ],
      "stateMutability": "view",
      "type": "function"
    },
    {
      "inputs": [],
      "name": "maidCoin",
      "outputs": [
        {
          "internalType": "contract IMaidCoin",
          "name": "",
          "type": "address"
        }
      ],
      "stateMutability": "view",
      "type": "function"
    },
    {
      "inputs": [
        {
          "internalType": "address",
          "name": "to",
          "type": "address"
        },
        {
          "internalType": "uint256",
          "name": "amount",
          "type": "uint256"
        }
      ],
      "name": "mint",
      "outputs": [],
      "stateMutability": "nonpayable",
      "type": "function"
    },
    {
      "inputs": [],
      "name": "owner",
      "outputs": [
        {
          "internalType": "address",
          "name": "",
          "type": "address"
        }
      ],
      "stateMutability": "view",
      "type": "function"
    },
    {
      "inputs": [
        {
          "internalType": "uint256",
          "name": "pid",
          "type": "uint256"
        },
        {
          "internalType": "uint256",
          "name": "userId",
          "type": "uint256"
        }
      ],
      "name": "pendingReward",
      "outputs": [
        {
          "internalType": "uint256",
          "name": "",
          "type": "uint256"
        }
      ],
      "stateMutability": "view",
      "type": "function"
    },
    {
      "inputs": [
        {
          "internalType": "address",
          "name": "",
          "type": "address"
        }
      ],
      "name": "pidByAddr",
      "outputs": [
        {
          "internalType": "uint256",
          "name": "",
          "type": "uint256"
        }
      ],
      "stateMutability": "view",
      "type": "function"
    },
    {
      "inputs": [
        {
          "internalType": "uint256",
          "name": "",
          "type": "uint256"
        }
      ],
      "name": "poolInfo",
      "outputs": [
        {
          "internalType": "address",
          "name": "addr",
          "type": "address"
        },
        {
          "internalType": "bool",
          "name": "delegate",
          "type": "bool"
        },
        {
          "internalType": "bool",
          "name": "mintable",
          "type": "bool"
        },
        {
          "internalType": "contract ISupportable",
          "name": "supportable",
          "type": "address"
        },
        {
          "internalType": "uint8",
          "name": "supportingRatio",
          "type": "uint8"
        },
        {
          "internalType": "uint256",
          "name": "allocPoint",
          "type": "uint256"
        },
        {
          "internalType": "uint256",
          "name": "lastRewardBlock",
          "type": "uint256"
        },
        {
          "internalType": "uint256",
          "name": "accRewardPerShare",
          "type": "uint256"
        },
        {
          "internalType": "uint256",
          "name": "supply",
          "type": "uint256"
        }
      ],
      "stateMutability": "view",
      "type": "function"
    },
    {
      "inputs": [],
      "name": "renounceOwnership",
      "outputs": [],
      "stateMutability": "nonpayable",
      "type": "function"
    },
    {
      "inputs": [],
      "name": "rewardCalculator",
      "outputs": [
        {
          "internalType": "contract IRewardCalculator",
          "name": "",
          "type": "address"
        }
      ],
      "stateMutability": "view",
      "type": "function"
    },
    {
      "inputs": [],
      "name": "rewardPerBlock",
      "outputs": [
        {
          "internalType": "uint256",
          "name": "",
          "type": "uint256"
        }
      ],
      "stateMutability": "view",
      "type": "function"
    },
    {
      "inputs": [
        {
          "internalType": "uint256",
          "name": "pid",
          "type": "uint256"
        },
        {
          "internalType": "uint256",
          "name": "allocPoint",
          "type": "uint256"
        }
      ],
      "name": "set",
      "outputs": [],
      "stateMutability": "nonpayable",
      "type": "function"
    },
    {
      "inputs": [],
      "name": "startBlock",
      "outputs": [
        {
          "internalType": "uint256",
          "name": "",
          "type": "uint256"
        }
      ],
      "stateMutability": "view",
      "type": "function"
    },
    {
      "inputs": [
        {
          "internalType": "uint256",
          "name": "pid",
          "type": "uint256"
        },
        {
          "internalType": "uint256",
          "name": "amount",
          "type": "uint256"
        },
        {
          "internalType": "uint256",
          "name": "supportTo",
          "type": "uint256"
        }
      ],
      "name": "support",
      "outputs": [],
      "stateMutability": "nonpayable",
      "type": "function"
    },
    {
      "inputs": [],
      "name": "totalAllocPoint",
      "outputs": [
        {
          "internalType": "uint256",
          "name": "",
          "type": "uint256"
        }
      ],
      "stateMutability": "view",
      "type": "function"
    },
    {
      "inputs": [
        {
          "internalType": "address",
          "name": "newOwner",
          "type": "address"
        }
      ],
      "name": "transferOwnership",
      "outputs": [],
      "stateMutability": "nonpayable",
      "type": "function"
    },
    {
      "inputs": [
        {
          "internalType": "uint256",
          "name": "",
          "type": "uint256"
        },
        {
          "internalType": "uint256",
          "name": "",
          "type": "uint256"
        }
      ],
      "name": "userInfo",
      "outputs": [
        {
          "internalType": "uint256",
          "name": "amount",
          "type": "uint256"
        },
        {
          "internalType": "uint256",
          "name": "rewardDebt",
          "type": "uint256"
        }
      ],
      "stateMutability": "view",
      "type": "function"
    },
    {
      "inputs": [
        {
          "internalType": "uint256",
          "name": "pid",
          "type": "uint256"
        },
        {
          "internalType": "uint256",
          "name": "amount",
          "type": "uint256"
        },
        {
          "internalType": "uint256",
          "name": "userId",
          "type": "uint256"
        }
      ],
      "name": "withdraw",
      "outputs": [],
      "stateMutability": "nonpayable",
      "type": "function"
    }
  ],
  "bytecode": "0x6101006040523480156200001257600080fd5b5060405162004a0138038062004a01833981810160405281019062000038919062000177565b60006200004a6200014160201b60201c565b9050806000806101000a81548173ffffffffffffffffffffffffffffffffffffffff021916908373ffffffffffffffffffffffffffffffffffffffff1602179055508073ffffffffffffffffffffffffffffffffffffffff16600073ffffffffffffffffffffffffffffffffffffffff167f8be0079c531659141344cd1fd0a4f28419497f9722a3daafe3b4186f6b6457e060405160405180910390a35083608081815250508260a081815250508160c081815250508073ffffffffffffffffffffffffffffffffffffffff1660e08173ffffffffffffffffffffffffffffffffffffffff1660601b815250505050505062000274565b600033905090565b6000815190506200015a8162000240565b92915050565b60008151905062000171816200025a565b92915050565b600080600080608085870312156200019457620001936200023b565b5b6000620001a48782880162000160565b9450506020620001b78782880162000160565b9350506040620001ca8782880162000160565b9250506060620001dd8782880162000149565b91505092959194509250565b6000620001f68262000211565b9050919050565b60006200020a82620001e9565b9050919050565b600073ffffffffffffffffffffffffffffffffffffffff82169050919050565b6000819050919050565b600080fd5b6200024b81620001fd565b81146200025757600080fd5b50565b620002658162000231565b81146200027157600080fd5b50565b60805160a05160c05160e05160601c61470a620002f7600039600081816111b20152818161192d01528181612b0e01528181612be401528181612c970152612d4a0152600081816108770152818161089e015281816112430152611a7201526000818161148c0152611a510152600081816117cf0152611ab7015261470a6000f3fe608060405234801561001057600080fd5b506004361061018d5760003560e01c806366d31e1b116100de57806396769e8911610097578063b345dc8c11610071578063b345dc8c1461043c578063e692c4531461046d578063f2fde38b14610489578063f440c1eb146104a55761018d565b806396769e89146103e6578063a234d60814610404578063a41fe49f146104205761018d565b806366d31e1b146103485780636b56781a14610364578063715018a614610382578063849e5aff1461038c5780638ae39cac146103aa5780638da5cb5b146103c85761018d565b80633d12f60d1161014b57806348cd4cb11161012557806348cd4cb1146102d45780635312ea8e146102f257806354ae7bb01461030e5780635acf624c1461032c5761018d565b80633d12f60d1461026c5780633fed8e8d1461029c57806340c10f19146102b85761018d565b8062aeef8a14610192578063058048ef146101ae5780631526fe27146101ca57806317caf6f1146102025780631ab06ee5146102205780633185c0bd1461023c575b600080fd5b6101ac60048036038101906101a79190613503565b6104c1565b005b6101c860048036038101906101c3919061332f565b610719565b005b6101e460048036038101906101df9190613469565b610b35565b6040516101f999989796959493929190613a7c565b60405180910390f35b61020a610bfa565b6040516102179190613e2a565b60405180910390f35b61023a600480360381019061023591906134c3565b610c00565b005b610256600480360381019061025191906134c3565b610d2e565b6040516102639190613e2a565b60405180910390f35b61028660048036038101906102819190613302565b610ff7565b6040516102939190613e2a565b60405180910390f35b6102b660048036038101906102b19190613556565b61100f565b005b6102d260048036038101906102cd91906133bc565b6110ff565b005b6102dc611241565b6040516102e99190613e2a565b60405180910390f35b61030c60048036038101906103079190613469565b611265565b005b61031661148a565b6040516103239190613e2a565b60405180910390f35b61034660048036038101906103419190613469565b6114ae565b005b610362600480360381019061035d9190613556565b6116fd565b005b61036c6117cd565b6040516103799190613e2a565b60405180910390f35b61038a6117f1565b005b61039461192b565b6040516103a19190613b92565b60405180910390f35b6103b261194f565b6040516103bf9190613e2a565b60405180910390f35b6103d0611ae7565b6040516103dd9190613976565b60405180910390f35b6103ee611b10565b6040516103fb9190613bad565b60405180910390f35b61041e600480360381019061041991906134c3565b611b36565b005b61043a60048036038101906104359190613503565b611f21565b005b610456600480360381019061045191906134c3565b612179565b604051610464929190613e7c565b60405180910390f35b61048760048036038101906104829190613503565b6121aa565b005b6104a3600480360381019061049e9190613302565b6125d4565b005b6104bf60048036038101906104ba9190613302565b61277d565b005b6000600284815481106104d7576104d66141e4565b5b90600052602060002090600602019050600073ffffffffffffffffffffffffffffffffffffffff168160010160009054906101000a900473ffffffffffffffffffffffffffffffffffffffff1673ffffffffffffffffffffffffffffffffffffffff161461057a576040517f08c379a000000000000000000000000000000000000000000000000000000000815260040161057190613cca565b60405180910390fd5b600060036000868152602001908152602001600020600084815260200190815260200160002090508160000160149054906101000a900460ff161561065d573373ffffffffffffffffffffffffffffffffffffffff168260000160009054906101000a900473ffffffffffffffffffffffffffffffffffffffff1673ffffffffffffffffffffffffffffffffffffffff161461064b576040517f08c379a000000000000000000000000000000000000000000000000000000000815260040161064290613d8a565b60405180910390fd5b6106588282866000612874565b6106d9565b3373ffffffffffffffffffffffffffffffffffffffff168373ffffffffffffffffffffffffffffffffffffffff16146106cb576040517f08c379a00000000000000000000000000000000000000000000000000000000081526004016106c290613daa565b60405180910390fd5b6106d88282866001612874565b5b84837f33da4f9b82b3e18a281ca2cabbe2f076925692abb593b7ea3f850009e8ec97708660405161070a9190613e2a565b60405180910390a35050505050565b6107216129a5565b73ffffffffffffffffffffffffffffffffffffffff1661073f611ae7565b73ffffffffffffffffffffffffffffffffffffffff1614610795576040517f08c379a000000000000000000000000000000000000000000000000000000000815260040161078c90613cea565b60405180910390fd5b600073ffffffffffffffffffffffffffffffffffffffff168373ffffffffffffffffffffffffffffffffffffffff16146108245760008260ff161180156107e0575060508260ff1611155b61081f576040517f08c379a000000000000000000000000000000000000000000000000000000000815260040161081690613c2a565b60405180910390fd5b61086b565b60008260ff161461086a576040517f08c379a000000000000000000000000000000000000000000000000000000000815260040161086190613c6a565b60405180910390fd5b5b6108736129ad565b60007f000000000000000000000000000000000000000000000000000000000000000043116108c2577f00000000000000000000000000000000000000000000000000000000000000006108c4565b435b905081600560008282546108d89190613ed7565b925050819055506000600280549050905080600460008a73ffffffffffffffffffffffffffffffffffffffff1673ffffffffffffffffffffffffffffffffffffffff1681526020019081526020016000208190555060026040518061012001604052808a73ffffffffffffffffffffffffffffffffffffffff168152602001891515815260200188151581526020018773ffffffffffffffffffffffffffffffffffffffff1681526020018660ff168152602001858152602001848152602001600081526020016000815250908060018154018082558091505060019003906000526020600020906006020160009091909190915060008201518160000160006101000a81548173ffffffffffffffffffffffffffffffffffffffff021916908373ffffffffffffffffffffffffffffffffffffffff16021790555060208201518160000160146101000a81548160ff02191690831515021790555060408201518160000160156101000a81548160ff02191690831515021790555060608201518160010160006101000a81548173ffffffffffffffffffffffffffffffffffffffff021916908373ffffffffffffffffffffffffffffffffffffffff16021790555060808201518160010160146101000a81548160ff021916908360ff16021790555060a0820151816002015560c0820151816003015560e0820151816004015561010082015181600501555050851515871515827f85c5f9763b69537638ed9b50435c7c1296747fc78c92080777dd20909d46d0ac8b898989604051610b239493929190613a37565b60405180910390a45050505050505050565b60028181548110610b4557600080fd5b90600052602060002090600602016000915090508060000160009054906101000a900473ffffffffffffffffffffffffffffffffffffffff16908060000160149054906101000a900460ff16908060000160159054906101000a900460ff16908060010160009054906101000a900473ffffffffffffffffffffffffffffffffffffffff16908060010160149054906101000a900460ff16908060020154908060030154908060040154908060050154905089565b60055481565b610c086129a5565b73ffffffffffffffffffffffffffffffffffffffff16610c26611ae7565b73ffffffffffffffffffffffffffffffffffffffff1614610c7c576040517f08c379a0000000000000000000000000000000000000000000000000000000008152600401610c7390613cea565b60405180910390fd5b610c846129ad565b8060028381548110610c9957610c986141e4565b5b906000526020600020906006020160020154600554610cb89190613fb8565b610cc29190613ed7565b6005819055508060028381548110610cdd57610cdc6141e4565b5b906000526020600020906006020160020181905550817f545b620a3000f6303b158b321f06b4e95e28a27d70aecac8c6bdac4f48a9f6b382604051610d229190613e2a565b60405180910390a25050565b60008060028481548110610d4557610d446141e4565b5b9060005260206000209060060201604051806101200160405290816000820160009054906101000a900473ffffffffffffffffffffffffffffffffffffffff1673ffffffffffffffffffffffffffffffffffffffff1673ffffffffffffffffffffffffffffffffffffffff1681526020016000820160149054906101000a900460ff161515151581526020016000820160159054906101000a900460ff161515151581526020016001820160009054906101000a900473ffffffffffffffffffffffffffffffffffffffff1673ffffffffffffffffffffffffffffffffffffffff1673ffffffffffffffffffffffffffffffffffffffff1681526020016001820160149054906101000a900460ff1660ff1660ff168152602001600282015481526020016003820154815260200160048201548152602001600582015481525050905060006003600086815260200190815260200160002060008581526020019081526020016000206040518060400160405290816000820154815260200160018201548152505090506000808360e00151846101000151915091508360c0015143118015610ef5575060008114155b15610f6b5760006005548560a00151610f0c61194f565b8760c0015143610f1c9190613fb8565b610f269190613f5e565b610f309190613f5e565b610f3a9190613f2d565b90508168056bc75e2d6310000082610f529190613f5e565b610f5c9190613f2d565b83610f679190613ed7565b9250505b6000836020015168056bc75e2d63100000848660000151610f8c9190613f5e565b610f969190613f2d565b610fa09190613fb8565b90506000856080015160ff161415610fbf578095505050505050610ff1565b6064856080015160ff1682610fd49190613f5e565b610fde9190613f2d565b81610fe99190613fb8565b955050505050505b92915050565b60046020528060005260406000206000915090505481565b60028781548110611023576110226141e4565b5b906000526020600020906006020160000160009054906101000a900473ffffffffffffffffffffffffffffffffffffffff1673ffffffffffffffffffffffffffffffffffffffff1663d505accf33307fffffffffffffffffffffffffffffffffffffffffffffffffffffffffffffffff888888886040518863ffffffff1660e01b81526004016110b997969594939291906139c8565b600060405180830381600087803b1580156110d357600080fd5b505af11580156110e7573d6000803e3d6000fd5b505050506110f68787876104c1565b50505050505050565b6002600460003373ffffffffffffffffffffffffffffffffffffffff1673ffffffffffffffffffffffffffffffffffffffff1681526020019081526020016000205481548110611152576111516141e4565b5b906000526020600020906006020160000160159054906101000a900460ff166111b0576040517f08c379a00000000000000000000000000000000000000000000000000000000081526004016111a790613d2a565b60405180910390fd5b7f000000000000000000000000000000000000000000000000000000000000000073ffffffffffffffffffffffffffffffffffffffff166340c10f1983836040518363ffffffff1660e01b815260040161120b929190613b32565b600060405180830381600087803b15801561122557600080fd5b505af1158015611239573d6000803e3d6000fd5b505050505050565b7f000000000000000000000000000000000000000000000000000000000000000081565b60006002828154811061127b5761127a6141e4565b5b90600052602060002090600602019050600073ffffffffffffffffffffffffffffffffffffffff168160010160009054906101000a900473ffffffffffffffffffffffffffffffffffffffff1673ffffffffffffffffffffffffffffffffffffffff161461131e576040517f08c379a000000000000000000000000000000000000000000000000000000000815260040161131590613e0a565b60405180910390fd5b8060000160149054906101000a900460ff1615611370576040517f08c379a000000000000000000000000000000000000000000000000000000000815260040161136790613dca565b60405180910390fd5b60006003600084815260200190815260200160002060003373ffffffffffffffffffffffffffffffffffffffff16815260200190815260200160002090506000816000015490506000826000018190555060008260010181905550808360050160008282546113df9190613fb8565b9250508190555061143533828560000160009054906101000a900473ffffffffffffffffffffffffffffffffffffffff1673ffffffffffffffffffffffffffffffffffffffff16612a019092919063ffffffff16565b833373ffffffffffffffffffffffffffffffffffffffff167fbb757047c2b5f3974fe26b7c10f732e7bce710b0952a71082702781e62ae05958360405161147c9190613e2a565b60405180910390a350505050565b7f000000000000000000000000000000000000000000000000000000000000000081565b6000600282815481106114c4576114c36141e4565b5b9060005260206000209060060201905060008160010160009054906101000a900473ffffffffffffffffffffffffffffffffffffffff169050600073ffffffffffffffffffffffffffffffffffffffff168173ffffffffffffffffffffffffffffffffffffffff161461156c576040517f08c379a000000000000000000000000000000000000000000000000000000000815260040161156390613caa565b60405180910390fd5b60006003600085815260200190815260200160002060003373ffffffffffffffffffffffffffffffffffffffff16815260200190815260200160002090506000816000015490506000826000018190555060008260010181905550808460050160008282546115db9190613fb8565b925050819055508273ffffffffffffffffffffffffffffffffffffffff1663ddfeacca33836116099061413d565b6040518363ffffffff1660e01b8152600401611626929190613b09565b600060405180830381600087803b15801561164057600080fd5b505af1158015611654573d6000803e3d6000fd5b505050506116a733828660000160009054906101000a900473ffffffffffffffffffffffffffffffffffffffff1673ffffffffffffffffffffffffffffffffffffffff16612a019092919063ffffffff16565b843373ffffffffffffffffffffffffffffffffffffffff167f67a463e34014cd44cda35b27bf0daebb9c9e138b4e4b6ef2a23170d79595f8a0836040516116ee9190613e2a565b60405180910390a35050505050565b60028781548110611711576117106141e4565b5b906000526020600020906006020160000160009054906101000a900473ffffffffffffffffffffffffffffffffffffffff1673ffffffffffffffffffffffffffffffffffffffff1663d505accf333089888888886040518863ffffffff1660e01b815260040161178797969594939291906139c8565b600060405180830381600087803b1580156117a157600080fd5b505af11580156117b5573d6000803e3d6000fd5b505050506117c48787876104c1565b50505050505050565b7f000000000000000000000000000000000000000000000000000000000000000081565b6117f96129a5565b73ffffffffffffffffffffffffffffffffffffffff16611817611ae7565b73ffffffffffffffffffffffffffffffffffffffff161461186d576040517f08c379a000000000000000000000000000000000000000000000000000000000815260040161186490613cea565b60405180910390fd5b600073ffffffffffffffffffffffffffffffffffffffff1660008054906101000a900473ffffffffffffffffffffffffffffffffffffffff1673ffffffffffffffffffffffffffffffffffffffff167f8be0079c531659141344cd1fd0a4f28419497f9722a3daafe3b4186f6b6457e060405160405180910390a360008060006101000a81548173ffffffffffffffffffffffffffffffffffffffff021916908373ffffffffffffffffffffffffffffffffffffffff160217905550565b7f000000000000000000000000000000000000000000000000000000000000000081565b60008073ffffffffffffffffffffffffffffffffffffffff16600160009054906101000a900473ffffffffffffffffffffffffffffffffffffffff1673ffffffffffffffffffffffffffffffffffffffff1614611a4d57600160009054906101000a900473ffffffffffffffffffffffffffffffffffffffff1673ffffffffffffffffffffffffffffffffffffffff16638ae39cac6040518163ffffffff1660e01b815260040160206040518083038186803b158015611a0e57600080fd5b505afa158015611a22573d6000803e3d6000fd5b505050506040513d601f19601f82011682018060405250810190611a469190613496565b9050611ae4565b60007f00000000000000000000000000000000000000000000000000000000000000007f000000000000000000000000000000000000000000000000000000000000000043611a9c9190613fb8565b611aa69190613f2d565b9050600181611ab59190613ed7565b7f0000000000000000000000000000000000000000000000000000000000000000611ae09190613f2d565b9150505b90565b60008060009054906101000a900473ffffffffffffffffffffffffffffffffffffffff16905090565b600160009054906101000a900473ffffffffffffffffffffffffffffffffffffffff1681565b600060028381548110611b4c57611b4b6141e4565b5b9060005260206000209060060201905060008160010160009054906101000a900473ffffffffffffffffffffffffffffffffffffffff169050600073ffffffffffffffffffffffffffffffffffffffff168173ffffffffffffffffffffffffffffffffffffffff161415611bf5576040517f08c379a0000000000000000000000000000000000000000000000000000000008152600401611bec90613c8a565b60405180910390fd5b60006003600086815260200190815260200160002060003373ffffffffffffffffffffffffffffffffffffffff168152602001908152602001600020905060008160000154905084811015611c7f576040517f08c379a0000000000000000000000000000000000000000000000000000000008152600401611c7690613d0a565b60405180910390fd5b611c8884612a87565b6000846004015490506000836001015468056bc75e2d631000008385611cae9190613f5e565b611cb89190613f2d565b611cc29190613fb8565b90506000811115611d9f576000808673ffffffffffffffffffffffffffffffffffffffff166303273bc784338b60010160149054906101000a900460ff166040518463ffffffff1660e01b8152600401611d1e93929190613e45565b6040805180830381600087803b158015611d3757600080fd5b505af1158015611d4b573d6000803e3d6000fd5b505050506040513d601f19601f82011682018060405250810190611d6f91906133fc565b915091506000811115611d8757611d868282612be0565b5b611d9c338285611d979190613fb8565b612be0565b50505b6000871115611ea0578473ffffffffffffffffffffffffffffffffffffffff1663ddfeacca3389611dcf9061413d565b6040518363ffffffff1660e01b8152600401611dec929190613b09565b600060405180830381600087803b158015611e0657600080fd5b505af1158015611e1a573d6000803e3d6000fd5b5050505086866005016000828254611e329190613fb8565b925050819055508683611e459190613fb8565b9250828460000181905550611e9f33888860000160009054906101000a900473ffffffffffffffffffffffffffffffffffffffff1673ffffffffffffffffffffffffffffffffffffffff16612a019092919063ffffffff16565b5b68056bc75e2d631000008284611eb69190613f5e565b611ec09190613f2d565b8460010181905550873373ffffffffffffffffffffffffffffffffffffffff167fbcb1b254c83676670cc415f8ce8239bb9e972244993586ef7bf282f85ddadfe089604051611f0f9190613e2a565b60405180910390a35050505050505050565b600060028481548110611f3757611f366141e4565b5b90600052602060002090600602019050600073ffffffffffffffffffffffffffffffffffffffff168160010160009054906101000a900473ffffffffffffffffffffffffffffffffffffffff1673ffffffffffffffffffffffffffffffffffffffff1614611fda576040517f08c379a0000000000000000000000000000000000000000000000000000000008152600401611fd190613e0a565b60405180910390fd5b600060036000868152602001908152602001600020600084815260200190815260200160002090508160000160149054906101000a900460ff16156120bd573373ffffffffffffffffffffffffffffffffffffffff168260000160009054906101000a900473ffffffffffffffffffffffffffffffffffffffff1673ffffffffffffffffffffffffffffffffffffffff16146120ab576040517f08c379a00000000000000000000000000000000000000000000000000000000081526004016120a290613d8a565b60405180910390fd5b6120b88282866000612dfc565b612139565b3373ffffffffffffffffffffffffffffffffffffffff168373ffffffffffffffffffffffffffffffffffffffff161461212b576040517f08c379a000000000000000000000000000000000000000000000000000000000815260040161212290613dea565b60405180910390fd5b6121388282866001612dfc565b5b84837fa01a72713bf837059e3a668d28f0de277fb7f24f2a4e95bf926703c95b5f12b28660405161216a9190613e2a565b60405180910390a35050505050565b6003602052816000526040600020602052806000526040600020600091509150508060000154908060010154905082565b6000600284815481106121c0576121bf6141e4565b5b9060005260206000209060060201905060008160010160009054906101000a900473ffffffffffffffffffffffffffffffffffffffff169050600073ffffffffffffffffffffffffffffffffffffffff168173ffffffffffffffffffffffffffffffffffffffff161415612269576040517f08c379a000000000000000000000000000000000000000000000000000000000815260040161226090613c0a565b60405180910390fd5b60006003600087815260200190815260200160002060003373ffffffffffffffffffffffffffffffffffffffff16815260200190815260200160002090506122b083612a87565b60008360040154905060008260000154905060008111156123db576000836001015468056bc75e2d6310000084846122e89190613f5e565b6122f29190613f2d565b6122fc9190613fb8565b905060008111156123d9576000808673ffffffffffffffffffffffffffffffffffffffff166303273bc784338b60010160149054906101000a900460ff166040518463ffffffff1660e01b815260040161235893929190613e45565b6040805180830381600087803b15801561237157600080fd5b505af1158015612385573d6000803e3d6000fd5b505050506040513d601f19601f820116820180604052508101906123a991906133fc565b9150915060008111156123c1576123c08282612be0565b5b6123d63382856123d19190613fb8565b612be0565b50505b505b6000871115612553576000811415612461578373ffffffffffffffffffffffffffffffffffffffff1663b252144a33888a6040518463ffffffff1660e01b815260040161242a93929190613b5b565b600060405180830381600087803b15801561244457600080fd5b505af1158015612458573d6000803e3d6000fd5b505050506124cf565b8373ffffffffffffffffffffffffffffffffffffffff1663ddfeacca33896040518363ffffffff1660e01b815260040161249c929190613b09565b600060405180830381600087803b1580156124b657600080fd5b505af11580156124ca573d6000803e3d6000fd5b505050505b6125203330898860000160009054906101000a900473ffffffffffffffffffffffffffffffffffffffff1673ffffffffffffffffffffffffffffffffffffffff16612f64909392919063ffffffff16565b868560050160008282546125349190613ed7565b9250508190555086816125479190613ed7565b90508083600001819055505b68056bc75e2d6310000082826125699190613f5e565b6125739190613f2d565b8360010181905550873373ffffffffffffffffffffffffffffffffffffffff167f3391b7506551053a045b28b04ba34acfab377a47e91db9f4a46d8ac01acac14f896040516125c29190613e2a565b60405180910390a35050505050505050565b6125dc6129a5565b73ffffffffffffffffffffffffffffffffffffffff166125fa611ae7565b73ffffffffffffffffffffffffffffffffffffffff1614612650576040517f08c379a000000000000000000000000000000000000000000000000000000000815260040161264790613cea565b60405180910390fd5b600073ffffffffffffffffffffffffffffffffffffffff168173ffffffffffffffffffffffffffffffffffffffff1614156126c0576040517f08c379a00000000000000000000000000000000000000000000000000000000081526004016126b790613bea565b60405180910390fd5b8073ffffffffffffffffffffffffffffffffffffffff1660008054906101000a900473ffffffffffffffffffffffffffffffffffffffff1673ffffffffffffffffffffffffffffffffffffffff167f8be0079c531659141344cd1fd0a4f28419497f9722a3daafe3b4186f6b6457e060405160405180910390a3806000806101000a81548173ffffffffffffffffffffffffffffffffffffffff021916908373ffffffffffffffffffffffffffffffffffffffff16021790555050565b6127856129a5565b73ffffffffffffffffffffffffffffffffffffffff166127a3611ae7565b73ffffffffffffffffffffffffffffffffffffffff16146127f9576040517f08c379a00000000000000000000000000000000000000000000000000000000081526004016127f090613cea565b60405180910390fd5b80600160006101000a81548173ffffffffffffffffffffffffffffffffffffffff021916908373ffffffffffffffffffffffffffffffffffffffff1602179055507f065fc3b77c68c383644c8d30a3e1f0df39d6f0ddc721adc950902574d599622b816040516128699190613976565b60405180910390a150565b61287d84612a87565b60008460040154905060008460000154905060008111156128e1576000856001015468056bc75e2d6310000084846128b59190613f5e565b6128bf9190613f2d565b6128c99190613fb8565b905060008111156128df576128de3382612be0565b5b505b6000841115612975578215612942576129413330868960000160009054906101000a900473ffffffffffffffffffffffffffffffffffffffff1673ffffffffffffffffffffffffffffffffffffffff16612f64909392919063ffffffff16565b5b838660050160008282546129569190613ed7565b9250508190555083816129699190613ed7565b90508085600001819055505b68056bc75e2d63100000828261298b9190613f5e565b6129959190613f2d565b8560010181905550505050505050565b600033905090565b6000600280549050905060005b818110156129fd576129ec600282815481106129d9576129d86141e4565b5b9060005260206000209060060201612a87565b806129f6906140f4565b90506129ba565b5050565b612a828363a9059cbb60e01b8484604051602401612a20929190613b32565b604051602081830303815290604052907bffffffffffffffffffffffffffffffffffffffffffffffffffffffff19166020820180517bffffffffffffffffffffffffffffffffffffffffffffffffffffffff8381831617835250505050612fed565b505050565b600081600301549050804311612a9d5750612bdd565b6000826005015490506000811480612ab9575060008360020154145b15612ace574383600301819055505050612bdd565b60006005548460020154612ae061194f565b8543612aec9190613fb8565b612af69190613f5e565b612b009190613f5e565b612b0a9190613f2d565b90507f000000000000000000000000000000000000000000000000000000000000000073ffffffffffffffffffffffffffffffffffffffff166340c10f1930836040518363ffffffff1660e01b8152600401612b67929190613b32565b600060405180830381600087803b158015612b8157600080fd5b505af1158015612b95573d6000803e3d6000fd5b505050508168056bc75e2d6310000082612baf9190613f5e565b612bb99190613f2d565b8460040154612bc89190613ed7565b84600401819055504384600301819055505050505b50565b60007f000000000000000000000000000000000000000000000000000000000000000073ffffffffffffffffffffffffffffffffffffffff166370a08231306040518263ffffffff1660e01b8152600401612c3b9190613976565b60206040518083038186803b158015612c5357600080fd5b505afa158015612c67573d6000803e3d6000fd5b505050506040513d601f19601f82011682018060405250810190612c8b9190613496565b905080821115612d48577f000000000000000000000000000000000000000000000000000000000000000073ffffffffffffffffffffffffffffffffffffffff1663a9059cbb84836040518363ffffffff1660e01b8152600401612cf0929190613b32565b602060405180830381600087803b158015612d0a57600080fd5b505af1158015612d1e573d6000803e3d6000fd5b505050506040513d601f19601f82011682018060405250810190612d42919061343c565b50612df7565b7f000000000000000000000000000000000000000000000000000000000000000073ffffffffffffffffffffffffffffffffffffffff1663a9059cbb84846040518363ffffffff1660e01b8152600401612da3929190613b32565b602060405180830381600087803b158015612dbd57600080fd5b505af1158015612dd1573d6000803e3d6000fd5b505050506040513d601f19601f82011682018060405250810190612df5919061343c565b505b505050565b60008360000154905082811015612e48576040517f08c379a0000000000000000000000000000000000000000000000000000000008152600401612e3f90613d0a565b60405180910390fd5b612e5185612a87565b6000856004015490506000856001015468056bc75e2d631000008385612e779190613f5e565b612e819190613f2d565b612e8b9190613fb8565b90506000811115612ea157612ea03382612be0565b5b6000851115612f335784876005016000828254612ebe9190613fb8565b925050819055508483612ed19190613fb8565b92508286600001819055508315612f3257612f3133868960000160009054906101000a900473ffffffffffffffffffffffffffffffffffffffff1673ffffffffffffffffffffffffffffffffffffffff16612a019092919063ffffffff16565b5b5b68056bc75e2d631000008284612f499190613f5e565b612f539190613f2d565b866001018190555050505050505050565b612fe7846323b872dd60e01b858585604051602401612f8593929190613991565b604051602081830303815290604052907bffffffffffffffffffffffffffffffffffffffffffffffffffffffff19166020820180517bffffffffffffffffffffffffffffffffffffffffffffffffffffffff8381831617835250505050612fed565b50505050565b600061304f826040518060400160405280602081526020017f5361666545524332303a206c6f772d6c6576656c2063616c6c206661696c65648152508573ffffffffffffffffffffffffffffffffffffffff166130b49092919063ffffffff16565b90506000815111156130af578080602001905181019061306f919061343c565b6130ae576040517f08c379a00000000000000000000000000000000000000000000000000000000081526004016130a590613d6a565b60405180910390fd5b5b505050565b60606130c384846000856130cc565b90509392505050565b606082471015613111576040517f08c379a000000000000000000000000000000000000000000000000000000000815260040161310890613c4a565b60405180910390fd5b61311a856131e0565b613159576040517f08c379a000000000000000000000000000000000000000000000000000000000815260040161315090613d4a565b60405180910390fd5b6000808673ffffffffffffffffffffffffffffffffffffffff168587604051613182919061395f565b60006040518083038185875af1925050503d80600081146131bf576040519150601f19603f3d011682016040523d82523d6000602084013e6131c4565b606091505b50915091506131d48282866131f3565b92505050949350505050565b600080823b905060008111915050919050565b6060831561320357829050613253565b6000835111156132165782518084602001fd5b816040517f08c379a000000000000000000000000000000000000000000000000000000000815260040161324a9190613bc8565b60405180910390fd5b9392505050565b60008135905061326981614661565b92915050565b60008151905061327e81614661565b92915050565b60008135905061329381614678565b92915050565b6000815190506132a881614678565b92915050565b6000813590506132bd8161468f565b92915050565b6000813590506132d2816146a6565b92915050565b6000815190506132e7816146a6565b92915050565b6000813590506132fc816146bd565b92915050565b60006020828403121561331857613317614213565b5b60006133268482850161325a565b91505092915050565b60008060008060008060c0878903121561334c5761334b614213565b5b600061335a89828a0161325a565b965050602061336b89828a01613284565b955050604061337c89828a01613284565b945050606061338d89828a0161325a565b935050608061339e89828a016132ed565b92505060a06133af89828a016132c3565b9150509295509295509295565b600080604083850312156133d3576133d2614213565b5b60006133e18582860161325a565b92505060206133f2858286016132c3565b9150509250929050565b6000806040838503121561341357613412614213565b5b60006134218582860161326f565b9250506020613432858286016132d8565b9150509250929050565b60006020828403121561345257613451614213565b5b600061346084828501613299565b91505092915050565b60006020828403121561347f5761347e614213565b5b600061348d848285016132c3565b91505092915050565b6000602082840312156134ac576134ab614213565b5b60006134ba848285016132d8565b91505092915050565b600080604083850312156134da576134d9614213565b5b60006134e8858286016132c3565b92505060206134f9858286016132c3565b9150509250929050565b60008060006060848603121561351c5761351b614213565b5b600061352a868287016132c3565b935050602061353b868287016132c3565b925050604061354c868287016132c3565b9150509250925092565b600080600080600080600060e0888a03121561357557613574614213565b5b60006135838a828b016132c3565b97505060206135948a828b016132c3565b96505060406135a58a828b016132c3565b95505060606135b68a828b016132c3565b94505060806135c78a828b016132ed565b93505060a06135d88a828b016132ae565b92505060c06135e98a828b016132ae565b91505092959891949750929550565b61360181613fec565b82525050565b61361081613ffe565b82525050565b61361f8161400a565b82525050565b600061363082613ea5565b61363a8185613ebb565b935061364a8185602086016140c1565b80840191505092915050565b61365f81614055565b82525050565b61366e81614079565b82525050565b61367d8161409d565b82525050565b61368c81614014565b82525050565b600061369d82613eb0565b6136a78185613ec6565b93506136b78185602086016140c1565b6136c081614218565b840191505092915050565b60006136d8602683613ec6565b91506136e382614229565b604082019050919050565b60006136fb601b83613ec6565b915061370682614278565b602082019050919050565b600061371e602483613ec6565b9150613729826142a1565b604082019050919050565b6000613741602683613ec6565b915061374c826142f0565b604082019050919050565b6000613764601f83613ec6565b915061376f8261433f565b602082019050919050565b6000613787601c83613ec6565b915061379282614368565b602082019050919050565b60006137aa602583613ec6565b91506137b582614391565b604082019050919050565b60006137cd601b83613ec6565b91506137d8826143e0565b602082019050919050565b60006137f0602083613ec6565b91506137fb82614409565b602082019050919050565b6000613813601e83613ec6565b915061381e82614432565b602082019050919050565b6000613836602283613ec6565b91506138418261445b565b604082019050919050565b6000613859601d83613ec6565b9150613864826144aa565b602082019050919050565b600061387c602a83613ec6565b9150613887826144d3565b604082019050919050565b600061389f602183613ec6565b91506138aa82614522565b604082019050919050565b60006138c2602283613ec6565b91506138cd82614571565b604082019050919050565b60006138e5602683613ec6565b91506138f0826145c0565b604082019050919050565b6000613908601d83613ec6565b91506139138261460f565b602082019050919050565b600061392b601d83613ec6565b915061393682614638565b602082019050919050565b61394a8161403e565b82525050565b61395981614048565b82525050565b600061396b8284613625565b915081905092915050565b600060208201905061398b60008301846135f8565b92915050565b60006060820190506139a660008301866135f8565b6139b360208301856135f8565b6139c06040830184613941565b949350505050565b600060e0820190506139dd600083018a6135f8565b6139ea60208301896135f8565b6139f76040830188613941565b613a046060830187613941565b613a116080830186613950565b613a1e60a0830185613616565b613a2b60c0830184613616565b98975050505050505050565b6000608082019050613a4c60008301876135f8565b613a5960208301866135f8565b613a666040830185613950565b613a736060830184613941565b95945050505050565b600061012082019050613a92600083018c6135f8565b613a9f602083018b613607565b613aac604083018a613607565b613ab96060830189613674565b613ac66080830188613950565b613ad360a0830187613941565b613ae060c0830186613941565b613aed60e0830185613941565b613afb610100830184613941565b9a9950505050505050505050565b6000604082019050613b1e60008301856135f8565b613b2b6020830184613683565b9392505050565b6000604082019050613b4760008301856135f8565b613b546020830184613941565b9392505050565b6000606082019050613b7060008301866135f8565b613b7d6020830185613941565b613b8a6040830184613941565b949350505050565b6000602082019050613ba76000830184613656565b92915050565b6000602082019050613bc26000830184613665565b92915050565b60006020820190508181036000830152613be28184613692565b905092915050565b60006020820190508181036000830152613c03816136cb565b9050919050565b60006020820190508181036000830152613c23816136ee565b9050919050565b60006020820190508181036000830152613c4381613711565b9050919050565b60006020820190508181036000830152613c6381613734565b9050919050565b60006020820190508181036000830152613c8381613757565b9050919050565b60006020820190508181036000830152613ca38161377a565b9050919050565b60006020820190508181036000830152613cc38161379d565b9050919050565b60006020820190508181036000830152613ce3816137c0565b9050919050565b60006020820190508181036000830152613d03816137e3565b9050919050565b60006020820190508181036000830152613d2381613806565b9050919050565b60006020820190508181036000830152613d4381613829565b9050919050565b60006020820190508181036000830152613d638161384c565b9050919050565b60006020820190508181036000830152613d838161386f565b9050919050565b60006020820190508181036000830152613da381613892565b9050919050565b60006020820190508181036000830152613dc3816138b5565b9050919050565b60006020820190508181036000830152613de3816138d8565b9050919050565b60006020820190508181036000830152613e03816138fb565b9050919050565b60006020820190508181036000830152613e238161391e565b9050919050565b6000602082019050613e3f6000830184613941565b92915050565b6000606082019050613e5a6000830186613941565b613e6760208301856135f8565b613e746040830184613950565b949350505050565b6000604082019050613e916000830185613941565b613e9e6020830184613941565b9392505050565b600081519050919050565b600081519050919050565b600081905092915050565b600082825260208201905092915050565b6000613ee28261403e565b9150613eed8361403e565b9250827fffffffffffffffffffffffffffffffffffffffffffffffffffffffffffffffff03821115613f2257613f21614186565b5b828201905092915050565b6000613f388261403e565b9150613f438361403e565b925082613f5357613f526141b5565b5b828204905092915050565b6000613f698261403e565b9150613f748361403e565b9250817fffffffffffffffffffffffffffffffffffffffffffffffffffffffffffffffff0483118215151615613fad57613fac614186565b5b828202905092915050565b6000613fc38261403e565b9150613fce8361403e565b925082821015613fe157613fe0614186565b5b828203905092915050565b6000613ff78261401e565b9050919050565b60008115159050919050565b6000819050919050565b6000819050919050565b600073ffffffffffffffffffffffffffffffffffffffff82169050919050565b6000819050919050565b600060ff82169050919050565b600061406082614067565b9050919050565b60006140728261401e565b9050919050565b60006140848261408b565b9050919050565b60006140968261401e565b9050919050565b60006140a8826140af565b9050919050565b60006140ba8261401e565b9050919050565b60005b838110156140df5780820151818401526020810190506140c4565b838111156140ee576000848401525b50505050565b60006140ff8261403e565b91507fffffffffffffffffffffffffffffffffffffffffffffffffffffffffffffffff82141561413257614131614186565b5b600182019050919050565b600061414882614014565b91507f800000000000000000000000000000000000000000000000000000000000000082141561417b5761417a614186565b5b816000039050919050565b7f4e487b7100000000000000000000000000000000000000000000000000000000600052601160045260246000fd5b7f4e487b7100000000000000000000000000000000000000000000000000000000600052601260045260246000fd5b7f4e487b7100000000000000000000000000000000000000000000000000000000600052603260045260246000fd5b600080fd5b6000601f19601f8301169050919050565b7f4f776e61626c653a206e6577206f776e657220697320746865207a65726f206160008201527f6464726573730000000000000000000000000000000000000000000000000000602082015250565b7f5468654d61737465723a20757365206465706f7369742066756e630000000000600082015250565b7f5468654d61737465723a206f757472616e67656420737570706f7274696e675260008201527f6174696f00000000000000000000000000000000000000000000000000000000602082015250565b7f416464726573733a20696e73756666696369656e742062616c616e636520666f60008201527f722063616c6c0000000000000000000000000000000000000000000000000000602082015250565b7f5468654d61737465723a206e6f7420737570706f727461626c6520706f6f6c00600082015250565b7f5468654d61737465723a207573652077697468647261772066756e6300000000600082015250565b7f5468654d61737465723a2075736520656d657267656e6379576974686472617760008201527f2066756e63000000000000000000000000000000000000000000000000000000602082015250565b7f5468654d61737465723a2075736520737570706f72742066756e630000000000600082015250565b7f4f776e61626c653a2063616c6c6572206973206e6f7420746865206f776e6572600082015250565b7f5468654d61737465723a20496e73756666696369656e7420616d6f756e740000600082015250565b7f5468654d61737465723a2063616c6c65642066726f6d20756e2d6d696e74616260008201527f6c65000000000000000000000000000000000000000000000000000000000000602082015250565b7f416464726573733a2063616c6c20746f206e6f6e2d636f6e7472616374000000600082015250565b7f5361666545524332303a204552433230206f7065726174696f6e20646964206e60008201527f6f74207375636365656400000000000000000000000000000000000000000000602082015250565b7f5468654d61737465723a204e6f742063616c6c65642062792064656c6567617460008201527f6500000000000000000000000000000000000000000000000000000000000000602082015250565b7f5468654d61737465723a206465706f73697420746f20796f757220616464726560008201527f7373000000000000000000000000000000000000000000000000000000000000602082015250565b7f5468654d61737465723a20506f6f6c2073686f756c64206265206e6f6e2d646560008201527f6c65676174650000000000000000000000000000000000000000000000000000602082015250565b7f5468654d61737465723a204e6f742063616c6c65642062792075736572000000600082015250565b7f5468654d61737465723a20757365206465737570706f72742066756e63000000600082015250565b61466a81613fec565b811461467557600080fd5b50565b61468181613ffe565b811461468c57600080fd5b50565b6146988161400a565b81146146a357600080fd5b50565b6146af8161403e565b81146146ba57600080fd5b50565b6146c681614048565b81146146d157600080fd5b5056fea26469706673582212202e1d4b1890c983b1aa217f63f1168f90cc3499dab8b0fed72d301efae8c3795a64736f6c63430008050033",
  "linkReferences": {},
  "deployedLinkReferences": {}
}