{
  "_format": "hh-sol-artifact-1",
  "contractName": "CloneNurse",
  "sourceName": "contracts/CloneNurse.sol",
  "abi": [
    {
      "inputs": [
        {
          "internalType": "address",
          "name": "nursePartAddr",
          "type": "address"
        },
        {
          "internalType": "address",
          "name": "maidCoinAddr",
          "type": "address"
        },
        {
          "internalType": "address",
          "name": "theMasterAddr",
          "type": "address"
        }
      ],
      "stateMutability": "nonpayable",
      "type": "constructor"
    },
    {
      "anonymous": false,
      "inputs": [
        {
          "indexed": true,
          "internalType": "address",
          "name": "owner",
          "type": "address"
        },
        {
          "indexed": true,
          "internalType": "address",
          "name": "approved",
          "type": "address"
        },
        {
          "indexed": true,
          "internalType": "uint256",
          "name": "tokenId",
          "type": "uint256"
        }
      ],
      "name": "Approval",
      "type": "event"
    },
    {
      "anonymous": false,
      "inputs": [
        {
          "indexed": true,
          "internalType": "address",
          "name": "owner",
          "type": "address"
        },
        {
          "indexed": true,
          "internalType": "address",
          "name": "operator",
          "type": "address"
        },
        {
          "indexed": false,
          "internalType": "bool",
          "name": "approved",
          "type": "bool"
        }
      ],
      "name": "ApprovalForAll",
      "type": "event"
    },
    {
      "anonymous": false,
      "inputs": [
        {
          "indexed": true,
          "internalType": "uint256",
          "name": "id",
          "type": "uint256"
        },
        {
          "indexed": false,
          "internalType": "int256",
          "name": "power",
          "type": "int256"
        }
      ],
      "name": "ChangeSupportedPower",
      "type": "event"
    },
    {
      "anonymous": false,
      "inputs": [
        {
          "indexed": true,
          "internalType": "uint256",
          "name": "from",
          "type": "uint256"
        },
        {
          "indexed": true,
          "internalType": "uint256",
          "name": "to",
          "type": "uint256"
        }
      ],
      "name": "ChangeSupportingRoute",
      "type": "event"
    },
    {
      "anonymous": false,
      "inputs": [
        {
          "indexed": true,
          "internalType": "uint256",
          "name": "id",
          "type": "uint256"
        },
        {
          "indexed": true,
          "internalType": "address",
          "name": "claimer",
          "type": "address"
        },
        {
          "indexed": false,
          "internalType": "uint256",
          "name": "reward",
          "type": "uint256"
        }
      ],
      "name": "Claim",
      "type": "event"
    },
    {
      "anonymous": false,
      "inputs": [
        {
          "indexed": true,
          "internalType": "address",
          "name": "previousOwner",
          "type": "address"
        },
        {
          "indexed": true,
          "internalType": "address",
          "name": "newOwner",
          "type": "address"
        }
      ],
      "name": "OwnershipTransferred",
      "type": "event"
    },
    {
      "anonymous": false,
      "inputs": [
        {
          "indexed": true,
          "internalType": "address",
          "name": "supporter",
          "type": "address"
        },
        {
          "indexed": true,
          "internalType": "uint256",
          "name": "to",
          "type": "uint256"
        }
      ],
      "name": "SupportTo",
      "type": "event"
    },
    {
      "anonymous": false,
      "inputs": [
        {
          "indexed": true,
          "internalType": "address",
          "name": "from",
          "type": "address"
        },
        {
          "indexed": true,
          "internalType": "address",
          "name": "to",
          "type": "address"
        },
        {
          "indexed": true,
          "internalType": "uint256",
          "name": "tokenId",
          "type": "uint256"
        }
      ],
      "name": "Transfer",
      "type": "event"
    },
    {
      "anonymous": false,
      "inputs": [
        {
          "indexed": true,
          "internalType": "address",
          "name": "supporter",
          "type": "address"
        },
        {
          "indexed": true,
          "internalType": "uint256",
          "name": "id",
          "type": "uint256"
        },
        {
          "indexed": false,
          "internalType": "uint256",
          "name": "amounts",
          "type": "uint256"
        }
      ],
      "name": "TransferSupportingRewards",
      "type": "event"
    },
    {
      "inputs": [
        {
          "internalType": "uint256",
          "name": "partCount",
          "type": "uint256"
        },
        {
          "internalType": "uint256",
          "name": "destroyReturn",
          "type": "uint256"
        },
        {
          "internalType": "uint256",
          "name": "power",
          "type": "uint256"
        }
      ],
      "name": "addNurseType",
      "outputs": [
        {
          "internalType": "uint256",
          "name": "nurseType",
          "type": "uint256"
        }
      ],
      "stateMutability": "nonpayable",
      "type": "function"
    },
    {
      "inputs": [
        {
          "internalType": "address",
          "name": "to",
          "type": "address"
        },
        {
          "internalType": "uint256",
          "name": "tokenId",
          "type": "uint256"
        }
      ],
      "name": "approve",
      "outputs": [],
      "stateMutability": "nonpayable",
      "type": "function"
    },
    {
      "inputs": [
        {
          "internalType": "uint256",
          "name": "nurserType",
          "type": "uint256"
        }
      ],
      "name": "assemble",
      "outputs": [],
      "stateMutability": "nonpayable",
      "type": "function"
    },
    {
      "inputs": [
        {
          "internalType": "uint256",
          "name": "nurserType",
          "type": "uint256"
        },
        {
          "internalType": "uint256",
          "name": "deadline",
          "type": "uint256"
        },
        {
          "internalType": "uint8",
          "name": "v",
          "type": "uint8"
        },
        {
          "internalType": "bytes32",
          "name": "r",
          "type": "bytes32"
        },
        {
          "internalType": "bytes32",
          "name": "s",
          "type": "bytes32"
        }
      ],
      "name": "assembleWithPermit",
      "outputs": [],
      "stateMutability": "nonpayable",
      "type": "function"
    },
    {
      "inputs": [
        {
          "internalType": "address",
          "name": "owner",
          "type": "address"
        }
      ],
      "name": "balanceOf",
      "outputs": [
        {
          "internalType": "uint256",
          "name": "",
          "type": "uint256"
        }
      ],
      "stateMutability": "view",
      "type": "function"
    },
    {
      "inputs": [
        {
          "internalType": "address",
          "name": "supporter",
          "type": "address"
        },
        {
          "internalType": "int256",
          "name": "power",
          "type": "int256"
        }
      ],
      "name": "changeSupportedPower",
      "outputs": [],
      "stateMutability": "nonpayable",
      "type": "function"
    },
    {
      "inputs": [
        {
          "internalType": "address",
          "name": "supporter",
          "type": "address"
        }
      ],
      "name": "checkSupportingRoute",
      "outputs": [
        {
          "internalType": "address",
          "name": "",
          "type": "address"
        },
        {
          "internalType": "uint256",
          "name": "",
          "type": "uint256"
        }
      ],
      "stateMutability": "nonpayable",
      "type": "function"
    },
    {
      "inputs": [
        {
          "internalType": "uint256",
          "name": "id",
          "type": "uint256"
        }
      ],
      "name": "claim",
      "outputs": [],
      "stateMutability": "nonpayable",
      "type": "function"
    },
    {
      "inputs": [
        {
          "internalType": "uint256",
          "name": "id",
          "type": "uint256"
        },
        {
          "internalType": "uint256",
          "name": "toId",
          "type": "uint256"
        }
      ],
      "name": "destroy",
      "outputs": [],
      "stateMutability": "nonpayable",
      "type": "function"
    },
    {
      "inputs": [
        {
          "internalType": "uint256",
          "name": "tokenId",
          "type": "uint256"
        }
      ],
      "name": "getApproved",
      "outputs": [
        {
          "internalType": "address",
          "name": "",
          "type": "address"
        }
      ],
      "stateMutability": "view",
      "type": "function"
    },
    {
      "inputs": [
        {
          "internalType": "address",
          "name": "owner",
          "type": "address"
        },
        {
          "internalType": "address",
          "name": "operator",
          "type": "address"
        }
      ],
      "name": "isApprovedForAll",
      "outputs": [
        {
          "internalType": "bool",
          "name": "",
          "type": "bool"
        }
      ],
      "stateMutability": "view",
      "type": "function"
    },
    {
      "inputs": [],
      "name": "maidCoin",
      "outputs": [
        {
          "internalType": "contract IMaidCoin",
          "name": "",
          "type": "address"
        }
      ],
      "stateMutability": "view",
      "type": "function"
    },
    {
      "inputs": [],
      "name": "name",
      "outputs": [
        {
          "internalType": "string",
          "name": "",
          "type": "string"
        }
      ],
      "stateMutability": "view",
      "type": "function"
    },
    {
      "inputs": [],
      "name": "nursePart",
      "outputs": [
        {
          "internalType": "contract INursePart",
          "name": "",
          "type": "address"
        }
      ],
      "stateMutability": "view",
      "type": "function"
    },
    {
      "inputs": [
        {
          "internalType": "uint256",
          "name": "",
          "type": "uint256"
        }
      ],
      "name": "nurseTypes",
      "outputs": [
        {
          "internalType": "uint256",
          "name": "partCount",
          "type": "uint256"
        },
        {
          "internalType": "uint256",
          "name": "destroyReturn",
          "type": "uint256"
        },
        {
          "internalType": "uint256",
          "name": "power",
          "type": "uint256"
        }
      ],
      "stateMutability": "view",
      "type": "function"
    },
    {
      "inputs": [
        {
          "internalType": "uint256",
          "name": "",
          "type": "uint256"
        }
      ],
      "name": "nurses",
      "outputs": [
        {
          "internalType": "uint256",
          "name": "nurseType",
          "type": "uint256"
        }
      ],
      "stateMutability": "view",
      "type": "function"
    },
    {
      "inputs": [
        {
          "internalType": "address",
          "name": "",
          "type": "address"
        },
        {
          "internalType": "address",
          "name": "",
          "type": "address"
        },
        {
          "internalType": "uint256[]",
          "name": "",
          "type": "uint256[]"
        },
        {
          "internalType": "uint256[]",
          "name": "",
          "type": "uint256[]"
        },
        {
          "internalType": "bytes",
          "name": "",
          "type": "bytes"
        }
      ],
      "name": "onERC1155BatchReceived",
      "outputs": [
        {
          "internalType": "bytes4",
          "name": "",
          "type": "bytes4"
        }
      ],
      "stateMutability": "nonpayable",
      "type": "function"
    },
    {
      "inputs": [
        {
          "internalType": "address",
          "name": "",
          "type": "address"
        },
        {
          "internalType": "address",
          "name": "",
          "type": "address"
        },
        {
          "internalType": "uint256",
          "name": "",
          "type": "uint256"
        },
        {
          "internalType": "uint256",
          "name": "",
          "type": "uint256"
        },
        {
          "internalType": "bytes",
          "name": "",
          "type": "bytes"
        }
      ],
      "name": "onERC1155Received",
      "outputs": [
        {
          "internalType": "bytes4",
          "name": "",
          "type": "bytes4"
        }
      ],
      "stateMutability": "nonpayable",
      "type": "function"
    },
    {
      "inputs": [],
      "name": "owner",
      "outputs": [
        {
          "internalType": "address",
          "name": "",
          "type": "address"
        }
      ],
      "stateMutability": "view",
      "type": "function"
    },
    {
      "inputs": [
        {
          "internalType": "uint256",
          "name": "tokenId",
          "type": "uint256"
        }
      ],
      "name": "ownerOf",
      "outputs": [
        {
          "internalType": "address",
          "name": "",
          "type": "address"
        }
      ],
      "stateMutability": "view",
      "type": "function"
    },
    {
      "inputs": [
        {
          "internalType": "uint256",
          "name": "id",
          "type": "uint256"
        }
      ],
      "name": "pendingReward",
      "outputs": [
        {
          "internalType": "uint256",
          "name": "",
          "type": "uint256"
        }
      ],
      "stateMutability": "view",
      "type": "function"
    },
    {
      "inputs": [],
      "name": "renounceOwnership",
      "outputs": [],
      "stateMutability": "nonpayable",
      "type": "function"
    },
    {
      "inputs": [
        {
          "internalType": "address",
          "name": "from",
          "type": "address"
        },
        {
          "internalType": "address",
          "name": "to",
          "type": "address"
        },
        {
          "internalType": "uint256",
          "name": "tokenId",
          "type": "uint256"
        }
      ],
      "name": "safeTransferFrom",
      "outputs": [],
      "stateMutability": "nonpayable",
      "type": "function"
    },
    {
      "inputs": [
        {
          "internalType": "address",
          "name": "from",
          "type": "address"
        },
        {
          "internalType": "address",
          "name": "to",
          "type": "address"
        },
        {
          "internalType": "uint256",
          "name": "tokenId",
          "type": "uint256"
        },
        {
          "internalType": "bytes",
          "name": "_data",
          "type": "bytes"
        }
      ],
      "name": "safeTransferFrom",
      "outputs": [],
      "stateMutability": "nonpayable",
      "type": "function"
    },
    {
      "inputs": [
        {
          "internalType": "address",
          "name": "operator",
          "type": "address"
        },
        {
          "internalType": "bool",
          "name": "approved",
          "type": "bool"
        }
      ],
      "name": "setApprovalForAll",
      "outputs": [],
      "stateMutability": "nonpayable",
      "type": "function"
    },
    {
      "inputs": [
        {
          "internalType": "address",
          "name": "supporter",
          "type": "address"
        },
        {
          "internalType": "uint256",
          "name": "to",
          "type": "uint256"
        },
        {
          "internalType": "uint256",
          "name": "amounts",
          "type": "uint256"
        }
      ],
      "name": "setSupportingTo",
      "outputs": [],
      "stateMutability": "nonpayable",
      "type": "function"
    },
    {
      "inputs": [
        {
          "internalType": "uint256",
          "name": "pending",
          "type": "uint256"
        },
        {
          "internalType": "address",
          "name": "supporter",
          "type": "address"
        },
        {
          "internalType": "uint8",
          "name": "supportingRatio",
          "type": "uint8"
        }
      ],
      "name": "shareRewards",
      "outputs": [
        {
          "internalType": "address",
          "name": "nurseOwner",
          "type": "address"
        },
        {
          "internalType": "uint256",
          "name": "amountToNurseOwner",
          "type": "uint256"
        }
      ],
      "stateMutability": "nonpayable",
      "type": "function"
    },
    {
      "inputs": [
        {
          "internalType": "uint256",
          "name": "",
          "type": "uint256"
        }
      ],
      "name": "supportedPower",
      "outputs": [
        {
          "internalType": "uint256",
          "name": "",
          "type": "uint256"
        }
      ],
      "stateMutability": "view",
      "type": "function"
    },
    {
      "inputs": [
        {
          "internalType": "uint256",
          "name": "",
          "type": "uint256"
        }
      ],
      "name": "supportingRoute",
      "outputs": [
        {
          "internalType": "uint256",
          "name": "",
          "type": "uint256"
        }
      ],
      "stateMutability": "view",
      "type": "function"
    },
    {
      "inputs": [
        {
          "internalType": "address",
          "name": "",
          "type": "address"
        }
      ],
      "name": "supportingTo",
      "outputs": [
        {
          "internalType": "uint256",
          "name": "",
          "type": "uint256"
        }
      ],
      "stateMutability": "view",
      "type": "function"
    },
    {
      "inputs": [
        {
          "internalType": "bytes4",
          "name": "interfaceId",
          "type": "bytes4"
        }
      ],
      "name": "supportsInterface",
      "outputs": [
        {
          "internalType": "bool",
          "name": "",
          "type": "bool"
        }
      ],
      "stateMutability": "view",
      "type": "function"
    },
    {
      "inputs": [],
      "name": "symbol",
      "outputs": [
        {
          "internalType": "string",
          "name": "",
          "type": "string"
        }
      ],
      "stateMutability": "view",
      "type": "function"
    },
    {
      "inputs": [],
      "name": "theMaster",
      "outputs": [
        {
          "internalType": "contract ITheMaster",
          "name": "",
          "type": "address"
        }
      ],
      "stateMutability": "view",
      "type": "function"
    },
    {
      "inputs": [
        {
          "internalType": "uint256",
          "name": "tokenId",
          "type": "uint256"
        }
      ],
      "name": "tokenURI",
      "outputs": [
        {
          "internalType": "string",
          "name": "",
          "type": "string"
        }
      ],
      "stateMutability": "view",
      "type": "function"
    },
    {
      "inputs": [
        {
          "internalType": "uint256",
          "name": "",
          "type": "uint256"
        }
      ],
      "name": "totalRewardsFromSupporters",
      "outputs": [
        {
          "internalType": "uint256",
          "name": "",
          "type": "uint256"
        }
      ],
      "stateMutability": "view",
      "type": "function"
    },
    {
      "inputs": [
        {
          "internalType": "address",
          "name": "from",
          "type": "address"
        },
        {
          "internalType": "address",
          "name": "to",
          "type": "address"
        },
        {
          "internalType": "uint256",
          "name": "tokenId",
          "type": "uint256"
        }
      ],
      "name": "transferFrom",
      "outputs": [],
      "stateMutability": "nonpayable",
      "type": "function"
    },
    {
      "inputs": [
        {
          "internalType": "address",
          "name": "newOwner",
          "type": "address"
        }
      ],
      "name": "transferOwnership",
      "outputs": [],
      "stateMutability": "nonpayable",
      "type": "function"
    }
  ],
  "bytecode": "0x60e06040523480156200001157600080fd5b506040516200311a3803806200311a8339810160408190526200003491620001ef565b6040518060400160405280600a815260200169436c6f6e654e7572736560b01b81525060405180604001604052806006815260200165434e5552534560d01b8152506000620000886200012860201b60201c565b600080546001600160a01b0319166001600160a01b0383169081178255604051929350917f8be0079c531659141344cd1fd0a4f28419497f9722a3daafe3b4186f6b6457e0908290a3508151620000e79060019060208501906200012c565b508051620000fd9060029060208401906200012c565b5050506001600160601b0319606093841b811660805291831b821660a05290911b1660c05262000276565b3390565b8280546200013a9062000239565b90600052602060002090601f0160209004810192826200015e5760008555620001a9565b82601f106200017957805160ff1916838001178555620001a9565b82800160010185558215620001a9579182015b82811115620001a95782518255916020019190600101906200018c565b50620001b7929150620001bb565b5090565b5b80821115620001b75760008155600101620001bc565b80516001600160a01b0381168114620001ea57600080fd5b919050565b6000806000606084860312156200020557600080fd5b6200021084620001d2565b92506200022060208501620001d2565b91506200023060408501620001d2565b90509250925092565b600181811c908216806200024e57607f821691505b602082108114156200027057634e487b7160e01b600052602260045260246000fd5b50919050565b60805160601c60a05160601c60c05160601c612ded6200032d600039600081816103d30152818161068501528181610a2b01528181610bc40152818161109301528181611370015281816115b30152818161183701528181611a4b0152611c5101526000818161041501528181610b1c01528181610c3e01528181610cf3015281816115040152818161162601526116db01526000818161047b015281816111e60152818161193101526119ac0152612ded6000f3fe608060405234801561001057600080fd5b50600436106102275760003560e01c8063849e5aff11610130578063c0a24499116100b8578063e6a6e7a21161007c578063e6a6e7a214610575578063e985e9c514610588578063f23a6e61146105c4578063f2fde38b146105e3578063fa600f76146105f657600080fd5b8063c0a24499146104fb578063c87b56dd1461050e578063cd5a146e14610521578063ddfeacca1461054f578063e3a940511461056257600080fd5b8063a22cb465116100ff578063a22cb46514610463578063b24606b814610476578063b252144a1461049d578063b88d4fde146104b0578063bc197c81146104c357600080fd5b8063849e5aff146104105780638da5cb5b146104375780639222ce8c1461044857806395d89b411461045b57600080fd5b806323b872dd116101b357806342842e0e1161018257806342842e0e146103a85780636352211e146103bb578063671104c9146103ce57806370a08231146103f5578063715018a61461040857600080fd5b806323b872dd1461034f5780632b2269b814610362578063379607f5146103825780633a64e0d11461039557600080fd5b8063095ea7b3116101fa578063095ea7b3146102c657806309805b94146102db57806311b9e6b2146102fc57806312f7086c1461031c578063184935c11461032f57600080fd5b806301ffc9a71461022c57806303273bc71461025457806306fdde0314610286578063081812fc1461029b575b600080fd5b61023f61023a3660046128f1565b610616565b60405190151581526020015b60405180910390f35b61026761026236600461295d565b610677565b604080516001600160a01b03909316835260208301919091520161024b565b61028e6106f4565b60405161024b9190612ac6565b6102ae6102a936600461292b565b610786565b6040516001600160a01b03909116815260200161024b565b6102d96102d4366004612877565b610813565b005b6102ee6102e93660046129bb565b610929565b60405190815260200161024b565b6102ee61030a36600461292b565b60096020526000908152604090205481565b6102ee61032a36600461292b565b6109fa565b6102ee61033d36600461292b565b600a6020526000908152604090205481565b6102d961035d366004612737565b610aad565b6102ee61037036600461292b565b60076020526000908152604090205481565b6102d961039036600461292b565b610ade565b6102ee6103a336600461292b565b610db6565b6102d96103b6366004612737565b610dd7565b6102ae6103c936600461292b565b610df2565b6102ae7f000000000000000000000000000000000000000000000000000000000000000081565b6102ee61040336600461263f565b610e69565b6102d9610ef0565b6102ae7f000000000000000000000000000000000000000000000000000000000000000081565b6000546001600160a01b03166102ae565b61026761045636600461263f565b610f64565b61028e61106a565b6102d9610471366004612840565b611079565b6102ae7f000000000000000000000000000000000000000000000000000000000000000081565b6102d96104ab3660046128a1565b611088565b6102d96104be366004612773565b611175565b6104e26104d136600461268d565b63bc197c8160e01b95945050505050565b6040516001600160e01b0319909116815260200161024b565b6102d96105093660046129e7565b6111ad565b61028e61051c36600461292b565b61125a565b61053461052f36600461292b565b611332565b6040805193845260208401929092529082015260600161024b565b6102d961055d366004612877565b611365565b6102d9610570366004612999565b611436565b6102d961058336600461292b565b6118ad565b61023f61059636600461265a565b6001600160a01b03918216600090815260066020908152604080832093909416825291909152205460ff1690565b6104e26105d23660046127db565b63f23a6e6160e01b95945050505050565b6102d96105f136600461263f565b611b37565b6102ee61060436600461263f565b60086020526000908152604090205481565b60006001600160e01b031982166380ac58cd60e01b148061064757506001600160e01b03198216635b5e139f60e01b145b8061066257506001600160e01b03198216630271189760e51b145b80610671575061067182611c21565b92915050565b600080336001600160a01b037f000000000000000000000000000000000000000000000000000000000000000016146106af57600080fd5b60646106be60ff851687612c4f565b6106c89190612c3b565b9050600081156106eb576106db85610f64565b90935090506106eb858284611c46565b50935093915050565b60606001805461070390612cb1565b80601f016020809104026020016040519081016040528092919081815260200182805461072f90612cb1565b801561077c5780601f106107515761010080835404028352916020019161077c565b820191906000526020600020905b81548152906001019060200180831161075f57829003601f168201915b5050505050905090565b600061079182611ce4565b6107f75760405162461bcd60e51b815260206004820152602c60248201527f4552433732313a20617070726f76656420717565727920666f72206e6f6e657860448201526b34b9ba32b73a103a37b5b2b760a11b60648201526084015b60405180910390fd5b506000908152600560205260409020546001600160a01b031690565b600061081e82610df2565b9050806001600160a01b0316836001600160a01b0316141561088c5760405162461bcd60e51b815260206004820152602160248201527f4552433732313a20617070726f76616c20746f2063757272656e74206f776e656044820152603960f91b60648201526084016107ee565b336001600160a01b03821614806108a857506108a88133610596565b61091a5760405162461bcd60e51b815260206004820152603860248201527f4552433732313a20617070726f76652063616c6c6572206973206e6f74206f7760448201527f6e6572206e6f7220617070726f76656420666f7220616c6c000000000000000060648201526084016107ee565b6109248383611d01565b505050565b600080546001600160a01b031633146109545760405162461bcd60e51b81526004016107ee90612b2b565b50600b8054604080516060810182529586526020860194855285019283526001810182556000919091529251600384027f0175b7a638427703f0dbe7bb9bbf987a2551717b34e79f33b5b1008d1fa01db981019190915591517f0175b7a638427703f0dbe7bb9bbf987a2551717b34e79f33b5b1008d1fa01dba830155517f0175b7a638427703f0dbe7bb9bbf987a2551717b34e79f33b5b1008d1fa01dbb9091015590565b6000610a0582611ce4565b610a0e57600080fd5b604051633185c0bd60e01b815260026004820152602481018390527f00000000000000000000000000000000000000000000000000000000000000006001600160a01b031690633185c0bd9060440160206040518083038186803b158015610a7557600080fd5b505afa158015610a89573d6000803e3d6000fd5b505050506040513d601f19601f820116820180604052508101906106719190612944565b610ab73382611d6f565b610ad35760405162461bcd60e51b81526004016107ee90612b60565b610924838383611e59565b610ae781610df2565b6001600160a01b0316336001600160a01b031614610b0457600080fd5b6040516370a0823160e01b81523060048201526000907f00000000000000000000000000000000000000000000000000000000000000006001600160a01b0316906370a082319060240160206040518083038186803b158015610b6657600080fd5b505afa158015610b7a573d6000803e3d6000fd5b505050506040513d601f19601f82011682018060405250810190610b9e9190612944565b604051625777c560e11b81526002600482015260006024820152604481018490529091507f00000000000000000000000000000000000000000000000000000000000000006001600160a01b03169062aeef8a90606401600060405180830381600087803b158015610c0f57600080fd5b505af1158015610c23573d6000803e3d6000fd5b50506040516370a0823160e01b8152306004820152600092507f00000000000000000000000000000000000000000000000000000000000000006001600160a01b031691506370a082319060240160206040518083038186803b158015610c8957600080fd5b505afa158015610c9d573d6000803e3d6000fd5b505050506040513d601f19601f82011682018060405250810190610cc19190612944565b90506000610ccf8383612c6e565b90508015610d795760405163a9059cbb60e01b8152336004820152602481018290527f00000000000000000000000000000000000000000000000000000000000000006001600160a01b03169063a9059cbb90604401602060405180830381600087803b158015610d3f57600080fd5b505af1158015610d53573d6000803e3d6000fd5b505050506040513d601f19601f82011682018060405250810190610d7791906128d4565b505b604051818152339085907f3ed1528b0fdc7c5207c1bf935e34a667e13656b9ed165260c522be0bc544f3039060200160405180910390a350505050565b600c8181548110610dc657600080fd5b600091825260209091200154905081565b61092483838360405180602001604052806000815250611175565b6000818152600360205260408120546001600160a01b0316806106715760405162461bcd60e51b815260206004820152602960248201527f4552433732313a206f776e657220717565727920666f72206e6f6e657869737460448201526832b73a103a37b5b2b760b91b60648201526084016107ee565b60006001600160a01b038216610ed45760405162461bcd60e51b815260206004820152602a60248201527f4552433732313a2062616c616e636520717565727920666f7220746865207a65604482015269726f206164647265737360b01b60648201526084016107ee565b506001600160a01b031660009081526004602052604090205490565b6000546001600160a01b03163314610f1a5760405162461bcd60e51b81526004016107ee90612b2b565b600080546040516001600160a01b03909116907f8be0079c531659141344cd1fd0a4f28419497f9722a3daafe3b4186f6b6457e0908390a3600080546001600160a01b0319169055565b6001600160a01b038116600090815260086020908152604080832054808452600790925282205482919080821415610faa57610f9f82610df2565b959194509092505050565b815b828214610fca57600082815260076020526040902054919250610fac565b6001600160a01b0386166000908152600860209081526040808320869055838352600790915280822085905551849183917f692926c201c1a490c1553d7bd4d53beeae98652233db64a10ec99102aaadc9d39190a360405183906001600160a01b038816907f74afd1219e1106da193179db213370f587f8a6893614bd79eae534375ba60b9a90600090a361105e83610df2565b96929550919350505050565b60606002805461070390612cb1565b611084338383611ff9565b5050565b336001600160a01b037f000000000000000000000000000000000000000000000000000000000000000016146110bd57600080fd5b6110c682611ce4565b6110cf57600080fd5b6001600160a01b038316600081815260086020526040808220859055518492917f74afd1219e1106da193179db213370f587f8a6893614bd79eae534375ba60b9a91a380156109245760008281526009602052604081208054839290611136908490612c23565b909155505060405181815282907f95dbced4d615bf88768e343c98d3d10cd6458a8fab8cc8a1b5ae9cb6916773659060200160405180910390a2505050565b61117f3383611d6f565b61119b5760405162461bcd60e51b81526004016107ee90612b60565b6111a7848484846120c0565b50505050565b60405163090c278560e31b81523360048201523060248201526044810185905260ff841660648201526084810183905260a481018290527f00000000000000000000000000000000000000000000000000000000000000006001600160a01b0316906348613c289060c401600060405180830381600087803b15801561123257600080fd5b505af1158015611246573d6000803e3d6000fd5b50505050611253856118ad565b5050505050565b606061126582611ce4565b6112c95760405162461bcd60e51b815260206004820152602f60248201527f4552433732314d657461646174613a2055524920717565727920666f72206e6f60448201526e3732bc34b9ba32b73a103a37b5b2b760891b60648201526084016107ee565b60006112e060408051602081019091526000815290565b90506000815111611300576040518060200160405280600081525061132b565b8061130a846120f3565b60405160200161131b929190612a5a565b6040516020818303038152906040525b9392505050565b600b818154811061134257600080fd5b600091825260209091206003909102018054600182015460029092015490925083565b336001600160a01b037f0000000000000000000000000000000000000000000000000000000000000000161461139a57600080fd5b60006113a583610f64565b6000818152600960205260408120549193509091508312156113d6576113ca83612d1b565b8112156113d657600080fd5b6113e08382612be2565b600083815260096020526040908190208290555190915082907f95dbced4d615bf88768e343c98d3d10cd6458a8fab8cc8a1b5ae9cb691677365906114289086815260200190565b60405180910390a250505050565b8181141561144357600080fd5b61144c82610df2565b6001600160a01b0316336001600160a01b03161461146957600080fd5b61147281611ce4565b61147b57600080fd5b6000600b600c848154811061149257611492612d64565b9060005260206000200160000154815481106114b0576114b0612d64565b600091825260208083206040805160608101825260039094029091018054845260018101549284019290925260029091015482820152516370a0823160e01b81523060048201529092506001600160a01b037f000000000000000000000000000000000000000000000000000000000000000016906370a082319060240160206040518083038186803b15801561154657600080fd5b505afa15801561155a573d6000803e3d6000fd5b505050506040513d601f19601f8201168201806040525081019061157e9190612944565b604080840151905163a41fe49f60e01b8152600260048201526024810191909152604481018690529091506001600160a01b037f0000000000000000000000000000000000000000000000000000000000000000169063a41fe49f90606401600060405180830381600087803b1580156115f757600080fd5b505af115801561160b573d6000803e3d6000fd5b50506040516370a0823160e01b8152306004820152600092507f00000000000000000000000000000000000000000000000000000000000000006001600160a01b031691506370a082319060240160206040518083038186803b15801561167157600080fd5b505afa158015611685573d6000803e3d6000fd5b505050506040513d601f19601f820116820180604052508101906116a99190612944565b905060006116b78383612c6e565b905080156117615760405163a9059cbb60e01b8152336004820152602481018290527f00000000000000000000000000000000000000000000000000000000000000006001600160a01b03169063a9059cbb90604401602060405180830381600087803b15801561172757600080fd5b505af115801561173b573d6000803e3d6000fd5b505050506040513d601f19601f8201168201806040525081019061175f91906128d4565b505b60008681526007602052604080822087905551869188917f692926c201c1a490c1553d7bd4d53beeae98652233db64a10ec99102aaadc9d39190a3600086815260096020526040808220548783529082208054919283926117c3908490612c23565b9091555050600087815260096020526040808220919091555186907f95dbced4d615bf88768e343c98d3d10cd6458a8fab8cc8a1b5ae9cb6916773659061180d9084815260200190565b60405180910390a260208501516040516340c10f1960e01b815233600482015260248101919091527f00000000000000000000000000000000000000000000000000000000000000006001600160a01b0316906340c10f1990604401600060405180830381600087803b15801561188357600080fd5b505af1158015611897573d6000803e3d6000fd5b505050506118a4876121f1565b50505050505050565b6000600b82815481106118c2576118c2612d64565b60009182526020808320604080516060810182526003949094029091018054808552600182015493850193909352600201548382015251637921219560e11b815233600482015230602482015260448101869052606481019190915260a0608482015260a481019290925291507f00000000000000000000000000000000000000000000000000000000000000006001600160a01b03169063f242432a9060c401600060405180830381600087803b15801561197d57600080fd5b505af1158015611991573d6000803e3d6000fd5b5050825160405163b390c0ab60e01b81526001600160a01b037f000000000000000000000000000000000000000000000000000000000000000016935063b390c0ab92506119ec918691600401918252602082015260400190565b600060405180830381600087803b158015611a0657600080fd5b505af1158015611a1a573d6000803e3d6000fd5b5050600c546040848101519051625777c560e11b8152600260048201526024810191909152604481018290529092507f00000000000000000000000000000000000000000000000000000000000000006001600160a01b0316915062aeef8a90606401600060405180830381600087803b158015611a9757600080fd5b505af1158015611aab573d6000803e3d6000fd5b50506040805160208082018352878252600c8054600181018255600091825292517fdf6966c971051c3d54ec59162606531493a51404a002842f56009d7e5cf4a8c7909301929092558582526007905281812085905590518493508392507f692926c201c1a490c1553d7bd4d53beeae98652233db64a10ec99102aaadc9d39190a3610924338261228c565b6000546001600160a01b03163314611b615760405162461bcd60e51b81526004016107ee90612b2b565b6001600160a01b038116611bc65760405162461bcd60e51b815260206004820152602660248201527f4f776e61626c653a206e6577206f776e657220697320746865207a65726f206160448201526564647265737360d01b60648201526084016107ee565b600080546040516001600160a01b03808516939216917f8be0079c531659141344cd1fd0a4f28419497f9722a3daafe3b4186f6b6457e091a3600080546001600160a01b0319166001600160a01b0392909216919091179055565b60006001600160e01b03198216630271189760e51b14806106715750610671826123bf565b336001600160a01b037f00000000000000000000000000000000000000000000000000000000000000001614611c7b57600080fd5b6000828152600a602052604081208054839290611c99908490612c23565b909155505060405181815282906001600160a01b038516907f6ad72273f2c6a083788e6d2e111a219924ac6344c1bd520d0b318eba5b5cb04a906020015b60405180910390a3505050565b6000908152600360205260409020546001600160a01b0316151590565b600081815260056020526040902080546001600160a01b0319166001600160a01b0384169081179091558190611d3682610df2565b6001600160a01b03167f8c5be1e5ebec7d5bd14f71427d1e84f3dd0314c0f7b2291e5b200ac8c7c3b92560405160405180910390a45050565b6000611d7a82611ce4565b611ddb5760405162461bcd60e51b815260206004820152602c60248201527f4552433732313a206f70657261746f7220717565727920666f72206e6f6e657860448201526b34b9ba32b73a103a37b5b2b760a11b60648201526084016107ee565b6000611de683610df2565b9050806001600160a01b0316846001600160a01b03161480611e215750836001600160a01b0316611e1684610786565b6001600160a01b0316145b80611e5157506001600160a01b0380821660009081526006602090815260408083209388168352929052205460ff165b949350505050565b826001600160a01b0316611e6c82610df2565b6001600160a01b031614611ed45760405162461bcd60e51b815260206004820152602960248201527f4552433732313a207472616e73666572206f6620746f6b656e2074686174206960448201526839903737ba1037bbb760b91b60648201526084016107ee565b6001600160a01b038216611f365760405162461bcd60e51b8152602060048201526024808201527f4552433732313a207472616e7366657220746f20746865207a65726f206164646044820152637265737360e01b60648201526084016107ee565b611f41600082611d01565b6001600160a01b0383166000908152600460205260408120805460019290611f6a908490612c6e565b90915550506001600160a01b0382166000908152600460205260408120805460019290611f98908490612c23565b909155505060008181526003602052604080822080546001600160a01b0319166001600160a01b0386811691821790925591518493918716917fddf252ad1be2c89b69c2b068fc378daa952ba7f163c4a11628f55a4df523b3ef91a4505050565b816001600160a01b0316836001600160a01b0316141561205b5760405162461bcd60e51b815260206004820152601960248201527f4552433732313a20617070726f766520746f2063616c6c65720000000000000060448201526064016107ee565b6001600160a01b03838116600081815260066020908152604080832094871680845294825291829020805460ff191686151590811790915591519182527f17307eab39ab6107e8899845ad3d59bd9653f200f220920489ca2b5937696c319101611cd7565b6120cb848484611e59565b6120d78484848461240f565b6111a75760405162461bcd60e51b81526004016107ee90612ad9565b6060816121175750506040805180820190915260018152600360fc1b602082015290565b8160005b8115612141578061212b81612cec565b915061213a9050600a83612c3b565b915061211b565b60008167ffffffffffffffff81111561215c5761215c612d7a565b6040519080825280601f01601f191660200182016040528015612186576020820181803683370190505b5090505b8415611e515761219b600183612c6e565b91506121a8600a86612d07565b6121b3906030612c23565b60f81b8183815181106121c8576121c8612d64565b60200101906001600160f81b031916908160001a9053506121ea600a86612c3b565b945061218a565b60006121fc82610df2565b9050612209600083611d01565b6001600160a01b0381166000908152600460205260408120805460019290612232908490612c6e565b909155505060008281526003602052604080822080546001600160a01b0319169055518391906001600160a01b038416907fddf252ad1be2c89b69c2b068fc378daa952ba7f163c4a11628f55a4df523b3ef908390a45050565b6001600160a01b0382166122e25760405162461bcd60e51b815260206004820181905260248201527f4552433732313a206d696e7420746f20746865207a65726f206164647265737360448201526064016107ee565b6122eb81611ce4565b156123385760405162461bcd60e51b815260206004820152601c60248201527f4552433732313a20746f6b656e20616c7265616479206d696e7465640000000060448201526064016107ee565b6001600160a01b0382166000908152600460205260408120805460019290612361908490612c23565b909155505060008181526003602052604080822080546001600160a01b0319166001600160a01b03861690811790915590518392907fddf252ad1be2c89b69c2b068fc378daa952ba7f163c4a11628f55a4df523b3ef908290a45050565b60006001600160e01b031982166380ac58cd60e01b14806123f057506001600160e01b03198216635b5e139f60e01b145b8061067157506301ffc9a760e01b6001600160e01b0319831614610671565b60006001600160a01b0384163b1561251157604051630a85bd0160e11b81526001600160a01b0385169063150b7a0290612453903390899088908890600401612a89565b602060405180830381600087803b15801561246d57600080fd5b505af192505050801561249d575060408051601f3d908101601f1916820190925261249a9181019061290e565b60015b6124f7573d8080156124cb576040519150601f19603f3d011682016040523d82523d6000602084013e6124d0565b606091505b5080516124ef5760405162461bcd60e51b81526004016107ee90612ad9565b805181602001fd5b6001600160e01b031916630a85bd0160e11b149050611e51565b506001949350505050565b80356001600160a01b038116811461253357600080fd5b919050565b600082601f83011261254957600080fd5b8135602067ffffffffffffffff82111561256557612565612d7a565b8160051b612574828201612bb1565b83815282810190868401838801850189101561258f57600080fd5b600093505b858410156125b2578035835260019390930192918401918401612594565b50979650505050505050565b600082601f8301126125cf57600080fd5b813567ffffffffffffffff8111156125e9576125e9612d7a565b6125fc601f8201601f1916602001612bb1565b81815284602083860101111561261157600080fd5b816020850160208301376000918101602001919091529392505050565b803560ff8116811461253357600080fd5b60006020828403121561265157600080fd5b61132b8261251c565b6000806040838503121561266d57600080fd5b6126768361251c565b91506126846020840161251c565b90509250929050565b600080600080600060a086880312156126a557600080fd5b6126ae8661251c565b94506126bc6020870161251c565b9350604086013567ffffffffffffffff808211156126d957600080fd5b6126e589838a01612538565b945060608801359150808211156126fb57600080fd5b61270789838a01612538565b9350608088013591508082111561271d57600080fd5b5061272a888289016125be565b9150509295509295909350565b60008060006060848603121561274c57600080fd5b6127558461251c565b92506127636020850161251c565b9150604084013590509250925092565b6000806000806080858703121561278957600080fd5b6127928561251c565b93506127a06020860161251c565b925060408501359150606085013567ffffffffffffffff8111156127c357600080fd5b6127cf878288016125be565b91505092959194509250565b600080600080600060a086880312156127f357600080fd5b6127fc8661251c565b945061280a6020870161251c565b93506040860135925060608601359150608086013567ffffffffffffffff81111561283457600080fd5b61272a888289016125be565b6000806040838503121561285357600080fd5b61285c8361251c565b9150602083013561286c81612d90565b809150509250929050565b6000806040838503121561288a57600080fd5b6128938361251c565b946020939093013593505050565b6000806000606084860312156128b657600080fd5b6128bf8461251c565b95602085013595506040909401359392505050565b6000602082840312156128e657600080fd5b815161132b81612d90565b60006020828403121561290357600080fd5b813561132b81612da1565b60006020828403121561292057600080fd5b815161132b81612da1565b60006020828403121561293d57600080fd5b5035919050565b60006020828403121561295657600080fd5b5051919050565b60008060006060848603121561297257600080fd5b833592506129826020850161251c565b91506129906040850161262e565b90509250925092565b600080604083850312156129ac57600080fd5b50508035926020909101359150565b6000806000606084860312156129d057600080fd5b505081359360208301359350604090920135919050565b600080600080600060a086880312156129ff57600080fd5b8535945060208601359350612a166040870161262e565b94979396509394606081013594506080013592915050565b60008151808452612a46816020860160208601612c85565b601f01601f19169290920160200192915050565b60008351612a6c818460208801612c85565b835190830190612a80818360208801612c85565b01949350505050565b6001600160a01b0385811682528416602082015260408101839052608060608201819052600090612abc90830184612a2e565b9695505050505050565b60208152600061132b6020830184612a2e565b60208082526032908201527f4552433732313a207472616e7366657220746f206e6f6e20455243373231526560408201527131b2b4bb32b91034b6b83632b6b2b73a32b960711b606082015260800190565b6020808252818101527f4f776e61626c653a2063616c6c6572206973206e6f7420746865206f776e6572604082015260600190565b60208082526031908201527f4552433732313a207472616e736665722063616c6c6572206973206e6f74206f6040820152701ddb995c881b9bdc88185c1c1c9bdd9959607a1b606082015260800190565b604051601f8201601f1916810167ffffffffffffffff81118282101715612bda57612bda612d7a565b604052919050565b600080821280156001600160ff1b0384900385131615612c0457612c04612d38565b600160ff1b8390038412811615612c1d57612c1d612d38565b50500190565b60008219821115612c3657612c36612d38565b500190565b600082612c4a57612c4a612d4e565b500490565b6000816000190483118215151615612c6957612c69612d38565b500290565b600082821015612c8057612c80612d38565b500390565b60005b83811015612ca0578181015183820152602001612c88565b838111156111a75750506000910152565b600181811c90821680612cc557607f821691505b60208210811415612ce657634e487b7160e01b600052602260045260246000fd5b50919050565b6000600019821415612d0057612d00612d38565b5060010190565b600082612d1657612d16612d4e565b500690565b6000600160ff1b821415612d3157612d31612d38565b5060000390565b634e487b7160e01b600052601160045260246000fd5b634e487b7160e01b600052601260045260246000fd5b634e487b7160e01b600052603260045260246000fd5b634e487b7160e01b600052604160045260246000fd5b8015158114612d9e57600080fd5b50565b6001600160e01b031981168114612d9e57600080fdfea26469706673582212205fb6a8222238f104b4117e1f1b6a2387f6e6e250d2834b502da49b956289a2e664736f6c63430008050033",
  "linkReferences": {},
  "deployedLinkReferences": {}
}