{
  "_format": "hh-sol-artifact-1",
  "contractName": "CloneNurse",
  "sourceName": "contracts/CloneNurse.sol",
  "abi": [
    {
      "inputs": [
        {
          "internalType": "address",
          "name": "nursePartAddr",
          "type": "address"
        },
        {
          "internalType": "address",
          "name": "maidCoinAddr",
          "type": "address"
        },
        {
          "internalType": "address",
          "name": "theMasterAddr",
          "type": "address"
        }
      ],
      "stateMutability": "nonpayable",
      "type": "constructor"
    },
    {
      "anonymous": false,
      "inputs": [
        {
          "indexed": true,
          "internalType": "address",
          "name": "owner",
          "type": "address"
        },
        {
          "indexed": true,
          "internalType": "address",
          "name": "approved",
          "type": "address"
        },
        {
          "indexed": true,
          "internalType": "uint256",
          "name": "tokenId",
          "type": "uint256"
        }
      ],
      "name": "Approval",
      "type": "event"
    },
    {
      "anonymous": false,
      "inputs": [
        {
          "indexed": true,
          "internalType": "address",
          "name": "owner",
          "type": "address"
        },
        {
          "indexed": true,
          "internalType": "address",
          "name": "operator",
          "type": "address"
        },
        {
          "indexed": false,
          "internalType": "bool",
          "name": "approved",
          "type": "bool"
        }
      ],
      "name": "ApprovalForAll",
      "type": "event"
    },
    {
      "anonymous": false,
      "inputs": [
        {
          "indexed": true,
          "internalType": "uint256",
          "name": "id",
          "type": "uint256"
        },
        {
          "indexed": false,
          "internalType": "int256",
          "name": "power",
          "type": "int256"
        }
      ],
      "name": "ChangeSupportedPower",
      "type": "event"
    },
    {
      "anonymous": false,
      "inputs": [
        {
          "indexed": true,
          "internalType": "uint256",
          "name": "from",
          "type": "uint256"
        },
        {
          "indexed": true,
          "internalType": "uint256",
          "name": "to",
          "type": "uint256"
        }
      ],
      "name": "ChangeSupportingRoute",
      "type": "event"
    },
    {
      "anonymous": false,
      "inputs": [
        {
          "indexed": true,
          "internalType": "uint256",
          "name": "id",
          "type": "uint256"
        },
        {
          "indexed": true,
          "internalType": "address",
          "name": "claimer",
          "type": "address"
        },
        {
          "indexed": false,
          "internalType": "uint256",
          "name": "reward",
          "type": "uint256"
        }
      ],
      "name": "Claim",
      "type": "event"
    },
    {
      "anonymous": false,
      "inputs": [
        {
          "indexed": true,
          "internalType": "address",
          "name": "previousOwner",
          "type": "address"
        },
        {
          "indexed": true,
          "internalType": "address",
          "name": "newOwner",
          "type": "address"
        }
      ],
      "name": "OwnershipTransferred",
      "type": "event"
    },
    {
      "anonymous": false,
      "inputs": [
        {
          "indexed": true,
          "internalType": "address",
          "name": "supporter",
          "type": "address"
        },
        {
          "indexed": true,
          "internalType": "uint256",
          "name": "to",
          "type": "uint256"
        }
      ],
      "name": "SupportTo",
      "type": "event"
    },
    {
      "anonymous": false,
      "inputs": [
        {
          "indexed": true,
          "internalType": "address",
          "name": "from",
          "type": "address"
        },
        {
          "indexed": true,
          "internalType": "address",
          "name": "to",
          "type": "address"
        },
        {
          "indexed": true,
          "internalType": "uint256",
          "name": "tokenId",
          "type": "uint256"
        }
      ],
      "name": "Transfer",
      "type": "event"
    },
    {
      "anonymous": false,
      "inputs": [
        {
          "indexed": true,
          "internalType": "address",
          "name": "supporter",
          "type": "address"
        },
        {
          "indexed": true,
          "internalType": "uint256",
          "name": "id",
          "type": "uint256"
        },
        {
          "indexed": false,
          "internalType": "uint256",
          "name": "amounts",
          "type": "uint256"
        }
      ],
      "name": "TransferSupportingRewards",
      "type": "event"
    },
    {
      "inputs": [
        {
          "internalType": "uint256",
          "name": "partCount",
          "type": "uint256"
        },
        {
          "internalType": "uint256",
          "name": "destroyReturn",
          "type": "uint256"
        },
        {
          "internalType": "uint256",
          "name": "power",
          "type": "uint256"
        }
      ],
      "name": "addNurseType",
      "outputs": [
        {
          "internalType": "uint256",
          "name": "nurseType",
          "type": "uint256"
        }
      ],
      "stateMutability": "nonpayable",
      "type": "function"
    },
    {
      "inputs": [
        {
          "internalType": "address",
          "name": "to",
          "type": "address"
        },
        {
          "internalType": "uint256",
          "name": "tokenId",
          "type": "uint256"
        }
      ],
      "name": "approve",
      "outputs": [],
      "stateMutability": "nonpayable",
      "type": "function"
    },
    {
      "inputs": [
        {
          "internalType": "uint256",
          "name": "nurserType",
          "type": "uint256"
        }
      ],
      "name": "assemble",
      "outputs": [],
      "stateMutability": "nonpayable",
      "type": "function"
    },
    {
      "inputs": [
        {
          "internalType": "uint256",
          "name": "nurserType",
          "type": "uint256"
        },
        {
          "internalType": "uint256",
          "name": "deadline",
          "type": "uint256"
        },
        {
          "internalType": "uint8",
          "name": "v",
          "type": "uint8"
        },
        {
          "internalType": "bytes32",
          "name": "r",
          "type": "bytes32"
        },
        {
          "internalType": "bytes32",
          "name": "s",
          "type": "bytes32"
        }
      ],
      "name": "assembleWithPermit",
      "outputs": [],
      "stateMutability": "nonpayable",
      "type": "function"
    },
    {
      "inputs": [
        {
          "internalType": "address",
          "name": "owner",
          "type": "address"
        }
      ],
      "name": "balanceOf",
      "outputs": [
        {
          "internalType": "uint256",
          "name": "",
          "type": "uint256"
        }
      ],
      "stateMutability": "view",
      "type": "function"
    },
    {
      "inputs": [
        {
          "internalType": "address",
          "name": "supporter",
          "type": "address"
        },
        {
          "internalType": "int256",
          "name": "power",
          "type": "int256"
        }
      ],
      "name": "changeSupportedPower",
      "outputs": [],
      "stateMutability": "nonpayable",
      "type": "function"
    },
    {
      "inputs": [
        {
          "internalType": "address",
          "name": "supporter",
          "type": "address"
        }
      ],
      "name": "checkSupportingRoute",
      "outputs": [
        {
          "internalType": "address",
          "name": "",
          "type": "address"
        },
        {
          "internalType": "uint256",
          "name": "",
          "type": "uint256"
        }
      ],
      "stateMutability": "nonpayable",
      "type": "function"
    },
    {
      "inputs": [
        {
          "internalType": "uint256",
          "name": "id",
          "type": "uint256"
        }
      ],
      "name": "claim",
      "outputs": [],
      "stateMutability": "nonpayable",
      "type": "function"
    },
    {
      "inputs": [
        {
          "internalType": "uint256",
          "name": "id",
          "type": "uint256"
        },
        {
          "internalType": "uint256",
          "name": "toId",
          "type": "uint256"
        }
      ],
      "name": "destroy",
      "outputs": [],
      "stateMutability": "nonpayable",
      "type": "function"
    },
    {
      "inputs": [
        {
          "internalType": "uint256",
          "name": "tokenId",
          "type": "uint256"
        }
      ],
      "name": "getApproved",
      "outputs": [
        {
          "internalType": "address",
          "name": "",
          "type": "address"
        }
      ],
      "stateMutability": "view",
      "type": "function"
    },
    {
      "inputs": [
        {
          "internalType": "address",
          "name": "owner",
          "type": "address"
        },
        {
          "internalType": "address",
          "name": "operator",
          "type": "address"
        }
      ],
      "name": "isApprovedForAll",
      "outputs": [
        {
          "internalType": "bool",
          "name": "",
          "type": "bool"
        }
      ],
      "stateMutability": "view",
      "type": "function"
    },
    {
      "inputs": [],
      "name": "maidCoin",
      "outputs": [
        {
          "internalType": "contract IMaidCoin",
          "name": "",
          "type": "address"
        }
      ],
      "stateMutability": "view",
      "type": "function"
    },
    {
      "inputs": [],
      "name": "name",
      "outputs": [
        {
          "internalType": "string",
          "name": "",
          "type": "string"
        }
      ],
      "stateMutability": "view",
      "type": "function"
    },
    {
      "inputs": [],
      "name": "nursePart",
      "outputs": [
        {
          "internalType": "contract INursePart",
          "name": "",
          "type": "address"
        }
      ],
      "stateMutability": "view",
      "type": "function"
    },
    {
      "inputs": [
        {
          "internalType": "uint256",
          "name": "",
          "type": "uint256"
        }
      ],
      "name": "nurseTypes",
      "outputs": [
        {
          "internalType": "uint256",
          "name": "partCount",
          "type": "uint256"
        },
        {
          "internalType": "uint256",
          "name": "destroyReturn",
          "type": "uint256"
        },
        {
          "internalType": "uint256",
          "name": "power",
          "type": "uint256"
        }
      ],
      "stateMutability": "view",
      "type": "function"
    },
    {
      "inputs": [
        {
          "internalType": "uint256",
          "name": "",
          "type": "uint256"
        }
      ],
      "name": "nurses",
      "outputs": [
        {
          "internalType": "uint256",
          "name": "nurseType",
          "type": "uint256"
        }
      ],
      "stateMutability": "view",
      "type": "function"
    },
    {
      "inputs": [
        {
          "internalType": "address",
          "name": "",
          "type": "address"
        },
        {
          "internalType": "address",
          "name": "",
          "type": "address"
        },
        {
          "internalType": "uint256[]",
          "name": "",
          "type": "uint256[]"
        },
        {
          "internalType": "uint256[]",
          "name": "",
          "type": "uint256[]"
        },
        {
          "internalType": "bytes",
          "name": "",
          "type": "bytes"
        }
      ],
      "name": "onERC1155BatchReceived",
      "outputs": [
        {
          "internalType": "bytes4",
          "name": "",
          "type": "bytes4"
        }
      ],
      "stateMutability": "nonpayable",
      "type": "function"
    },
    {
      "inputs": [
        {
          "internalType": "address",
          "name": "",
          "type": "address"
        },
        {
          "internalType": "address",
          "name": "",
          "type": "address"
        },
        {
          "internalType": "uint256",
          "name": "",
          "type": "uint256"
        },
        {
          "internalType": "uint256",
          "name": "",
          "type": "uint256"
        },
        {
          "internalType": "bytes",
          "name": "",
          "type": "bytes"
        }
      ],
      "name": "onERC1155Received",
      "outputs": [
        {
          "internalType": "bytes4",
          "name": "",
          "type": "bytes4"
        }
      ],
      "stateMutability": "nonpayable",
      "type": "function"
    },
    {
      "inputs": [],
      "name": "owner",
      "outputs": [
        {
          "internalType": "address",
          "name": "",
          "type": "address"
        }
      ],
      "stateMutability": "view",
      "type": "function"
    },
    {
      "inputs": [
        {
          "internalType": "uint256",
          "name": "tokenId",
          "type": "uint256"
        }
      ],
      "name": "ownerOf",
      "outputs": [
        {
          "internalType": "address",
          "name": "",
          "type": "address"
        }
      ],
      "stateMutability": "view",
      "type": "function"
    },
    {
      "inputs": [
        {
          "internalType": "uint256",
          "name": "id",
          "type": "uint256"
        }
      ],
      "name": "pendingReward",
      "outputs": [
        {
          "internalType": "uint256",
          "name": "",
          "type": "uint256"
        }
      ],
      "stateMutability": "view",
      "type": "function"
    },
    {
      "inputs": [],
      "name": "renounceOwnership",
      "outputs": [],
      "stateMutability": "nonpayable",
      "type": "function"
    },
    {
      "inputs": [
        {
          "internalType": "address",
          "name": "from",
          "type": "address"
        },
        {
          "internalType": "address",
          "name": "to",
          "type": "address"
        },
        {
          "internalType": "uint256",
          "name": "tokenId",
          "type": "uint256"
        }
      ],
      "name": "safeTransferFrom",
      "outputs": [],
      "stateMutability": "nonpayable",
      "type": "function"
    },
    {
      "inputs": [
        {
          "internalType": "address",
          "name": "from",
          "type": "address"
        },
        {
          "internalType": "address",
          "name": "to",
          "type": "address"
        },
        {
          "internalType": "uint256",
          "name": "tokenId",
          "type": "uint256"
        },
        {
          "internalType": "bytes",
          "name": "_data",
          "type": "bytes"
        }
      ],
      "name": "safeTransferFrom",
      "outputs": [],
      "stateMutability": "nonpayable",
      "type": "function"
    },
    {
      "inputs": [
        {
          "internalType": "address",
          "name": "operator",
          "type": "address"
        },
        {
          "internalType": "bool",
          "name": "approved",
          "type": "bool"
        }
      ],
      "name": "setApprovalForAll",
      "outputs": [],
      "stateMutability": "nonpayable",
      "type": "function"
    },
    {
      "inputs": [
        {
          "internalType": "address",
          "name": "supporter",
          "type": "address"
        },
        {
          "internalType": "uint256",
          "name": "to",
          "type": "uint256"
        },
        {
          "internalType": "uint256",
          "name": "amounts",
          "type": "uint256"
        }
      ],
      "name": "setSupportingTo",
      "outputs": [],
      "stateMutability": "nonpayable",
      "type": "function"
    },
    {
      "inputs": [
        {
          "internalType": "uint256",
          "name": "pending",
          "type": "uint256"
        },
        {
          "internalType": "address",
          "name": "supporter",
          "type": "address"
        },
        {
          "internalType": "uint8",
          "name": "supportingRatio",
          "type": "uint8"
        }
      ],
      "name": "shareRewards",
      "outputs": [
        {
          "internalType": "address",
          "name": "nurseOwner",
          "type": "address"
        },
        {
          "internalType": "uint256",
          "name": "amountToNurseOwner",
          "type": "uint256"
        }
      ],
      "stateMutability": "nonpayable",
      "type": "function"
    },
    {
      "inputs": [
        {
          "internalType": "uint256",
          "name": "",
          "type": "uint256"
        }
      ],
      "name": "supportedPower",
      "outputs": [
        {
          "internalType": "uint256",
          "name": "",
          "type": "uint256"
        }
      ],
      "stateMutability": "view",
      "type": "function"
    },
    {
      "inputs": [
        {
          "internalType": "uint256",
          "name": "",
          "type": "uint256"
        }
      ],
      "name": "supportingRoute",
      "outputs": [
        {
          "internalType": "uint256",
          "name": "",
          "type": "uint256"
        }
      ],
      "stateMutability": "view",
      "type": "function"
    },
    {
      "inputs": [
        {
          "internalType": "address",
          "name": "",
          "type": "address"
        }
      ],
      "name": "supportingTo",
      "outputs": [
        {
          "internalType": "uint256",
          "name": "",
          "type": "uint256"
        }
      ],
      "stateMutability": "view",
      "type": "function"
    },
    {
      "inputs": [
        {
          "internalType": "bytes4",
          "name": "interfaceId",
          "type": "bytes4"
        }
      ],
      "name": "supportsInterface",
      "outputs": [
        {
          "internalType": "bool",
          "name": "",
          "type": "bool"
        }
      ],
      "stateMutability": "view",
      "type": "function"
    },
    {
      "inputs": [],
      "name": "symbol",
      "outputs": [
        {
          "internalType": "string",
          "name": "",
          "type": "string"
        }
      ],
      "stateMutability": "view",
      "type": "function"
    },
    {
      "inputs": [],
      "name": "theMaster",
      "outputs": [
        {
          "internalType": "contract ITheMaster",
          "name": "",
          "type": "address"
        }
      ],
      "stateMutability": "view",
      "type": "function"
    },
    {
      "inputs": [
        {
          "internalType": "uint256",
          "name": "tokenId",
          "type": "uint256"
        }
      ],
      "name": "tokenURI",
      "outputs": [
        {
          "internalType": "string",
          "name": "",
          "type": "string"
        }
      ],
      "stateMutability": "view",
      "type": "function"
    },
    {
      "inputs": [
        {
          "internalType": "uint256",
          "name": "",
          "type": "uint256"
        }
      ],
      "name": "totalRewardsFromSupporters",
      "outputs": [
        {
          "internalType": "uint256",
          "name": "",
          "type": "uint256"
        }
      ],
      "stateMutability": "view",
      "type": "function"
    },
    {
      "inputs": [
        {
          "internalType": "address",
          "name": "from",
          "type": "address"
        },
        {
          "internalType": "address",
          "name": "to",
          "type": "address"
        },
        {
          "internalType": "uint256",
          "name": "tokenId",
          "type": "uint256"
        }
      ],
      "name": "transferFrom",
      "outputs": [],
      "stateMutability": "nonpayable",
      "type": "function"
    },
    {
      "inputs": [
        {
          "internalType": "address",
          "name": "newOwner",
          "type": "address"
        }
      ],
      "name": "transferOwnership",
      "outputs": [],
      "stateMutability": "nonpayable",
      "type": "function"
    }
  ],
  "bytecode": "0x60e06040523480156200001157600080fd5b506040516200554338038062005543833981810160405281019062000037919062000304565b6040518060400160405280600a81526020017f436c6f6e654e75727365000000000000000000000000000000000000000000008152506040518060400160405280600681526020017f434e5552534500000000000000000000000000000000000000000000000000008152506000620000b56200023560201b60201c565b9050806000806101000a81548173ffffffffffffffffffffffffffffffffffffffff021916908373ffffffffffffffffffffffffffffffffffffffff1602179055508073ffffffffffffffffffffffffffffffffffffffff16600073ffffffffffffffffffffffffffffffffffffffff167f8be0079c531659141344cd1fd0a4f28419497f9722a3daafe3b4186f6b6457e060405160405180910390a35081600190805190602001906200016b9291906200023d565b508060029080519060200190620001849291906200023d565b5050508273ffffffffffffffffffffffffffffffffffffffff1660808173ffffffffffffffffffffffffffffffffffffffff1660601b815250508173ffffffffffffffffffffffffffffffffffffffff1660a08173ffffffffffffffffffffffffffffffffffffffff1660601b815250508073ffffffffffffffffffffffffffffffffffffffff1660c08173ffffffffffffffffffffffffffffffffffffffff1660601b8152505050505062000418565b600033905090565b8280546200024b9062000394565b90600052602060002090601f0160209004810192826200026f5760008555620002bb565b82601f106200028a57805160ff1916838001178555620002bb565b82800160010185558215620002bb579182015b82811115620002ba5782518255916020019190600101906200029d565b5b509050620002ca9190620002ce565b5090565b5b80821115620002e9576000816000905550600101620002cf565b5090565b600081519050620002fe81620003fe565b92915050565b60008060006060848603121562000320576200031f620003f9565b5b60006200033086828701620002ed565b93505060206200034386828701620002ed565b92505060406200035686828701620002ed565b9150509250925092565b60006200036d8262000374565b9050919050565b600073ffffffffffffffffffffffffffffffffffffffff82169050919050565b60006002820490506001821680620003ad57607f821691505b60208210811415620003c457620003c3620003ca565b5b50919050565b7f4e487b7100000000000000000000000000000000000000000000000000000000600052602260045260246000fd5b600080fd5b620004098162000360565b81146200041557600080fd5b50565b60805160601c60a05160601c60c05160601c615074620004cf600039600081816108ed01528181610ce001528181610f10015281816112660152818161172101528181611a8101528181611cff01528181611fe1015281816122030152612611015260008181610e6501528181610fa2015281816110660152818161147c01528181611c5401528181611d950152611e590152600081816116fd015281816118fb015281816120d3015261216801526150746000f3fe608060405234801561001057600080fd5b50600436106102275760003560e01c8063849e5aff11610130578063c0a24499116100b8578063e6a6e7a21161007c578063e6a6e7a2146106d6578063e985e9c5146106f2578063f23a6e6114610722578063f2fde38b14610752578063fa600f761461076e57610227565b8063c0a2449914610620578063c87b56dd1461063c578063cd5a146e1461066c578063ddfeacca1461069e578063e3a94051146106ba57610227565b8063a22cb465116100ff578063a22cb4651461057e578063b24606b81461059a578063b252144a146105b8578063b88d4fde146105d4578063bc197c81146105f057610227565b8063849e5aff146104f35780638da5cb5b146105115780639222ce8c1461052f57806395d89b411461056057610227565b806323b872dd116101b357806342842e0e1161018257806342842e0e1461044f5780636352211e1461046b578063671104c91461049b57806370a08231146104b9578063715018a6146104e957610227565b806323b872dd146103b75780632b2269b8146103d3578063379607f5146104035780633a64e0d11461041f57610227565b8063095ea7b3116101fa578063095ea7b3146102db57806309805b94146102f757806311b9e6b21461032757806312f7086c14610357578063184935c11461038757610227565b806301ffc9a71461022c57806303273bc71461025c57806306fdde031461028d578063081812fc146102ab575b600080fd5b61024660048036038101906102419190613a30565b61079e565b604051610253919061415c565b60405180910390f35b61027660048036038101906102719190613ae4565b6108e8565b604051610284929190614133565b60405180910390f35b610295610990565b6040516102a29190614295565b60405180910390f35b6102c560048036038101906102c09190613a8a565b610a22565b6040516102d29190614013565b60405180910390f35b6102f560048036038101906102f09190613970565b610aa7565b005b610311600480360381019061030c9190613b77565b610bbf565b60405161031e91906144b7565b60405180910390f35b610341600480360381019061033c9190613a8a565b610cb2565b60405161034e91906144b7565b60405180910390f35b610371600480360381019061036c9190613a8a565b610cca565b60405161037e91906144b7565b60405180910390f35b6103a1600480360381019061039c9190613a8a565b610d91565b6040516103ae91906144b7565b60405180910390f35b6103d160048036038101906103cc9190613783565b610da9565b005b6103ed60048036038101906103e89190613a8a565b610e09565b6040516103fa91906144b7565b60405180910390f35b61041d60048036038101906104189190613a8a565b610e21565b005b61043960048036038101906104349190613a8a565b611168565b60405161044691906144b7565b60405180910390f35b61046960048036038101906104649190613783565b611192565b005b61048560048036038101906104809190613a8a565b6111b2565b6040516104929190614013565b60405180910390f35b6104a3611264565b6040516104b091906141c8565b60405180910390f35b6104d360048036038101906104ce9190613647565b611288565b6040516104e091906144b7565b60405180910390f35b6104f1611340565b005b6104fb61147a565b6040516105089190614192565b60405180910390f35b61051961149e565b6040516105269190614013565b60405180910390f35b61054960048036038101906105449190613647565b6114c7565b604051610557929190614133565b60405180910390f35b610568611653565b6040516105759190614295565b60405180910390f35b610598600480360381019061059391906138f0565b6116e5565b005b6105a26116fb565b6040516105af91906141ad565b60405180910390f35b6105d260048036038101906105cd91906139b0565b61171f565b005b6105ee60048036038101906105e991906137d6565b611882565b005b61060a600480360381019061060591906136b4565b6118e4565b6040516106179190614177565b60405180910390f35b61063a60048036038101906106359190613bca565b6118f9565b005b61065660048036038101906106519190613a8a565b61199e565b6040516106639190614295565b60405180910390f35b61068660048036038101906106819190613a8a565b611a45565b604051610695939291906144fb565b60405180910390f35b6106b860048036038101906106b39190613930565b611a7f565b005b6106d460048036038101906106cf9190613b37565b611b81565b005b6106f060048036038101906106eb9190613a8a565b612082565b005b61070c60048036038101906107079190613674565b61232b565b604051610719919061415c565b60405180910390f35b61073c60048036038101906107379190613859565b6123bf565b6040516107499190614177565b60405180910390f35b61076c60048036038101906107679190613647565b6123d4565b005b61078860048036038101906107839190613647565b61257d565b60405161079591906144b7565b60405180910390f35b60007f80ac58cd000000000000000000000000000000000000000000000000000000007bffffffffffffffffffffffffffffffffffffffffffffffffffffffff1916827bffffffffffffffffffffffffffffffffffffffffffffffffffffffff1916148061086957507f5b5e139f000000000000000000000000000000000000000000000000000000007bffffffffffffffffffffffffffffffffffffffffffffffffffffffff1916827bffffffffffffffffffffffffffffffffffffffffffffffffffffffff1916145b806108d157507f4e2312e0000000000000000000000000000000000000000000000000000000007bffffffffffffffffffffffffffffffffffffffffffffffffffffffff1916827bffffffffffffffffffffffffffffffffffffffffffffffffffffffff1916145b806108e157506108e082612595565b5b9050919050565b6000807f000000000000000000000000000000000000000000000000000000000000000073ffffffffffffffffffffffffffffffffffffffff163373ffffffffffffffffffffffffffffffffffffffff161461094357600080fd5b60648360ff16866109549190614712565b61095e91906146e1565b905060008082111561098757610973856114c7565b809250819450505061098685828461260f565b5b50935093915050565b60606001805461099f90614907565b80601f01602080910402602001604051908101604052809291908181526020018280546109cb90614907565b8015610a185780601f106109ed57610100808354040283529160200191610a18565b820191906000526020600020905b8154815290600101906020018083116109fb57829003601f168201915b5050505050905090565b6000610a2d826126e5565b610a6c576040517f08c379a0000000000000000000000000000000000000000000000000000000008152600401610a63906143f7565b60405180910390fd5b6005600083815260200190815260200160002060009054906101000a900473ffffffffffffffffffffffffffffffffffffffff169050919050565b6000610ab2826111b2565b90508073ffffffffffffffffffffffffffffffffffffffff168373ffffffffffffffffffffffffffffffffffffffff161415610b23576040517f08c379a0000000000000000000000000000000000000000000000000000000008152600401610b1a90614477565b60405180910390fd5b8073ffffffffffffffffffffffffffffffffffffffff16610b42612751565b73ffffffffffffffffffffffffffffffffffffffff161480610b715750610b7081610b6b612751565b61232b565b5b610bb0576040517f08c379a0000000000000000000000000000000000000000000000000000000008152600401610ba790614377565b60405180910390fd5b610bba8383612759565b505050565b6000610bc9612751565b73ffffffffffffffffffffffffffffffffffffffff16610be761149e565b73ffffffffffffffffffffffffffffffffffffffff1614610c3d576040517f08c379a0000000000000000000000000000000000000000000000000000000008152600401610c3490614417565b60405180910390fd5b600b805490509050600b604051806060016040528086815260200185815260200184815250908060018154018082558091505060019003906000526020600020906003020160009091909190915060008201518160000155602082015181600101556040820151816002015550509392505050565b60096020528060005260406000206000915090505481565b6000610cd5826126e5565b610cde57600080fd5b7f000000000000000000000000000000000000000000000000000000000000000073ffffffffffffffffffffffffffffffffffffffff16633185c0bd6002846040518363ffffffff1660e01b8152600401610d3a929190614235565b60206040518083038186803b158015610d5257600080fd5b505afa158015610d66573d6000803e3d6000fd5b505050506040513d601f19601f82011682018060405250810190610d8a9190613ab7565b9050919050565b600a6020528060005260406000206000915090505481565b610dba610db4612751565b82612812565b610df9576040517f08c379a0000000000000000000000000000000000000000000000000000000008152600401610df090614497565b60405180910390fd5b610e048383836128f0565b505050565b60076020528060005260406000206000915090505481565b610e2a816111b2565b73ffffffffffffffffffffffffffffffffffffffff163373ffffffffffffffffffffffffffffffffffffffff1614610e6157600080fd5b60007f000000000000000000000000000000000000000000000000000000000000000073ffffffffffffffffffffffffffffffffffffffff166370a08231306040518263ffffffff1660e01b8152600401610ebc9190614013565b60206040518083038186803b158015610ed457600080fd5b505afa158015610ee8573d6000803e3d6000fd5b505050506040513d601f19601f82011682018060405250810190610f0c9190613ab7565b90507f000000000000000000000000000000000000000000000000000000000000000073ffffffffffffffffffffffffffffffffffffffff1662aeef8a60026000856040518463ffffffff1660e01b8152600401610f6c939291906141fe565b600060405180830381600087803b158015610f8657600080fd5b505af1158015610f9a573d6000803e3d6000fd5b5050505060007f000000000000000000000000000000000000000000000000000000000000000073ffffffffffffffffffffffffffffffffffffffff166370a08231306040518263ffffffff1660e01b8152600401610ff99190614013565b60206040518083038186803b15801561101157600080fd5b505afa158015611025573d6000803e3d6000fd5b505050506040513d601f19601f820116820180604052508101906110499190613ab7565b905060008282611059919061476c565b90506000811115611113577f000000000000000000000000000000000000000000000000000000000000000073ffffffffffffffffffffffffffffffffffffffff1663a9059cbb33836040518363ffffffff1660e01b81526004016110bf929190614133565b602060405180830381600087803b1580156110d957600080fd5b505af11580156110ed573d6000803e3d6000fd5b505050506040513d601f19601f820116820180604052508101906111119190613a03565b505b3373ffffffffffffffffffffffffffffffffffffffff16847f3ed1528b0fdc7c5207c1bf935e34a667e13656b9ed165260c522be0bc544f3038360405161115a91906144b7565b60405180910390a350505050565b600c818154811061117857600080fd5b906000526020600020016000915090508060000154905081565b6111ad83838360405180602001604052806000815250611882565b505050565b6000806003600084815260200190815260200160002060009054906101000a900473ffffffffffffffffffffffffffffffffffffffff169050600073ffffffffffffffffffffffffffffffffffffffff168173ffffffffffffffffffffffffffffffffffffffff16141561125b576040517f08c379a0000000000000000000000000000000000000000000000000000000008152600401611252906143b7565b60405180910390fd5b80915050919050565b7f000000000000000000000000000000000000000000000000000000000000000081565b60008073ffffffffffffffffffffffffffffffffffffffff168273ffffffffffffffffffffffffffffffffffffffff1614156112f9576040517f08c379a00000000000000000000000000000000000000000000000000000000081526004016112f090614397565b60405180910390fd5b600460008373ffffffffffffffffffffffffffffffffffffffff1673ffffffffffffffffffffffffffffffffffffffff168152602001908152602001600020549050919050565b611348612751565b73ffffffffffffffffffffffffffffffffffffffff1661136661149e565b73ffffffffffffffffffffffffffffffffffffffff16146113bc576040517f08c379a00000000000000000000000000000000000000000000000000000000081526004016113b390614417565b60405180910390fd5b600073ffffffffffffffffffffffffffffffffffffffff1660008054906101000a900473ffffffffffffffffffffffffffffffffffffffff1673ffffffffffffffffffffffffffffffffffffffff167f8be0079c531659141344cd1fd0a4f28419497f9722a3daafe3b4186f6b6457e060405160405180910390a360008060006101000a81548173ffffffffffffffffffffffffffffffffffffffff021916908373ffffffffffffffffffffffffffffffffffffffff160217905550565b7f000000000000000000000000000000000000000000000000000000000000000081565b60008060009054906101000a900473ffffffffffffffffffffffffffffffffffffffff16905090565b6000806000600860008573ffffffffffffffffffffffffffffffffffffffff1673ffffffffffffffffffffffffffffffffffffffff1681526020019081526020016000205490506000600760008381526020019081526020016000205490508181141561154357611537826111b2565b8293509350505061164e565b60008290505b82821461156e5781925060076000848152602001908152602001600020549150611549565b82600860008873ffffffffffffffffffffffffffffffffffffffff1673ffffffffffffffffffffffffffffffffffffffff1681526020019081526020016000208190555082600760008381526020019081526020016000208190555082817f692926c201c1a490c1553d7bd4d53beeae98652233db64a10ec99102aaadc9d360405160405180910390a3828673ffffffffffffffffffffffffffffffffffffffff167f74afd1219e1106da193179db213370f587f8a6893614bd79eae534375ba60b9a60405160405180910390a3611645836111b2565b83945094505050505b915091565b60606002805461166290614907565b80601f016020809104026020016040519081016040528092919081815260200182805461168e90614907565b80156116db5780601f106116b0576101008083540402835291602001916116db565b820191906000526020600020905b8154815290600101906020018083116116be57829003601f168201915b5050505050905090565b6116f76116f0612751565b8383612b4c565b5050565b7f000000000000000000000000000000000000000000000000000000000000000081565b7f000000000000000000000000000000000000000000000000000000000000000073ffffffffffffffffffffffffffffffffffffffff163373ffffffffffffffffffffffffffffffffffffffff161461177757600080fd5b611780826126e5565b61178957600080fd5b81600860008573ffffffffffffffffffffffffffffffffffffffff1673ffffffffffffffffffffffffffffffffffffffff16815260200190815260200160002081905550818373ffffffffffffffffffffffffffffffffffffffff167f74afd1219e1106da193179db213370f587f8a6893614bd79eae534375ba60b9a60405160405180910390a3600081111561187d578060096000848152602001908152602001600020600082825461183d919061468b565b92505081905550817f95dbced4d615bf88768e343c98d3d10cd6458a8fab8cc8a1b5ae9cb6916773658260405161187491906141e3565b60405180910390a25b505050565b61189361188d612751565b83612812565b6118d2576040517f08c379a00000000000000000000000000000000000000000000000000000000081526004016118c990614497565b60405180910390fd5b6118de84848484612cb9565b50505050565b600063bc197c8160e01b905095945050505050565b7f000000000000000000000000000000000000000000000000000000000000000073ffffffffffffffffffffffffffffffffffffffff166348613c283330878787876040518763ffffffff1660e01b815260040161195c969594939291906140d2565b600060405180830381600087803b15801561197657600080fd5b505af115801561198a573d6000803e3d6000fd5b5050505061199785612082565b5050505050565b60606119a9826126e5565b6119e8576040517f08c379a00000000000000000000000000000000000000000000000000000000081526004016119df90614457565b60405180910390fd5b60006119f2612d15565b90506000815111611a125760405180602001604052806000815250611a3d565b80611a1c84612d2c565b604051602001611a2d929190613fef565b6040516020818303038152906040525b915050919050565b600b8181548110611a5557600080fd5b90600052602060002090600302016000915090508060000154908060010154908060020154905083565b7f000000000000000000000000000000000000000000000000000000000000000073ffffffffffffffffffffffffffffffffffffffff163373ffffffffffffffffffffffffffffffffffffffff1614611ad757600080fd5b6000611ae2836114c7565b9150506000600960008381526020019081526020016000205490506000831215611b1d5782611b10906149e4565b811215611b1c57600080fd5b5b8281611b2991906145f7565b9050806009600084815260200190815260200160002081905550817f95dbced4d615bf88768e343c98d3d10cd6458a8fab8cc8a1b5ae9cb69167736584604051611b7391906141e3565b60405180910390a250505050565b81811415611b8e57600080fd5b611b97826111b2565b73ffffffffffffffffffffffffffffffffffffffff163373ffffffffffffffffffffffffffffffffffffffff1614611bce57600080fd5b611bd7816126e5565b611be057600080fd5b6000600b600c8481548110611bf857611bf7614aba565b5b906000526020600020016000015481548110611c1757611c16614aba565b5b90600052602060002090600302016040518060600160405290816000820154815260200160018201548152602001600282015481525050905060007f000000000000000000000000000000000000000000000000000000000000000073ffffffffffffffffffffffffffffffffffffffff166370a08231306040518263ffffffff1660e01b8152600401611cab9190614013565b60206040518083038186803b158015611cc357600080fd5b505afa158015611cd7573d6000803e3d6000fd5b505050506040513d601f19601f82011682018060405250810190611cfb9190613ab7565b90507f000000000000000000000000000000000000000000000000000000000000000073ffffffffffffffffffffffffffffffffffffffff1663a41fe49f60028460400151876040518463ffffffff1660e01b8152600401611d5f9392919061425e565b600060405180830381600087803b158015611d7957600080fd5b505af1158015611d8d573d6000803e3d6000fd5b5050505060007f000000000000000000000000000000000000000000000000000000000000000073ffffffffffffffffffffffffffffffffffffffff166370a08231306040518263ffffffff1660e01b8152600401611dec9190614013565b60206040518083038186803b158015611e0457600080fd5b505afa158015611e18573d6000803e3d6000fd5b505050506040513d601f19601f82011682018060405250810190611e3c9190613ab7565b905060008282611e4c919061476c565b90506000811115611f06577f000000000000000000000000000000000000000000000000000000000000000073ffffffffffffffffffffffffffffffffffffffff1663a9059cbb33836040518363ffffffff1660e01b8152600401611eb2929190614133565b602060405180830381600087803b158015611ecc57600080fd5b505af1158015611ee0573d6000803e3d6000fd5b505050506040513d601f19601f82011682018060405250810190611f049190613a03565b505b84600760008881526020019081526020016000208190555084867f692926c201c1a490c1553d7bd4d53beeae98652233db64a10ec99102aaadc9d360405160405180910390a360006009600088815260200190815260200160002054905080600960008881526020019081526020016000206000828254611f87919061468b565b9250508190555060006009600089815260200190815260200160002081905550857f95dbced4d615bf88768e343c98d3d10cd6458a8fab8cc8a1b5ae9cb69167736582604051611fd791906141e3565b60405180910390a27f000000000000000000000000000000000000000000000000000000000000000073ffffffffffffffffffffffffffffffffffffffff166340c10f193387602001516040518363ffffffff1660e01b815260040161203e929190614133565b600060405180830381600087803b15801561205857600080fd5b505af115801561206c573d6000803e3d6000fd5b5050505061207987612e8d565b50505050505050565b6000600b828154811061209857612097614aba565b5b9060005260206000209060030201604051806060016040529081600082015481526020016001820154815260200160028201548152505090507f000000000000000000000000000000000000000000000000000000000000000073ffffffffffffffffffffffffffffffffffffffff1663f242432a33308585600001516040518563ffffffff1660e01b8152600401612134949392919061407a565b600060405180830381600087803b15801561214e57600080fd5b505af1158015612162573d6000803e3d6000fd5b505050507f000000000000000000000000000000000000000000000000000000000000000073ffffffffffffffffffffffffffffffffffffffff1663b390c0ab8383600001516040518363ffffffff1660e01b81526004016121c59291906144d2565b600060405180830381600087803b1580156121df57600080fd5b505af11580156121f3573d6000803e3d6000fd5b505050506000600c8054905090507f000000000000000000000000000000000000000000000000000000000000000073ffffffffffffffffffffffffffffffffffffffff1662aeef8a60028460400151846040518463ffffffff1660e01b81526004016122629392919061425e565b600060405180830381600087803b15801561227c57600080fd5b505af1158015612290573d6000803e3d6000fd5b50505050600c6040518060200160405280858152509080600181540180825580915050600190039060005260206000200160009091909190915060008201518160000155505080600760008381526020019081526020016000208190555080817f692926c201c1a490c1553d7bd4d53beeae98652233db64a10ec99102aaadc9d360405160405180910390a36123263382612f9e565b505050565b6000600660008473ffffffffffffffffffffffffffffffffffffffff1673ffffffffffffffffffffffffffffffffffffffff16815260200190815260200160002060008373ffffffffffffffffffffffffffffffffffffffff1673ffffffffffffffffffffffffffffffffffffffff16815260200190815260200160002060009054906101000a900460ff16905092915050565b600063f23a6e6160e01b905095945050505050565b6123dc612751565b73ffffffffffffffffffffffffffffffffffffffff166123fa61149e565b73ffffffffffffffffffffffffffffffffffffffff1614612450576040517f08c379a000000000000000000000000000000000000000000000000000000000815260040161244790614417565b60405180910390fd5b600073ffffffffffffffffffffffffffffffffffffffff168173ffffffffffffffffffffffffffffffffffffffff1614156124c0576040517f08c379a00000000000000000000000000000000000000000000000000000000081526004016124b7906142d7565b60405180910390fd5b8073ffffffffffffffffffffffffffffffffffffffff1660008054906101000a900473ffffffffffffffffffffffffffffffffffffffff1673ffffffffffffffffffffffffffffffffffffffff167f8be0079c531659141344cd1fd0a4f28419497f9722a3daafe3b4186f6b6457e060405160405180910390a3806000806101000a81548173ffffffffffffffffffffffffffffffffffffffff021916908373ffffffffffffffffffffffffffffffffffffffff16021790555050565b60086020528060005260406000206000915090505481565b60007f4e2312e0000000000000000000000000000000000000000000000000000000007bffffffffffffffffffffffffffffffffffffffffffffffffffffffff1916827bffffffffffffffffffffffffffffffffffffffffffffffffffffffff1916148061260857506126078261316c565b5b9050919050565b7f000000000000000000000000000000000000000000000000000000000000000073ffffffffffffffffffffffffffffffffffffffff163373ffffffffffffffffffffffffffffffffffffffff161461266757600080fd5b80600a6000848152602001908152602001600020600082825461268a919061468b565b92505081905550818373ffffffffffffffffffffffffffffffffffffffff167f6ad72273f2c6a083788e6d2e111a219924ac6344c1bd520d0b318eba5b5cb04a836040516126d891906144b7565b60405180910390a3505050565b60008073ffffffffffffffffffffffffffffffffffffffff166003600084815260200190815260200160002060009054906101000a900473ffffffffffffffffffffffffffffffffffffffff1673ffffffffffffffffffffffffffffffffffffffff1614159050919050565b600033905090565b816005600083815260200190815260200160002060006101000a81548173ffffffffffffffffffffffffffffffffffffffff021916908373ffffffffffffffffffffffffffffffffffffffff160217905550808273ffffffffffffffffffffffffffffffffffffffff166127cc836111b2565b73ffffffffffffffffffffffffffffffffffffffff167f8c5be1e5ebec7d5bd14f71427d1e84f3dd0314c0f7b2291e5b200ac8c7c3b92560405160405180910390a45050565b600061281d826126e5565b61285c576040517f08c379a000000000000000000000000000000000000000000000000000000000815260040161285390614357565b60405180910390fd5b6000612867836111b2565b90508073ffffffffffffffffffffffffffffffffffffffff168473ffffffffffffffffffffffffffffffffffffffff1614806128d657508373ffffffffffffffffffffffffffffffffffffffff166128be84610a22565b73ffffffffffffffffffffffffffffffffffffffff16145b806128e757506128e6818561232b565b5b91505092915050565b8273ffffffffffffffffffffffffffffffffffffffff16612910826111b2565b73ffffffffffffffffffffffffffffffffffffffff1614612966576040517f08c379a000000000000000000000000000000000000000000000000000000000815260040161295d90614437565b60405180910390fd5b600073ffffffffffffffffffffffffffffffffffffffff168273ffffffffffffffffffffffffffffffffffffffff1614156129d6576040517f08c379a00000000000000000000000000000000000000000000000000000000081526004016129cd90614317565b60405180910390fd5b6129e183838361324e565b6129ec600082612759565b6001600460008573ffffffffffffffffffffffffffffffffffffffff1673ffffffffffffffffffffffffffffffffffffffff1681526020019081526020016000206000828254612a3c919061476c565b925050819055506001600460008473ffffffffffffffffffffffffffffffffffffffff1673ffffffffffffffffffffffffffffffffffffffff1681526020019081526020016000206000828254612a93919061468b565b92505081905550816003600083815260200190815260200160002060006101000a81548173ffffffffffffffffffffffffffffffffffffffff021916908373ffffffffffffffffffffffffffffffffffffffff160217905550808273ffffffffffffffffffffffffffffffffffffffff168473ffffffffffffffffffffffffffffffffffffffff167fddf252ad1be2c89b69c2b068fc378daa952ba7f163c4a11628f55a4df523b3ef60405160405180910390a4505050565b8173ffffffffffffffffffffffffffffffffffffffff168373ffffffffffffffffffffffffffffffffffffffff161415612bbb576040517f08c379a0000000000000000000000000000000000000000000000000000000008152600401612bb290614337565b60405180910390fd5b80600660008573ffffffffffffffffffffffffffffffffffffffff1673ffffffffffffffffffffffffffffffffffffffff16815260200190815260200160002060008473ffffffffffffffffffffffffffffffffffffffff1673ffffffffffffffffffffffffffffffffffffffff16815260200190815260200160002060006101000a81548160ff0219169083151502179055508173ffffffffffffffffffffffffffffffffffffffff168373ffffffffffffffffffffffffffffffffffffffff167f17307eab39ab6107e8899845ad3d59bd9653f200f220920489ca2b5937696c3183604051612cac919061415c565b60405180910390a3505050565b612cc48484846128f0565b612cd084848484613253565b612d0f576040517f08c379a0000000000000000000000000000000000000000000000000000000008152600401612d06906142b7565b60405180910390fd5b50505050565b606060405180602001604052806000815250905090565b60606000821415612d74576040518060400160405280600181526020017f30000000000000000000000000000000000000000000000000000000000000008152509050612e88565b600082905060005b60008214612da6578080612d8f9061496a565b915050600a82612d9f91906146e1565b9150612d7c565b60008167ffffffffffffffff811115612dc257612dc1614ae9565b5b6040519080825280601f01601f191660200182016040528015612df45781602001600182028036833780820191505090505b5090505b60008514612e8157600182612e0d919061476c565b9150600a85612e1c91906149b3565b6030612e28919061468b565b60f81b818381518110612e3e57612e3d614aba565b5b60200101907effffffffffffffffffffffffffffffffffffffffffffffffffffffffffffff1916908160001a905350600a85612e7a91906146e1565b9450612df8565b8093505050505b919050565b6000612e98826111b2565b9050612ea68160008461324e565b612eb1600083612759565b6001600460008373ffffffffffffffffffffffffffffffffffffffff1673ffffffffffffffffffffffffffffffffffffffff1681526020019081526020016000206000828254612f01919061476c565b925050819055506003600083815260200190815260200160002060006101000a81549073ffffffffffffffffffffffffffffffffffffffff021916905581600073ffffffffffffffffffffffffffffffffffffffff168273ffffffffffffffffffffffffffffffffffffffff167fddf252ad1be2c89b69c2b068fc378daa952ba7f163c4a11628f55a4df523b3ef60405160405180910390a45050565b600073ffffffffffffffffffffffffffffffffffffffff168273ffffffffffffffffffffffffffffffffffffffff16141561300e576040517f08c379a0000000000000000000000000000000000000000000000000000000008152600401613005906143d7565b60405180910390fd5b613017816126e5565b15613057576040517f08c379a000000000000000000000000000000000000000000000000000000000815260040161304e906142f7565b60405180910390fd5b6130636000838361324e565b6001600460008473ffffffffffffffffffffffffffffffffffffffff1673ffffffffffffffffffffffffffffffffffffffff16815260200190815260200160002060008282546130b3919061468b565b92505081905550816003600083815260200190815260200160002060006101000a81548173ffffffffffffffffffffffffffffffffffffffff021916908373ffffffffffffffffffffffffffffffffffffffff160217905550808273ffffffffffffffffffffffffffffffffffffffff16600073ffffffffffffffffffffffffffffffffffffffff167fddf252ad1be2c89b69c2b068fc378daa952ba7f163c4a11628f55a4df523b3ef60405160405180910390a45050565b60007f80ac58cd000000000000000000000000000000000000000000000000000000007bffffffffffffffffffffffffffffffffffffffffffffffffffffffff1916827bffffffffffffffffffffffffffffffffffffffffffffffffffffffff1916148061323757507f5b5e139f000000000000000000000000000000000000000000000000000000007bffffffffffffffffffffffffffffffffffffffffffffffffffffffff1916827bffffffffffffffffffffffffffffffffffffffffffffffffffffffff1916145b806132475750613246826133ea565b5b9050919050565b505050565b60006132748473ffffffffffffffffffffffffffffffffffffffff16613454565b156133dd578373ffffffffffffffffffffffffffffffffffffffff1663150b7a0261329d612751565b8786866040518563ffffffff1660e01b81526004016132bf949392919061402e565b602060405180830381600087803b1580156132d957600080fd5b505af192505050801561330a57506040513d601f19601f820116820180604052508101906133079190613a5d565b60015b61338d573d806000811461333a576040519150601f19603f3d011682016040523d82523d6000602084013e61333f565b606091505b50600081511415613385576040517f08c379a000000000000000000000000000000000000000000000000000000000815260040161337c906142b7565b60405180910390fd5b805181602001fd5b63150b7a0260e01b7bffffffffffffffffffffffffffffffffffffffffffffffffffffffff1916817bffffffffffffffffffffffffffffffffffffffffffffffffffffffff1916149150506133e2565b600190505b949350505050565b60007f01ffc9a7000000000000000000000000000000000000000000000000000000007bffffffffffffffffffffffffffffffffffffffffffffffffffffffff1916827bffffffffffffffffffffffffffffffffffffffffffffffffffffffff1916149050919050565b600080823b905060008111915050919050565b600061347a61347584614557565b614532565b9050808382526020820190508285602086028201111561349d5761349c614b1d565b5b60005b858110156134cd57816134b38882613608565b8452602084019350602083019250506001810190506134a0565b5050509392505050565b60006134ea6134e584614583565b614532565b90508281526020810184848401111561350657613505614b22565b5b6135118482856148c5565b509392505050565b60008135905061352881614f9d565b92915050565b600082601f83011261354357613542614b18565b5b8135613553848260208601613467565b91505092915050565b60008135905061356b81614fb4565b92915050565b60008151905061358081614fb4565b92915050565b60008135905061359581614fcb565b92915050565b6000813590506135aa81614fe2565b92915050565b6000815190506135bf81614fe2565b92915050565b600082601f8301126135da576135d9614b18565b5b81356135ea8482602086016134d7565b91505092915050565b60008135905061360281614ff9565b92915050565b60008135905061361781615010565b92915050565b60008151905061362c81615010565b92915050565b60008135905061364181615027565b92915050565b60006020828403121561365d5761365c614b2c565b5b600061366b84828501613519565b91505092915050565b6000806040838503121561368b5761368a614b2c565b5b600061369985828601613519565b92505060206136aa85828601613519565b9150509250929050565b600080600080600060a086880312156136d0576136cf614b2c565b5b60006136de88828901613519565b95505060206136ef88828901613519565b945050604086013567ffffffffffffffff8111156137105761370f614b27565b5b61371c8882890161352e565b935050606086013567ffffffffffffffff81111561373d5761373c614b27565b5b6137498882890161352e565b925050608086013567ffffffffffffffff81111561376a57613769614b27565b5b613776888289016135c5565b9150509295509295909350565b60008060006060848603121561379c5761379b614b2c565b5b60006137aa86828701613519565b93505060206137bb86828701613519565b92505060406137cc86828701613608565b9150509250925092565b600080600080608085870312156137f0576137ef614b2c565b5b60006137fe87828801613519565b945050602061380f87828801613519565b935050604061382087828801613608565b925050606085013567ffffffffffffffff81111561384157613840614b27565b5b61384d878288016135c5565b91505092959194509250565b600080600080600060a0868803121561387557613874614b2c565b5b600061388388828901613519565b955050602061389488828901613519565b94505060406138a588828901613608565b93505060606138b688828901613608565b925050608086013567ffffffffffffffff8111156138d7576138d6614b27565b5b6138e3888289016135c5565b9150509295509295909350565b6000806040838503121561390757613906614b2c565b5b600061391585828601613519565b92505060206139268582860161355c565b9150509250929050565b6000806040838503121561394757613946614b2c565b5b600061395585828601613519565b9250506020613966858286016135f3565b9150509250929050565b6000806040838503121561398757613986614b2c565b5b600061399585828601613519565b92505060206139a685828601613608565b9150509250929050565b6000806000606084860312156139c9576139c8614b2c565b5b60006139d786828701613519565b93505060206139e886828701613608565b92505060406139f986828701613608565b9150509250925092565b600060208284031215613a1957613a18614b2c565b5b6000613a2784828501613571565b91505092915050565b600060208284031215613a4657613a45614b2c565b5b6000613a548482850161359b565b91505092915050565b600060208284031215613a7357613a72614b2c565b5b6000613a81848285016135b0565b91505092915050565b600060208284031215613aa057613a9f614b2c565b5b6000613aae84828501613608565b91505092915050565b600060208284031215613acd57613acc614b2c565b5b6000613adb8482850161361d565b91505092915050565b600080600060608486031215613afd57613afc614b2c565b5b6000613b0b86828701613608565b9350506020613b1c86828701613519565b9250506040613b2d86828701613632565b9150509250925092565b60008060408385031215613b4e57613b4d614b2c565b5b6000613b5c85828601613608565b9250506020613b6d85828601613608565b9150509250929050565b600080600060608486031215613b9057613b8f614b2c565b5b6000613b9e86828701613608565b9350506020613baf86828701613608565b9250506040613bc086828701613608565b9150509250925092565b600080600080600060a08688031215613be657613be5614b2c565b5b6000613bf488828901613608565b9550506020613c0588828901613608565b9450506040613c1688828901613632565b9350506060613c2788828901613586565b9250506080613c3888828901613586565b9150509295509295909350565b613c4e816147a0565b82525050565b613c5d816147b2565b82525050565b613c6c816147be565b82525050565b613c7b816147c8565b82525050565b6000613c8c826145b4565b613c9681856145ca565b9350613ca68185602086016148d4565b613caf81614b31565b840191505092915050565b613cc381614835565b82525050565b613cd281614859565b82525050565b613ce18161487d565b82525050565b613cf0816147f4565b82525050565b613cff816148a1565b82525050565b613d0e816148b3565b82525050565b6000613d1f826145bf565b613d2981856145db565b9350613d398185602086016148d4565b613d4281614b31565b840191505092915050565b6000613d58826145bf565b613d6281856145ec565b9350613d728185602086016148d4565b80840191505092915050565b6000613d8b6032836145db565b9150613d9682614b42565b604082019050919050565b6000613dae6026836145db565b9150613db982614b91565b604082019050919050565b6000613dd1601c836145db565b9150613ddc82614be0565b602082019050919050565b6000613df46024836145db565b9150613dff82614c09565b604082019050919050565b6000613e176019836145db565b9150613e2282614c58565b602082019050919050565b6000613e3a602c836145db565b9150613e4582614c81565b604082019050919050565b6000613e5d6038836145db565b9150613e6882614cd0565b604082019050919050565b6000613e80602a836145db565b9150613e8b82614d1f565b604082019050919050565b6000613ea36029836145db565b9150613eae82614d6e565b604082019050919050565b6000613ec66020836145db565b9150613ed182614dbd565b602082019050919050565b6000613ee9602c836145db565b9150613ef482614de6565b604082019050919050565b6000613f0c6020836145db565b9150613f1782614e35565b602082019050919050565b6000613f2f6029836145db565b9150613f3a82614e5e565b604082019050919050565b6000613f52602f836145db565b9150613f5d82614ead565b604082019050919050565b6000613f756021836145db565b9150613f8082614efc565b604082019050919050565b6000613f986000836145ca565b9150613fa382614f4b565b600082019050919050565b6000613fbb6031836145db565b9150613fc682614f4e565b604082019050919050565b613fda8161481e565b82525050565b613fe981614828565b82525050565b6000613ffb8285613d4d565b91506140078284613d4d565b91508190509392505050565b60006020820190506140286000830184613c45565b92915050565b60006080820190506140436000830187613c45565b6140506020830186613c45565b61405d6040830185613fd1565b818103606083015261406f8184613c81565b905095945050505050565b600060a08201905061408f6000830187613c45565b61409c6020830186613c45565b6140a96040830185613fd1565b6140b66060830184613fd1565b81810360808301526140c781613f8b565b905095945050505050565b600060c0820190506140e76000830189613c45565b6140f46020830188613c45565b6141016040830187613fd1565b61410e6060830186613fe0565b61411b6080830185613c63565b61412860a0830184613c63565b979650505050505050565b60006040820190506141486000830185613c45565b6141556020830184613fd1565b9392505050565b60006020820190506141716000830184613c54565b92915050565b600060208201905061418c6000830184613c72565b92915050565b60006020820190506141a76000830184613cba565b92915050565b60006020820190506141c26000830184613cc9565b92915050565b60006020820190506141dd6000830184613cd8565b92915050565b60006020820190506141f86000830184613ce7565b92915050565b60006060820190506142136000830186613d05565b6142206020830185613cf6565b61422d6040830184613fd1565b949350505050565b600060408201905061424a6000830185613d05565b6142576020830184613fd1565b9392505050565b60006060820190506142736000830186613d05565b6142806020830185613fd1565b61428d6040830184613fd1565b949350505050565b600060208201905081810360008301526142af8184613d14565b905092915050565b600060208201905081810360008301526142d081613d7e565b9050919050565b600060208201905081810360008301526142f081613da1565b9050919050565b6000602082019050818103600083015261431081613dc4565b9050919050565b6000602082019050818103600083015261433081613de7565b9050919050565b6000602082019050818103600083015261435081613e0a565b9050919050565b6000602082019050818103600083015261437081613e2d565b9050919050565b6000602082019050818103600083015261439081613e50565b9050919050565b600060208201905081810360008301526143b081613e73565b9050919050565b600060208201905081810360008301526143d081613e96565b9050919050565b600060208201905081810360008301526143f081613eb9565b9050919050565b6000602082019050818103600083015261441081613edc565b9050919050565b6000602082019050818103600083015261443081613eff565b9050919050565b6000602082019050818103600083015261445081613f22565b9050919050565b6000602082019050818103600083015261447081613f45565b9050919050565b6000602082019050818103600083015261449081613f68565b9050919050565b600060208201905081810360008301526144b081613fae565b9050919050565b60006020820190506144cc6000830184613fd1565b92915050565b60006040820190506144e76000830185613fd1565b6144f46020830184613fd1565b9392505050565b60006060820190506145106000830186613fd1565b61451d6020830185613fd1565b61452a6040830184613fd1565b949350505050565b600061453c61454d565b90506145488282614939565b919050565b6000604051905090565b600067ffffffffffffffff82111561457257614571614ae9565b5b602082029050602081019050919050565b600067ffffffffffffffff82111561459e5761459d614ae9565b5b6145a782614b31565b9050602081019050919050565b600081519050919050565b600081519050919050565b600082825260208201905092915050565b600082825260208201905092915050565b600081905092915050565b6000614602826147f4565b915061460d836147f4565b9250817f7fffffffffffffffffffffffffffffffffffffffffffffffffffffffffffffff0383136000831215161561464857614647614a2d565b5b817f80000000000000000000000000000000000000000000000000000000000000000383126000831216156146805761467f614a2d565b5b828201905092915050565b60006146968261481e565b91506146a18361481e565b9250827fffffffffffffffffffffffffffffffffffffffffffffffffffffffffffffffff038211156146d6576146d5614a2d565b5b828201905092915050565b60006146ec8261481e565b91506146f78361481e565b92508261470757614706614a5c565b5b828204905092915050565b600061471d8261481e565b91506147288361481e565b9250817fffffffffffffffffffffffffffffffffffffffffffffffffffffffffffffffff048311821515161561476157614760614a2d565b5b828202905092915050565b60006147778261481e565b91506147828361481e565b92508282101561479557614794614a2d565b5b828203905092915050565b60006147ab826147fe565b9050919050565b60008115159050919050565b6000819050919050565b60007fffffffff0000000000000000000000000000000000000000000000000000000082169050919050565b6000819050919050565b600073ffffffffffffffffffffffffffffffffffffffff82169050919050565b6000819050919050565b600060ff82169050919050565b600061484082614847565b9050919050565b6000614852826147fe565b9050919050565b60006148648261486b565b9050919050565b6000614876826147fe565b9050919050565b60006148888261488f565b9050919050565b600061489a826147fe565b9050919050565b60006148ac8261481e565b9050919050565b60006148be8261481e565b9050919050565b82818337600083830152505050565b60005b838110156148f25780820151818401526020810190506148d7565b83811115614901576000848401525b50505050565b6000600282049050600182168061491f57607f821691505b6020821081141561493357614932614a8b565b5b50919050565b61494282614b31565b810181811067ffffffffffffffff8211171561496157614960614ae9565b5b80604052505050565b60006149758261481e565b91507fffffffffffffffffffffffffffffffffffffffffffffffffffffffffffffffff8214156149a8576149a7614a2d565b5b600182019050919050565b60006149be8261481e565b91506149c98361481e565b9250826149d9576149d8614a5c565b5b828206905092915050565b60006149ef826147f4565b91507f8000000000000000000000000000000000000000000000000000000000000000821415614a2257614a21614a2d565b5b816000039050919050565b7f4e487b7100000000000000000000000000000000000000000000000000000000600052601160045260246000fd5b7f4e487b7100000000000000000000000000000000000000000000000000000000600052601260045260246000fd5b7f4e487b7100000000000000000000000000000000000000000000000000000000600052602260045260246000fd5b7f4e487b7100000000000000000000000000000000000000000000000000000000600052603260045260246000fd5b7f4e487b7100000000000000000000000000000000000000000000000000000000600052604160045260246000fd5b600080fd5b600080fd5b600080fd5b600080fd5b600080fd5b6000601f19601f8301169050919050565b7f4552433732313a207472616e7366657220746f206e6f6e20455243373231526560008201527f63656976657220696d706c656d656e7465720000000000000000000000000000602082015250565b7f4f776e61626c653a206e6577206f776e657220697320746865207a65726f206160008201527f6464726573730000000000000000000000000000000000000000000000000000602082015250565b7f4552433732313a20746f6b656e20616c7265616479206d696e74656400000000600082015250565b7f4552433732313a207472616e7366657220746f20746865207a65726f2061646460008201527f7265737300000000000000000000000000000000000000000000000000000000602082015250565b7f4552433732313a20617070726f766520746f2063616c6c657200000000000000600082015250565b7f4552433732313a206f70657261746f7220717565727920666f72206e6f6e657860008201527f697374656e7420746f6b656e0000000000000000000000000000000000000000602082015250565b7f4552433732313a20617070726f76652063616c6c6572206973206e6f74206f7760008201527f6e6572206e6f7220617070726f76656420666f7220616c6c0000000000000000602082015250565b7f4552433732313a2062616c616e636520717565727920666f7220746865207a6560008201527f726f206164647265737300000000000000000000000000000000000000000000602082015250565b7f4552433732313a206f776e657220717565727920666f72206e6f6e657869737460008201527f656e7420746f6b656e0000000000000000000000000000000000000000000000602082015250565b7f4552433732313a206d696e7420746f20746865207a65726f2061646472657373600082015250565b7f4552433732313a20617070726f76656420717565727920666f72206e6f6e657860008201527f697374656e7420746f6b656e0000000000000000000000000000000000000000602082015250565b7f4f776e61626c653a2063616c6c6572206973206e6f7420746865206f776e6572600082015250565b7f4552433732313a207472616e73666572206f6620746f6b656e2074686174206960008201527f73206e6f74206f776e0000000000000000000000000000000000000000000000602082015250565b7f4552433732314d657461646174613a2055524920717565727920666f72206e6f60008201527f6e6578697374656e7420746f6b656e0000000000000000000000000000000000602082015250565b7f4552433732313a20617070726f76616c20746f2063757272656e74206f776e6560008201527f7200000000000000000000000000000000000000000000000000000000000000602082015250565b50565b7f4552433732313a207472616e736665722063616c6c6572206973206e6f74206f60008201527f776e6572206e6f7220617070726f766564000000000000000000000000000000602082015250565b614fa6816147a0565b8114614fb157600080fd5b50565b614fbd816147b2565b8114614fc857600080fd5b50565b614fd4816147be565b8114614fdf57600080fd5b50565b614feb816147c8565b8114614ff657600080fd5b50565b615002816147f4565b811461500d57600080fd5b50565b6150198161481e565b811461502457600080fd5b50565b61503081614828565b811461503b57600080fd5b5056fea264697066735822122082dc19b8da6de1080759814b76c7a483e39a65433ae9454a44bdd4544b0e503664736f6c63430008050033",
  "linkReferences": {},
  "deployedLinkReferences": {}
}