{
    "_format": "hh-sol-artifact-1",
    "contractName": "TheMaster",
    "sourceName": "contracts/TheMaster.sol",
    "abi": [
        {
            "inputs": [
                {
                    "internalType": "uint256",
                    "name": "_initialRewardPerBlock",
                    "type": "uint256"
                },
                {
                    "internalType": "uint256",
                    "name": "_decreasingInterval",
                    "type": "uint256"
                },
                {
                    "internalType": "uint256",
                    "name": "_startBlock",
                    "type": "uint256"
                },
                {
                    "internalType": "contract IMaidCoin",
                    "name": "_maidCoin",
                    "type": "address"
                }
            ],
            "stateMutability": "nonpayable",
            "type": "constructor"
        },
        {
            "anonymous": false,
            "inputs": [
                {
                    "indexed": true,
                    "internalType": "uint256",
                    "name": "pid",
                    "type": "uint256"
                },
                {
                    "indexed": false,
                    "internalType": "address",
                    "name": "addr",
                    "type": "address"
                },
                {
                    "indexed": true,
                    "internalType": "bool",
                    "name": "delegate",
                    "type": "bool"
                },
                {
                    "indexed": true,
                    "internalType": "bool",
                    "name": "mintable",
                    "type": "bool"
                },
                {
                    "indexed": false,
                    "internalType": "address",
                    "name": "supportable",
                    "type": "address"
                },
                {
                    "indexed": false,
                    "internalType": "uint8",
                    "name": "supportingRatio",
                    "type": "uint8"
                },
                {
                    "indexed": false,
                    "internalType": "uint256",
                    "name": "allocPoint",
                    "type": "uint256"
                }
            ],
            "name": "Add",
            "type": "event"
        },
        {
            "anonymous": false,
            "inputs": [
                {
                    "indexed": false,
                    "internalType": "address",
                    "name": "addr",
                    "type": "address"
                }
            ],
            "name": "ChangeRewardCalculator",
            "type": "event"
        },
        {
            "anonymous": false,
            "inputs": [
                {
                    "indexed": true,
                    "internalType": "uint256",
                    "name": "userId",
                    "type": "uint256"
                },
                {
                    "indexed": true,
                    "internalType": "uint256",
                    "name": "pid",
                    "type": "uint256"
                },
                {
                    "indexed": false,
                    "internalType": "uint256",
                    "name": "amount",
                    "type": "uint256"
                }
            ],
            "name": "Deposit",
            "type": "event"
        },
        {
            "anonymous": false,
            "inputs": [
                {
                    "indexed": true,
                    "internalType": "address",
                    "name": "supporter",
                    "type": "address"
                },
                {
                    "indexed": true,
                    "internalType": "uint256",
                    "name": "pid",
                    "type": "uint256"
                },
                {
                    "indexed": false,
                    "internalType": "uint256",
                    "name": "amount",
                    "type": "uint256"
                }
            ],
            "name": "Desupport",
            "type": "event"
        },
        {
            "anonymous": false,
            "inputs": [
                {
                    "indexed": true,
                    "internalType": "address",
                    "name": "user",
                    "type": "address"
                },
                {
                    "indexed": true,
                    "internalType": "uint256",
                    "name": "pid",
                    "type": "uint256"
                },
                {
                    "indexed": false,
                    "internalType": "uint256",
                    "name": "amount",
                    "type": "uint256"
                }
            ],
            "name": "EmergencyDesupport",
            "type": "event"
        },
        {
            "anonymous": false,
            "inputs": [
                {
                    "indexed": true,
                    "internalType": "address",
                    "name": "user",
                    "type": "address"
                },
                {
                    "indexed": true,
                    "internalType": "uint256",
                    "name": "pid",
                    "type": "uint256"
                },
                {
                    "indexed": false,
                    "internalType": "uint256",
                    "name": "amount",
                    "type": "uint256"
                }
            ],
            "name": "EmergencyWithdraw",
            "type": "event"
        },
        {
            "anonymous": false,
            "inputs": [
                {
                    "indexed": true,
                    "internalType": "address",
                    "name": "previousOwner",
                    "type": "address"
                },
                {
                    "indexed": true,
                    "internalType": "address",
                    "name": "newOwner",
                    "type": "address"
                }
            ],
            "name": "OwnershipTransferred",
            "type": "event"
        },
        {
            "anonymous": false,
            "inputs": [
                {
                    "indexed": true,
                    "internalType": "uint256",
                    "name": "pid",
                    "type": "uint256"
                },
                {
                    "indexed": false,
                    "internalType": "uint256",
                    "name": "allocPoint",
                    "type": "uint256"
                }
            ],
            "name": "Set",
            "type": "event"
        },
        {
            "anonymous": false,
            "inputs": [
                {
                    "indexed": true,
                    "internalType": "uint256",
                    "name": "pid",
                    "type": "uint256"
                },
                {
                    "indexed": true,
                    "internalType": "bool",
                    "name": "status",
                    "type": "bool"
                }
            ],
            "name": "SetIsSupporterPool",
            "type": "event"
        },
        {
            "anonymous": false,
            "inputs": [
                {
                    "indexed": true,
                    "internalType": "address",
                    "name": "supporter",
                    "type": "address"
                },
                {
                    "indexed": true,
                    "internalType": "uint256",
                    "name": "pid",
                    "type": "uint256"
                },
                {
                    "indexed": false,
                    "internalType": "uint256",
                    "name": "amount",
                    "type": "uint256"
                }
            ],
            "name": "Support",
            "type": "event"
        },
        {
            "anonymous": false,
            "inputs": [
                {
                    "indexed": true,
                    "internalType": "uint256",
                    "name": "userId",
                    "type": "uint256"
                },
                {
                    "indexed": true,
                    "internalType": "uint256",
                    "name": "pid",
                    "type": "uint256"
                },
                {
                    "indexed": false,
                    "internalType": "uint256",
                    "name": "amount",
                    "type": "uint256"
                }
            ],
            "name": "Withdraw",
            "type": "event"
        },
        {
            "inputs": [
                {
                    "internalType": "address",
                    "name": "addr",
                    "type": "address"
                },
                {
                    "internalType": "bool",
                    "name": "delegate",
                    "type": "bool"
                },
                {
                    "internalType": "bool",
                    "name": "mintable",
                    "type": "bool"
                },
                {
                    "internalType": "address",
                    "name": "supportable",
                    "type": "address"
                },
                {
                    "internalType": "uint8",
                    "name": "supportingRatio",
                    "type": "uint8"
                },
                {
                    "internalType": "uint256",
                    "name": "allocPoint",
                    "type": "uint256"
                }
            ],
            "name": "add",
            "outputs": [],
            "stateMutability": "nonpayable",
            "type": "function"
        },
        {
            "inputs": [
                {
                    "internalType": "address",
                    "name": "addr",
                    "type": "address"
                }
            ],
            "name": "changeRewardCalculator",
            "outputs": [],
            "stateMutability": "nonpayable",
            "type": "function"
        },
        {
            "inputs": [],
            "name": "decreasingInterval",
            "outputs": [
                {
                    "internalType": "uint256",
                    "name": "",
                    "type": "uint256"
                }
            ],
            "stateMutability": "view",
            "type": "function"
        },
        {
            "inputs": [
                {
                    "internalType": "uint256",
                    "name": "pid",
                    "type": "uint256"
                },
                {
                    "internalType": "uint256",
                    "name": "amount",
                    "type": "uint256"
                },
                {
                    "internalType": "uint256",
                    "name": "userId",
                    "type": "uint256"
                }
            ],
            "name": "deposit",
            "outputs": [],
            "stateMutability": "nonpayable",
            "type": "function"
        },
        {
            "inputs": [
                {
                    "internalType": "uint256",
                    "name": "pid",
                    "type": "uint256"
                },
                {
                    "internalType": "uint256",
                    "name": "amount",
                    "type": "uint256"
                },
                {
                    "internalType": "uint256",
                    "name": "userId",
                    "type": "uint256"
                },
                {
                    "internalType": "uint256",
                    "name": "deadline",
                    "type": "uint256"
                },
                {
                    "internalType": "uint8",
                    "name": "v",
                    "type": "uint8"
                },
                {
                    "internalType": "bytes32",
                    "name": "r",
                    "type": "bytes32"
                },
                {
                    "internalType": "bytes32",
                    "name": "s",
                    "type": "bytes32"
                }
            ],
            "name": "depositWithPermit",
            "outputs": [],
            "stateMutability": "nonpayable",
            "type": "function"
        },
        {
            "inputs": [
                {
                    "internalType": "uint256",
                    "name": "pid",
                    "type": "uint256"
                },
                {
                    "internalType": "uint256",
                    "name": "amount",
                    "type": "uint256"
                },
                {
                    "internalType": "uint256",
                    "name": "userId",
                    "type": "uint256"
                },
                {
                    "internalType": "uint256",
                    "name": "deadline",
                    "type": "uint256"
                },
                {
                    "internalType": "uint8",
                    "name": "v",
                    "type": "uint8"
                },
                {
                    "internalType": "bytes32",
                    "name": "r",
                    "type": "bytes32"
                },
                {
                    "internalType": "bytes32",
                    "name": "s",
                    "type": "bytes32"
                }
            ],
            "name": "depositWithPermitMax",
            "outputs": [],
            "stateMutability": "nonpayable",
            "type": "function"
        },
        {
            "inputs": [
                {
                    "internalType": "uint256",
                    "name": "pid",
                    "type": "uint256"
                },
                {
                    "internalType": "uint256",
                    "name": "amount",
                    "type": "uint256"
                }
            ],
            "name": "desupport",
            "outputs": [],
            "stateMutability": "nonpayable",
            "type": "function"
        },
        {
            "inputs": [
                {
                    "internalType": "uint256",
                    "name": "pid",
                    "type": "uint256"
                }
            ],
            "name": "emergencyDesupport",
            "outputs": [],
            "stateMutability": "nonpayable",
            "type": "function"
        },
        {
            "inputs": [
                {
                    "internalType": "uint256",
                    "name": "pid",
                    "type": "uint256"
                }
            ],
            "name": "emergencyWithdraw",
            "outputs": [],
            "stateMutability": "nonpayable",
            "type": "function"
        },
        {
            "inputs": [],
            "name": "initialRewardPerBlock",
            "outputs": [
                {
                    "internalType": "uint256",
                    "name": "",
                    "type": "uint256"
                }
            ],
            "stateMutability": "view",
            "type": "function"
        },
        {
            "inputs": [],
            "name": "maidCoin",
            "outputs": [
                {
                    "internalType": "contract IMaidCoin",
                    "name": "",
                    "type": "address"
                }
            ],
            "stateMutability": "view",
            "type": "function"
        },
        {
            "inputs": [
                {
                    "internalType": "address",
                    "name": "to",
                    "type": "address"
                },
                {
                    "internalType": "uint256",
                    "name": "amount",
                    "type": "uint256"
                }
            ],
            "name": "mint",
            "outputs": [],
            "stateMutability": "nonpayable",
            "type": "function"
        },
        {
            "inputs": [
                {
                    "internalType": "address",
                    "name": "",
                    "type": "address"
                }
            ],
            "name": "mintableByAddr",
            "outputs": [
                {
                    "internalType": "bool",
                    "name": "",
                    "type": "bool"
                }
            ],
            "stateMutability": "view",
            "type": "function"
        },
        {
            "inputs": [],
            "name": "owner",
            "outputs": [
                {
                    "internalType": "address",
                    "name": "",
                    "type": "address"
                }
            ],
            "stateMutability": "view",
            "type": "function"
        },
        {
            "inputs": [
                {
                    "internalType": "uint256",
                    "name": "pid",
                    "type": "uint256"
                },
                {
                    "internalType": "uint256",
                    "name": "userId",
                    "type": "uint256"
                }
            ],
            "name": "pendingReward",
            "outputs": [
                {
                    "internalType": "uint256",
                    "name": "",
                    "type": "uint256"
                }
            ],
            "stateMutability": "view",
            "type": "function"
        },
        {
            "inputs": [],
            "name": "poolCount",
            "outputs": [
                {
                    "internalType": "uint256",
                    "name": "",
                    "type": "uint256"
                }
            ],
            "stateMutability": "view",
            "type": "function"
        },
        {
            "inputs": [
                {
                    "internalType": "uint256",
                    "name": "",
                    "type": "uint256"
                }
            ],
            "name": "poolInfo",
            "outputs": [
                {
                    "internalType": "address",
                    "name": "addr",
                    "type": "address"
                },
                {
                    "internalType": "bool",
                    "name": "delegate",
                    "type": "bool"
                },
                {
                    "internalType": "contract ISupportable",
                    "name": "supportable",
                    "type": "address"
                },
                {
                    "internalType": "uint8",
                    "name": "supportingRatio",
                    "type": "uint8"
                },
                {
                    "internalType": "uint256",
                    "name": "allocPoint",
                    "type": "uint256"
                },
                {
                    "internalType": "uint256",
                    "name": "lastRewardBlock",
                    "type": "uint256"
                },
                {
                    "internalType": "uint256",
                    "name": "accRewardPerShare",
                    "type": "uint256"
                },
                {
                    "internalType": "uint256",
                    "name": "supply",
                    "type": "uint256"
                }
            ],
            "stateMutability": "view",
            "type": "function"
        },
        {
            "inputs": [],
            "name": "renounceOwnership",
            "outputs": [],
            "stateMutability": "nonpayable",
            "type": "function"
        },
        {
            "inputs": [],
            "name": "rewardCalculator",
            "outputs": [
                {
                    "internalType": "contract IRewardCalculator",
                    "name": "",
                    "type": "address"
                }
            ],
            "stateMutability": "view",
            "type": "function"
        },
        {
            "inputs": [],
            "name": "rewardPerBlock",
            "outputs": [
                {
                    "internalType": "uint256",
                    "name": "",
                    "type": "uint256"
                }
            ],
            "stateMutability": "view",
            "type": "function"
        },
        {
            "inputs": [
                {
                    "internalType": "uint256",
                    "name": "pid",
                    "type": "uint256"
                },
                {
                    "internalType": "uint256",
                    "name": "allocPoint",
                    "type": "uint256"
                }
            ],
            "name": "set",
            "outputs": [],
            "stateMutability": "nonpayable",
            "type": "function"
        },
        {
            "inputs": [],
            "name": "startBlock",
            "outputs": [
                {
                    "internalType": "uint256",
                    "name": "",
                    "type": "uint256"
                }
            ],
            "stateMutability": "view",
            "type": "function"
        },
        {
            "inputs": [
                {
                    "internalType": "uint256",
                    "name": "pid",
                    "type": "uint256"
                },
                {
                    "internalType": "uint256",
                    "name": "amount",
                    "type": "uint256"
                },
                {
                    "internalType": "uint256",
                    "name": "supportTo",
                    "type": "uint256"
                }
            ],
            "name": "support",
            "outputs": [],
            "stateMutability": "nonpayable",
            "type": "function"
        },
        {
            "inputs": [],
            "name": "totalAllocPoint",
            "outputs": [
                {
                    "internalType": "uint256",
                    "name": "",
                    "type": "uint256"
                }
            ],
            "stateMutability": "view",
            "type": "function"
        },
        {
            "inputs": [
                {
                    "internalType": "address",
                    "name": "newOwner",
                    "type": "address"
                }
            ],
            "name": "transferOwnership",
            "outputs": [],
            "stateMutability": "nonpayable",
            "type": "function"
        },
        {
            "inputs": [
                {
                    "internalType": "uint256",
                    "name": "",
                    "type": "uint256"
                },
                {
                    "internalType": "uint256",
                    "name": "",
                    "type": "uint256"
                }
            ],
            "name": "userInfo",
            "outputs": [
                {
                    "internalType": "uint256",
                    "name": "amount",
                    "type": "uint256"
                },
                {
                    "internalType": "uint256",
                    "name": "rewardDebt",
                    "type": "uint256"
                }
            ],
            "stateMutability": "view",
            "type": "function"
        },
        {
            "inputs": [
                {
                    "internalType": "uint256",
                    "name": "pid",
                    "type": "uint256"
                },
                {
                    "internalType": "uint256",
                    "name": "amount",
                    "type": "uint256"
                },
                {
                    "internalType": "uint256",
                    "name": "userId",
                    "type": "uint256"
                }
            ],
            "name": "withdraw",
            "outputs": [],
            "stateMutability": "nonpayable",
            "type": "function"
        }
    ],
    "bytecode": "0x6101006040523480156200001257600080fd5b5060405162004a4b38038062004a4b833981810160405281019062000038919062000177565b60006200004a6200014160201b60201c565b9050806000806101000a81548173ffffffffffffffffffffffffffffffffffffffff021916908373ffffffffffffffffffffffffffffffffffffffff1602179055508073ffffffffffffffffffffffffffffffffffffffff16600073ffffffffffffffffffffffffffffffffffffffff167f8be0079c531659141344cd1fd0a4f28419497f9722a3daafe3b4186f6b6457e060405160405180910390a35083608081815250508260a081815250508160c081815250508073ffffffffffffffffffffffffffffffffffffffff1660e08173ffffffffffffffffffffffffffffffffffffffff1660601b815250505050505062000274565b600033905090565b6000815190506200015a8162000240565b92915050565b60008151905062000171816200025a565b92915050565b600080600080608085870312156200019457620001936200023b565b5b6000620001a48782880162000160565b9450506020620001b78782880162000160565b9350506040620001ca8782880162000160565b9250506060620001dd8782880162000149565b91505092959194509250565b6000620001f68262000211565b9050919050565b60006200020a82620001e9565b9050919050565b600073ffffffffffffffffffffffffffffffffffffffff82169050919050565b6000819050919050565b600080fd5b6200024b81620001fd565b81146200025757600080fd5b50565b620002658162000231565b81146200027157600080fd5b50565b60805160a05160c05160e05160601c614754620002f7600039600081816111c30152818161193e01528181612b4c01528181612c2201528181612cd50152612d880152600081816108af015281816108d6015281816112540152611a8301526000818161149d0152611a620152600081816117e00152611ac801526147546000f3fe608060405234801561001057600080fd5b50600436106101a85760003560e01c80636b56781a116100f9578063a41fe49f11610097578063e692c45311610071578063e692c45314610487578063f2fde38b146104a3578063f440c1eb146104bf578063f525cb68146104db576101a8565b8063a41fe49f1461040a578063b345dc8c14610426578063e23ee3b214610457576101a8565b80638ae39cac116100d35780638ae39cac146103945780638da5cb5b146103b257806396769e89146103d0578063a234d608146103ee576101a8565b80636b56781a1461034e578063715018a61461036c578063849e5aff14610376576101a8565b80633fed8e8d116101665780635312ea8e116101405780635312ea8e146102dc57806354ae7bb0146102f85780635acf624c1461031657806366d31e1b14610332576101a8565b80633fed8e8d1461028657806340c10f19146102a257806348cd4cb1146102be576101a8565b8062aeef8a146101ad578063058048ef146101c95780631526fe27146101e557806317caf6f11461021c5780631ab06ee51461023a5780633185c0bd14610256575b600080fd5b6101c760048036038101906101c29190613541565b6104f9565b005b6101e360048036038101906101de919061336d565b610751565b005b6101ff60048036038101906101fa91906134a7565b610bb2565b604051610213989796959493929190613aba565b60405180910390f35b610224610c64565b6040516102319190613e74565b60405180910390f35b610254600480360381019061024f9190613501565b610c6a565b005b610270600480360381019061026b9190613501565b610d98565b60405161027d9190613e74565b60405180910390f35b6102a0600480360381019061029b9190613594565b611045565b005b6102bc60048036038101906102b791906133fa565b611135565b005b6102c6611252565b6040516102d39190613e74565b60405180910390f35b6102f660048036038101906102f191906134a7565b611276565b005b61030061149b565b60405161030d9190613e74565b60405180910390f35b610330600480360381019061032b91906134a7565b6114bf565b005b61034c60048036038101906103479190613594565b61170e565b005b6103566117de565b6040516103639190613e74565b60405180910390f35b610374611802565b005b61037e61193c565b60405161038b9190613bdc565b60405180910390f35b61039c611960565b6040516103a99190613e74565b60405180910390f35b6103ba611af8565b6040516103c791906139b4565b60405180910390f35b6103d8611b21565b6040516103e59190613bf7565b60405180910390f35b61040860048036038101906104039190613501565b611b47565b005b610424600480360381019061041f9190613541565b611f32565b005b610440600480360381019061043b9190613501565b61218a565b60405161044e929190613ec6565b60405180910390f35b610471600480360381019061046c9190613340565b6121bb565b60405161047e9190613bc1565b60405180910390f35b6104a1600480360381019061049c9190613541565b6121db565b005b6104bd60048036038101906104b89190613340565b612605565b005b6104d960048036038101906104d49190613340565b6127ae565b005b6104e36128a5565b6040516104f09190613e74565b60405180910390f35b60006002848154811061050f5761050e61422e565b5b90600052602060002090600602019050600073ffffffffffffffffffffffffffffffffffffffff168160010160009054906101000a900473ffffffffffffffffffffffffffffffffffffffff1673ffffffffffffffffffffffffffffffffffffffff16146105b2576040517f08c379a00000000000000000000000000000000000000000000000000000000081526004016105a990613d14565b60405180910390fd5b600060036000868152602001908152602001600020600084815260200190815260200160002090508160000160149054906101000a900460ff1615610695573373ffffffffffffffffffffffffffffffffffffffff168260000160009054906101000a900473ffffffffffffffffffffffffffffffffffffffff1673ffffffffffffffffffffffffffffffffffffffff1614610683576040517f08c379a000000000000000000000000000000000000000000000000000000000815260040161067a90613dd4565b60405180910390fd5b61069082828660006128b2565b610711565b3373ffffffffffffffffffffffffffffffffffffffff168373ffffffffffffffffffffffffffffffffffffffff1614610703576040517f08c379a00000000000000000000000000000000000000000000000000000000081526004016106fa90613df4565b60405180910390fd5b61071082828660016128b2565b5b84837f33da4f9b82b3e18a281ca2cabbe2f076925692abb593b7ea3f850009e8ec9770866040516107429190613e74565b60405180910390a35050505050565b6107596129e3565b73ffffffffffffffffffffffffffffffffffffffff16610777611af8565b73ffffffffffffffffffffffffffffffffffffffff16146107cd576040517f08c379a00000000000000000000000000000000000000000000000000000000081526004016107c490613d34565b60405180910390fd5b600073ffffffffffffffffffffffffffffffffffffffff168373ffffffffffffffffffffffffffffffffffffffff161461085c5760008260ff16118015610818575060508260ff1611155b610857576040517f08c379a000000000000000000000000000000000000000000000000000000000815260040161084e90613c74565b60405180910390fd5b6108a3565b60008260ff16146108a2576040517f08c379a000000000000000000000000000000000000000000000000000000000815260040161089990613cb4565b60405180910390fd5b5b6108ab6129eb565b60007f000000000000000000000000000000000000000000000000000000000000000043116108fa577f00000000000000000000000000000000000000000000000000000000000000006108fc565b435b905081600560008282546109109190613f21565b925050819055506000600280549050905060026040518061010001604052808a73ffffffffffffffffffffffffffffffffffffffff16815260200189151581526020018773ffffffffffffffffffffffffffffffffffffffff1681526020018660ff168152602001858152602001848152602001600081526020016000815250908060018154018082558091505060019003906000526020600020906006020160009091909190915060008201518160000160006101000a81548173ffffffffffffffffffffffffffffffffffffffff021916908373ffffffffffffffffffffffffffffffffffffffff16021790555060208201518160000160146101000a81548160ff02191690831515021790555060408201518160010160006101000a81548173ffffffffffffffffffffffffffffffffffffffff021916908373ffffffffffffffffffffffffffffffffffffffff16021790555060608201518160010160146101000a81548160ff021916908360ff1602179055506080820151816002015560a0820151816003015560c0820151816004015560e082015181600501555050600115158615151415610b18576001600460008a73ffffffffffffffffffffffffffffffffffffffff1673ffffffffffffffffffffffffffffffffffffffff16815260200190815260200160002060006101000a81548160ff0219169083151502179055505b600460008973ffffffffffffffffffffffffffffffffffffffff1673ffffffffffffffffffffffffffffffffffffffff16815260200190815260200160002060009054906101000a900460ff161515871515827f85c5f9763b69537638ed9b50435c7c1296747fc78c92080777dd20909d46d0ac8b898989604051610ba09493929190613a75565b60405180910390a45050505050505050565b60028181548110610bc257600080fd5b90600052602060002090600602016000915090508060000160009054906101000a900473ffffffffffffffffffffffffffffffffffffffff16908060000160149054906101000a900460ff16908060010160009054906101000a900473ffffffffffffffffffffffffffffffffffffffff16908060010160149054906101000a900460ff16908060020154908060030154908060040154908060050154905088565b60055481565b610c726129e3565b73ffffffffffffffffffffffffffffffffffffffff16610c90611af8565b73ffffffffffffffffffffffffffffffffffffffff1614610ce6576040517f08c379a0000000000000000000000000000000000000000000000000000000008152600401610cdd90613d34565b60405180910390fd5b610cee6129eb565b8060028381548110610d0357610d0261422e565b5b906000526020600020906006020160020154600554610d229190614002565b610d2c9190613f21565b6005819055508060028381548110610d4757610d4661422e565b5b906000526020600020906006020160020181905550817f545b620a3000f6303b158b321f06b4e95e28a27d70aecac8c6bdac4f48a9f6b382604051610d8c9190613e74565b60405180910390a25050565b60008060028481548110610daf57610dae61422e565b5b9060005260206000209060060201604051806101000160405290816000820160009054906101000a900473ffffffffffffffffffffffffffffffffffffffff1673ffffffffffffffffffffffffffffffffffffffff1673ffffffffffffffffffffffffffffffffffffffff1681526020016000820160149054906101000a900460ff161515151581526020016001820160009054906101000a900473ffffffffffffffffffffffffffffffffffffffff1673ffffffffffffffffffffffffffffffffffffffff1673ffffffffffffffffffffffffffffffffffffffff1681526020016001820160149054906101000a900460ff1660ff1660ff168152602001600282015481526020016003820154815260200160048201548152602001600582015481525050905060006003600086815260200190815260200160002060008581526020019081526020016000206040518060400160405290816000820154815260200160018201548152505090506000808360c001518460e00151915091508360a0015143118015610f43575060008114155b15610fb95760006005548560800151610f5a611960565b8760a0015143610f6a9190614002565b610f749190613fa8565b610f7e9190613fa8565b610f889190613f77565b90508168056bc75e2d6310000082610fa09190613fa8565b610faa9190613f77565b83610fb59190613f21565b9250505b6000836020015168056bc75e2d63100000848660000151610fda9190613fa8565b610fe49190613f77565b610fee9190614002565b90506000856060015160ff16141561100d57809550505050505061103f565b6064856060015160ff16826110229190613fa8565b61102c9190613f77565b816110379190614002565b955050505050505b92915050565b600287815481106110595761105861422e565b5b906000526020600020906006020160000160009054906101000a900473ffffffffffffffffffffffffffffffffffffffff1673ffffffffffffffffffffffffffffffffffffffff1663d505accf33307fffffffffffffffffffffffffffffffffffffffffffffffffffffffffffffffff888888886040518863ffffffff1660e01b81526004016110ef9796959493929190613a06565b600060405180830381600087803b15801561110957600080fd5b505af115801561111d573d6000803e3d6000fd5b5050505061112c8787876104f9565b50505050505050565b600460003373ffffffffffffffffffffffffffffffffffffffff1673ffffffffffffffffffffffffffffffffffffffff16815260200190815260200160002060009054906101000a900460ff166111c1576040517f08c379a00000000000000000000000000000000000000000000000000000000081526004016111b890613d74565b60405180910390fd5b7f000000000000000000000000000000000000000000000000000000000000000073ffffffffffffffffffffffffffffffffffffffff166340c10f1983836040518363ffffffff1660e01b815260040161121c929190613b61565b600060405180830381600087803b15801561123657600080fd5b505af115801561124a573d6000803e3d6000fd5b505050505050565b7f000000000000000000000000000000000000000000000000000000000000000081565b60006002828154811061128c5761128b61422e565b5b90600052602060002090600602019050600073ffffffffffffffffffffffffffffffffffffffff168160010160009054906101000a900473ffffffffffffffffffffffffffffffffffffffff1673ffffffffffffffffffffffffffffffffffffffff161461132f576040517f08c379a000000000000000000000000000000000000000000000000000000000815260040161132690613e54565b60405180910390fd5b8060000160149054906101000a900460ff1615611381576040517f08c379a000000000000000000000000000000000000000000000000000000000815260040161137890613e14565b60405180910390fd5b60006003600084815260200190815260200160002060003373ffffffffffffffffffffffffffffffffffffffff16815260200190815260200160002090506000816000015490506000826000018190555060008260010181905550808360050160008282546113f09190614002565b9250508190555061144633828560000160009054906101000a900473ffffffffffffffffffffffffffffffffffffffff1673ffffffffffffffffffffffffffffffffffffffff16612a3f9092919063ffffffff16565b833373ffffffffffffffffffffffffffffffffffffffff167fbb757047c2b5f3974fe26b7c10f732e7bce710b0952a71082702781e62ae05958360405161148d9190613e74565b60405180910390a350505050565b7f000000000000000000000000000000000000000000000000000000000000000081565b6000600282815481106114d5576114d461422e565b5b9060005260206000209060060201905060008160010160009054906101000a900473ffffffffffffffffffffffffffffffffffffffff169050600073ffffffffffffffffffffffffffffffffffffffff168173ffffffffffffffffffffffffffffffffffffffff161461157d576040517f08c379a000000000000000000000000000000000000000000000000000000000815260040161157490613cf4565b60405180910390fd5b60006003600085815260200190815260200160002060003373ffffffffffffffffffffffffffffffffffffffff16815260200190815260200160002090506000816000015490506000826000018190555060008260010181905550808460050160008282546115ec9190614002565b925050819055508273ffffffffffffffffffffffffffffffffffffffff1663ddfeacca338361161a90614187565b6040518363ffffffff1660e01b8152600401611637929190613b38565b600060405180830381600087803b15801561165157600080fd5b505af1158015611665573d6000803e3d6000fd5b505050506116b833828660000160009054906101000a900473ffffffffffffffffffffffffffffffffffffffff1673ffffffffffffffffffffffffffffffffffffffff16612a3f9092919063ffffffff16565b843373ffffffffffffffffffffffffffffffffffffffff167f67a463e34014cd44cda35b27bf0daebb9c9e138b4e4b6ef2a23170d79595f8a0836040516116ff9190613e74565b60405180910390a35050505050565b600287815481106117225761172161422e565b5b906000526020600020906006020160000160009054906101000a900473ffffffffffffffffffffffffffffffffffffffff1673ffffffffffffffffffffffffffffffffffffffff1663d505accf333089888888886040518863ffffffff1660e01b81526004016117989796959493929190613a06565b600060405180830381600087803b1580156117b257600080fd5b505af11580156117c6573d6000803e3d6000fd5b505050506117d58787876104f9565b50505050505050565b7f000000000000000000000000000000000000000000000000000000000000000081565b61180a6129e3565b73ffffffffffffffffffffffffffffffffffffffff16611828611af8565b73ffffffffffffffffffffffffffffffffffffffff161461187e576040517f08c379a000000000000000000000000000000000000000000000000000000000815260040161187590613d34565b60405180910390fd5b600073ffffffffffffffffffffffffffffffffffffffff1660008054906101000a900473ffffffffffffffffffffffffffffffffffffffff1673ffffffffffffffffffffffffffffffffffffffff167f8be0079c531659141344cd1fd0a4f28419497f9722a3daafe3b4186f6b6457e060405160405180910390a360008060006101000a81548173ffffffffffffffffffffffffffffffffffffffff021916908373ffffffffffffffffffffffffffffffffffffffff160217905550565b7f000000000000000000000000000000000000000000000000000000000000000081565b60008073ffffffffffffffffffffffffffffffffffffffff16600160009054906101000a900473ffffffffffffffffffffffffffffffffffffffff1673ffffffffffffffffffffffffffffffffffffffff1614611a5e57600160009054906101000a900473ffffffffffffffffffffffffffffffffffffffff1673ffffffffffffffffffffffffffffffffffffffff16638ae39cac6040518163ffffffff1660e01b815260040160206040518083038186803b158015611a1f57600080fd5b505afa158015611a33573d6000803e3d6000fd5b505050506040513d601f19601f82011682018060405250810190611a5791906134d4565b9050611af5565b60007f00000000000000000000000000000000000000000000000000000000000000007f000000000000000000000000000000000000000000000000000000000000000043611aad9190614002565b611ab79190613f77565b9050600181611ac69190613f21565b7f0000000000000000000000000000000000000000000000000000000000000000611af19190613f77565b9150505b90565b60008060009054906101000a900473ffffffffffffffffffffffffffffffffffffffff16905090565b600160009054906101000a900473ffffffffffffffffffffffffffffffffffffffff1681565b600060028381548110611b5d57611b5c61422e565b5b9060005260206000209060060201905060008160010160009054906101000a900473ffffffffffffffffffffffffffffffffffffffff169050600073ffffffffffffffffffffffffffffffffffffffff168173ffffffffffffffffffffffffffffffffffffffff161415611c06576040517f08c379a0000000000000000000000000000000000000000000000000000000008152600401611bfd90613cd4565b60405180910390fd5b60006003600086815260200190815260200160002060003373ffffffffffffffffffffffffffffffffffffffff168152602001908152602001600020905060008160000154905084811015611c90576040517f08c379a0000000000000000000000000000000000000000000000000000000008152600401611c8790613d54565b60405180910390fd5b611c9984612ac5565b6000846004015490506000836001015468056bc75e2d631000008385611cbf9190613fa8565b611cc99190613f77565b611cd39190614002565b90506000811115611db0576000808673ffffffffffffffffffffffffffffffffffffffff166303273bc784338b60010160149054906101000a900460ff166040518463ffffffff1660e01b8152600401611d2f93929190613e8f565b6040805180830381600087803b158015611d4857600080fd5b505af1158015611d5c573d6000803e3d6000fd5b505050506040513d601f19601f82011682018060405250810190611d80919061343a565b915091506000811115611d9857611d978282612c1e565b5b611dad338285611da89190614002565b612c1e565b50505b6000871115611eb1578473ffffffffffffffffffffffffffffffffffffffff1663ddfeacca3389611de090614187565b6040518363ffffffff1660e01b8152600401611dfd929190613b38565b600060405180830381600087803b158015611e1757600080fd5b505af1158015611e2b573d6000803e3d6000fd5b5050505086866005016000828254611e439190614002565b925050819055508683611e569190614002565b9250828460000181905550611eb033888860000160009054906101000a900473ffffffffffffffffffffffffffffffffffffffff1673ffffffffffffffffffffffffffffffffffffffff16612a3f9092919063ffffffff16565b5b68056bc75e2d631000008284611ec79190613fa8565b611ed19190613f77565b8460010181905550873373ffffffffffffffffffffffffffffffffffffffff167fbcb1b254c83676670cc415f8ce8239bb9e972244993586ef7bf282f85ddadfe089604051611f209190613e74565b60405180910390a35050505050505050565b600060028481548110611f4857611f4761422e565b5b90600052602060002090600602019050600073ffffffffffffffffffffffffffffffffffffffff168160010160009054906101000a900473ffffffffffffffffffffffffffffffffffffffff1673ffffffffffffffffffffffffffffffffffffffff1614611feb576040517f08c379a0000000000000000000000000000000000000000000000000000000008152600401611fe290613e54565b60405180910390fd5b600060036000868152602001908152602001600020600084815260200190815260200160002090508160000160149054906101000a900460ff16156120ce573373ffffffffffffffffffffffffffffffffffffffff168260000160009054906101000a900473ffffffffffffffffffffffffffffffffffffffff1673ffffffffffffffffffffffffffffffffffffffff16146120bc576040517f08c379a00000000000000000000000000000000000000000000000000000000081526004016120b390613dd4565b60405180910390fd5b6120c98282866000612e3a565b61214a565b3373ffffffffffffffffffffffffffffffffffffffff168373ffffffffffffffffffffffffffffffffffffffff161461213c576040517f08c379a000000000000000000000000000000000000000000000000000000000815260040161213390613e34565b60405180910390fd5b6121498282866001612e3a565b5b84837fa01a72713bf837059e3a668d28f0de277fb7f24f2a4e95bf926703c95b5f12b28660405161217b9190613e74565b60405180910390a35050505050565b6003602052816000526040600020602052806000526040600020600091509150508060000154908060010154905082565b60046020528060005260406000206000915054906101000a900460ff1681565b6000600284815481106121f1576121f061422e565b5b9060005260206000209060060201905060008160010160009054906101000a900473ffffffffffffffffffffffffffffffffffffffff169050600073ffffffffffffffffffffffffffffffffffffffff168173ffffffffffffffffffffffffffffffffffffffff16141561229a576040517f08c379a000000000000000000000000000000000000000000000000000000000815260040161229190613c54565b60405180910390fd5b60006003600087815260200190815260200160002060003373ffffffffffffffffffffffffffffffffffffffff16815260200190815260200160002090506122e183612ac5565b600083600401549050600082600001549050600081111561240c576000836001015468056bc75e2d6310000084846123199190613fa8565b6123239190613f77565b61232d9190614002565b9050600081111561240a576000808673ffffffffffffffffffffffffffffffffffffffff166303273bc784338b60010160149054906101000a900460ff166040518463ffffffff1660e01b815260040161238993929190613e8f565b6040805180830381600087803b1580156123a257600080fd5b505af11580156123b6573d6000803e3d6000fd5b505050506040513d601f19601f820116820180604052508101906123da919061343a565b9150915060008111156123f2576123f18282612c1e565b5b6124073382856124029190614002565b612c1e565b50505b505b6000871115612584576000811415612492578373ffffffffffffffffffffffffffffffffffffffff1663b252144a33888a6040518463ffffffff1660e01b815260040161245b93929190613b8a565b600060405180830381600087803b15801561247557600080fd5b505af1158015612489573d6000803e3d6000fd5b50505050612500565b8373ffffffffffffffffffffffffffffffffffffffff1663ddfeacca33896040518363ffffffff1660e01b81526004016124cd929190613b38565b600060405180830381600087803b1580156124e757600080fd5b505af11580156124fb573d6000803e3d6000fd5b505050505b6125513330898860000160009054906101000a900473ffffffffffffffffffffffffffffffffffffffff1673ffffffffffffffffffffffffffffffffffffffff16612fa2909392919063ffffffff16565b868560050160008282546125659190613f21565b9250508190555086816125789190613f21565b90508083600001819055505b68056bc75e2d63100000828261259a9190613fa8565b6125a49190613f77565b8360010181905550873373ffffffffffffffffffffffffffffffffffffffff167f3391b7506551053a045b28b04ba34acfab377a47e91db9f4a46d8ac01acac14f896040516125f39190613e74565b60405180910390a35050505050505050565b61260d6129e3565b73ffffffffffffffffffffffffffffffffffffffff1661262b611af8565b73ffffffffffffffffffffffffffffffffffffffff1614612681576040517f08c379a000000000000000000000000000000000000000000000000000000000815260040161267890613d34565b60405180910390fd5b600073ffffffffffffffffffffffffffffffffffffffff168173ffffffffffffffffffffffffffffffffffffffff1614156126f1576040517f08c379a00000000000000000000000000000000000000000000000000000000081526004016126e890613c34565b60405180910390fd5b8073ffffffffffffffffffffffffffffffffffffffff1660008054906101000a900473ffffffffffffffffffffffffffffffffffffffff1673ffffffffffffffffffffffffffffffffffffffff167f8be0079c531659141344cd1fd0a4f28419497f9722a3daafe3b4186f6b6457e060405160405180910390a3806000806101000a81548173ffffffffffffffffffffffffffffffffffffffff021916908373ffffffffffffffffffffffffffffffffffffffff16021790555050565b6127b66129e3565b73ffffffffffffffffffffffffffffffffffffffff166127d4611af8565b73ffffffffffffffffffffffffffffffffffffffff161461282a576040517f08c379a000000000000000000000000000000000000000000000000000000000815260040161282190613d34565b60405180910390fd5b80600160006101000a81548173ffffffffffffffffffffffffffffffffffffffff021916908373ffffffffffffffffffffffffffffffffffffffff1602179055507f065fc3b77c68c383644c8d30a3e1f0df39d6f0ddc721adc950902574d599622b8160405161289a91906139b4565b60405180910390a150565b6000600280549050905090565b6128bb84612ac5565b600084600401549050600084600001549050600081111561291f576000856001015468056bc75e2d6310000084846128f39190613fa8565b6128fd9190613f77565b6129079190614002565b9050600081111561291d5761291c3382612c1e565b5b505b60008411156129b35782156129805761297f3330868960000160009054906101000a900473ffffffffffffffffffffffffffffffffffffffff1673ffffffffffffffffffffffffffffffffffffffff16612fa2909392919063ffffffff16565b5b838660050160008282546129949190613f21565b9250508190555083816129a79190613f21565b90508085600001819055505b68056bc75e2d6310000082826129c99190613fa8565b6129d39190613f77565b8560010181905550505050505050565b600033905090565b6000600280549050905060005b81811015612a3b57612a2a60028281548110612a1757612a1661422e565b5b9060005260206000209060060201612ac5565b80612a349061413e565b90506129f8565b5050565b612ac08363a9059cbb60e01b8484604051602401612a5e929190613b61565b604051602081830303815290604052907bffffffffffffffffffffffffffffffffffffffffffffffffffffffff19166020820180517bffffffffffffffffffffffffffffffffffffffffffffffffffffffff838183161783525050505061302b565b505050565b600081600301549050804311612adb5750612c1b565b6000826005015490506000811480612af7575060008360020154145b15612b0c574383600301819055505050612c1b565b60006005548460020154612b1e611960565b8543612b2a9190614002565b612b349190613fa8565b612b3e9190613fa8565b612b489190613f77565b90507f000000000000000000000000000000000000000000000000000000000000000073ffffffffffffffffffffffffffffffffffffffff166340c10f1930836040518363ffffffff1660e01b8152600401612ba5929190613b61565b600060405180830381600087803b158015612bbf57600080fd5b505af1158015612bd3573d6000803e3d6000fd5b505050508168056bc75e2d6310000082612bed9190613fa8565b612bf79190613f77565b8460040154612c069190613f21565b84600401819055504384600301819055505050505b50565b60007f000000000000000000000000000000000000000000000000000000000000000073ffffffffffffffffffffffffffffffffffffffff166370a08231306040518263ffffffff1660e01b8152600401612c7991906139b4565b60206040518083038186803b158015612c9157600080fd5b505afa158015612ca5573d6000803e3d6000fd5b505050506040513d601f19601f82011682018060405250810190612cc991906134d4565b905080821115612d86577f000000000000000000000000000000000000000000000000000000000000000073ffffffffffffffffffffffffffffffffffffffff1663a9059cbb84836040518363ffffffff1660e01b8152600401612d2e929190613b61565b602060405180830381600087803b158015612d4857600080fd5b505af1158015612d5c573d6000803e3d6000fd5b505050506040513d601f19601f82011682018060405250810190612d80919061347a565b50612e35565b7f000000000000000000000000000000000000000000000000000000000000000073ffffffffffffffffffffffffffffffffffffffff1663a9059cbb84846040518363ffffffff1660e01b8152600401612de1929190613b61565b602060405180830381600087803b158015612dfb57600080fd5b505af1158015612e0f573d6000803e3d6000fd5b505050506040513d601f19601f82011682018060405250810190612e33919061347a565b505b505050565b60008360000154905082811015612e86576040517f08c379a0000000000000000000000000000000000000000000000000000000008152600401612e7d90613d54565b60405180910390fd5b612e8f85612ac5565b6000856004015490506000856001015468056bc75e2d631000008385612eb59190613fa8565b612ebf9190613f77565b612ec99190614002565b90506000811115612edf57612ede3382612c1e565b5b6000851115612f715784876005016000828254612efc9190614002565b925050819055508483612f0f9190614002565b92508286600001819055508315612f7057612f6f33868960000160009054906101000a900473ffffffffffffffffffffffffffffffffffffffff1673ffffffffffffffffffffffffffffffffffffffff16612a3f9092919063ffffffff16565b5b5b68056bc75e2d631000008284612f879190613fa8565b612f919190613f77565b866001018190555050505050505050565b613025846323b872dd60e01b858585604051602401612fc3939291906139cf565b604051602081830303815290604052907bffffffffffffffffffffffffffffffffffffffffffffffffffffffff19166020820180517bffffffffffffffffffffffffffffffffffffffffffffffffffffffff838183161783525050505061302b565b50505050565b600061308d826040518060400160405280602081526020017f5361666545524332303a206c6f772d6c6576656c2063616c6c206661696c65648152508573ffffffffffffffffffffffffffffffffffffffff166130f29092919063ffffffff16565b90506000815111156130ed57808060200190518101906130ad919061347a565b6130ec576040517f08c379a00000000000000000000000000000000000000000000000000000000081526004016130e390613db4565b60405180910390fd5b5b505050565b6060613101848460008561310a565b90509392505050565b60608247101561314f576040517f08c379a000000000000000000000000000000000000000000000000000000000815260040161314690613c94565b60405180910390fd5b6131588561321e565b613197576040517f08c379a000000000000000000000000000000000000000000000000000000000815260040161318e90613d94565b60405180910390fd5b6000808673ffffffffffffffffffffffffffffffffffffffff1685876040516131c0919061399d565b60006040518083038185875af1925050503d80600081146131fd576040519150601f19603f3d011682016040523d82523d6000602084013e613202565b606091505b5091509150613212828286613231565b92505050949350505050565b600080823b905060008111915050919050565b6060831561324157829050613291565b6000835111156132545782518084602001fd5b816040517f08c379a00000000000000000000000000000000000000000000000000000000081526004016132889190613c12565b60405180910390fd5b9392505050565b6000813590506132a7816146ab565b92915050565b6000815190506132bc816146ab565b92915050565b6000813590506132d1816146c2565b92915050565b6000815190506132e6816146c2565b92915050565b6000813590506132fb816146d9565b92915050565b600081359050613310816146f0565b92915050565b600081519050613325816146f0565b92915050565b60008135905061333a81614707565b92915050565b6000602082840312156133565761335561425d565b5b600061336484828501613298565b91505092915050565b60008060008060008060c0878903121561338a5761338961425d565b5b600061339889828a01613298565b96505060206133a989828a016132c2565b95505060406133ba89828a016132c2565b94505060606133cb89828a01613298565b93505060806133dc89828a0161332b565b92505060a06133ed89828a01613301565b9150509295509295509295565b600080604083850312156134115761341061425d565b5b600061341f85828601613298565b925050602061343085828601613301565b9150509250929050565b600080604083850312156134515761345061425d565b5b600061345f858286016132ad565b925050602061347085828601613316565b9150509250929050565b6000602082840312156134905761348f61425d565b5b600061349e848285016132d7565b91505092915050565b6000602082840312156134bd576134bc61425d565b5b60006134cb84828501613301565b91505092915050565b6000602082840312156134ea576134e961425d565b5b60006134f884828501613316565b91505092915050565b600080604083850312156135185761351761425d565b5b600061352685828601613301565b925050602061353785828601613301565b9150509250929050565b60008060006060848603121561355a5761355961425d565b5b600061356886828701613301565b935050602061357986828701613301565b925050604061358a86828701613301565b9150509250925092565b600080600080600080600060e0888a0312156135b3576135b261425d565b5b60006135c18a828b01613301565b97505060206135d28a828b01613301565b96505060406135e38a828b01613301565b95505060606135f48a828b01613301565b94505060806136058a828b0161332b565b93505060a06136168a828b016132ec565b92505060c06136278a828b016132ec565b91505092959891949750929550565b61363f81614036565b82525050565b61364e81614048565b82525050565b61365d81614054565b82525050565b600061366e82613eef565b6136788185613f05565b935061368881856020860161410b565b80840191505092915050565b61369d8161409f565b82525050565b6136ac816140c3565b82525050565b6136bb816140e7565b82525050565b6136ca8161405e565b82525050565b60006136db82613efa565b6136e58185613f10565b93506136f581856020860161410b565b6136fe81614262565b840191505092915050565b6000613716602683613f10565b915061372182614273565b604082019050919050565b6000613739601b83613f10565b9150613744826142c2565b602082019050919050565b600061375c602483613f10565b9150613767826142eb565b604082019050919050565b600061377f602683613f10565b915061378a8261433a565b604082019050919050565b60006137a2601f83613f10565b91506137ad82614389565b602082019050919050565b60006137c5601c83613f10565b91506137d0826143b2565b602082019050919050565b60006137e8602583613f10565b91506137f3826143db565b604082019050919050565b600061380b601b83613f10565b91506138168261442a565b602082019050919050565b600061382e602083613f10565b915061383982614453565b602082019050919050565b6000613851601e83613f10565b915061385c8261447c565b602082019050919050565b6000613874602283613f10565b915061387f826144a5565b604082019050919050565b6000613897601d83613f10565b91506138a2826144f4565b602082019050919050565b60006138ba602a83613f10565b91506138c58261451d565b604082019050919050565b60006138dd602183613f10565b91506138e88261456c565b604082019050919050565b6000613900602283613f10565b915061390b826145bb565b604082019050919050565b6000613923602683613f10565b915061392e8261460a565b604082019050919050565b6000613946601d83613f10565b915061395182614659565b602082019050919050565b6000613969601d83613f10565b915061397482614682565b602082019050919050565b61398881614088565b82525050565b61399781614092565b82525050565b60006139a98284613663565b915081905092915050565b60006020820190506139c96000830184613636565b92915050565b60006060820190506139e46000830186613636565b6139f16020830185613636565b6139fe604083018461397f565b949350505050565b600060e082019050613a1b600083018a613636565b613a286020830189613636565b613a35604083018861397f565b613a42606083018761397f565b613a4f608083018661398e565b613a5c60a0830185613654565b613a6960c0830184613654565b98975050505050505050565b6000608082019050613a8a6000830187613636565b613a976020830186613636565b613aa4604083018561398e565b613ab1606083018461397f565b95945050505050565b600061010082019050613ad0600083018b613636565b613add602083018a613645565b613aea60408301896136b2565b613af7606083018861398e565b613b04608083018761397f565b613b1160a083018661397f565b613b1e60c083018561397f565b613b2b60e083018461397f565b9998505050505050505050565b6000604082019050613b4d6000830185613636565b613b5a60208301846136c1565b9392505050565b6000604082019050613b766000830185613636565b613b83602083018461397f565b9392505050565b6000606082019050613b9f6000830186613636565b613bac602083018561397f565b613bb9604083018461397f565b949350505050565b6000602082019050613bd66000830184613645565b92915050565b6000602082019050613bf16000830184613694565b92915050565b6000602082019050613c0c60008301846136a3565b92915050565b60006020820190508181036000830152613c2c81846136d0565b905092915050565b60006020820190508181036000830152613c4d81613709565b9050919050565b60006020820190508181036000830152613c6d8161372c565b9050919050565b60006020820190508181036000830152613c8d8161374f565b9050919050565b60006020820190508181036000830152613cad81613772565b9050919050565b60006020820190508181036000830152613ccd81613795565b9050919050565b60006020820190508181036000830152613ced816137b8565b9050919050565b60006020820190508181036000830152613d0d816137db565b9050919050565b60006020820190508181036000830152613d2d816137fe565b9050919050565b60006020820190508181036000830152613d4d81613821565b9050919050565b60006020820190508181036000830152613d6d81613844565b9050919050565b60006020820190508181036000830152613d8d81613867565b9050919050565b60006020820190508181036000830152613dad8161388a565b9050919050565b60006020820190508181036000830152613dcd816138ad565b9050919050565b60006020820190508181036000830152613ded816138d0565b9050919050565b60006020820190508181036000830152613e0d816138f3565b9050919050565b60006020820190508181036000830152613e2d81613916565b9050919050565b60006020820190508181036000830152613e4d81613939565b9050919050565b60006020820190508181036000830152613e6d8161395c565b9050919050565b6000602082019050613e89600083018461397f565b92915050565b6000606082019050613ea4600083018661397f565b613eb16020830185613636565b613ebe604083018461398e565b949350505050565b6000604082019050613edb600083018561397f565b613ee8602083018461397f565b9392505050565b600081519050919050565b600081519050919050565b600081905092915050565b600082825260208201905092915050565b6000613f2c82614088565b9150613f3783614088565b9250827fffffffffffffffffffffffffffffffffffffffffffffffffffffffffffffffff03821115613f6c57613f6b6141d0565b5b828201905092915050565b6000613f8282614088565b9150613f8d83614088565b925082613f9d57613f9c6141ff565b5b828204905092915050565b6000613fb382614088565b9150613fbe83614088565b9250817fffffffffffffffffffffffffffffffffffffffffffffffffffffffffffffffff0483118215151615613ff757613ff66141d0565b5b828202905092915050565b600061400d82614088565b915061401883614088565b92508282101561402b5761402a6141d0565b5b828203905092915050565b600061404182614068565b9050919050565b60008115159050919050565b6000819050919050565b6000819050919050565b600073ffffffffffffffffffffffffffffffffffffffff82169050919050565b6000819050919050565b600060ff82169050919050565b60006140aa826140b1565b9050919050565b60006140bc82614068565b9050919050565b60006140ce826140d5565b9050919050565b60006140e082614068565b9050919050565b60006140f2826140f9565b9050919050565b600061410482614068565b9050919050565b60005b8381101561412957808201518184015260208101905061410e565b83811115614138576000848401525b50505050565b600061414982614088565b91507fffffffffffffffffffffffffffffffffffffffffffffffffffffffffffffffff82141561417c5761417b6141d0565b5b600182019050919050565b60006141928261405e565b91507f80000000000000000000000000000000000000000000000000000000000000008214156141c5576141c46141d0565b5b816000039050919050565b7f4e487b7100000000000000000000000000000000000000000000000000000000600052601160045260246000fd5b7f4e487b7100000000000000000000000000000000000000000000000000000000600052601260045260246000fd5b7f4e487b7100000000000000000000000000000000000000000000000000000000600052603260045260246000fd5b600080fd5b6000601f19601f8301169050919050565b7f4f776e61626c653a206e6577206f776e657220697320746865207a65726f206160008201527f6464726573730000000000000000000000000000000000000000000000000000602082015250565b7f5468654d61737465723a20757365206465706f7369742066756e630000000000600082015250565b7f5468654d61737465723a206f757472616e67656420737570706f7274696e675260008201527f6174696f00000000000000000000000000000000000000000000000000000000602082015250565b7f416464726573733a20696e73756666696369656e742062616c616e636520666f60008201527f722063616c6c0000000000000000000000000000000000000000000000000000602082015250565b7f5468654d61737465723a206e6f7420737570706f727461626c6520706f6f6c00600082015250565b7f5468654d61737465723a207573652077697468647261772066756e6300000000600082015250565b7f5468654d61737465723a2075736520656d657267656e6379576974686472617760008201527f2066756e63000000000000000000000000000000000000000000000000000000602082015250565b7f5468654d61737465723a2075736520737570706f72742066756e630000000000600082015250565b7f4f776e61626c653a2063616c6c6572206973206e6f7420746865206f776e6572600082015250565b7f5468654d61737465723a20496e73756666696369656e7420616d6f756e740000600082015250565b7f5468654d61737465723a2063616c6c65642066726f6d20756e2d6d696e74616260008201527f6c65000000000000000000000000000000000000000000000000000000000000602082015250565b7f416464726573733a2063616c6c20746f206e6f6e2d636f6e7472616374000000600082015250565b7f5361666545524332303a204552433230206f7065726174696f6e20646964206e60008201527f6f74207375636365656400000000000000000000000000000000000000000000602082015250565b7f5468654d61737465723a204e6f742063616c6c65642062792064656c6567617460008201527f6500000000000000000000000000000000000000000000000000000000000000602082015250565b7f5468654d61737465723a206465706f73697420746f20796f757220616464726560008201527f7373000000000000000000000000000000000000000000000000000000000000602082015250565b7f5468654d61737465723a20506f6f6c2073686f756c64206265206e6f6e2d646560008201527f6c65676174650000000000000000000000000000000000000000000000000000602082015250565b7f5468654d61737465723a204e6f742063616c6c65642062792075736572000000600082015250565b7f5468654d61737465723a20757365206465737570706f72742066756e63000000600082015250565b6146b481614036565b81146146bf57600080fd5b50565b6146cb81614048565b81146146d657600080fd5b50565b6146e281614054565b81146146ed57600080fd5b50565b6146f981614088565b811461470457600080fd5b50565b61471081614092565b811461471b57600080fd5b5056fea2646970667358221220c865a790d0427da57fe4c6ab5c6a4e029ef9c5aeed4806dae72f4dda6d7eaf2964736f6c63430008050033",
    "linkReferences": {},
    "deployedLinkReferences": {}
}